{
  "_format": "hh-sol-artifact-1",
  "contractName": "PointsGranter",
  "sourceName": "contracts/points/PointsGranter.sol",
  "abi": [
    {
      "inputs": [
        {
          "internalType": "address",
          "name": "target",
          "type": "address"
        }
      ],
      "name": "AddressEmptyCode",
      "type": "error"
    },
    {
      "inputs": [
        {
          "internalType": "address",
          "name": "implementation",
          "type": "address"
        }
      ],
      "name": "ERC1967InvalidImplementation",
      "type": "error"
    },
    {
      "inputs": [],
      "name": "ERC1967NonPayable",
      "type": "error"
    },
    {
      "inputs": [],
      "name": "FailedCall",
      "type": "error"
    },
    {
      "inputs": [],
      "name": "InvalidInitialization",
      "type": "error"
    },
    {
      "inputs": [],
      "name": "NotInitializing",
      "type": "error"
    },
    {
      "inputs": [
        {
          "internalType": "address",
          "name": "owner",
          "type": "address"
        }
      ],
      "name": "OwnableInvalidOwner",
      "type": "error"
    },
    {
      "inputs": [
        {
          "internalType": "address",
          "name": "account",
          "type": "address"
        }
      ],
      "name": "OwnableUnauthorizedAccount",
      "type": "error"
    },
    {
      "inputs": [],
      "name": "UUPSUnauthorizedCallContext",
      "type": "error"
    },
    {
      "inputs": [
        {
          "internalType": "bytes32",
          "name": "slot",
          "type": "bytes32"
        }
      ],
      "name": "UUPSUnsupportedProxiableUUID",
      "type": "error"
    },
    {
      "anonymous": false,
      "inputs": [
        {
          "indexed": false,
          "internalType": "uint64",
          "name": "version",
          "type": "uint64"
        }
      ],
      "name": "Initialized",
      "type": "event"
    },
    {
      "anonymous": false,
      "inputs": [
        {
          "indexed": true,
          "internalType": "address",
          "name": "previousOwner",
          "type": "address"
        },
        {
          "indexed": true,
          "internalType": "address",
          "name": "newOwner",
          "type": "address"
        }
      ],
      "name": "OwnershipTransferred",
      "type": "event"
    },
    {
      "anonymous": false,
      "inputs": [
        {
          "indexed": true,
          "internalType": "address",
          "name": "user",
          "type": "address"
        },
        {
          "indexed": false,
          "internalType": "uint256",
          "name": "amount",
          "type": "uint256"
        },
        {
          "indexed": false,
          "internalType": "uint8",
          "name": "reason",
          "type": "uint8"
        },
        {
          "indexed": false,
          "internalType": "uint64",
          "name": "contextTs",
          "type": "uint64"
        }
      ],
      "name": "PointsGranted",
      "type": "event"
    },
    {
      "anonymous": false,
      "inputs": [
        {
          "indexed": true,
          "internalType": "address",
          "name": "implementation",
          "type": "address"
        }
      ],
      "name": "Upgraded",
      "type": "event"
    },
    {
      "inputs": [],
      "name": "UPGRADE_INTERFACE_VERSION",
      "outputs": [
        {
          "internalType": "string",
          "name": "",
          "type": "string"
        }
      ],
      "stateMutability": "view",
      "type": "function"
    },
    {
      "inputs": [
        {
          "internalType": "address[]",
          "name": "users",
          "type": "address[]"
        },
        {
          "internalType": "uint256[]",
          "name": "amounts",
          "type": "uint256[]"
        },
        {
          "internalType": "uint8[]",
          "name": "reasons",
          "type": "uint8[]"
        },
        {
          "internalType": "uint64[]",
          "name": "contextTs",
          "type": "uint64[]"
        }
      ],
      "name": "batchGrantPoints",
      "outputs": [],
      "stateMutability": "nonpayable",
      "type": "function"
    },
    {
      "inputs": [
        {
          "internalType": "address",
          "name": "user",
          "type": "address"
        },
        {
          "internalType": "uint256",
          "name": "amount",
          "type": "uint256"
        },
        {
          "internalType": "uint8",
          "name": "reason",
          "type": "uint8"
        },
        {
          "internalType": "uint64",
          "name": "contextTs",
          "type": "uint64"
        }
      ],
      "name": "grantPoints",
      "outputs": [],
      "stateMutability": "nonpayable",
      "type": "function"
    },
    {
      "inputs": [
        {
          "internalType": "address",
          "name": "initialOwner",
          "type": "address"
        }
      ],
      "name": "initialize",
      "outputs": [],
      "stateMutability": "nonpayable",
      "type": "function"
    },
    {
      "inputs": [],
      "name": "owner",
      "outputs": [
        {
          "internalType": "address",
          "name": "",
          "type": "address"
        }
      ],
      "stateMutability": "view",
      "type": "function"
    },
    {
      "inputs": [],
      "name": "proxiableUUID",
      "outputs": [
        {
          "internalType": "bytes32",
          "name": "",
          "type": "bytes32"
        }
      ],
      "stateMutability": "view",
      "type": "function"
    },
    {
      "inputs": [],
      "name": "renounceOwnership",
      "outputs": [],
      "stateMutability": "nonpayable",
      "type": "function"
    },
    {
      "inputs": [
        {
          "internalType": "address",
          "name": "newOwner",
          "type": "address"
        }
      ],
      "name": "transferOwnership",
      "outputs": [],
      "stateMutability": "nonpayable",
      "type": "function"
    },
    {
      "inputs": [
        {
          "internalType": "address",
          "name": "newImplementation",
          "type": "address"
        },
        {
          "internalType": "bytes",
          "name": "data",
          "type": "bytes"
        }
      ],
      "name": "upgradeToAndCall",
      "outputs": [],
      "stateMutability": "payable",
      "type": "function"
    }
  ],
  "bytecode": "0x60a0806040523461002a5730608052610b1c908161003082396080518181816105e901526106c80152f35b600080fdfe60406080815260048036101561001457600080fd5b600091823560e01c9182634f1ef2861461064d57826352d1902d146105d45782636c9c8828146104e9578263715018a61461047f57826376f21472146102ce5782638da5cb5b14610294578263ad3cb1cc146101f4578263c4d66de8146100b557505063f2fde38b1461008657600080fd5b346100b25760203660031901126100b2576100af6100a26108af565b6100aa6109e9565b610975565b80f35b80fd5b909150346101f05760203660031901126101f0576100d16108af565b907ff0c57e16840df040f15088dc2f81fe391c3923bec73e23a9662efc9c229c6a0091825460ff81861c16159267ffffffffffffffff8216801590816101e8575b60011490816101de575b1590816101d5575b506101c7575067ffffffffffffffff19811660011784556101579190836101a8575b5061014f610a22565b6100aa610a22565b61015f610a22565b610167578280f35b805468ff00000000000000001916905551600181527fc7f505b2f371ae2175ee4913f4499e1f2633a7b5936321eed1cdaeb6115181d290602090a138808280f35b68ffffffffffffffffff19166801000000000000000117845538610146565b855163f92ee8a960e01b8152fd5b90501538610124565b303b15915061011c565b859150610112565b8280fd5b909150346101f057826003193601126101f0578151908282019082821067ffffffffffffffff8311176102815750825260058152602090640352e302e360dc1b6020820152825193849260208452825192836020860152825b84811061026b57505050828201840152601f01601f19168101030190f35b818101830151888201880152879550820161024d565b634e487b7160e01b855260419052602484fd5b8382346102ca57816003193601126102ca57600080516020610ac78339815191525490516001600160a01b039091168152602090f35b5080fd5b9150346101f05760803660031901126101f05767ffffffffffffffff90823582811161047b57610301903690850161091e565b9190926024358181116104775761031b903690870161091e565b92909360443583811161047357610335903690890161091e565b909460643585811161046f5761034e9036908b0161091e565b9390996103596109e9565b82821480610466575b8061045d575b1561042b57508a5b81811061037b578b80f35b61038681838c61094f565b356001600160a01b0381169190829003610427576103a581858c61094f565b35916103b282878c61094f565b3560ff81168103610423576103c9838f8a9061094f565b35908a8216820361041f57895194855260ff16602085015267ffffffffffffffff1660408401526001927f050abf3ae18f9946316c27b06d26486c68efcad0df617c3b3a66812122413cfb90606090a201610370565b8f80fd5b8e80fd5b8c80fd5b606490602087519162461bcd60e51b8352820152600c60248201526b0988a9cbe9a92a69a82a886960a31b6044820152fd5b50848214610368565b50838214610362565b8a80fd5b8880fd5b8680fd5b8480fd5b83346100b257806003193601126100b2576104986109e9565b600080516020610ac783398151915280546001600160a01b0319811690915581906001600160a01b03167f8be0079c531659141344cd1fd0a4f28419497f9722a3daafe3b4186f6b6457e08280a380f35b8390346102ca5760803660031901126102ca576105046108af565b6024356044359160ff8316830361047b576064359067ffffffffffffffff821682036105d0576105326109e9565b6001600160a01b031693841515806105c7575b156105975750945190815260ff91909116602082015267ffffffffffffffff909316604084015290917f050abf3ae18f9946316c27b06d26486c68efcad0df617c3b3a66812122413cfb90606090a280f35b606490602088519162461bcd60e51b8352820152600a6024820152694241445f504152414d5360b01b6044820152fd5b50821515610545565b8580fd5b9083346100b257806003193601126100b257507f00000000000000000000000000000000000000000000000000000000000000006001600160a01b0316300361064057602090517f360894a13ba1a3210667c828492db98dca3e2076cc3735a920a3ca505d382bbc8152f35b5163703e46dd60e11b8152fd5b9150806003193601126101f0576106626108af565b90602493843567ffffffffffffffff81116102ca57366023820112156102ca578085013561068f81610902565b9461069c855196876108ca565b81865260209182870193368a83830101116105d0578186928b8693018737880101526001600160a01b037f00000000000000000000000000000000000000000000000000000000000000008116308114908115610881575b50610871576107016109e9565b81169585516352d1902d60e01b815283818a818b5afa869181610842575b5061073b575050505050505191634c9c8ce360e01b8352820152fd5b9088888894938c7f360894a13ba1a3210667c828492db98dca3e2076cc3735a920a3ca505d382bbc9182810361082d5750853b15610819575080546001600160a01b031916821790558451889392917fbc7cd75a20ee27fd9adebab32041f755214dbc6bffa90cc0225b39da2e5c2d3b8580a28251156107fb5750506107ed9582915190845af4913d156107f1573d6107df6107d682610902565b925192836108ca565b81528581943d92013e610a63565b5080f35b5060609250610a63565b95509550505050503461080d57505080f35b63b398979f60e01b8152fd5b8651634c9c8ce360e01b8152808501849052fd5b8751632a87526960e21b815280860191909152fd5b9091508481813d831161086a575b61085a81836108ca565b810103126104775751903861071f565b503d610850565b855163703e46dd60e11b81528890fd5b9050817f360894a13ba1a3210667c828492db98dca3e2076cc3735a920a3ca505d382bbc54161415386106f4565b600435906001600160a01b03821682036108c557565b600080fd5b90601f8019910116810190811067ffffffffffffffff8211176108ec57604052565b634e487b7160e01b600052604160045260246000fd5b67ffffffffffffffff81116108ec57601f01601f191660200190565b9181601f840112156108c55782359167ffffffffffffffff83116108c5576020808501948460051b0101116108c557565b919081101561095f5760051b0190565b634e487b7160e01b600052603260045260246000fd5b6001600160a01b039081169081156109d057600080516020610ac783398151915280546001600160a01b031981168417909155167f8be0079c531659141344cd1fd0a4f28419497f9722a3daafe3b4186f6b6457e0600080a3565b604051631e4fbdf760e01b815260006004820152602490fd5b600080516020610ac7833981519152546001600160a01b03163303610a0a57565b60405163118cdaa760e01b8152336004820152602490fd5b60ff7ff0c57e16840df040f15088dc2f81fe391c3923bec73e23a9662efc9c229c6a005460401c1615610a5157565b604051631afcd79f60e31b8152600490fd5b90610a8a5750805115610a7857805190602001fd5b60405163d6bda27560e01b8152600490fd5b81511580610abd575b610a9b575090565b604051639996b31560e01b81526001600160a01b039091166004820152602490fd5b50803b15610a9356fe9016d09d72d40fdae2fd8ceac6b6234c7706214fd39c1cd1e609a0528c199300a264697066735822122099a424d327632a6603c3a7ce542a0fda2e3475d1df983a0afa8dd134d430680164736f6c63430008180033",
  "linkReferences": {},
  "deployedLinkReferences": {}
}