{
  "_format": "hh-sol-artifact-1",
  "contractName": "CLMSRMarketCore",
  "sourceName": "contracts/core/CLMSRMarketCore.sol",
  "abi": [
    {
      "inputs": [
        {
          "internalType": "address",
          "name": "target",
          "type": "address"
        }
      ],
      "name": "AddressEmptyCode",
      "type": "error"
    },
    {
      "inputs": [],
      "name": "AffectedSumZero",
      "type": "error"
    },
    {
      "inputs": [],
      "name": "ArrayLengthMismatch",
      "type": "error"
    },
    {
      "inputs": [
        {
          "internalType": "uint32",
          "name": "requested",
          "type": "uint32"
        },
        {
          "internalType": "uint32",
          "name": "maxAllowed",
          "type": "uint32"
        }
      ],
      "name": "BinCountExceedsLimit",
      "type": "error"
    },
    {
      "inputs": [
        {
          "internalType": "uint32",
          "name": "bin",
          "type": "uint32"
        },
        {
          "internalType": "uint32",
          "name": "numBins",
          "type": "uint32"
        }
      ],
      "name": "BinOutOfBounds",
      "type": "error"
    },
    {
      "inputs": [
        {
          "internalType": "uint256",
          "name": "required",
          "type": "uint256"
        },
        {
          "internalType": "uint256",
          "name": "maxAllowed",
          "type": "uint256"
        }
      ],
      "name": "ChunkLimitExceeded",
      "type": "error"
    },
    {
      "inputs": [
        {
          "internalType": "uint256",
          "name": "cost",
          "type": "uint256"
        },
        {
          "internalType": "uint256",
          "name": "maxAllowed",
          "type": "uint256"
        }
      ],
      "name": "CostExceedsMaximum",
      "type": "error"
    },
    {
      "inputs": [
        {
          "internalType": "address",
          "name": "implementation",
          "type": "address"
        }
      ],
      "name": "ERC1967InvalidImplementation",
      "type": "error"
    },
    {
      "inputs": [],
      "name": "ERC1967NonPayable",
      "type": "error"
    },
    {
      "inputs": [],
      "name": "EnforcedPause",
      "type": "error"
    },
    {
      "inputs": [],
      "name": "ExpectedPause",
      "type": "error"
    },
    {
      "inputs": [],
      "name": "FactorOutOfBounds",
      "type": "error"
    },
    {
      "inputs": [],
      "name": "FailedCall",
      "type": "error"
    },
    {
      "inputs": [],
      "name": "IncompleteChunkProcessing",
      "type": "error"
    },
    {
      "inputs": [
        {
          "internalType": "uint32",
          "name": "index",
          "type": "uint32"
        },
        {
          "internalType": "uint32",
          "name": "size",
          "type": "uint32"
        }
      ],
      "name": "IndexOutOfBounds",
      "type": "error"
    },
    {
      "inputs": [
        {
          "internalType": "address",
          "name": "account",
          "type": "address"
        },
        {
          "internalType": "uint256",
          "name": "required",
          "type": "uint256"
        },
        {
          "internalType": "uint256",
          "name": "available",
          "type": "uint256"
        }
      ],
      "name": "InsufficientBalance",
      "type": "error"
    },
    {
      "inputs": [
        {
          "internalType": "uint128",
          "name": "want",
          "type": "uint128"
        },
        {
          "internalType": "uint128",
          "name": "have",
          "type": "uint128"
        }
      ],
      "name": "InsufficientPositionQuantity",
      "type": "error"
    },
    {
      "inputs": [
        {
          "internalType": "uint256",
          "name": "factor",
          "type": "uint256"
        }
      ],
      "name": "InvalidFactor",
      "type": "error"
    },
    {
      "inputs": [],
      "name": "InvalidInitialization",
      "type": "error"
    },
    {
      "inputs": [],
      "name": "InvalidLiquidityParameter",
      "type": "error"
    },
    {
      "inputs": [
        {
          "internalType": "int256",
          "name": "minTick",
          "type": "int256"
        },
        {
          "internalType": "int256",
          "name": "maxTick",
          "type": "int256"
        },
        {
          "internalType": "int256",
          "name": "tickSpacing",
          "type": "int256"
        }
      ],
      "name": "InvalidMarketParameters",
      "type": "error"
    },
    {
      "inputs": [
        {
          "internalType": "uint128",
          "name": "qty",
          "type": "uint128"
        }
      ],
      "name": "InvalidQuantity",
      "type": "error"
    },
    {
      "inputs": [
        {
          "internalType": "uint32",
          "name": "lo",
          "type": "uint32"
        },
        {
          "internalType": "uint32",
          "name": "hi",
          "type": "uint32"
        }
      ],
      "name": "InvalidRange",
      "type": "error"
    },
    {
      "inputs": [
        {
          "internalType": "uint32",
          "name": "lowerBin",
          "type": "uint32"
        },
        {
          "internalType": "uint32",
          "name": "upperBin",
          "type": "uint32"
        }
      ],
      "name": "InvalidRangeBins",
      "type": "error"
    },
    {
      "inputs": [
        {
          "internalType": "int256",
          "name": "ranges",
          "type": "int256"
        },
        {
          "internalType": "uint256",
          "name": "maxAllowed",
          "type": "uint256"
        }
      ],
      "name": "InvalidRangeCount",
      "type": "error"
    },
    {
      "inputs": [
        {
          "internalType": "int256",
          "name": "tick",
          "type": "int256"
        },
        {
          "internalType": "int256",
          "name": "minTick",
          "type": "int256"
        },
        {
          "internalType": "int256",
          "name": "maxTick",
          "type": "int256"
        }
      ],
      "name": "InvalidTick",
      "type": "error"
    },
    {
      "inputs": [
        {
          "internalType": "int256",
          "name": "lowerTick",
          "type": "int256"
        },
        {
          "internalType": "int256",
          "name": "upperTick",
          "type": "int256"
        }
      ],
      "name": "InvalidTickRange",
      "type": "error"
    },
    {
      "inputs": [
        {
          "internalType": "int256",
          "name": "tick",
          "type": "int256"
        },
        {
          "internalType": "int256",
          "name": "tickSpacing",
          "type": "int256"
        }
      ],
      "name": "InvalidTickSpacing",
      "type": "error"
    },
    {
      "inputs": [],
      "name": "InvalidTimeRange",
      "type": "error"
    },
    {
      "inputs": [
        {
          "internalType": "uint8",
          "name": "provided",
          "type": "uint8"
        },
        {
          "internalType": "uint8",
          "name": "expected",
          "type": "uint8"
        }
      ],
      "name": "InvalidTokenDecimals",
      "type": "error"
    },
    {
      "inputs": [],
      "name": "LazyFactorOverflow",
      "type": "error"
    },
    {
      "inputs": [],
      "name": "ManagerNotSet",
      "type": "error"
    },
    {
      "inputs": [
        {
          "internalType": "uint256",
          "name": "marketId",
          "type": "uint256"
        }
      ],
      "name": "MarketAlreadyExists",
      "type": "error"
    },
    {
      "inputs": [
        {
          "internalType": "uint256",
          "name": "marketId",
          "type": "uint256"
        }
      ],
      "name": "MarketAlreadySettled",
      "type": "error"
    },
    {
      "inputs": [],
      "name": "MarketExpired",
      "type": "error"
    },
    {
      "inputs": [],
      "name": "MarketNotActive",
      "type": "error"
    },
    {
      "inputs": [
        {
          "internalType": "uint256",
          "name": "marketId",
          "type": "uint256"
        }
      ],
      "name": "MarketNotFound",
      "type": "error"
    },
    {
      "inputs": [
        {
          "internalType": "uint256",
          "name": "marketId",
          "type": "uint256"
        }
      ],
      "name": "MarketNotSettled",
      "type": "error"
    },
    {
      "inputs": [],
      "name": "MarketNotStarted",
      "type": "error"
    },
    {
      "inputs": [],
      "name": "MathMulOverflow",
      "type": "error"
    },
    {
      "inputs": [],
      "name": "NoChunkProgress",
      "type": "error"
    },
    {
      "inputs": [
        {
          "internalType": "uint256",
          "name": "beforeSum",
          "type": "uint256"
        },
        {
          "internalType": "uint256",
          "name": "afterSum",
          "type": "uint256"
        }
      ],
      "name": "NonIncreasingSum",
      "type": "error"
    },
    {
      "inputs": [],
      "name": "NotInitializing",
      "type": "error"
    },
    {
      "inputs": [
        {
          "internalType": "address",
          "name": "owner",
          "type": "address"
        }
      ],
      "name": "OwnableInvalidOwner",
      "type": "error"
    },
    {
      "inputs": [
        {
          "internalType": "address",
          "name": "account",
          "type": "address"
        }
      ],
      "name": "OwnableUnauthorizedAccount",
      "type": "error"
    },
    {
      "inputs": [
        {
          "internalType": "uint256",
          "name": "positionId",
          "type": "uint256"
        }
      ],
      "name": "PositionNotFound",
      "type": "error"
    },
    {
      "inputs": [
        {
          "internalType": "uint256",
          "name": "proceeds",
          "type": "uint256"
        },
        {
          "internalType": "uint256",
          "name": "minProceeds",
          "type": "uint256"
        }
      ],
      "name": "ProceedsBelowMinimum",
      "type": "error"
    },
    {
      "inputs": [],
      "name": "QuantityOverflow",
      "type": "error"
    },
    {
      "inputs": [
        {
          "internalType": "int256",
          "name": "bin",
          "type": "int256"
        },
        {
          "internalType": "uint32",
          "name": "numBins",
          "type": "uint32"
        }
      ],
      "name": "RangeBinOutOfBounds",
      "type": "error"
    },
    {
      "inputs": [
        {
          "internalType": "uint32",
          "name": "lowerBin",
          "type": "uint32"
        },
        {
          "internalType": "uint32",
          "name": "upperBin",
          "type": "uint32"
        },
        {
          "internalType": "uint32",
          "name": "numBins",
          "type": "uint32"
        }
      ],
      "name": "RangeBinsOutOfBounds",
      "type": "error"
    },
    {
      "inputs": [],
      "name": "ReentrancyGuardReentrantCall",
      "type": "error"
    },
    {
      "inputs": [
        {
          "internalType": "uint256",
          "name": "remaining",
          "type": "uint256"
        }
      ],
      "name": "ResidualQuantity",
      "type": "error"
    },
    {
      "inputs": [
        {
          "internalType": "address",
          "name": "token",
          "type": "address"
        }
      ],
      "name": "SafeERC20FailedOperation",
      "type": "error"
    },
    {
      "inputs": [
        {
          "internalType": "uint64",
          "name": "requiredTimestamp",
          "type": "uint64"
        },
        {
          "internalType": "uint64",
          "name": "currentTimestamp",
          "type": "uint64"
        }
      ],
      "name": "SettlementTooEarly",
      "type": "error"
    },
    {
      "inputs": [],
      "name": "SumAfterZero",
      "type": "error"
    },
    {
      "inputs": [],
      "name": "TreeAlreadyInitialized",
      "type": "error"
    },
    {
      "inputs": [],
      "name": "TreeNotInitialized",
      "type": "error"
    },
    {
      "inputs": [],
      "name": "TreeSizeTooLarge",
      "type": "error"
    },
    {
      "inputs": [],
      "name": "TreeSizeZero",
      "type": "error"
    },
    {
      "inputs": [],
      "name": "UUPSUnauthorizedCallContext",
      "type": "error"
    },
    {
      "inputs": [
        {
          "internalType": "bytes32",
          "name": "slot",
          "type": "bytes32"
        }
      ],
      "name": "UUPSUnsupportedProxiableUUID",
      "type": "error"
    },
    {
      "inputs": [
        {
          "internalType": "address",
          "name": "caller",
          "type": "address"
        }
      ],
      "name": "UnauthorizedCaller",
      "type": "error"
    },
    {
      "inputs": [],
      "name": "ZeroAddress",
      "type": "error"
    },
    {
      "inputs": [],
      "name": "ZeroLimit",
      "type": "error"
    },
    {
      "anonymous": false,
      "inputs": [
        {
          "indexed": false,
          "internalType": "uint256",
          "name": "step",
          "type": "uint256"
        },
        {
          "indexed": false,
          "internalType": "uint256",
          "name": "value1",
          "type": "uint256"
        },
        {
          "indexed": false,
          "internalType": "uint256",
          "name": "value2",
          "type": "uint256"
        },
        {
          "indexed": false,
          "internalType": "string",
          "name": "message",
          "type": "string"
        }
      ],
      "name": "DebugSellProceeds",
      "type": "event"
    },
    {
      "anonymous": false,
      "inputs": [
        {
          "indexed": true,
          "internalType": "address",
          "name": "by",
          "type": "address"
        },
        {
          "indexed": false,
          "internalType": "string",
          "name": "reason",
          "type": "string"
        }
      ],
      "name": "EmergencyPaused",
      "type": "event"
    },
    {
      "anonymous": false,
      "inputs": [
        {
          "indexed": true,
          "internalType": "address",
          "name": "by",
          "type": "address"
        }
      ],
      "name": "EmergencyUnpaused",
      "type": "event"
    },
    {
      "anonymous": false,
      "inputs": [
        {
          "indexed": false,
          "internalType": "uint64",
          "name": "version",
          "type": "uint64"
        }
      ],
      "name": "Initialized",
      "type": "event"
    },
    {
      "anonymous": false,
      "inputs": [
        {
          "indexed": true,
          "internalType": "address",
          "name": "oldManager",
          "type": "address"
        },
        {
          "indexed": true,
          "internalType": "address",
          "name": "newManager",
          "type": "address"
        }
      ],
      "name": "ManagerUpdated",
      "type": "event"
    },
    {
      "anonymous": false,
      "inputs": [
        {
          "indexed": true,
          "internalType": "uint256",
          "name": "marketId",
          "type": "uint256"
        },
        {
          "indexed": false,
          "internalType": "uint64",
          "name": "startTimestamp",
          "type": "uint64"
        },
        {
          "indexed": false,
          "internalType": "uint64",
          "name": "endTimestamp",
          "type": "uint64"
        },
        {
          "indexed": false,
          "internalType": "int256",
          "name": "minTick",
          "type": "int256"
        },
        {
          "indexed": false,
          "internalType": "int256",
          "name": "maxTick",
          "type": "int256"
        },
        {
          "indexed": false,
          "internalType": "int256",
          "name": "tickSpacing",
          "type": "int256"
        },
        {
          "indexed": false,
          "internalType": "uint32",
          "name": "numBins",
          "type": "uint32"
        },
        {
          "indexed": false,
          "internalType": "uint256",
          "name": "liquidityParameter",
          "type": "uint256"
        }
      ],
      "name": "MarketCreated",
      "type": "event"
    },
    {
      "anonymous": false,
      "inputs": [
        {
          "indexed": true,
          "internalType": "uint256",
          "name": "marketId",
          "type": "uint256"
        }
      ],
      "name": "MarketReopened",
      "type": "event"
    },
    {
      "anonymous": false,
      "inputs": [
        {
          "indexed": true,
          "internalType": "uint256",
          "name": "marketId",
          "type": "uint256"
        },
        {
          "indexed": false,
          "internalType": "int256",
          "name": "settlementTick",
          "type": "int256"
        }
      ],
      "name": "MarketSettled",
      "type": "event"
    },
    {
      "anonymous": false,
      "inputs": [
        {
          "indexed": true,
          "internalType": "uint256",
          "name": "marketId",
          "type": "uint256"
        },
        {
          "indexed": false,
          "internalType": "int256",
          "name": "settlementValue",
          "type": "int256"
        }
      ],
      "name": "MarketSettlementValueSubmitted",
      "type": "event"
    },
    {
      "anonymous": false,
      "inputs": [
        {
          "indexed": true,
          "internalType": "uint256",
          "name": "marketId",
          "type": "uint256"
        },
        {
          "indexed": false,
          "internalType": "uint64",
          "name": "newStartTimestamp",
          "type": "uint64"
        },
        {
          "indexed": false,
          "internalType": "uint64",
          "name": "newEndTimestamp",
          "type": "uint64"
        }
      ],
      "name": "MarketTimingUpdated",
      "type": "event"
    },
    {
      "anonymous": false,
      "inputs": [
        {
          "indexed": true,
          "internalType": "address",
          "name": "previousOwner",
          "type": "address"
        },
        {
          "indexed": true,
          "internalType": "address",
          "name": "newOwner",
          "type": "address"
        }
      ],
      "name": "OwnershipTransferred",
      "type": "event"
    },
    {
      "anonymous": false,
      "inputs": [
        {
          "indexed": false,
          "internalType": "address",
          "name": "account",
          "type": "address"
        }
      ],
      "name": "Paused",
      "type": "event"
    },
    {
      "anonymous": false,
      "inputs": [
        {
          "indexed": true,
          "internalType": "uint256",
          "name": "positionId",
          "type": "uint256"
        },
        {
          "indexed": true,
          "internalType": "address",
          "name": "trader",
          "type": "address"
        },
        {
          "indexed": false,
          "internalType": "uint256",
          "name": "payout",
          "type": "uint256"
        }
      ],
      "name": "PositionClaimed",
      "type": "event"
    },
    {
      "anonymous": false,
      "inputs": [
        {
          "indexed": true,
          "internalType": "uint256",
          "name": "positionId",
          "type": "uint256"
        },
        {
          "indexed": true,
          "internalType": "address",
          "name": "trader",
          "type": "address"
        },
        {
          "indexed": false,
          "internalType": "uint256",
          "name": "proceeds",
          "type": "uint256"
        }
      ],
      "name": "PositionClosed",
      "type": "event"
    },
    {
      "anonymous": false,
      "inputs": [
        {
          "indexed": true,
          "internalType": "uint256",
          "name": "positionId",
          "type": "uint256"
        },
        {
          "indexed": true,
          "internalType": "address",
          "name": "trader",
          "type": "address"
        },
        {
          "indexed": false,
          "internalType": "uint128",
          "name": "sellQuantity",
          "type": "uint128"
        },
        {
          "indexed": false,
          "internalType": "uint128",
          "name": "newQuantity",
          "type": "uint128"
        },
        {
          "indexed": false,
          "internalType": "uint256",
          "name": "proceeds",
          "type": "uint256"
        }
      ],
      "name": "PositionDecreased",
      "type": "event"
    },
    {
      "anonymous": false,
      "inputs": [
        {
          "indexed": true,
          "internalType": "uint256",
          "name": "marketId",
          "type": "uint256"
        },
        {
          "indexed": false,
          "internalType": "uint256",
          "name": "from",
          "type": "uint256"
        },
        {
          "indexed": false,
          "internalType": "uint256",
          "name": "to",
          "type": "uint256"
        },
        {
          "indexed": false,
          "internalType": "bool",
          "name": "done",
          "type": "bool"
        }
      ],
      "name": "PositionEventsProgress",
      "type": "event"
    },
    {
      "anonymous": false,
      "inputs": [
        {
          "indexed": true,
          "internalType": "uint256",
          "name": "positionId",
          "type": "uint256"
        },
        {
          "indexed": true,
          "internalType": "address",
          "name": "trader",
          "type": "address"
        },
        {
          "indexed": false,
          "internalType": "uint128",
          "name": "additionalQuantity",
          "type": "uint128"
        },
        {
          "indexed": false,
          "internalType": "uint128",
          "name": "newQuantity",
          "type": "uint128"
        },
        {
          "indexed": false,
          "internalType": "uint256",
          "name": "cost",
          "type": "uint256"
        }
      ],
      "name": "PositionIncreased",
      "type": "event"
    },
    {
      "anonymous": false,
      "inputs": [
        {
          "indexed": true,
          "internalType": "uint256",
          "name": "positionId",
          "type": "uint256"
        },
        {
          "indexed": true,
          "internalType": "address",
          "name": "trader",
          "type": "address"
        },
        {
          "indexed": true,
          "internalType": "uint256",
          "name": "marketId",
          "type": "uint256"
        },
        {
          "indexed": false,
          "internalType": "int256",
          "name": "lowerTick",
          "type": "int256"
        },
        {
          "indexed": false,
          "internalType": "int256",
          "name": "upperTick",
          "type": "int256"
        },
        {
          "indexed": false,
          "internalType": "uint128",
          "name": "quantity",
          "type": "uint128"
        },
        {
          "indexed": false,
          "internalType": "uint256",
          "name": "cost",
          "type": "uint256"
        }
      ],
      "name": "PositionOpened",
      "type": "event"
    },
    {
      "anonymous": false,
      "inputs": [
        {
          "indexed": true,
          "internalType": "uint256",
          "name": "positionId",
          "type": "uint256"
        },
        {
          "indexed": true,
          "internalType": "address",
          "name": "trader",
          "type": "address"
        },
        {
          "indexed": false,
          "internalType": "uint256",
          "name": "payout",
          "type": "uint256"
        },
        {
          "indexed": false,
          "internalType": "bool",
          "name": "isWin",
          "type": "bool"
        }
      ],
      "name": "PositionSettled",
      "type": "event"
    },
    {
      "anonymous": false,
      "inputs": [
        {
          "indexed": true,
          "internalType": "uint256",
          "name": "marketId",
          "type": "uint256"
        },
        {
          "indexed": true,
          "internalType": "int256",
          "name": "lo",
          "type": "int256"
        },
        {
          "indexed": true,
          "internalType": "int256",
          "name": "hi",
          "type": "int256"
        },
        {
          "indexed": false,
          "internalType": "uint256",
          "name": "factor",
          "type": "uint256"
        }
      ],
      "name": "RangeFactorApplied",
      "type": "event"
    },
    {
      "anonymous": false,
      "inputs": [
        {
          "indexed": true,
          "internalType": "uint256",
          "name": "marketId",
          "type": "uint256"
        },
        {
          "indexed": false,
          "internalType": "uint64",
          "name": "settlementTimestamp",
          "type": "uint64"
        }
      ],
      "name": "SettlementTimestampUpdated",
      "type": "event"
    },
    {
      "anonymous": false,
      "inputs": [
        {
          "indexed": false,
          "internalType": "address",
          "name": "account",
          "type": "address"
        }
      ],
      "name": "Unpaused",
      "type": "event"
    },
    {
      "anonymous": false,
      "inputs": [
        {
          "indexed": true,
          "internalType": "address",
          "name": "implementation",
          "type": "address"
        }
      ],
      "name": "Upgraded",
      "type": "event"
    },
    {
      "inputs": [],
      "name": "MAX_LIQUIDITY_PARAMETER",
      "outputs": [
        {
          "internalType": "uint256",
          "name": "",
          "type": "uint256"
        }
      ],
      "stateMutability": "view",
      "type": "function"
    },
    {
      "inputs": [],
      "name": "MAX_TICK_COUNT",
      "outputs": [
        {
          "internalType": "uint32",
          "name": "",
          "type": "uint32"
        }
      ],
      "stateMutability": "view",
      "type": "function"
    },
    {
      "inputs": [],
      "name": "MIN_LIQUIDITY_PARAMETER",
      "outputs": [
        {
          "internalType": "uint256",
          "name": "",
          "type": "uint256"
        }
      ],
      "stateMutability": "view",
      "type": "function"
    },
    {
      "inputs": [],
      "name": "UPGRADE_INTERFACE_VERSION",
      "outputs": [
        {
          "internalType": "string",
          "name": "",
          "type": "string"
        }
      ],
      "stateMutability": "view",
      "type": "function"
    },
    {
      "inputs": [],
      "name": "_nextMarketId",
      "outputs": [
        {
          "internalType": "uint256",
          "name": "",
          "type": "uint256"
        }
      ],
      "stateMutability": "view",
      "type": "function"
    },
    {
      "inputs": [
        {
          "internalType": "uint256",
          "name": "marketId",
          "type": "uint256"
        },
        {
          "internalType": "int256",
          "name": "lo",
          "type": "int256"
        },
        {
          "internalType": "int256",
          "name": "hi",
          "type": "int256"
        },
        {
          "internalType": "uint256",
          "name": "factor",
          "type": "uint256"
        }
      ],
      "name": "applyRangeFactor",
      "outputs": [],
      "stateMutability": "nonpayable",
      "type": "function"
    },
    {
      "inputs": [
        {
          "internalType": "uint256",
          "name": "positionId",
          "type": "uint256"
        }
      ],
      "name": "calculateClaimAmount",
      "outputs": [
        {
          "internalType": "uint256",
          "name": "amount",
          "type": "uint256"
        }
      ],
      "stateMutability": "view",
      "type": "function"
    },
    {
      "inputs": [
        {
          "internalType": "uint256",
          "name": "positionId",
          "type": "uint256"
        }
      ],
      "name": "calculateCloseProceeds",
      "outputs": [
        {
          "internalType": "uint256",
          "name": "proceeds",
          "type": "uint256"
        }
      ],
      "stateMutability": "view",
      "type": "function"
    },
    {
      "inputs": [
        {
          "internalType": "uint256",
          "name": "positionId",
          "type": "uint256"
        },
        {
          "internalType": "uint128",
          "name": "sellQuantity",
          "type": "uint128"
        }
      ],
      "name": "calculateDecreaseProceeds",
      "outputs": [
        {
          "internalType": "uint256",
          "name": "proceeds",
          "type": "uint256"
        }
      ],
      "stateMutability": "view",
      "type": "function"
    },
    {
      "inputs": [
        {
          "internalType": "uint256",
          "name": "positionId",
          "type": "uint256"
        },
        {
          "internalType": "uint128",
          "name": "additionalQuantity",
          "type": "uint128"
        }
      ],
      "name": "calculateIncreaseCost",
      "outputs": [
        {
          "internalType": "uint256",
          "name": "cost",
          "type": "uint256"
        }
      ],
      "stateMutability": "view",
      "type": "function"
    },
    {
      "inputs": [
        {
          "internalType": "uint256",
          "name": "marketId",
          "type": "uint256"
        },
        {
          "internalType": "int256",
          "name": "lowerTick",
          "type": "int256"
        },
        {
          "internalType": "int256",
          "name": "upperTick",
          "type": "int256"
        },
        {
          "internalType": "uint128",
          "name": "quantity",
          "type": "uint128"
        }
      ],
      "name": "calculateOpenCost",
      "outputs": [
        {
          "internalType": "uint256",
          "name": "cost",
          "type": "uint256"
        }
      ],
      "stateMutability": "view",
      "type": "function"
    },
    {
      "inputs": [
        {
          "internalType": "uint256",
          "name": "marketId",
          "type": "uint256"
        },
        {
          "internalType": "int256",
          "name": "lowerTick",
          "type": "int256"
        },
        {
          "internalType": "int256",
          "name": "upperTick",
          "type": "int256"
        },
        {
          "internalType": "uint256",
          "name": "cost",
          "type": "uint256"
        }
      ],
      "name": "calculateQuantityFromCost",
      "outputs": [
        {
          "internalType": "uint128",
          "name": "quantity",
          "type": "uint128"
        }
      ],
      "stateMutability": "view",
      "type": "function"
    },
    {
      "inputs": [
        {
          "internalType": "uint256",
          "name": "positionId",
          "type": "uint256"
        }
      ],
      "name": "claimPayout",
      "outputs": [
        {
          "internalType": "uint256",
          "name": "payout",
          "type": "uint256"
        }
      ],
      "stateMutability": "nonpayable",
      "type": "function"
    },
    {
      "inputs": [
        {
          "internalType": "uint256",
          "name": "positionId",
          "type": "uint256"
        },
        {
          "internalType": "uint256",
          "name": "minProceeds",
          "type": "uint256"
        }
      ],
      "name": "closePosition",
      "outputs": [
        {
          "internalType": "uint256",
          "name": "proceeds",
          "type": "uint256"
        }
      ],
      "stateMutability": "nonpayable",
      "type": "function"
    },
    {
      "inputs": [
        {
          "internalType": "int256",
          "name": "minTick",
          "type": "int256"
        },
        {
          "internalType": "int256",
          "name": "maxTick",
          "type": "int256"
        },
        {
          "internalType": "int256",
          "name": "tickSpacing",
          "type": "int256"
        },
        {
          "internalType": "uint64",
          "name": "startTimestamp",
          "type": "uint64"
        },
        {
          "internalType": "uint64",
          "name": "endTimestamp",
          "type": "uint64"
        },
        {
          "internalType": "uint64",
          "name": "settlementTimestamp",
          "type": "uint64"
        },
        {
          "internalType": "uint256",
          "name": "liquidityParameter",
          "type": "uint256"
        }
      ],
      "name": "createMarket",
      "outputs": [
        {
          "internalType": "uint256",
          "name": "marketId",
          "type": "uint256"
        }
      ],
      "stateMutability": "nonpayable",
      "type": "function"
    },
    {
      "inputs": [
        {
          "internalType": "uint256",
          "name": "positionId",
          "type": "uint256"
        },
        {
          "internalType": "uint128",
          "name": "sellQuantity",
          "type": "uint128"
        },
        {
          "internalType": "uint256",
          "name": "minProceeds",
          "type": "uint256"
        }
      ],
      "name": "decreasePosition",
      "outputs": [
        {
          "internalType": "uint128",
          "name": "newQuantity",
          "type": "uint128"
        },
        {
          "internalType": "uint256",
          "name": "proceeds",
          "type": "uint256"
        }
      ],
      "stateMutability": "nonpayable",
      "type": "function"
    },
    {
      "inputs": [
        {
          "internalType": "uint256",
          "name": "marketId",
          "type": "uint256"
        },
        {
          "internalType": "uint256",
          "name": "limit",
          "type": "uint256"
        }
      ],
      "name": "emitPositionSettledBatch",
      "outputs": [],
      "stateMutability": "nonpayable",
      "type": "function"
    },
    {
      "inputs": [
        {
          "internalType": "uint256",
          "name": "marketId",
          "type": "uint256"
        }
      ],
      "name": "getMarket",
      "outputs": [
        {
          "components": [
            {
              "internalType": "bool",
              "name": "isActive",
              "type": "bool"
            },
            {
              "internalType": "bool",
              "name": "settled",
              "type": "bool"
            },
            {
              "internalType": "uint64",
              "name": "startTimestamp",
              "type": "uint64"
            },
            {
              "internalType": "uint64",
              "name": "endTimestamp",
              "type": "uint64"
            },
            {
              "internalType": "int256",
              "name": "settlementTick",
              "type": "int256"
            },
            {
              "internalType": "int256",
              "name": "minTick",
              "type": "int256"
            },
            {
              "internalType": "int256",
              "name": "maxTick",
              "type": "int256"
            },
            {
              "internalType": "int256",
              "name": "tickSpacing",
              "type": "int256"
            },
            {
              "internalType": "uint32",
              "name": "numBins",
              "type": "uint32"
            },
            {
              "internalType": "uint256",
              "name": "liquidityParameter",
              "type": "uint256"
            },
            {
              "internalType": "uint32",
              "name": "positionEventsCursor",
              "type": "uint32"
            },
            {
              "internalType": "bool",
              "name": "positionEventsEmitted",
              "type": "bool"
            },
            {
              "internalType": "int256",
              "name": "settlementValue",
              "type": "int256"
            },
            {
              "internalType": "uint64",
              "name": "settlementTimestamp",
              "type": "uint64"
            }
          ],
          "internalType": "struct ICLMSRMarketCore.Market",
          "name": "market",
          "type": "tuple"
        }
      ],
      "stateMutability": "view",
      "type": "function"
    },
    {
      "inputs": [],
      "name": "getPaymentToken",
      "outputs": [
        {
          "internalType": "address",
          "name": "",
          "type": "address"
        }
      ],
      "stateMutability": "view",
      "type": "function"
    },
    {
      "inputs": [],
      "name": "getPositionContract",
      "outputs": [
        {
          "internalType": "address",
          "name": "",
          "type": "address"
        }
      ],
      "stateMutability": "view",
      "type": "function"
    },
    {
      "inputs": [
        {
          "internalType": "uint256",
          "name": "marketId",
          "type": "uint256"
        },
        {
          "internalType": "int256",
          "name": "lo",
          "type": "int256"
        },
        {
          "internalType": "int256",
          "name": "hi",
          "type": "int256"
        }
      ],
      "name": "getRangeSum",
      "outputs": [
        {
          "internalType": "uint256",
          "name": "sum",
          "type": "uint256"
        }
      ],
      "stateMutability": "view",
      "type": "function"
    },
    {
      "inputs": [
        {
          "internalType": "uint256",
          "name": "positionId",
          "type": "uint256"
        },
        {
          "internalType": "uint128",
          "name": "additionalQuantity",
          "type": "uint128"
        },
        {
          "internalType": "uint256",
          "name": "maxCost",
          "type": "uint256"
        }
      ],
      "name": "increasePosition",
      "outputs": [
        {
          "internalType": "uint128",
          "name": "newQuantity",
          "type": "uint128"
        }
      ],
      "stateMutability": "nonpayable",
      "type": "function"
    },
    {
      "inputs": [
        {
          "internalType": "address",
          "name": "_paymentToken",
          "type": "address"
        },
        {
          "internalType": "address",
          "name": "_positionContract",
          "type": "address"
        }
      ],
      "name": "initialize",
      "outputs": [],
      "stateMutability": "nonpayable",
      "type": "function"
    },
    {
      "inputs": [],
      "name": "isPaused",
      "outputs": [
        {
          "internalType": "bool",
          "name": "",
          "type": "bool"
        }
      ],
      "stateMutability": "view",
      "type": "function"
    },
    {
      "inputs": [],
      "name": "manager",
      "outputs": [
        {
          "internalType": "address",
          "name": "",
          "type": "address"
        }
      ],
      "stateMutability": "view",
      "type": "function"
    },
    {
      "inputs": [
        {
          "internalType": "uint256",
          "name": "",
          "type": "uint256"
        }
      ],
      "name": "marketTrees",
      "outputs": [
        {
          "internalType": "uint32",
          "name": "root",
          "type": "uint32"
        },
        {
          "internalType": "uint32",
          "name": "nextIndex",
          "type": "uint32"
        },
        {
          "internalType": "uint32",
          "name": "size",
          "type": "uint32"
        },
        {
          "internalType": "uint256",
          "name": "cachedRootSum",
          "type": "uint256"
        }
      ],
      "stateMutability": "view",
      "type": "function"
    },
    {
      "inputs": [
        {
          "internalType": "uint256",
          "name": "",
          "type": "uint256"
        }
      ],
      "name": "markets",
      "outputs": [
        {
          "internalType": "bool",
          "name": "isActive",
          "type": "bool"
        },
        {
          "internalType": "bool",
          "name": "settled",
          "type": "bool"
        },
        {
          "internalType": "uint64",
          "name": "startTimestamp",
          "type": "uint64"
        },
        {
          "internalType": "uint64",
          "name": "endTimestamp",
          "type": "uint64"
        },
        {
          "internalType": "int256",
          "name": "settlementTick",
          "type": "int256"
        },
        {
          "internalType": "int256",
          "name": "minTick",
          "type": "int256"
        },
        {
          "internalType": "int256",
          "name": "maxTick",
          "type": "int256"
        },
        {
          "internalType": "int256",
          "name": "tickSpacing",
          "type": "int256"
        },
        {
          "internalType": "uint32",
          "name": "numBins",
          "type": "uint32"
        },
        {
          "internalType": "uint256",
          "name": "liquidityParameter",
          "type": "uint256"
        },
        {
          "internalType": "uint32",
          "name": "positionEventsCursor",
          "type": "uint32"
        },
        {
          "internalType": "bool",
          "name": "positionEventsEmitted",
          "type": "bool"
        },
        {
          "internalType": "int256",
          "name": "settlementValue",
          "type": "int256"
        },
        {
          "internalType": "uint64",
          "name": "settlementTimestamp",
          "type": "uint64"
        }
      ],
      "stateMutability": "view",
      "type": "function"
    },
    {
      "inputs": [
        {
          "internalType": "uint256",
          "name": "marketId",
          "type": "uint256"
        },
        {
          "internalType": "int256",
          "name": "lowerTick",
          "type": "int256"
        },
        {
          "internalType": "int256",
          "name": "upperTick",
          "type": "int256"
        },
        {
          "internalType": "uint128",
          "name": "quantity",
          "type": "uint128"
        },
        {
          "internalType": "uint256",
          "name": "maxCost",
          "type": "uint256"
        }
      ],
      "name": "openPosition",
      "outputs": [
        {
          "internalType": "uint256",
          "name": "positionId",
          "type": "uint256"
        }
      ],
      "stateMutability": "nonpayable",
      "type": "function"
    },
    {
      "inputs": [],
      "name": "owner",
      "outputs": [
        {
          "internalType": "address",
          "name": "",
          "type": "address"
        }
      ],
      "stateMutability": "view",
      "type": "function"
    },
    {
      "inputs": [
        {
          "internalType": "string",
          "name": "reason",
          "type": "string"
        }
      ],
      "name": "pause",
      "outputs": [],
      "stateMutability": "nonpayable",
      "type": "function"
    },
    {
      "inputs": [],
      "name": "paused",
      "outputs": [
        {
          "internalType": "bool",
          "name": "",
          "type": "bool"
        }
      ],
      "stateMutability": "view",
      "type": "function"
    },
    {
      "inputs": [],
      "name": "paymentToken",
      "outputs": [
        {
          "internalType": "contract IERC20",
          "name": "",
          "type": "address"
        }
      ],
      "stateMutability": "view",
      "type": "function"
    },
    {
      "inputs": [],
      "name": "positionContract",
      "outputs": [
        {
          "internalType": "contract ICLMSRPosition",
          "name": "",
          "type": "address"
        }
      ],
      "stateMutability": "view",
      "type": "function"
    },
    {
      "inputs": [
        {
          "internalType": "uint256",
          "name": "",
          "type": "uint256"
        }
      ],
      "name": "positionSettledEmitted",
      "outputs": [
        {
          "internalType": "bool",
          "name": "",
          "type": "bool"
        }
      ],
      "stateMutability": "view",
      "type": "function"
    },
    {
      "inputs": [
        {
          "internalType": "uint256",
          "name": "marketId",
          "type": "uint256"
        },
        {
          "internalType": "int256",
          "name": "lo",
          "type": "int256"
        },
        {
          "internalType": "int256",
          "name": "hi",
          "type": "int256"
        }
      ],
      "name": "propagateLazy",
      "outputs": [
        {
          "internalType": "uint256",
          "name": "sum",
          "type": "uint256"
        }
      ],
      "stateMutability": "nonpayable",
      "type": "function"
    },
    {
      "inputs": [],
      "name": "proxiableUUID",
      "outputs": [
        {
          "internalType": "bytes32",
          "name": "",
          "type": "bytes32"
        }
      ],
      "stateMutability": "view",
      "type": "function"
    },
    {
      "inputs": [],
      "name": "renounceOwnership",
      "outputs": [],
      "stateMutability": "nonpayable",
      "type": "function"
    },
    {
      "inputs": [
        {
          "internalType": "uint256",
          "name": "marketId",
          "type": "uint256"
        }
      ],
      "name": "reopenMarket",
      "outputs": [],
      "stateMutability": "nonpayable",
      "type": "function"
    },
    {
      "inputs": [
        {
          "internalType": "address",
          "name": "newManager",
          "type": "address"
        }
      ],
      "name": "setManager",
      "outputs": [],
      "stateMutability": "nonpayable",
      "type": "function"
    },
    {
      "inputs": [
        {
          "internalType": "uint256",
          "name": "marketId",
          "type": "uint256"
        },
        {
          "internalType": "int256",
          "name": "settlementValue",
          "type": "int256"
        }
      ],
      "name": "settleMarket",
      "outputs": [],
      "stateMutability": "nonpayable",
      "type": "function"
    },
    {
      "inputs": [
        {
          "internalType": "address",
          "name": "newOwner",
          "type": "address"
        }
      ],
      "name": "transferOwnership",
      "outputs": [],
      "stateMutability": "nonpayable",
      "type": "function"
    },
    {
      "inputs": [],
      "name": "unpause",
      "outputs": [],
      "stateMutability": "nonpayable",
      "type": "function"
    },
    {
      "inputs": [
        {
          "internalType": "uint256",
          "name": "marketId",
          "type": "uint256"
        },
        {
          "internalType": "uint64",
          "name": "newStartTimestamp",
          "type": "uint64"
        },
        {
          "internalType": "uint64",
          "name": "newEndTimestamp",
          "type": "uint64"
        },
        {
          "internalType": "uint64",
          "name": "newSettlementTimestamp",
          "type": "uint64"
        }
      ],
      "name": "updateMarketTiming",
      "outputs": [],
      "stateMutability": "nonpayable",
      "type": "function"
    },
    {
      "inputs": [
        {
          "internalType": "address",
          "name": "newImplementation",
          "type": "address"
        },
        {
          "internalType": "bytes",
          "name": "data",
          "type": "bytes"
        }
      ],
      "name": "upgradeToAndCall",
      "outputs": [],
      "stateMutability": "payable",
      "type": "function"
    }
  ],
  "bytecode": "0x60a0806040523460295730608052614fb0908161002e8239608051818181610dc80152610ee00152f35b5f80fdfe60806040526004361015610011575f80fd5b5f3560e01c8063070ab8c9146102c057806309f28be61461020c57806313b6eb09146102bb57806316ae2866146102b65780631d49df57146102b15780632d6ce61d146102ac5780632ed66650146102a75780633013ce29146102165780633d65117b146102a25780633f4ba83a1461029d578063449a03881461029857806344a1a58e14610293578063481c6a751461028e578063485cc955146102895780634f1ef2861461028457806352d1902d1461027f5780635c975abb1461022f5780636084fa031461027a57806362a626aa14610275578063692c3fc7146102705780636c1155a11461026b5780636da6635514610266578063715018a6146102615780637404d9571461025c57806379334798146102575780637ed5478214610252578063855e23681461024d5780638a69614e146102485780638da5cb5b146102435780639bbafcc31461022a5780639fc46ecb1461023e578063ad3cb1cc14610239578063b1283e7714610234578063b187bd261461022f578063b762d8341461022a578063bcb1732214610225578063c9ac6b3114610220578063d0ebdbe71461021b578063d41c3a6514610216578063e9904d8714610211578063e9eb3ba51461020c578063eb44fdd314610207578063f0b7f3b1146102025763f2fde38b146101fd575f80fd5b612325565b612071565b611fb6565b610438565b611e7c565b6107a3565b611dae565b611ccc565b611ca8565b611a07565b610f25565b611be0565b611b08565b611a26565b6119d3565b61177c565b61174d565b6116cd565b611485565b611468565b611401565b611312565b6112d2565b61126d565b611250565b610f76565b610ece565b610d75565b610b36565b610afd565b610a7d565b61096c565b6108af565b6107db565b610782565b61051c565b6104cd565b610486565b610460565b6102e7565b60809060031901126102e35760043590602435906044359060643590565b5f80fd5b346102e3576102f5366102c5565b610300939193612c15565b61032782610322815f52600260205263ffffffff600560405f20015416151590565b612352565b61036d61034461033f845f52600260205260405f2090565b61236c565b61034e8186612c48565b6103588187612c48565b610366868681811315612490565b8585612d08565b73__$e8b8ff73fdf5e99c3df6a4b39aa1f5b319$__90610395855f52600360205260405f2090565b91803b156102e3576040516330f27d1f60e01b8152600481019390935263ffffffff9384166024840152921660448201526064810183905291905f90839060849082905af4908115610429575f516020614ee45f395f51905f529261040a9261040f575b506040519081529081906020820190565b0390a4005b8061041d5f61042393610cf1565b8061042e565b5f6103f9565b6124ae565b5f9103126102e357565b346102e3575f3660031901126102e3576001546040516001600160a01b039091168152602090f35b346102e35760203660031901126102e357602061047e600435612db3565b604051908152f35b346102e35760203660031901126102e3576104c36004356104a5612c15565b610322815f52600260205263ffffffff600560405f20015416151590565b6104cb612ea4565b005b346102e357602061050b6104e0366102c5565b9261050681610322819594955f52600260205263ffffffff600560405f20015416151590565b61251e565b6001600160801b0360405191168152f35b346102e35760403660031901126102e35760043560243561053b612fa4565b610543612fcb565b600154610560906001600160a01b03165b6001600160a01b031690565b60405163eb02c30160e01b81526004810184905260a081602481855afa908115610429575f91610753575b506040516331a9108f60e11b81526004810185905291602090839060249082905afa91821561042957610672926105d6915f91610724575b5033906001600160a01b031681146128ed565b6105e08151613003565b6105f381515f52600260205260405f2090565b61062361061961060d60608501516001600160801b031690565b6001600160801b031690565b64e8d4a510000290565b908251600660208501946106646106596106478789519660408601978851916130da565b64e8d4a50fff64e8d4a5100091010490565b988981811015612915565b519451915192015493613738565b61067c8133613ebc565b600154610691906001600160a01b0316610554565b91823b156102e357604051630852cd8d60e31b815260048101829052925f908490602490829084905af192831561042957602093610710575b506040518281523391907f467bc11eddf702a2091fefc23d3064f17939ba1005bd43304f15604c9b6f2a9b90602090a361047e60015f516020614f645f395f51905f5255565b8061041d5f61071e93610cf1565b5f6106ca565b610746915060203d60201161074c575b61073e8183610cf1565b8101906128d5565b5f6105c3565b503d610734565b610775915060a03d60a01161077b575b61076d8183610cf1565b81019061286b565b5f61058b565b503d610763565b346102e3575f3660031901126102e357602060405166038d7ea4c680008152f35b346102e3575f3660031901126102e3575f546040516001600160a01b039091168152602090f35b6001600160801b038116036102e357565b346102e35760403660031901126102e3576108376004355b60a060243591610802836107ca565b600154610817906001600160a01b0316610554565b604051808096819463eb02c30160e01b8352600483019190602083019252565b03915afa9182156104295761088a9261087a92610647925f9261088e575b50815190604064e8d4a510006001600160801b036020860151931602930151916130da565b6040519081529081906020820190565b0390f35b6108a891925060a03d60a01161077b5761076d8183610cf1565b905f610855565b346102e3575f3660031901126102e3576108c7612c15565b5f516020614f445f395f51905f525460ff8116156109435760ff19165f516020614f445f395f51905f52557f5db9ee0a495bf2e6ff9c91a7834c1ba4fdd244a5e8aa4e537bd38aeae4b073aa6020604051338152a1337ff5cbf596165cc457b2cd92e8d8450827ee314968160a5696402d75766fc52caf5f80a2005b638dfc202b60e01b5f5260045ffd5b60609060031901126102e357600435906024359060443590565b346102e3576109de602061097f36610952565b6109a3836103228197955f52600260205263ffffffff600560405f20015416151590565b845f52600284526109b660405f2061236c565b916109c18382612c48565b6109cb8383612c48565b6109d9828281811315612490565b612d08565b5f93845260038352604093849020935163694f552560e01b8152600481019490945263ffffffff91821660248501521660448301528180606481015b038173__$e8b8ff73fdf5e99c3df6a4b39aa1f5b319$__5af480156104295761088a915f91610a5457506040519081529081906020820190565b610423915060203d602011610a76575b610a6e8183610cf1565b810190612933565b503d610a64565b346102e357610abd6020610a9036610952565b610a9b949294612c15565b6109a385610322815f52600260205263ffffffff600560405f20015416151590565b5f93845260038352604093849020935163049bebd960e31b8152600481019490945263ffffffff9182166024850152166044830152818060648101610a1a565b346102e3575f3660031901126102e3576006546040516001600160a01b039091168152602090f35b6001600160a01b038116036102e357565b346102e35760403660031901126102e357600435610b5381610b25565b60243590610b6082610b25565b5f516020614f845f395f51905f5254916001600160401b03610b9a60ff604086901c1615610b8d565b1590565b946001600160401b031690565b1680159081610cb4575b6001149081610caa575b159081610ca1575b50610c9257610bf99183610bf060016001600160401b03195f516020614f845f395f51905f525416175f516020614f845f395f51905f5255565b610c5857612994565b610bff57005b610c2960ff60401b195f516020614f845f395f51905f5254165f516020614f845f395f51905f5255565b604051600181527fc7f505b2f371ae2175ee4913f4499e1f2633a7b5936321eed1cdaeb6115181d290602090a1005b610c8d6801000000000000000060ff60401b195f516020614f845f395f51905f525416175f516020614f845f395f51905f5255565b612994565b63f92ee8a960e01b5f5260045ffd5b9050155f610bb6565b303b159150610bae565b849150610ba4565b634e487b7160e01b5f52604160045260245ffd5b6101c081019081106001600160401b03821117610cec57604052565b610cbc565b90601f801991011681019081106001600160401b03821117610cec57604052565b60405190610d226101c083610cf1565b565b6001600160401b038111610cec57601f01601f191660200190565b929192610d4b82610d24565b91610d596040519384610cf1565b8294818452818301116102e3578281602093845f960137010152565b60403660031901126102e357600435610d8d81610b25565b6024356001600160401b0381116102e357366023820112156102e357610dbd903690602481600401359101610d3f565b906001600160a01b037f000000000000000000000000000000000000000000000000000000000000000016308114908115610eac575b50610e9d57610e00612c15565b6040516352d1902d60e01b8152916020836004816001600160a01b0386165afa5f9381610e7c575b50610e4957634c9c8ce360e01b5f526001600160a01b03821660045260245ffd5b905f516020614f245f395f51905f528303610e68576104cb9250614b61565b632a87526960e21b5f52600483905260245ffd5b610e9691945060203d602011610a7657610a6e8183610cf1565b925f610e28565b63703e46dd60e11b5f5260045ffd5b5f516020614f245f395f51905f52546001600160a01b0316141590505f610df3565b346102e3575f3660031901126102e3577f00000000000000000000000000000000000000000000000000000000000000006001600160a01b03163003610e9d5760206040515f516020614f245f395f51905f528152f35b346102e3575f3660031901126102e357602060ff5f516020614f445f395f51905f5254166040519015158152f35b60609060031901126102e35760043590602435610f6f816107ca565b9060443590565b346102e357610f8436610f53565b610f8c612fa4565b610f94612fcb565b6001600160801b038216610faa83821515612a9b565b600154610fbf906001600160a01b0316610554565b60405163eb02c30160e01b8152600481018690529060a082602481845afa918215610429575f9261122f575b506040516331a9108f60e11b81526004810187905290602090829060249082905afa928315610429576110bf869361103d6110db966110d6955f91610724575033906001600160a01b031681146128ed565b6110478151613003565b61105a81515f52600260205260405f2090565b92606082019361108761107486516001600160801b031690565b886001600160801b038216851115612abf565b825191600660208501946106646110b4610647885197604085019664e8d4a5100088519102998a926130da565b9c8d81811015612915565b6110c98533613ebc565b516001600160801b031690565b612aea565b6001600160801b03811692836111b857600154611100906001600160a01b0316610554565b94853b156102e357604051630852cd8d60e31b815260048101829052955f908790602490829084905af1958615610429576040966111a4575b505b85516001600160801b03928316815291831660208301526040820184905233917fe3a918fd34698242cc99d5ba0987edaa47d8f5b8ed601ef29e08a9b7d72ecc4990606090a35061119860015f516020614f645f395f51905f5255565b82519182526020820152f35b8061041d5f6111b293610cf1565b5f611139565b6001546111cd906001600160a01b0316610554565b94853b156102e3576040516361d6883d60e01b8152600481018290526001600160801b0384166024820152955f908790604490829084905af19586156104295760409661121b575b5061113b565b8061041d5f61122993610cf1565b5f611215565b61124991925060a03d60a01161077b5761076d8183610cf1565b905f610feb565b346102e3575f3660031901126102e3576020600454604051908152f35b346102e35760203660031901126102e3576004355f526003602052608060405f206002600182015491015463ffffffff604051928181168452818160201c16602085015260401c1660408301526060820152f35b6001600160401b038116036102e357565b346102e35760803660031901126102e3576104c36004356112f46024356112c1565b6112ff6044356112c1565b61130a6064356112c1565b6104a5612c15565b346102e35760203660031901126102e3576004356001600160401b0381116102e357366023820112156102e3578060040135906001600160401b0382116102e35736602483830101116102e3576113759161136b612c15565b6024369201610d3f565b61137d612fa4565b600160ff195f516020614f445f395f51905f525416175f516020614f445f395f51905f52557f62e78cea01bee320cd4e420270b5ea74000d11b0c9f74754ebdbfc544b05a2586020604051338152a17f375c0abd968f4602b557f6ac9a48ffc89820233aa9becc5d7ff1176fd09eafff604051806113fc339482611ade565b0390a2005b346102e3575f3660031901126102e357611419612c15565b5f516020614f045f395f51905f5280546001600160a01b031981169091555f906001600160a01b03167f8be0079c531659141344cd1fd0a4f28419497f9722a3daafe3b4186f6b6457e08280a3005b346102e3575f3660031901126102e3576020604051620f42408152f35b346102e35761149336610f53565b919061149d612fa4565b6114a5612fcb565b6001600160801b0381166114bb82821515612a9b565b6001546114d0906001600160a01b0316610554565b60405163eb02c30160e01b8152600481018590529160a083602481855afa928315610429575f936116ac575b506040516331a9108f60e11b81526004810186905291602090839060249082905afa918215610429576115d2936115bf6115cd9361155188966060955f91610724575033906001600160a01b031681146128ed565b61155b8351613003565b61156e83515f52600260205260405f2090565b83519060208501926115a461159961064786519560408a019464e8d4a5100086519102978892613f5e565b9d8e81811115612b0a565b6115ae8d33614454565b600686519451915192015493613c09565b01516001600160801b031690565b612b28565b6001549092906115ea906001600160a01b0316610554565b803b156102e3576040516361d6883d60e01b8152600481018390526001600160801b0385166024820152905f908290604490829084905af18015610429576020957fa9efae0c21a2db158c2af2d36b5c18dc14d792a79dfab662442466a80095ea5f9261167f92611698575b50604080516001600160801b039687168152958716602087015285015233939081906060820190565b0390a361050b60015f516020614f645f395f51905f5255565b8061041d5f6116a693610cf1565b5f611656565b6116c691935060a03d60a01161077b5761076d8183610cf1565b915f6114fc565b346102e35760403660031901126102e3576116e96004356107f3565b03915afa9182156104295761088a9261087a92610647925f9261172c575b50815190604064e8d4a510006001600160801b03602086015193160293015191613f5e565b61174691925060a03d60a01161077b5761076d8183610cf1565b905f611707565b346102e35760203660031901126102e3576004355f526005602052602060ff60405f2054166040519015158152f35b346102e35760203660031901126102e357600435611798612fa4565b6117a0612fcb565b6001546117b5906001600160a01b0316610554565b60405163eb02c30160e01b8152600481018390529060a082602481845afa918215610429575f926119b2575b506040516331a9108f60e11b81526004810184905290602090829060249082905afa801561042957611855915f91611993575b506001600160a01b03169161182b338085146128ed565b61184d602061184661033f84515f52600260205260405f2090565b0151151590565b905190612b48565b61185e82612db3565b9061187e610b89611877855f52600560205260405f2090565b5460ff1690565b611937575b5061188e8133613ebc565b6001546118a3906001600160a01b0316610554565b91823b156102e357604051630852cd8d60e31b815260048101829052925f908490602490829084905af19283156104295761088a93611923575b506040518281523391907ff18ca9717b47ea7629d17b5d7b2ede46e864155725629e7d0347924c2f6d112d90602090a361087a60015f516020614f645f395f51905f5255565b8061041d5f61193193610cf1565b5f6118dd565b60408051838152831515602082015284917f1a81eb5d53aa7bec98cadd0a6303be87e540f77ba90e63cd945e49b8eb697b0a91a361198d611980835f52600560205260405f2090565b805460ff19166001179055565b5f611883565b6119ac915060203d60201161074c5761073e8183610cf1565b5f611814565b6119cc91925060a03d60a01161077b5761076d8183610cf1565b905f6117e1565b346102e3575f3660031901126102e3575f516020614f045f395f51905f52546040516001600160a01b039091168152602090f35b346102e35760403660031901126102e3576104c36004356104a5612c15565b346102e35760203660031901126102e357611a7460a0600435600154611a54906001600160a01b0316610554565b604051808095819463eb02c30160e01b8352600483019190602083019252565b03915afa80156104295761064761087a9161088a935f91611abf575b50611aab61061961060d60608401516001600160801b031690565b9080519060406020820151910151916130da565b611ad8915060a03d60a01161077b5761076d8183610cf1565b5f611a90565b602060409281835280519182918282860152018484015e5f828201840152601f01601f1916010190565b346102e3575f3660031901126102e35761088a604051611b29604082610cf1565b60058152640352e302e360dc1b602082015260405191829182611ade565b9b99979593919e9d9c9a98969492909e6101c08d019f15158d52151560208d015260408c01611b7d916001600160401b03169052565b6001600160401b031660608b015260808a015260a089015260c088015260e087015263ffffffff1661010086015261012085015263ffffffff1661014084015215156101608301526101808201526101a001610d22916001600160401b03169052565b346102e35760203660031901126102e3576004355f52600260205260405f20805461088a611c18826001600160401b039060101c1690565b92605083901c6001600160401b0316906001810154600282015460038301546004840154611c4d600586015463ffffffff1690565b90600686015492600787015494611c74611c6a8763ffffffff1690565b9660201c60ff1690565b96611c8e600960088b01549a01546001600160401b031690565b996040519d8d8f9e8f9060ff809160081c16921690611b47565b346102e3575f3660031901126102e357602060405169152d02c7e14af68000008152f35b346102e35760803660031901126102e357602435606435604435600435611cf2836107ca565b611d1481610322815f52600260205263ffffffff600560405f20015416151590565b611d2a6001600160801b03841693841515612a9b565b805f526002602052611d3e60405f2061236c565b91611d498386612c48565b611d538382612c48565b611d61818681811315612490565b611d6f818681811415612490565b60e0611d7b86836124cd565b930151948515611da95764e8d4a5100061047e95611da2848460209a610647990715612490565b0292613f5e565b6124ea565b346102e35760203660031901126102e357600435611dcb81610b25565b611dd3612c15565b6001600160a01b03811690611de9821515612942565b803b15611e47576006546104cb92906001600160a01b03167fdac3632743b879638fd2d51c4d3c1dd796615b4758a55b50b0c19b971ba9fbc75f80a360018060a01b03166bffffffffffffffffffffffff60a01b6006541617600655565b60405162461bcd60e51b815260206004820152600d60248201526c4d616e616765724e6f436f646560981b6044820152606490fd5b346102e35760e03660031901126102e357611e986064356112c1565b611ea36084356112c1565b611eae60a4356112c1565b611eb6612c15565b611ebe612fa4565b602061047e611ecb612ea4565b828082518301019101612933565b610d22909291926101a0806101c0830195611ef684825115159052565b6020818101511515908501526040818101516001600160401b0316908501526060818101516001600160401b0316908501526080810151608085015260a081015160a085015260c081015160c085015260e081015160e0850152611f6961010082015161010086019063ffffffff169052565b610120810151610120850152611f8e61014082015161014086019063ffffffff169052565b61016081810151151590850152610180818101519085015201516001600160401b0316910152565b346102e35760203660031901126102e35761088a61206561033f6004355f6101a0604051611fe381610cd0565b8281528260208201528260408201528260608201528260808201528260a08201528260c08201528260e08201528261010082015282610120820152826101408201528261016082015282610180820152015261205781610322815f52600260205263ffffffff600560405f20015416151590565b5f52600260205260405f2090565b60405191829182611ed9565b346102e35760a03660031901126102e357604435606435600435602435612097836107ca565b608435926120a3612fa4565b6120ab612fcb565b6122046001600160801b0382166120c483821515612a9b565b64e8d4a5100060066120de875f52600260205260405f2090565b61210088610322815f52600260205263ffffffff600560405f20015416151590565b61215d612155612132835461211d6121188260ff1690565b612b62565b61214661213e601083901c6001600160401b03165b6001600160401b031690565b421015612b78565b60501c6001600160401b031690565b421115612b8e565b61216f6121698261236c565b88612c48565b61218161217b8261236c565b8b612c48565b61218f8a8881811315612490565b61219d8a8881811415612490565b6121c08a886121ba6121af82846124cd565b6004860154906124fe565b15612490565b6121ee6121e36106476121db6001600160801b038a16610619565b8d8b8d613f5e565b998a81811115612b0a565b6121f88933614454565b01549102878587613c09565b600154612219906001600160a01b0316610554565b6040516330906fad60e21b81523360048201526024810185905260448101849052606481018790526001600160801b03831660848201529590602090879060a49082905f905af1948515610429576020965f966122da575b506040805194855260208501929092526001600160801b03909216908301526060820152339083907fc33c3b4ea19b40f02901978a93e787a0caa1d6fd23dfa228ae891fe96867e1719080608081015b0390a461047e60015f516020614f645f395f51905f5255565b6122c196509161231a7fc33c3b4ea19b40f02901978a93e787a0caa1d6fd23dfa228ae891fe96867e17193899593953d8b11610a7657610a6e8183610cf1565b965091929092612271565b346102e35760203660031901126102e3576104cb60043561234581610b25565b61234d612c15565b612ba4565b1561235a5750565b634cba20ef60e01b5f5260045260245ffd5b90610d2261247f600961237d610d12565b946123d56123c582546123996123938260ff1690565b15158a52565b6123ad600882901c60ff16151560208b0152565b6001600160401b03601082901c1660408a0152612146565b6001600160401b03166060880152565b60018101546080870152600281015460a0870152600381015460c0870152600481015460e087015261241f612411600583015463ffffffff1690565b63ffffffff16610100880152565b600681015461012087015261246661245c60078301546124536124458263ffffffff1690565b63ffffffff166101408b0152565b60201c60ff1690565b1515610160880152565b600881015461018087015201546001600160401b031690565b6001600160401b03166101a0840152565b15612499575050565b631150381b60e11b5f5260045260245260445ffd5b6040513d5f823e3d90fd5b634e487b7160e01b5f52601160045260245ffd5b81810392915f1380158285131691841216176124e557565b6124b9565b634e487b7160e01b5f52601260045260245ffd5b8115611da9570790565b1561250f57565b639ac6cd8b60e01b5f5260045ffd5b91929092811561286357825f52600260205261253c60405f2061236c565b906125478286612c48565b6125518282612c48565b61255f818681811315612490565b61256d818681811415612490565b60e061257986836124cd565b920151908115611da95761259681876125b8946020960715612490565b6125ab61033f865f52600260205260405f2090565b9061012082015196612d08565b91906125e260026125d1875f52600360205260405f2090565b0154955f52600360205260405f2090565b60405163694f552560e01b8152600481019190915263ffffffff9182166024820152921660448301528160648173__$e8b8ff73fdf5e99c3df6a4b39aa1f5b319$__5af49182156104295784915f93612831575b506126a39164e8d4a5100061266192612650871515612f37565b61265b861515612f4d565b026144f7565b6040516330ed1f5d60e01b815260048101859052602481019190915273__$cbaf8988f3c8d5491808e1d52afb16035a$__929091602090839081906044820190565b0381865af4918215610429576126fc94602093836126d3935f92612810575b506126cd9192612f81565b90612f81565b6040516316cf339960e21b81526004810191909152602481019190915292839081906044820190565b0381845af491821561042957612736926020915f916127f3575b506040518094819263360816cf60e01b8352600483019190602083019252565b0381845af49081156104295761277a936020935f936127d4575b506040518095819482936330ed1f5d60e01b84526004840160209093929193604081019481520152565b03915af4908115610429576001600160801b03916127a5915f916127b5575b5064e8d4a51000900490565b6127b182821115612508565b1690565b6127ce915060203d602011610a7657610a6e8183610cf1565b5f612799565b6127ec919350843d8611610a7657610a6e8183610cf1565b915f612750565b61280a9150823d8411610a7657610a6e8183610cf1565b5f612716565b6126cd925061282b90873d8911610a7657610a6e8183610cf1565b916126c2565b6126619193509164e8d4a510006128596126a39460203d602011610a7657610a6e8183610cf1565b9492505091612636565b505050505f90565b908160a09103126102e3576040519060a08201908282106001600160401b03831117610cec5760809160405280518352602081015160208401526040810151604084015260608101516128bd816107ca565b606084015201516128cd816112c1565b608082015290565b908160209103126102e357516128ea81610b25565b90565b156128f55750565b63d86ad9cf60e01b5f9081526001600160a01b0391909116600452602490fd5b1561291e575050565b63f6b30c7760e01b5f5260045260245260445ffd5b908160209103126102e3575190565b1561294957565b63d92e233d60e01b5f5260045ffd5b908160209103126102e3575160ff811681036102e35790565b156129795750565b60ff906330946b1f60e21b5f5216600452600660245260445ffd5b6001600160a01b03169081151580612a89575b6129b090612942565b6129b933613f09565b6129c1614b36565b6129c9614b36565b6129d1613f1d565b60405163313ce56760e01b815291602083600481845afa90811561042957612a0e612a2e92612a50955f91612a5a575b50600660ff821614612971565b60018060a01b03166bffffffffffffffffffffffff60a01b5f5416175f55565b600180546001600160a01b0319166001600160a01b0392909216919091179055565b610d226001600455565b612a7c915060203d602011612a82575b612a748183610cf1565b810190612958565b5f612a01565b503d612a6a565b506001600160a01b03811615156129a7565b15612aa35750565b6001600160801b0390633b59e48960e11b5f521660045260245ffd5b15612ac8575050565b906001600160801b03809263070a2e7b60e31b5f52166004521660245260445ffd5b906001600160801b03809116911603906001600160801b0382116124e557565b15612b13575050565b63f6daf99360e01b5f5260045260245260445ffd5b906001600160801b03809116911601906001600160801b0382116124e557565b15612b505750565b63b23e5f9f60e01b5f5260045260245ffd5b15612b6957565b635a90bb8d60e11b5f5260045ffd5b15612b7f57565b630ee8c41760e31b5f5260045ffd5b15612b9557565b63b2094b5960e01b5f5260045ffd5b6001600160a01b03168015612c02575f516020614f045f395f51905f5280546001600160a01b0319811683179091556001600160a01b03167f8be0079c531659141344cd1fd0a4f28419497f9722a3daafe3b4186f6b6457e05f80a3565b631e4fbdf760e01b5f525f60045260245ffd5b5f516020614f045f395f51905f52546001600160a01b03163303612c3557565b63118cdaa760e01b5f523360045260245ffd5b60a082018051808312159081612cb7575b60c08501519115612c9e575050612c7360e09151836124cd565b92018051908115611da957519207612c89575050565b6382fe647b60e01b5f5260045260245260445ffd5b83638a228b0d60e01b5f5260045260245260445260645ffd5b60c08501518413159150612c59565b8115611da957600160ff1b81145f198314166124e5570590565b15612ce9575050565b9063ffffffff80926306fd47d960e41b5f52166004521660245260445ffd5b9290612d4890612d40612d2160a08601968751906124cd565b9163ffffffff612d3760e0880194855190612cc6565b169651906124cd565b905190612cc6565b5f1981019081136001166124e55763ffffffff1663ffffffff8061010083950151161680851080612daa575b15612d8857508084610d2292811115612ce0565b63ffffffff82818763727dbc1360e01b5f52166004521660245260445260645ffd5b50808210612d74565b600154612dcf9160a091611a54906001600160a01b0316610554565b03915afa908115610429575f91612e56575b50612df861033f82515f52600260205260405f2090565b612e08610b896020830151151590565b612e505760806020830151910151809113159081612e42575b5015612e3d57606001516128ea906001600160801b031661060d565b505f90565b90506040820151135f612e21565b50505f90565b612e6f915060a03d60a01161077b5761076d8183610cf1565b5f612de1565b3d15612e9f573d90612e8682610d24565b91612e946040519384610cf1565b82523d5f602084013e565b606090565b6006546001600160a01b03168015612f28575f8091604051368382378036810184815203915af4612ed3612e75565b9015612edc5790565b805115612eeb57602081519101fd5b60405162461bcd60e51b815260206004820152601560248201527413585b9859d95c91195b1959d85d1951985a5b1959605a1b6044820152606490fd5b6321f7ab5360e01b5f5260045ffd5b15612f3e57565b635fba374760e11b5f5260045ffd5b15612f5457565b632dc1896b60e11b5f5260045ffd5b5f198101919082116124e557565b6103e803906103e882116124e557565b919082039182116124e557565b8015611da9575f190490565b8115611da9570490565b60ff5f516020614f445f395f51905f525416612fbc57565b63d93c066560e01b5f5260045ffd5b60025f516020614f645f395f51905f525414612ff45760025f516020614f645f395f51905f5255565b633ee5aeb560e01b5f5260045ffd5b5f526002602052610d226001600160401b0360405f205461302660ff8216612b62565b613037828260101c16421015612b78565b60501c16421115612b8e565b919082018092116124e557565b156130585750565b635a0c51d560e11b5f526004526103e860245260445ffd5b1561307757565b6332103c0560e21b5f5260045ffd5b1561308d57565b63fb65ff6360e01b5f5260045ffd5b156130a357565b6367d96d3f60e11b5f5260045ffd5b5f1981146124e55760010190565b156130c85750565b63087e358960e01b5f5260045260245ffd5b9161012093916130f561033f855f52600260205260405f2090565b93613101858484612d08565b96909501516040516330ed1f5d60e01b815260048101829052670de0b6b3a7640000602482015290959073__$cbaf8988f3c8d5491808e1d52afb16035a$__90602081604481855af4801561042957613161915f916136ed575b50612f63565b91828711613176575050506128ea95506147cd565b90935082945061319760026125d160209499955f52600360205260405f2090565b60405163694f552560e01b8152600481019190915263ffffffff9182166024820152971660448801528660648173__$e8b8ff73fdf5e99c3df6a4b39aa1f5b319$__5af4958615610429575f966136cc575b506131f78394931515612f37565b6132206132158661321061320b8288613043565b612f63565b612f9a565b6103e8811115613050565b5f92935f935b851515806136c1575b156136af57868611156136a957865b6040516316cf339960e21b81526004810182905260248101859052602081604481895af490811561042957613297916020915f9161368c575b506040518093819263ec6e92cd60e01b8352600483019190602083019252565b0381895af4908115610429576132df916020915f9161366f575b50604051809381926316cf339960e21b835260048301919060206040840193670de0b6b3a764000081520152565b0381895af4908115610429575f91613651575b506132fc81612f8e565b8a1161350f575b9860206133449a821580156134f8575b61331c90613070565b6040516330ed1f5d60e01b81526004810184905260248101919091529a8b9081906044820190565b0381895af4998a15610429575f9a6134d0575b508961336661336b9286612f81565b613043565b92613377841515613086565b8381116133aa575b50806133a1929361339461339b93151561309c565b9997612f81565b946130b2565b93949690613226565b6040516316cf339960e21b81526004810191909152602481018490529190602083604481895af492831561042957613406936020915f916134b3575b506040518095819263360816cf60e01b8352600483019190602083019252565b0381895af492831561042957613449936020915f91613496575b506040516330ed1f5d60e01b815260048101889052602481019190915293849081906044820190565b0381895af4928315610429576133a19361339b9361346e925f92613476575b50613043565b92509061337f565b61348f91925060203d8111610a7657610a6e8183610cf1565b905f613468565b6134ad9150823d8111610a7657610a6e8183610cf1565b5f613420565b6134ca9150823d8111610a7657610a6e8183610cf1565b5f6133e6565b6133669a50906134f061336b9260203d8111610a7657610a6e8183610cf1565b9a5090613357565b5061331c61350584612f8e565b8211159050613313565b505061352561351d86612f71565b87858b614696565b86811161364a575b6040516316cf339960e21b815260048101829052602481018590529860208a604481895af4998a15610429576135879a6020915f9161362d575b50604051809c819263ec6e92cd60e01b8352600483019190602083019252565b0381895af4998a15610429576135cf9a6020915f91613610575b50604051809c81926316cf339960e21b835260048301919060206040840193670de0b6b3a764000081520152565b0381895af4998a15610429576133449a6020915f916135f3575b50919a5050613303565b61360a9150823d8111610a7657610a6e8183610cf1565b5f6135e9565b6136279150823d8111610a7657610a6e8183610cf1565b5f6135a1565b6136449150823d8111610a7657610a6e8183610cf1565b5f613567565b508561352d565b613669915060203d8111610a7657610a6e8183610cf1565b5f6132f2565b6136869150823d8111610a7657610a6e8183610cf1565b5f6132b1565b6136a39150823d8111610a7657610a6e8183610cf1565b5f613277565b8561323e565b9650505050506128ea915080156130c0565b506103e8851061322f565b6136e691965060203d602011610a7657610a6e8183610cf1565b945f6131e9565b613706915060203d602011610a7657610a6e8183610cf1565b5f61315b565b1561371357565b63a2f9e7b560e01b5f5260045ffd5b1561372957565b6332581cb160e01b5f5260045ffd5b919392909261375c61375561033f855f52600260205260405f2090565b8686612d08565b6040516330ed1f5d60e01b815260048101849052670de0b6b3a7640000602482015273__$cbaf8988f3c8d5491808e1d52afb16035a$__949293919290602081604481895af48015610429576137b8915f916136ed5750612f63565b80821161399a57506040516316cf339960e21b815260048101919091526024810191909152602081604481875af49081156104295761381a916020915f9161398357506040518093819263ec6e92cd60e01b8352600483019190602083019252565b0381875af4801561042957613862946020925f92613964575b5060405180809781946316cf339960e21b835260048301919060206040840193670de0b6b3a764000081520152565b03915af4928315610429575f93613943575b50662386f26fc1000083101580613930575b61388f9061370c565b73__$e8b8ff73fdf5e99c3df6a4b39aa1f5b319$__906138b7855f52600360205260405f2090565b91803b156102e3576040516330f27d1f60e01b8152600481019390935263ffffffff9384166024840152921660448201526064810183905291905f90839060849082905af4908115610429575f516020614ee45f395f51905f529261392b9261040f57506040519081529081906020820190565b0390a4565b5068056bc75e2d63100000831115613886565b61395d91935060203d602011610a7657610a6e8183610cf1565b915f613874565b61397c919250833d8511610a7657610a6e8183610cf1565b905f613833565b6136a39150823d8411610a7657610a6e8183610cf1565b949897939692906139b86132158761321061320b82869c989c613043565b905f9573__$e8b8ff73fdf5e99c3df6a4b39aa1f5b319$__925b80151580613bfe575b15613be85781811115613bdb57613a1a8260208b8f5b60405180809681946316cf339960e21b8352876004840160209093929193604081019481520152565b03915af491821561042957613a55928f6020925f92613bbc575b50604051808096819463ec6e92cd60e01b8352600483019190602083019252565b03915af491821561042957613a9e928f6020925f92613b9d575b5060405180809681946316cf339960e21b835260048301919060206040840193670de0b6b3a764000081520152565b03915af4918215610429575f92613b7d575b50662386f26fc1000082101580613b6a575b613acb9061370c565b613add875f52600360205260405f2090565b92863b156102e3576040516330f27d1f60e01b8152600481019490945263ffffffff8d8116602486015286166044850152606484018390525f846084818a5af49384156104295789895f516020614ee45f395f51905f52613b56613b5e978f95613b649a61040f57506040519081529081906020820190565b0390a4612f81565b976130b2565b966139d2565b5068056bc75e2d63100000821115613ac2565b613b9691925060203d8111610a7657610a6e8183610cf1565b905f613ab0565b613bb5919250833d8111610a7657610a6e8183610cf1565b905f613a6f565b613bd4919250833d8111610a7657610a6e8183610cf1565b905f613a34565b613a1a8160208b8f6139f1565b98505050505050505050610d2291925015613722565b506103e888106139db565b9193929092613c2661375561033f855f52600260205260405f2090565b6040516330ed1f5d60e01b815260048101849052670de0b6b3a7640000602482015273__$cbaf8988f3c8d5491808e1d52afb16035a$__949293919290602081604481895af4801561042957613c82915f916136ed5750612f63565b808211613d0457506040516316cf339960e21b815260048101919091526024810191909152602081604481875af4801561042957613862946020925f92613ce5575b50604051808097819463ec6e92cd60e01b8352600483019190602083019252565b613cfd919250833d8511610a7657610a6e8183610cf1565b905f613cc4565b94989793969290613d226132158761321061320b82869c989c613043565b905f9573__$e8b8ff73fdf5e99c3df6a4b39aa1f5b319$__925b80151580613eb1575b15613be85781811115613ea4576040516316cf339960e21b815260048101839052602481018a9052826020828f8180604481015b03915af491821561042957613db3928f6020925f92613bbc5750604051808096819463ec6e92cd60e01b8352600483019190602083019252565b03915af4918215610429575f92613e84575b50662386f26fc1000082101580613e71575b613de09061370c565b613df2875f52600360205260405f2090565b92863b156102e3576040516330f27d1f60e01b8152600481019490945263ffffffff8d8116602486015286166044850152606484018390525f846084818a5af49384156104295789895f516020614ee45f395f51905f52613b56613b5e978f95613e6b9a61040f57506040519081529081906020820190565b96613d3c565b5068056bc75e2d63100000821115613dd7565b613e9d91925060203d8111610a7657610a6e8183610cf1565b905f613dc5565b613d798160208b8f6139f1565b506103e88810613d45565b81613ec5575050565b5f5460405163a9059cbb60e01b60208201526001600160a01b039283166024820152604480820194909452928352610d22929116613f04606483610cf1565b614e15565b610d2290613f15614b36565b61234d614b36565b613f25614b36565b613f2d614b36565b60015f516020614f645f395f51905f5255565b15613f49575050565b6339bff21b60e01b5f5260045260245260445ffd5b92909161012092613f7a61033f865f52600260205260405f2090565b94613f86868484612d08565b95909601516040516330ed1f5d60e01b815260048101829052670de0b6b3a7640000602482015290959073__$cbaf8988f3c8d5491808e1d52afb16035a$__90602081604481855af4801561042957613fe5915f916136ed5750612f63565b91828711613ffa575050506128ea9550614c03565b9293509350949560209061402c600261401b865f52600360205260405f2090565b0154945f52600360205260405f2090565b60405163694f552560e01b8152600481019190915263ffffffff9182166024820152921660448301528160648173__$e8b8ff73fdf5e99c3df6a4b39aa1f5b319$__5af4908115610429575f91614435575b5092909161408d831515612f37565b6140a16132158661321061320b8287613043565b5f919293905f925b8415158061442a575b15614417576140f091908786111561441157875b6040516316cf339960e21b815260048101829052602481018b905293602090859081906044820190565b0381865af49384156104295761412a946020915f916143cc575b506040518096819263ec6e92cd60e01b8352600483019190602083019252565b0381865af4938415610429575f946143f1575b5061414784612f8e565b8511614313575b602061418e94861580156142fc575b61416690613070565b6040516330ed1f5d60e01b815260048101889052602481019190915294859081906044820190565b0381865af4938415610429575f946142cc575b5060206141b7856133666141ed9697988c612f81565b986141c58a82808211613f40565b6040516316cf339960e21b8152600481018b9052602481019190915293849081906044820190565b0381875af492831561042957614226936020915f916134b357506040518095819263360816cf60e01b8352600483019190602083019252565b0381875af492831561042957614269936020915f916142af575b506040516330ed1f5d60e01b8152600481018d9052602481019190915293849081906044820190565b0381875af4928315610429576142a6936142a09361428d925f926134765750613043565b9761429982151561309c565b9496612f81565b936130b2565b929391946140a9565b6142c69150823d8111610a7657610a6e8183610cf1565b5f614240565b6141ed9394506141b7613366966142f1602093843d8111610a7657610a6e8183610cf1565b9695509650506141a1565b5061416661430988612f8e565b821115905061415d565b50915061432a61432285612f71565b868a86614696565b918583116143e9575b6040516316cf339960e21b815260048101849052602481018a905292602084604481865af49384156104295761438c946020915f916143cc57506040518096819263ec6e92cd60e01b8352600483019190602083019252565b0381865af49384156104295761418e946020915f916143af575b5094505061414e565b6143c69150823d8111610a7657610a6e8183610cf1565b5f6143a6565b6143e39150823d8111610a7657610a6e8183610cf1565b5f61410a565b859250614333565b61440a91945060203d8111610a7657610a6e8183610cf1565b925f61413d565b856140c6565b965050505090506128ea915080156130c0565b506103e884106140b2565b61444e915060203d602011610a7657610a6e8183610cf1565b5f61407e565b8161445d575050565b5f546040516370a0823160e01b81526001600160a01b0383811660048301526020908290602490829086165afa908115610429575f916144d8575b508381106144b65750610d22929130916001600160a01b0316614dd1565b838363db42144d60e01b5f5260018060a01b031660045260245260445260645ffd5b6144f1915060203d602011610a7657610a6e8183610cf1565b5f614498565b6040516330ed1f5d60e01b815260048101839052670de0b6b3a764000060248201529092919073__$cbaf8988f3c8d5491808e1d52afb16035a$__602082604481845af480156104295785925f91614677575b5090670de0b6b3a7640000939293955b6145645750505050565b909192948286115f1461467157825b6040516316cf339960e21b81526004810182905260248101869052602081604481875af4908115610429576145cb916020915f9161368c57506040518093819263ec6e92cd60e01b8352600483019190602083019252565b0381875af480156104295761460e936020925f92614652575b506040516330ed1f5d60e01b81526004810191909152602481019190915292839081906044820190565b0381865af480156104295761462b925f91614634575b5096612f81565b9291908361455a565b61464c915060203d8111610a7657610a6e8183610cf1565b5f614624565b61466a919250833d8111610a7657610a6e8183610cf1565b905f6145e4565b85614573565b614690915060203d602011610a7657610a6e8183610cf1565b5f61454a565b9091939280156147c8578061321061320b6146b19388613043565b9182156147bf575b6040516330ed1f5d60e01b815260048101829052670de0b6b3a7640000602482015273__$cbaf8988f3c8d5491808e1d52afb16035a$__90602081604481855af4908115610429575f916147a0575b506040516330ed1f5d60e01b8152600481018490526802b5e3af16b1880000602482015290939091602090839060449082905af4918215610429575f9261477f575b5011614773575b508082101561476b5750915b8083116147675750565b9150565b90509161475d565b600a900490505f614751565b61479991925060203d602011610a7657610a6e8183610cf1565b905f61474a565b6147b9915060203d602011610a7657610a6e8183610cf1565b5f614708565b600192506146b9565b505050565b9091926147e561033f835f52600260205260405f2090565b9060026147fa845f52600360205260405f2090565b01546040516316cf339960e21b81526004810183905260248101889052909573__$cbaf8988f3c8d5491808e1d52afb16035a$__9591949091906020866044818a5af495861561042957614872966020915f91614b19575b506040518098819263ec6e92cd60e01b8352600483019190602083019252565b03818a5af4958615610429576148ba966020915f91614afc575b50604051809881926316cf339960e21b835260048301919060206040840193670de0b6b3a764000081520152565b03818a5af4948515610429576020965f96614ad9575b506148dc908484612d08565b96906148f0835f52600360205260405f2090565b60405163694f552560e01b8152600481019190915263ffffffff9182166024820152971660448801528660648173__$e8b8ff73fdf5e99c3df6a4b39aa1f5b319$__5af4958615610429575f96614ab8575b5061494c85612f8e565b8611614aa65750505050906020614991926149678387612f81565b6040516330ed1f5d60e01b8152600481019490945260248401919091529192839081906044820190565b0381865af4908115610429576149ad925f92614a8c5750613043565b916149b9831515613086565b82811115612863576040516316cf339960e21b815260048101919091526024810192909252602082604481845af491821561042957614a1b926020915f916127f357506040518094819263360816cf60e01b8352600483019190602083019252565b0381845af490811561042957614a5e936020935f936127d457506040518095819482936330ed1f5d60e01b84526004840160209093929193604081019481520152565b03915af4908115610429575f91614a73575090565b6128ea915060203d602011610a7657610a6e8183610cf1565b61348f91925060203d602011610a7657610a6e8183610cf1565b93509350935093506128ea94506130da565b614ad291965060203d602011610a7657610a6e8183610cf1565b945f614942565b6148dc919650614af590883d8a11610a7657610a6e8183610cf1565b95906148d0565b614b139150823d8411610a7657610a6e8183610cf1565b5f61488c565b614b309150823d8411610a7657610a6e8183610cf1565b5f614852565b60ff5f516020614f845f395f51905f525460401c1615614b5257565b631afcd79f60e31b5f5260045ffd5b90813b15614be2575f516020614f245f395f51905f5280546001600160a01b0319166001600160a01b0384169081179091557fbc7cd75a20ee27fd9adebab32041f755214dbc6bffa90cc0225b39da2e5c2d3b5f80a2805115614bca57614bc791614e6d565b50565b505034614bd357565b63b398979f60e01b5f5260045ffd5b50634c9c8ce360e01b5f9081526001600160a01b0391909116600452602490fd5b909192614c1b61033f835f52600260205260405f2090565b906002614c30845f52600360205260405f2090565b01546040516316cf339960e21b81526004810183905260248101889052909573__$cbaf8988f3c8d5491808e1d52afb16035a$__9591949091906020866044818a5af495861561042957614ca7966020915f91614b1957506040518098819263ec6e92cd60e01b8352600483019190602083019252565b03818a5af4948515610429576020965f96614dae575b50614cc9908484612d08565b9690614cdd835f52600360205260405f2090565b60405163694f552560e01b8152600481019190915263ffffffff9182166024820152971660448801528660648173__$e8b8ff73fdf5e99c3df6a4b39aa1f5b319$__5af4958615610429575f96614d8d575b50614d3b881515612f37565b614d4485612f8e565b8611614d7b5750505050906020614d5f926149678387612f81565b0381865af4908115610429576149b9925f92614a8c5750613043565b93509350935093506128ea9450613f5e565b614da791965060203d602011610a7657610a6e8183610cf1565b945f614d2f565b614cc9919650614dca90883d8a11610a7657610a6e8183610cf1565b9590614cbd565b6040516323b872dd60e01b60208201526001600160a01b039283166024820152929091166044830152606480830193909352918152610d2291613f04608483610cf1565b905f602091828151910182855af1156124ae575f513d614e6457506001600160a01b0381163b155b614e445750565b635274afe760e01b5f9081526001600160a01b0391909116600452602490fd5b60011415614e3d565b5f806128ea93602081519101845af4614e84612e75565b9190614ea95750805115614e9a57805190602001fd5b63d6bda27560e01b5f5260045ffd5b81511580614eda575b614eba575090565b639996b31560e01b5f9081526001600160a01b0391909116600452602490fd5b50803b15614eb256fe221f633c06e4399f005a7cec7ba7c4ff189e3fe19092cbafe32a5f176ffc797f9016d09d72d40fdae2fd8ceac6b6234c7706214fd39c1cd1e609a0528c199300360894a13ba1a3210667c828492db98dca3e2076cc3735a920a3ca505d382bbccd5ed15c6e187e77e9aee88184c21f4f2182ab5827cb3b7e07fbedcd63f033009b779b17422d0df92223018b32b4d1fa46e071723d6817e2486d003becc55f00f0c57e16840df040f15088dc2f81fe391c3923bec73e23a9662efc9c229c6a00a164736f6c634300081e000a",
  "linkReferences": {
    "contracts/libraries/FixedPointMath.sol": {
      "FixedPointMathU": [
        {
          "length": 20,
          "start": 9901
        },
        {
          "length": 20,
          "start": 12635
        },
        {
          "length": 20,
          "start": 14254
        },
        {
          "length": 20,
          "start": 15480
        },
        {
          "length": 20,
          "start": 16352
        },
        {
          "length": 20,
          "start": 17741
        },
        {
          "length": 20,
          "start": 18187
        },
        {
          "length": 20,
          "start": 18505
        },
        {
          "length": 20,
          "start": 19583
        }
      ]
    },
    "contracts/libraries/LazyMulSegmentTree.sol": {
      "LazyMulSegmentTree": [
        {
          "length": 20,
          "start": 925
        },
        {
          "length": 20,
          "start": 2636
        },
        {
          "length": 20,
          "start": 9791
        },
        {
          "length": 20,
          "start": 12788
        },
        {
          "length": 20,
          "start": 14527
        },
        {
          "length": 20,
          "start": 14827
        },
        {
          "length": 20,
          "start": 15701
        },
        {
          "length": 20,
          "start": 16521
        },
        {
          "length": 20,
          "start": 18765
        },
        {
          "length": 20,
          "start": 19770
        }
      ]
    }
  },
  "deployedLinkReferences": {
    "contracts/libraries/FixedPointMath.sol": {
      "FixedPointMathU": [
        {
          "length": 20,
          "start": 9855
        },
        {
          "length": 20,
          "start": 12589
        },
        {
          "length": 20,
          "start": 14208
        },
        {
          "length": 20,
          "start": 15434
        },
        {
          "length": 20,
          "start": 16306
        },
        {
          "length": 20,
          "start": 17695
        },
        {
          "length": 20,
          "start": 18141
        },
        {
          "length": 20,
          "start": 18459
        },
        {
          "length": 20,
          "start": 19537
        }
      ]
    },
    "contracts/libraries/LazyMulSegmentTree.sol": {
      "LazyMulSegmentTree": [
        {
          "length": 20,
          "start": 879
        },
        {
          "length": 20,
          "start": 2590
        },
        {
          "length": 20,
          "start": 9745
        },
        {
          "length": 20,
          "start": 12742
        },
        {
          "length": 20,
          "start": 14481
        },
        {
          "length": 20,
          "start": 14781
        },
        {
          "length": 20,
          "start": 15655
        },
        {
          "length": 20,
          "start": 16475
        },
        {
          "length": 20,
          "start": 18719
        },
        {
          "length": 20,
          "start": 19724
        }
      ]
    }
  }
}