{
  "_format": "hh-sol-artifact-1",
  "contractName": "CLMSRMarketCore",
  "sourceName": "contracts/core/CLMSRMarketCore.sol",
  "abi": [
    {
      "inputs": [
        {
          "internalType": "address",
          "name": "target",
          "type": "address"
        }
      ],
      "name": "AddressEmptyCode",
      "type": "error"
    },
    {
      "inputs": [],
      "name": "AffectedSumZero",
      "type": "error"
    },
    {
      "inputs": [],
      "name": "ArrayLengthMismatch",
      "type": "error"
    },
    {
      "inputs": [
        {
          "internalType": "uint32",
          "name": "requested",
          "type": "uint32"
        },
        {
          "internalType": "uint32",
          "name": "maxAllowed",
          "type": "uint32"
        }
      ],
      "name": "BinCountExceedsLimit",
      "type": "error"
    },
    {
      "inputs": [
        {
          "internalType": "uint32",
          "name": "bin",
          "type": "uint32"
        },
        {
          "internalType": "uint32",
          "name": "numBins",
          "type": "uint32"
        }
      ],
      "name": "BinOutOfBounds",
      "type": "error"
    },
    {
      "inputs": [
        {
          "internalType": "uint256",
          "name": "required",
          "type": "uint256"
        },
        {
          "internalType": "uint256",
          "name": "maxAllowed",
          "type": "uint256"
        }
      ],
      "name": "ChunkLimitExceeded",
      "type": "error"
    },
    {
      "inputs": [
        {
          "internalType": "uint256",
          "name": "cost",
          "type": "uint256"
        },
        {
          "internalType": "uint256",
          "name": "maxAllowed",
          "type": "uint256"
        }
      ],
      "name": "CostExceedsMaximum",
      "type": "error"
    },
    {
      "inputs": [
        {
          "internalType": "address",
          "name": "implementation",
          "type": "address"
        }
      ],
      "name": "ERC1967InvalidImplementation",
      "type": "error"
    },
    {
      "inputs": [],
      "name": "ERC1967NonPayable",
      "type": "error"
    },
    {
      "inputs": [],
      "name": "EnforcedPause",
      "type": "error"
    },
    {
      "inputs": [],
      "name": "ExpectedPause",
      "type": "error"
    },
    {
      "inputs": [],
      "name": "FactorOutOfBounds",
      "type": "error"
    },
    {
      "inputs": [],
      "name": "FailedCall",
      "type": "error"
    },
    {
      "inputs": [],
      "name": "IncompleteChunkProcessing",
      "type": "error"
    },
    {
      "inputs": [
        {
          "internalType": "uint32",
          "name": "index",
          "type": "uint32"
        },
        {
          "internalType": "uint32",
          "name": "size",
          "type": "uint32"
        }
      ],
      "name": "IndexOutOfBounds",
      "type": "error"
    },
    {
      "inputs": [
        {
          "internalType": "address",
          "name": "account",
          "type": "address"
        },
        {
          "internalType": "uint256",
          "name": "required",
          "type": "uint256"
        },
        {
          "internalType": "uint256",
          "name": "available",
          "type": "uint256"
        }
      ],
      "name": "InsufficientBalance",
      "type": "error"
    },
    {
      "inputs": [
        {
          "internalType": "uint128",
          "name": "want",
          "type": "uint128"
        },
        {
          "internalType": "uint128",
          "name": "have",
          "type": "uint128"
        }
      ],
      "name": "InsufficientPositionQuantity",
      "type": "error"
    },
    {
      "inputs": [
        {
          "internalType": "uint256",
          "name": "factor",
          "type": "uint256"
        }
      ],
      "name": "InvalidFactor",
      "type": "error"
    },
    {
      "inputs": [],
      "name": "InvalidInitialization",
      "type": "error"
    },
    {
      "inputs": [],
      "name": "InvalidLiquidityParameter",
      "type": "error"
    },
    {
      "inputs": [
        {
          "internalType": "int256",
          "name": "minTick",
          "type": "int256"
        },
        {
          "internalType": "int256",
          "name": "maxTick",
          "type": "int256"
        },
        {
          "internalType": "int256",
          "name": "tickSpacing",
          "type": "int256"
        }
      ],
      "name": "InvalidMarketParameters",
      "type": "error"
    },
    {
      "inputs": [
        {
          "internalType": "uint128",
          "name": "qty",
          "type": "uint128"
        }
      ],
      "name": "InvalidQuantity",
      "type": "error"
    },
    {
      "inputs": [
        {
          "internalType": "uint32",
          "name": "lo",
          "type": "uint32"
        },
        {
          "internalType": "uint32",
          "name": "hi",
          "type": "uint32"
        }
      ],
      "name": "InvalidRange",
      "type": "error"
    },
    {
      "inputs": [
        {
          "internalType": "uint32",
          "name": "lowerBin",
          "type": "uint32"
        },
        {
          "internalType": "uint32",
          "name": "upperBin",
          "type": "uint32"
        }
      ],
      "name": "InvalidRangeBins",
      "type": "error"
    },
    {
      "inputs": [
        {
          "internalType": "int256",
          "name": "ranges",
          "type": "int256"
        },
        {
          "internalType": "uint256",
          "name": "maxAllowed",
          "type": "uint256"
        }
      ],
      "name": "InvalidRangeCount",
      "type": "error"
    },
    {
      "inputs": [
        {
          "internalType": "int256",
          "name": "tick",
          "type": "int256"
        },
        {
          "internalType": "int256",
          "name": "minTick",
          "type": "int256"
        },
        {
          "internalType": "int256",
          "name": "maxTick",
          "type": "int256"
        }
      ],
      "name": "InvalidTick",
      "type": "error"
    },
    {
      "inputs": [
        {
          "internalType": "int256",
          "name": "lowerTick",
          "type": "int256"
        },
        {
          "internalType": "int256",
          "name": "upperTick",
          "type": "int256"
        }
      ],
      "name": "InvalidTickRange",
      "type": "error"
    },
    {
      "inputs": [
        {
          "internalType": "int256",
          "name": "tick",
          "type": "int256"
        },
        {
          "internalType": "int256",
          "name": "tickSpacing",
          "type": "int256"
        }
      ],
      "name": "InvalidTickSpacing",
      "type": "error"
    },
    {
      "inputs": [],
      "name": "InvalidTimeRange",
      "type": "error"
    },
    {
      "inputs": [
        {
          "internalType": "uint8",
          "name": "provided",
          "type": "uint8"
        },
        {
          "internalType": "uint8",
          "name": "expected",
          "type": "uint8"
        }
      ],
      "name": "InvalidTokenDecimals",
      "type": "error"
    },
    {
      "inputs": [],
      "name": "LazyFactorOverflow",
      "type": "error"
    },
    {
      "inputs": [],
      "name": "ManagerNotSet",
      "type": "error"
    },
    {
      "inputs": [
        {
          "internalType": "uint256",
          "name": "marketId",
          "type": "uint256"
        }
      ],
      "name": "MarketAlreadyExists",
      "type": "error"
    },
    {
      "inputs": [
        {
          "internalType": "uint256",
          "name": "marketId",
          "type": "uint256"
        }
      ],
      "name": "MarketAlreadySettled",
      "type": "error"
    },
    {
      "inputs": [],
      "name": "MarketExpired",
      "type": "error"
    },
    {
      "inputs": [],
      "name": "MarketNotActive",
      "type": "error"
    },
    {
      "inputs": [
        {
          "internalType": "uint256",
          "name": "marketId",
          "type": "uint256"
        }
      ],
      "name": "MarketNotFound",
      "type": "error"
    },
    {
      "inputs": [
        {
          "internalType": "uint256",
          "name": "marketId",
          "type": "uint256"
        }
      ],
      "name": "MarketNotSettled",
      "type": "error"
    },
    {
      "inputs": [],
      "name": "MarketNotStarted",
      "type": "error"
    },
    {
      "inputs": [],
      "name": "MathMulOverflow",
      "type": "error"
    },
    {
      "inputs": [],
      "name": "NoChunkProgress",
      "type": "error"
    },
    {
      "inputs": [
        {
          "internalType": "uint256",
          "name": "beforeSum",
          "type": "uint256"
        },
        {
          "internalType": "uint256",
          "name": "afterSum",
          "type": "uint256"
        }
      ],
      "name": "NonIncreasingSum",
      "type": "error"
    },
    {
      "inputs": [],
      "name": "NotInitializing",
      "type": "error"
    },
    {
      "inputs": [
        {
          "internalType": "address",
          "name": "owner",
          "type": "address"
        }
      ],
      "name": "OwnableInvalidOwner",
      "type": "error"
    },
    {
      "inputs": [
        {
          "internalType": "address",
          "name": "account",
          "type": "address"
        }
      ],
      "name": "OwnableUnauthorizedAccount",
      "type": "error"
    },
    {
      "inputs": [
        {
          "internalType": "uint256",
          "name": "positionId",
          "type": "uint256"
        }
      ],
      "name": "PositionNotFound",
      "type": "error"
    },
    {
      "inputs": [
        {
          "internalType": "uint256",
          "name": "proceeds",
          "type": "uint256"
        },
        {
          "internalType": "uint256",
          "name": "minProceeds",
          "type": "uint256"
        }
      ],
      "name": "ProceedsBelowMinimum",
      "type": "error"
    },
    {
      "inputs": [],
      "name": "QuantityOverflow",
      "type": "error"
    },
    {
      "inputs": [
        {
          "internalType": "int256",
          "name": "bin",
          "type": "int256"
        },
        {
          "internalType": "uint32",
          "name": "numBins",
          "type": "uint32"
        }
      ],
      "name": "RangeBinOutOfBounds",
      "type": "error"
    },
    {
      "inputs": [
        {
          "internalType": "uint32",
          "name": "lowerBin",
          "type": "uint32"
        },
        {
          "internalType": "uint32",
          "name": "upperBin",
          "type": "uint32"
        },
        {
          "internalType": "uint32",
          "name": "numBins",
          "type": "uint32"
        }
      ],
      "name": "RangeBinsOutOfBounds",
      "type": "error"
    },
    {
      "inputs": [],
      "name": "ReentrancyGuardReentrantCall",
      "type": "error"
    },
    {
      "inputs": [
        {
          "internalType": "uint256",
          "name": "remaining",
          "type": "uint256"
        }
      ],
      "name": "ResidualQuantity",
      "type": "error"
    },
    {
      "inputs": [
        {
          "internalType": "address",
          "name": "token",
          "type": "address"
        }
      ],
      "name": "SafeERC20FailedOperation",
      "type": "error"
    },
    {
      "inputs": [
        {
          "internalType": "uint64",
          "name": "requiredTimestamp",
          "type": "uint64"
        },
        {
          "internalType": "uint64",
          "name": "currentTimestamp",
          "type": "uint64"
        }
      ],
      "name": "SettlementTooEarly",
      "type": "error"
    },
    {
      "inputs": [],
      "name": "SumAfterZero",
      "type": "error"
    },
    {
      "inputs": [],
      "name": "TreeAlreadyInitialized",
      "type": "error"
    },
    {
      "inputs": [],
      "name": "TreeNotInitialized",
      "type": "error"
    },
    {
      "inputs": [],
      "name": "TreeSizeTooLarge",
      "type": "error"
    },
    {
      "inputs": [],
      "name": "TreeSizeZero",
      "type": "error"
    },
    {
      "inputs": [],
      "name": "UUPSUnauthorizedCallContext",
      "type": "error"
    },
    {
      "inputs": [
        {
          "internalType": "bytes32",
          "name": "slot",
          "type": "bytes32"
        }
      ],
      "name": "UUPSUnsupportedProxiableUUID",
      "type": "error"
    },
    {
      "inputs": [
        {
          "internalType": "address",
          "name": "caller",
          "type": "address"
        }
      ],
      "name": "UnauthorizedCaller",
      "type": "error"
    },
    {
      "inputs": [],
      "name": "ZeroAddress",
      "type": "error"
    },
    {
      "inputs": [],
      "name": "ZeroLimit",
      "type": "error"
    },
    {
      "anonymous": false,
      "inputs": [
        {
          "indexed": true,
          "internalType": "address",
          "name": "by",
          "type": "address"
        },
        {
          "indexed": false,
          "internalType": "string",
          "name": "reason",
          "type": "string"
        }
      ],
      "name": "EmergencyPaused",
      "type": "event"
    },
    {
      "anonymous": false,
      "inputs": [
        {
          "indexed": true,
          "internalType": "address",
          "name": "by",
          "type": "address"
        }
      ],
      "name": "EmergencyUnpaused",
      "type": "event"
    },
    {
      "anonymous": false,
      "inputs": [
        {
          "indexed": false,
          "internalType": "uint64",
          "name": "version",
          "type": "uint64"
        }
      ],
      "name": "Initialized",
      "type": "event"
    },
    {
      "anonymous": false,
      "inputs": [
        {
          "indexed": true,
          "internalType": "address",
          "name": "oldManager",
          "type": "address"
        },
        {
          "indexed": true,
          "internalType": "address",
          "name": "newManager",
          "type": "address"
        }
      ],
      "name": "ManagerUpdated",
      "type": "event"
    },
    {
      "anonymous": false,
      "inputs": [
        {
          "indexed": true,
          "internalType": "uint256",
          "name": "marketId",
          "type": "uint256"
        },
        {
          "indexed": false,
          "internalType": "bool",
          "name": "isActive",
          "type": "bool"
        }
      ],
      "name": "MarketActivationUpdated",
      "type": "event"
    },
    {
      "anonymous": false,
      "inputs": [
        {
          "indexed": true,
          "internalType": "uint256",
          "name": "marketId",
          "type": "uint256"
        },
        {
          "indexed": false,
          "internalType": "uint64",
          "name": "startTimestamp",
          "type": "uint64"
        },
        {
          "indexed": false,
          "internalType": "uint64",
          "name": "endTimestamp",
          "type": "uint64"
        },
        {
          "indexed": false,
          "internalType": "int256",
          "name": "minTick",
          "type": "int256"
        },
        {
          "indexed": false,
          "internalType": "int256",
          "name": "maxTick",
          "type": "int256"
        },
        {
          "indexed": false,
          "internalType": "int256",
          "name": "tickSpacing",
          "type": "int256"
        },
        {
          "indexed": false,
          "internalType": "uint32",
          "name": "numBins",
          "type": "uint32"
        },
        {
          "indexed": false,
          "internalType": "uint256",
          "name": "liquidityParameter",
          "type": "uint256"
        }
      ],
      "name": "MarketCreated",
      "type": "event"
    },
    {
      "anonymous": false,
      "inputs": [
        {
          "indexed": true,
          "internalType": "uint256",
          "name": "marketId",
          "type": "uint256"
        }
      ],
      "name": "MarketReopened",
      "type": "event"
    },
    {
      "anonymous": false,
      "inputs": [
        {
          "indexed": true,
          "internalType": "uint256",
          "name": "marketId",
          "type": "uint256"
        },
        {
          "indexed": false,
          "internalType": "int256",
          "name": "settlementTick",
          "type": "int256"
        }
      ],
      "name": "MarketSettled",
      "type": "event"
    },
    {
      "anonymous": false,
      "inputs": [
        {
          "indexed": true,
          "internalType": "uint256",
          "name": "marketId",
          "type": "uint256"
        },
        {
          "indexed": false,
          "internalType": "int256",
          "name": "settlementValue",
          "type": "int256"
        }
      ],
      "name": "MarketSettlementValueSubmitted",
      "type": "event"
    },
    {
      "anonymous": false,
      "inputs": [
        {
          "indexed": true,
          "internalType": "uint256",
          "name": "marketId",
          "type": "uint256"
        },
        {
          "indexed": false,
          "internalType": "uint64",
          "name": "newStartTimestamp",
          "type": "uint64"
        },
        {
          "indexed": false,
          "internalType": "uint64",
          "name": "newEndTimestamp",
          "type": "uint64"
        }
      ],
      "name": "MarketTimingUpdated",
      "type": "event"
    },
    {
      "anonymous": false,
      "inputs": [
        {
          "indexed": true,
          "internalType": "address",
          "name": "previousOwner",
          "type": "address"
        },
        {
          "indexed": true,
          "internalType": "address",
          "name": "newOwner",
          "type": "address"
        }
      ],
      "name": "OwnershipTransferred",
      "type": "event"
    },
    {
      "anonymous": false,
      "inputs": [
        {
          "indexed": false,
          "internalType": "address",
          "name": "account",
          "type": "address"
        }
      ],
      "name": "Paused",
      "type": "event"
    },
    {
      "anonymous": false,
      "inputs": [
        {
          "indexed": true,
          "internalType": "uint256",
          "name": "positionId",
          "type": "uint256"
        },
        {
          "indexed": true,
          "internalType": "address",
          "name": "trader",
          "type": "address"
        },
        {
          "indexed": false,
          "internalType": "uint256",
          "name": "payout",
          "type": "uint256"
        }
      ],
      "name": "PositionClaimed",
      "type": "event"
    },
    {
      "anonymous": false,
      "inputs": [
        {
          "indexed": true,
          "internalType": "uint256",
          "name": "positionId",
          "type": "uint256"
        },
        {
          "indexed": true,
          "internalType": "address",
          "name": "trader",
          "type": "address"
        },
        {
          "indexed": false,
          "internalType": "uint256",
          "name": "proceeds",
          "type": "uint256"
        }
      ],
      "name": "PositionClosed",
      "type": "event"
    },
    {
      "anonymous": false,
      "inputs": [
        {
          "indexed": true,
          "internalType": "uint256",
          "name": "positionId",
          "type": "uint256"
        },
        {
          "indexed": true,
          "internalType": "address",
          "name": "trader",
          "type": "address"
        },
        {
          "indexed": false,
          "internalType": "uint128",
          "name": "sellQuantity",
          "type": "uint128"
        },
        {
          "indexed": false,
          "internalType": "uint128",
          "name": "newQuantity",
          "type": "uint128"
        },
        {
          "indexed": false,
          "internalType": "uint256",
          "name": "proceeds",
          "type": "uint256"
        }
      ],
      "name": "PositionDecreased",
      "type": "event"
    },
    {
      "anonymous": false,
      "inputs": [
        {
          "indexed": true,
          "internalType": "uint256",
          "name": "marketId",
          "type": "uint256"
        },
        {
          "indexed": false,
          "internalType": "uint256",
          "name": "from",
          "type": "uint256"
        },
        {
          "indexed": false,
          "internalType": "uint256",
          "name": "to",
          "type": "uint256"
        },
        {
          "indexed": false,
          "internalType": "bool",
          "name": "done",
          "type": "bool"
        }
      ],
      "name": "PositionEventsProgress",
      "type": "event"
    },
    {
      "anonymous": false,
      "inputs": [
        {
          "indexed": true,
          "internalType": "uint256",
          "name": "positionId",
          "type": "uint256"
        },
        {
          "indexed": true,
          "internalType": "address",
          "name": "trader",
          "type": "address"
        },
        {
          "indexed": false,
          "internalType": "uint128",
          "name": "additionalQuantity",
          "type": "uint128"
        },
        {
          "indexed": false,
          "internalType": "uint128",
          "name": "newQuantity",
          "type": "uint128"
        },
        {
          "indexed": false,
          "internalType": "uint256",
          "name": "cost",
          "type": "uint256"
        }
      ],
      "name": "PositionIncreased",
      "type": "event"
    },
    {
      "anonymous": false,
      "inputs": [
        {
          "indexed": true,
          "internalType": "uint256",
          "name": "positionId",
          "type": "uint256"
        },
        {
          "indexed": true,
          "internalType": "address",
          "name": "trader",
          "type": "address"
        },
        {
          "indexed": true,
          "internalType": "uint256",
          "name": "marketId",
          "type": "uint256"
        },
        {
          "indexed": false,
          "internalType": "int256",
          "name": "lowerTick",
          "type": "int256"
        },
        {
          "indexed": false,
          "internalType": "int256",
          "name": "upperTick",
          "type": "int256"
        },
        {
          "indexed": false,
          "internalType": "uint128",
          "name": "quantity",
          "type": "uint128"
        },
        {
          "indexed": false,
          "internalType": "uint256",
          "name": "cost",
          "type": "uint256"
        }
      ],
      "name": "PositionOpened",
      "type": "event"
    },
    {
      "anonymous": false,
      "inputs": [
        {
          "indexed": true,
          "internalType": "uint256",
          "name": "positionId",
          "type": "uint256"
        },
        {
          "indexed": true,
          "internalType": "address",
          "name": "trader",
          "type": "address"
        },
        {
          "indexed": false,
          "internalType": "uint256",
          "name": "payout",
          "type": "uint256"
        },
        {
          "indexed": false,
          "internalType": "bool",
          "name": "isWin",
          "type": "bool"
        }
      ],
      "name": "PositionSettled",
      "type": "event"
    },
    {
      "anonymous": false,
      "inputs": [
        {
          "indexed": true,
          "internalType": "uint256",
          "name": "marketId",
          "type": "uint256"
        },
        {
          "indexed": true,
          "internalType": "int256",
          "name": "lo",
          "type": "int256"
        },
        {
          "indexed": true,
          "internalType": "int256",
          "name": "hi",
          "type": "int256"
        },
        {
          "indexed": false,
          "internalType": "uint256",
          "name": "factor",
          "type": "uint256"
        }
      ],
      "name": "RangeFactorApplied",
      "type": "event"
    },
    {
      "anonymous": false,
      "inputs": [
        {
          "indexed": true,
          "internalType": "uint256",
          "name": "marketId",
          "type": "uint256"
        },
        {
          "indexed": false,
          "internalType": "uint256",
          "name": "operationCount",
          "type": "uint256"
        },
        {
          "indexed": false,
          "internalType": "bytes32",
          "name": "context",
          "type": "bytes32"
        }
      ],
      "name": "RangeFactorBatchApplied",
      "type": "event"
    },
    {
      "anonymous": false,
      "inputs": [
        {
          "indexed": true,
          "internalType": "uint256",
          "name": "marketId",
          "type": "uint256"
        },
        {
          "indexed": false,
          "internalType": "uint64",
          "name": "settlementTimestamp",
          "type": "uint64"
        }
      ],
      "name": "SettlementTimestampUpdated",
      "type": "event"
    },
    {
      "anonymous": false,
      "inputs": [
        {
          "indexed": false,
          "internalType": "address",
          "name": "account",
          "type": "address"
        }
      ],
      "name": "Unpaused",
      "type": "event"
    },
    {
      "anonymous": false,
      "inputs": [
        {
          "indexed": true,
          "internalType": "address",
          "name": "implementation",
          "type": "address"
        }
      ],
      "name": "Upgraded",
      "type": "event"
    },
    {
      "inputs": [],
      "name": "MAX_LIQUIDITY_PARAMETER",
      "outputs": [
        {
          "internalType": "uint256",
          "name": "",
          "type": "uint256"
        }
      ],
      "stateMutability": "view",
      "type": "function"
    },
    {
      "inputs": [],
      "name": "MAX_TICK_COUNT",
      "outputs": [
        {
          "internalType": "uint32",
          "name": "",
          "type": "uint32"
        }
      ],
      "stateMutability": "view",
      "type": "function"
    },
    {
      "inputs": [],
      "name": "MIN_LIQUIDITY_PARAMETER",
      "outputs": [
        {
          "internalType": "uint256",
          "name": "",
          "type": "uint256"
        }
      ],
      "stateMutability": "view",
      "type": "function"
    },
    {
      "inputs": [],
      "name": "UPGRADE_INTERFACE_VERSION",
      "outputs": [
        {
          "internalType": "string",
          "name": "",
          "type": "string"
        }
      ],
      "stateMutability": "view",
      "type": "function"
    },
    {
      "inputs": [],
      "name": "_nextMarketId",
      "outputs": [
        {
          "internalType": "uint256",
          "name": "",
          "type": "uint256"
        }
      ],
      "stateMutability": "view",
      "type": "function"
    },
    {
      "inputs": [
        {
          "internalType": "uint256",
          "name": "marketId",
          "type": "uint256"
        },
        {
          "internalType": "int256",
          "name": "lo",
          "type": "int256"
        },
        {
          "internalType": "int256",
          "name": "hi",
          "type": "int256"
        },
        {
          "internalType": "uint256",
          "name": "factor",
          "type": "uint256"
        }
      ],
      "name": "applyRangeFactor",
      "outputs": [],
      "stateMutability": "nonpayable",
      "type": "function"
    },
    {
      "inputs": [
        {
          "internalType": "uint256",
          "name": "marketId",
          "type": "uint256"
        },
        {
          "internalType": "int256[]",
          "name": "lowers",
          "type": "int256[]"
        },
        {
          "internalType": "int256[]",
          "name": "uppers",
          "type": "int256[]"
        },
        {
          "internalType": "uint256[]",
          "name": "factors",
          "type": "uint256[]"
        },
        {
          "internalType": "bytes32",
          "name": "context",
          "type": "bytes32"
        }
      ],
      "name": "applyRangeFactorBatch",
      "outputs": [],
      "stateMutability": "nonpayable",
      "type": "function"
    },
    {
      "inputs": [
        {
          "internalType": "uint256",
          "name": "positionId",
          "type": "uint256"
        }
      ],
      "name": "calculateClaimAmount",
      "outputs": [
        {
          "internalType": "uint256",
          "name": "amount",
          "type": "uint256"
        }
      ],
      "stateMutability": "view",
      "type": "function"
    },
    {
      "inputs": [
        {
          "internalType": "uint256",
          "name": "positionId",
          "type": "uint256"
        }
      ],
      "name": "calculateCloseProceeds",
      "outputs": [
        {
          "internalType": "uint256",
          "name": "proceeds",
          "type": "uint256"
        }
      ],
      "stateMutability": "view",
      "type": "function"
    },
    {
      "inputs": [
        {
          "internalType": "uint256",
          "name": "positionId",
          "type": "uint256"
        },
        {
          "internalType": "uint128",
          "name": "sellQuantity",
          "type": "uint128"
        }
      ],
      "name": "calculateDecreaseProceeds",
      "outputs": [
        {
          "internalType": "uint256",
          "name": "proceeds",
          "type": "uint256"
        }
      ],
      "stateMutability": "view",
      "type": "function"
    },
    {
      "inputs": [
        {
          "internalType": "uint256",
          "name": "positionId",
          "type": "uint256"
        },
        {
          "internalType": "uint128",
          "name": "additionalQuantity",
          "type": "uint128"
        }
      ],
      "name": "calculateIncreaseCost",
      "outputs": [
        {
          "internalType": "uint256",
          "name": "cost",
          "type": "uint256"
        }
      ],
      "stateMutability": "view",
      "type": "function"
    },
    {
      "inputs": [
        {
          "internalType": "uint256",
          "name": "marketId",
          "type": "uint256"
        },
        {
          "internalType": "int256",
          "name": "lowerTick",
          "type": "int256"
        },
        {
          "internalType": "int256",
          "name": "upperTick",
          "type": "int256"
        },
        {
          "internalType": "uint128",
          "name": "quantity",
          "type": "uint128"
        }
      ],
      "name": "calculateOpenCost",
      "outputs": [
        {
          "internalType": "uint256",
          "name": "cost",
          "type": "uint256"
        }
      ],
      "stateMutability": "view",
      "type": "function"
    },
    {
      "inputs": [
        {
          "internalType": "uint256",
          "name": "marketId",
          "type": "uint256"
        },
        {
          "internalType": "int256",
          "name": "lowerTick",
          "type": "int256"
        },
        {
          "internalType": "int256",
          "name": "upperTick",
          "type": "int256"
        },
        {
          "internalType": "uint256",
          "name": "cost",
          "type": "uint256"
        }
      ],
      "name": "calculateQuantityFromCost",
      "outputs": [
        {
          "internalType": "uint128",
          "name": "quantity",
          "type": "uint128"
        }
      ],
      "stateMutability": "view",
      "type": "function"
    },
    {
      "inputs": [
        {
          "internalType": "uint256",
          "name": "positionId",
          "type": "uint256"
        }
      ],
      "name": "claimPayout",
      "outputs": [
        {
          "internalType": "uint256",
          "name": "payout",
          "type": "uint256"
        }
      ],
      "stateMutability": "nonpayable",
      "type": "function"
    },
    {
      "inputs": [
        {
          "internalType": "uint256",
          "name": "positionId",
          "type": "uint256"
        },
        {
          "internalType": "uint256",
          "name": "minProceeds",
          "type": "uint256"
        }
      ],
      "name": "closePosition",
      "outputs": [
        {
          "internalType": "uint256",
          "name": "proceeds",
          "type": "uint256"
        }
      ],
      "stateMutability": "nonpayable",
      "type": "function"
    },
    {
      "inputs": [
        {
          "internalType": "int256",
          "name": "minTick",
          "type": "int256"
        },
        {
          "internalType": "int256",
          "name": "maxTick",
          "type": "int256"
        },
        {
          "internalType": "int256",
          "name": "tickSpacing",
          "type": "int256"
        },
        {
          "internalType": "uint64",
          "name": "startTimestamp",
          "type": "uint64"
        },
        {
          "internalType": "uint64",
          "name": "endTimestamp",
          "type": "uint64"
        },
        {
          "internalType": "uint64",
          "name": "settlementTimestamp",
          "type": "uint64"
        },
        {
          "internalType": "uint256",
          "name": "liquidityParameter",
          "type": "uint256"
        }
      ],
      "name": "createMarket",
      "outputs": [
        {
          "internalType": "uint256",
          "name": "marketId",
          "type": "uint256"
        }
      ],
      "stateMutability": "nonpayable",
      "type": "function"
    },
    {
      "inputs": [
        {
          "internalType": "uint256",
          "name": "positionId",
          "type": "uint256"
        },
        {
          "internalType": "uint128",
          "name": "sellQuantity",
          "type": "uint128"
        },
        {
          "internalType": "uint256",
          "name": "minProceeds",
          "type": "uint256"
        }
      ],
      "name": "decreasePosition",
      "outputs": [
        {
          "internalType": "uint128",
          "name": "newQuantity",
          "type": "uint128"
        },
        {
          "internalType": "uint256",
          "name": "proceeds",
          "type": "uint256"
        }
      ],
      "stateMutability": "nonpayable",
      "type": "function"
    },
    {
      "inputs": [
        {
          "internalType": "uint256",
          "name": "marketId",
          "type": "uint256"
        },
        {
          "internalType": "uint256",
          "name": "limit",
          "type": "uint256"
        }
      ],
      "name": "emitPositionSettledBatch",
      "outputs": [],
      "stateMutability": "nonpayable",
      "type": "function"
    },
    {
      "inputs": [
        {
          "internalType": "uint256",
          "name": "marketId",
          "type": "uint256"
        }
      ],
      "name": "getMarket",
      "outputs": [
        {
          "components": [
            {
              "internalType": "bool",
              "name": "isActive",
              "type": "bool"
            },
            {
              "internalType": "bool",
              "name": "settled",
              "type": "bool"
            },
            {
              "internalType": "uint64",
              "name": "startTimestamp",
              "type": "uint64"
            },
            {
              "internalType": "uint64",
              "name": "endTimestamp",
              "type": "uint64"
            },
            {
              "internalType": "int256",
              "name": "settlementTick",
              "type": "int256"
            },
            {
              "internalType": "int256",
              "name": "minTick",
              "type": "int256"
            },
            {
              "internalType": "int256",
              "name": "maxTick",
              "type": "int256"
            },
            {
              "internalType": "int256",
              "name": "tickSpacing",
              "type": "int256"
            },
            {
              "internalType": "uint32",
              "name": "numBins",
              "type": "uint32"
            },
            {
              "internalType": "uint256",
              "name": "liquidityParameter",
              "type": "uint256"
            },
            {
              "internalType": "uint32",
              "name": "positionEventsCursor",
              "type": "uint32"
            },
            {
              "internalType": "bool",
              "name": "positionEventsEmitted",
              "type": "bool"
            },
            {
              "internalType": "int256",
              "name": "settlementValue",
              "type": "int256"
            },
            {
              "internalType": "uint64",
              "name": "settlementTimestamp",
              "type": "uint64"
            }
          ],
          "internalType": "struct ICLMSRMarketCore.Market",
          "name": "market",
          "type": "tuple"
        }
      ],
      "stateMutability": "view",
      "type": "function"
    },
    {
      "inputs": [],
      "name": "getPaymentToken",
      "outputs": [
        {
          "internalType": "address",
          "name": "",
          "type": "address"
        }
      ],
      "stateMutability": "view",
      "type": "function"
    },
    {
      "inputs": [],
      "name": "getPositionContract",
      "outputs": [
        {
          "internalType": "address",
          "name": "",
          "type": "address"
        }
      ],
      "stateMutability": "view",
      "type": "function"
    },
    {
      "inputs": [
        {
          "internalType": "uint256",
          "name": "marketId",
          "type": "uint256"
        },
        {
          "internalType": "int256",
          "name": "lo",
          "type": "int256"
        },
        {
          "internalType": "int256",
          "name": "hi",
          "type": "int256"
        }
      ],
      "name": "getRangeSum",
      "outputs": [
        {
          "internalType": "uint256",
          "name": "sum",
          "type": "uint256"
        }
      ],
      "stateMutability": "view",
      "type": "function"
    },
    {
      "inputs": [
        {
          "internalType": "uint256",
          "name": "positionId",
          "type": "uint256"
        },
        {
          "internalType": "uint128",
          "name": "additionalQuantity",
          "type": "uint128"
        },
        {
          "internalType": "uint256",
          "name": "maxCost",
          "type": "uint256"
        }
      ],
      "name": "increasePosition",
      "outputs": [
        {
          "internalType": "uint128",
          "name": "newQuantity",
          "type": "uint128"
        }
      ],
      "stateMutability": "nonpayable",
      "type": "function"
    },
    {
      "inputs": [
        {
          "internalType": "address",
          "name": "_paymentToken",
          "type": "address"
        },
        {
          "internalType": "address",
          "name": "_positionContract",
          "type": "address"
        }
      ],
      "name": "initialize",
      "outputs": [],
      "stateMutability": "nonpayable",
      "type": "function"
    },
    {
      "inputs": [],
      "name": "isPaused",
      "outputs": [
        {
          "internalType": "bool",
          "name": "",
          "type": "bool"
        }
      ],
      "stateMutability": "view",
      "type": "function"
    },
    {
      "inputs": [],
      "name": "manager",
      "outputs": [
        {
          "internalType": "address",
          "name": "",
          "type": "address"
        }
      ],
      "stateMutability": "view",
      "type": "function"
    },
    {
      "inputs": [
        {
          "internalType": "uint256",
          "name": "",
          "type": "uint256"
        }
      ],
      "name": "marketTrees",
      "outputs": [
        {
          "internalType": "uint32",
          "name": "root",
          "type": "uint32"
        },
        {
          "internalType": "uint32",
          "name": "nextIndex",
          "type": "uint32"
        },
        {
          "internalType": "uint32",
          "name": "size",
          "type": "uint32"
        },
        {
          "internalType": "uint256",
          "name": "cachedRootSum",
          "type": "uint256"
        }
      ],
      "stateMutability": "view",
      "type": "function"
    },
    {
      "inputs": [
        {
          "internalType": "uint256",
          "name": "",
          "type": "uint256"
        }
      ],
      "name": "markets",
      "outputs": [
        {
          "internalType": "bool",
          "name": "isActive",
          "type": "bool"
        },
        {
          "internalType": "bool",
          "name": "settled",
          "type": "bool"
        },
        {
          "internalType": "uint64",
          "name": "startTimestamp",
          "type": "uint64"
        },
        {
          "internalType": "uint64",
          "name": "endTimestamp",
          "type": "uint64"
        },
        {
          "internalType": "int256",
          "name": "settlementTick",
          "type": "int256"
        },
        {
          "internalType": "int256",
          "name": "minTick",
          "type": "int256"
        },
        {
          "internalType": "int256",
          "name": "maxTick",
          "type": "int256"
        },
        {
          "internalType": "int256",
          "name": "tickSpacing",
          "type": "int256"
        },
        {
          "internalType": "uint32",
          "name": "numBins",
          "type": "uint32"
        },
        {
          "internalType": "uint256",
          "name": "liquidityParameter",
          "type": "uint256"
        },
        {
          "internalType": "uint32",
          "name": "positionEventsCursor",
          "type": "uint32"
        },
        {
          "internalType": "bool",
          "name": "positionEventsEmitted",
          "type": "bool"
        },
        {
          "internalType": "int256",
          "name": "settlementValue",
          "type": "int256"
        },
        {
          "internalType": "uint64",
          "name": "settlementTimestamp",
          "type": "uint64"
        }
      ],
      "stateMutability": "view",
      "type": "function"
    },
    {
      "inputs": [
        {
          "internalType": "uint256",
          "name": "marketId",
          "type": "uint256"
        },
        {
          "internalType": "int256",
          "name": "lowerTick",
          "type": "int256"
        },
        {
          "internalType": "int256",
          "name": "upperTick",
          "type": "int256"
        },
        {
          "internalType": "uint128",
          "name": "quantity",
          "type": "uint128"
        },
        {
          "internalType": "uint256",
          "name": "maxCost",
          "type": "uint256"
        }
      ],
      "name": "openPosition",
      "outputs": [
        {
          "internalType": "uint256",
          "name": "positionId",
          "type": "uint256"
        }
      ],
      "stateMutability": "nonpayable",
      "type": "function"
    },
    {
      "inputs": [],
      "name": "owner",
      "outputs": [
        {
          "internalType": "address",
          "name": "",
          "type": "address"
        }
      ],
      "stateMutability": "view",
      "type": "function"
    },
    {
      "inputs": [
        {
          "internalType": "string",
          "name": "reason",
          "type": "string"
        }
      ],
      "name": "pause",
      "outputs": [],
      "stateMutability": "nonpayable",
      "type": "function"
    },
    {
      "inputs": [],
      "name": "paused",
      "outputs": [
        {
          "internalType": "bool",
          "name": "",
          "type": "bool"
        }
      ],
      "stateMutability": "view",
      "type": "function"
    },
    {
      "inputs": [],
      "name": "paymentToken",
      "outputs": [
        {
          "internalType": "contract IERC20",
          "name": "",
          "type": "address"
        }
      ],
      "stateMutability": "view",
      "type": "function"
    },
    {
      "inputs": [],
      "name": "positionContract",
      "outputs": [
        {
          "internalType": "contract ICLMSRPosition",
          "name": "",
          "type": "address"
        }
      ],
      "stateMutability": "view",
      "type": "function"
    },
    {
      "inputs": [
        {
          "internalType": "uint256",
          "name": "",
          "type": "uint256"
        }
      ],
      "name": "positionSettledEmitted",
      "outputs": [
        {
          "internalType": "bool",
          "name": "",
          "type": "bool"
        }
      ],
      "stateMutability": "view",
      "type": "function"
    },
    {
      "inputs": [
        {
          "internalType": "uint256",
          "name": "marketId",
          "type": "uint256"
        },
        {
          "internalType": "int256",
          "name": "lo",
          "type": "int256"
        },
        {
          "internalType": "int256",
          "name": "hi",
          "type": "int256"
        }
      ],
      "name": "propagateLazy",
      "outputs": [
        {
          "internalType": "uint256",
          "name": "sum",
          "type": "uint256"
        }
      ],
      "stateMutability": "nonpayable",
      "type": "function"
    },
    {
      "inputs": [],
      "name": "proxiableUUID",
      "outputs": [
        {
          "internalType": "bytes32",
          "name": "",
          "type": "bytes32"
        }
      ],
      "stateMutability": "view",
      "type": "function"
    },
    {
      "inputs": [],
      "name": "renounceOwnership",
      "outputs": [],
      "stateMutability": "nonpayable",
      "type": "function"
    },
    {
      "inputs": [
        {
          "internalType": "uint256",
          "name": "marketId",
          "type": "uint256"
        }
      ],
      "name": "reopenMarket",
      "outputs": [],
      "stateMutability": "nonpayable",
      "type": "function"
    },
    {
      "inputs": [
        {
          "internalType": "address",
          "name": "newManager",
          "type": "address"
        }
      ],
      "name": "setManager",
      "outputs": [],
      "stateMutability": "nonpayable",
      "type": "function"
    },
    {
      "inputs": [
        {
          "internalType": "uint256",
          "name": "marketId",
          "type": "uint256"
        },
        {
          "internalType": "bool",
          "name": "active",
          "type": "bool"
        }
      ],
      "name": "setMarketActive",
      "outputs": [],
      "stateMutability": "nonpayable",
      "type": "function"
    },
    {
      "inputs": [
        {
          "internalType": "uint256",
          "name": "marketId",
          "type": "uint256"
        },
        {
          "internalType": "int256",
          "name": "settlementValue",
          "type": "int256"
        }
      ],
      "name": "settleMarket",
      "outputs": [],
      "stateMutability": "nonpayable",
      "type": "function"
    },
    {
      "inputs": [
        {
          "internalType": "address",
          "name": "newOwner",
          "type": "address"
        }
      ],
      "name": "transferOwnership",
      "outputs": [],
      "stateMutability": "nonpayable",
      "type": "function"
    },
    {
      "inputs": [],
      "name": "unpause",
      "outputs": [],
      "stateMutability": "nonpayable",
      "type": "function"
    },
    {
      "inputs": [
        {
          "internalType": "uint256",
          "name": "marketId",
          "type": "uint256"
        },
        {
          "internalType": "uint64",
          "name": "newStartTimestamp",
          "type": "uint64"
        },
        {
          "internalType": "uint64",
          "name": "newEndTimestamp",
          "type": "uint64"
        },
        {
          "internalType": "uint64",
          "name": "newSettlementTimestamp",
          "type": "uint64"
        }
      ],
      "name": "updateMarketTiming",
      "outputs": [],
      "stateMutability": "nonpayable",
      "type": "function"
    },
    {
      "inputs": [
        {
          "internalType": "address",
          "name": "newImplementation",
          "type": "address"
        },
        {
          "internalType": "bytes",
          "name": "data",
          "type": "bytes"
        }
      ],
      "name": "upgradeToAndCall",
      "outputs": [],
      "stateMutability": "payable",
      "type": "function"
    }
  ],
  "bytecode": "0x60a08060405234602957306080526152bb908161002e8239608051818181610de80152610f000152f35b5f80fdfe60806040526004361015610011575f80fd5b5f3560e01c8063070ab8c9146102e057806309f28be61461022257806313b6eb09146102db57806316ae2866146102d65780631d49df57146102d15780632d6ce61d146102cc5780632ed66650146102c75780633013ce291461022c5780633d65117b146102c25780633f4ba83a146102bd578063449a0388146102b857806344a1a58e146102b3578063481c6a75146102ae578063485cc955146102a95780634f1ef286146102a457806352d1902d1461029f578063573add031461029a5780635c975abb146102455780636084fa031461029557806362a626aa14610290578063692c3fc71461028b5780636c1155a1146102865780636da6635514610281578063715018a61461027c5780637404d9571461027757806379334798146102725780637ed547821461026d578063855e2368146102685780638a69614e146102635780638da5cb5b1461025e5780639bbafcc3146102405780639fc46ecb14610259578063ad3cb1cc14610254578063aea615561461024f578063b1283e771461024a578063b187bd2614610245578063b762d83414610240578063bcb173221461023b578063c9ac6b3114610236578063d0ebdbe714610231578063d41c3a651461022c578063e9904d8714610227578063e9eb3ba514610222578063eb44fdd31461021d578063f0b7f3b1146102185763f2fde38b14610213575f80fd5b61242d565b612179565b6120be565b610458565b611f84565b6107c3565b611eb6565b611dd4565b611db0565b611adc565b610ffa565b611ce8565b611c1c565b611bdd565b611afb565b611aa8565b611851565b611822565b6117a2565b61155a565b61153d565b6114d6565b6113e7565b6113a7565b611342565b611325565b61104b565b610f75565b610eee565b610d95565b610b56565b610b1d565b610a9d565b61098c565b6108cf565b6107fb565b6107a2565b61053c565b6104ed565b6104a6565b610480565b610307565b60809060031901126103035760043590602435906044359060643590565b5f80fd5b3461030357610315366102e5565b610320939193612f20565b61034782610342815f52600260205263ffffffff600560405f20015416151590565b61245a565b61038d61036461035f845f52600260205260405f2090565b612474565b61036e8186612f53565b6103788187612f53565b610386868681811315612598565b8585613013565b73__$e8b8ff73fdf5e99c3df6a4b39aa1f5b319$__906103b5855f52600360205260405f2090565b91803b15610303576040516330f27d1f60e01b8152600481019390935263ffffffff9384166024840152921660448201526064810183905291905f90839060849082905af4908115610449575f5160206151ef5f395f51905f529261042a9261042f575b506040519081529081906020820190565b0390a4005b8061043d5f61044393610d11565b8061044e565b5f610419565b6125b6565b5f91031261030357565b34610303575f366003190112610303576001546040516001600160a01b039091168152602090f35b3461030357602036600319011261030357602061049e6004356130be565b604051908152f35b34610303576020366003190112610303576104e36004356104c5612f20565b610342815f52600260205263ffffffff600560405f20015416151590565b6104eb6131af565b005b3461030357602061052b610500366102e5565b9261052681610342819594955f52600260205263ffffffff600560405f20015416151590565b612626565b6001600160801b0360405191168152f35b346103035760403660031901126103035760043560243561055b6132af565b6105636132d6565b600154610580906001600160a01b03165b6001600160a01b031690565b60405163eb02c30160e01b81526004810184905260a081602481855afa908115610449575f91610773575b506040516331a9108f60e11b81526004810185905291602090839060249082905afa91821561044957610692926105f6915f91610744575b5033906001600160a01b031681146129f5565b610600815161330e565b61061381515f52600260205260405f2090565b61064361063961062d60608501516001600160801b031690565b6001600160801b031690565b64e8d4a510000290565b908251600660208501946106846106796106678789519660408601978851916133e5565b64e8d4a50fff64e8d4a5100091010490565b988981811015612a1d565b519451915192015493613a43565b61069c81336141c7565b6001546106b1906001600160a01b0316610574565b91823b1561030357604051630852cd8d60e31b815260048101829052925f908490602490829084905af192831561044957602093610730575b506040518281523391907f467bc11eddf702a2091fefc23d3064f17939ba1005bd43304f15604c9b6f2a9b90602090a361049e60015f51602061526f5f395f51905f5255565b8061043d5f61073e93610d11565b5f6106ea565b610766915060203d60201161076c575b61075e8183610d11565b8101906129dd565b5f6105e3565b503d610754565b610795915060a03d60a01161079b575b61078d8183610d11565b810190612973565b5f6105ab565b503d610783565b34610303575f36600319011261030357602060405166038d7ea4c680008152f35b34610303575f366003190112610303575f546040516001600160a01b039091168152602090f35b6001600160801b0381160361030357565b34610303576040366003190112610303576108576004355b60a060243591610822836107ea565b600154610837906001600160a01b0316610574565b604051808096819463eb02c30160e01b8352600483019190602083019252565b03915afa918215610449576108aa9261089a92610667925f926108ae575b50815190604064e8d4a510006001600160801b036020860151931602930151916133e5565b6040519081529081906020820190565b0390f35b6108c891925060a03d60a01161079b5761078d8183610d11565b905f610875565b34610303575f366003190112610303576108e7612f20565b5f51602061524f5f395f51905f525460ff8116156109635760ff19165f51602061524f5f395f51905f52557f5db9ee0a495bf2e6ff9c91a7834c1ba4fdd244a5e8aa4e537bd38aeae4b073aa6020604051338152a1337ff5cbf596165cc457b2cd92e8d8450827ee314968160a5696402d75766fc52caf5f80a2005b638dfc202b60e01b5f5260045ffd5b606090600319011261030357600435906024359060443590565b34610303576109fe602061099f36610972565b6109c3836103428197955f52600260205263ffffffff600560405f20015416151590565b845f52600284526109d660405f20612474565b916109e18382612f53565b6109eb8383612f53565b6109f9828281811315612598565b613013565b5f93845260038352604093849020935163694f552560e01b8152600481019490945263ffffffff91821660248501521660448301528180606481015b038173__$e8b8ff73fdf5e99c3df6a4b39aa1f5b319$__5af48015610449576108aa915f91610a7457506040519081529081906020820190565b610443915060203d602011610a96575b610a8e8183610d11565b810190612a3b565b503d610a84565b3461030357610add6020610ab036610972565b610abb949294612f20565b6109c385610342815f52600260205263ffffffff600560405f20015416151590565b5f93845260038352604093849020935163049bebd960e31b8152600481019490945263ffffffff9182166024850152166044830152818060648101610a3a565b34610303575f366003190112610303576006546040516001600160a01b039091168152602090f35b6001600160a01b0381160361030357565b3461030357604036600319011261030357600435610b7381610b45565b60243590610b8082610b45565b5f51602061528f5f395f51905f5254916001600160401b03610bba60ff604086901c1615610bad565b1590565b946001600160401b031690565b1680159081610cd4575b6001149081610cca575b159081610cc1575b50610cb257610c199183610c1060016001600160401b03195f51602061528f5f395f51905f525416175f51602061528f5f395f51905f5255565b610c7857612a9c565b610c1f57005b610c4960ff60401b195f51602061528f5f395f51905f5254165f51602061528f5f395f51905f5255565b604051600181527fc7f505b2f371ae2175ee4913f4499e1f2633a7b5936321eed1cdaeb6115181d290602090a1005b610cad6801000000000000000060ff60401b195f51602061528f5f395f51905f525416175f51602061528f5f395f51905f5255565b612a9c565b63f92ee8a960e01b5f5260045ffd5b9050155f610bd6565b303b159150610bce565b849150610bc4565b634e487b7160e01b5f52604160045260245ffd5b6101c081019081106001600160401b03821117610d0c57604052565b610cdc565b90601f801991011681019081106001600160401b03821117610d0c57604052565b60405190610d426101c083610d11565b565b6001600160401b038111610d0c57601f01601f191660200190565b929192610d6b82610d44565b91610d796040519384610d11565b829481845281830111610303578281602093845f960137010152565b604036600319011261030357600435610dad81610b45565b6024356001600160401b038111610303573660238201121561030357610ddd903690602481600401359101610d5f565b906001600160a01b037f000000000000000000000000000000000000000000000000000000000000000016308114908115610ecc575b50610ebd57610e20612f20565b6040516352d1902d60e01b8152916020836004816001600160a01b0386165afa5f9381610e9c575b50610e6957634c9c8ce360e01b5f526001600160a01b03821660045260245ffd5b905f51602061522f5f395f51905f528303610e88576104eb9250614e6c565b632a87526960e21b5f52600483905260245ffd5b610eb691945060203d602011610a9657610a8e8183610d11565b925f610e48565b63703e46dd60e11b5f5260045ffd5b5f51602061522f5f395f51905f52546001600160a01b0316141590505f610e13565b34610303575f366003190112610303577f00000000000000000000000000000000000000000000000000000000000000006001600160a01b03163003610ebd5760206040515f51602061522f5f395f51905f528152f35b9181601f84011215610303578235916001600160401b038311610303576020808501948460051b01011161030357565b346103035760a0366003190112610303576004356024356001600160401b03811161030357610fa8903690600401610f45565b6044929192356001600160401b03811161030357610fca903690600401610f45565b60643594916001600160401b03861161030357610fee6104eb963690600401610f45565b94909360843596612ba3565b34610303575f36600319011261030357602060ff5f51602061524f5f395f51905f5254166040519015158152f35b60609060031901126103035760043590602435611044816107ea565b9060443590565b346103035761105936611028565b6110616132af565b6110696132d6565b6001600160801b03821661107f83821515612da6565b600154611094906001600160a01b0316610574565b60405163eb02c30160e01b8152600481018690529060a082602481845afa918215610449575f92611304575b506040516331a9108f60e11b81526004810187905290602090829060249082905afa9283156104495761119486936111126111b0966111ab955f91610744575033906001600160a01b031681146129f5565b61111c815161330e565b61112f81515f52600260205260405f2090565b92606082019361115c61114986516001600160801b031690565b886001600160801b038216851115612dca565b82519160066020850194610684611189610667885197604085019664e8d4a5100088519102998a926133e5565b9c8d81811015612a1d565b61119e85336141c7565b516001600160801b031690565b612df5565b6001600160801b038116928361128d576001546111d5906001600160a01b0316610574565b94853b1561030357604051630852cd8d60e31b815260048101829052955f908790602490829084905af195861561044957604096611279575b505b85516001600160801b03928316815291831660208301526040820184905233917fe3a918fd34698242cc99d5ba0987edaa47d8f5b8ed601ef29e08a9b7d72ecc4990606090a35061126d60015f51602061526f5f395f51905f5255565b82519182526020820152f35b8061043d5f61128793610d11565b5f61120e565b6001546112a2906001600160a01b0316610574565b94853b15610303576040516361d6883d60e01b8152600481018290526001600160801b0384166024820152955f908790604490829084905af1958615610449576040966112f0575b50611210565b8061043d5f6112fe93610d11565b5f6112ea565b61131e91925060a03d60a01161079b5761078d8183610d11565b905f6110c0565b34610303575f366003190112610303576020600454604051908152f35b34610303576020366003190112610303576004355f526003602052608060405f206002600182015491015463ffffffff604051928181168452818160201c16602085015260401c1660408301526060820152f35b6001600160401b0381160361030357565b34610303576080366003190112610303576104e36004356113c9602435611396565b6113d4604435611396565b6113df606435611396565b6104c5612f20565b34610303576020366003190112610303576004356001600160401b0381116103035736602382011215610303578060040135906001600160401b0382116103035736602483830101116103035761144a91611440612f20565b6024369201610d5f565b6114526132af565b600160ff195f51602061524f5f395f51905f525416175f51602061524f5f395f51905f52557f62e78cea01bee320cd4e420270b5ea74000d11b0c9f74754ebdbfc544b05a2586020604051338152a17f375c0abd968f4602b557f6ac9a48ffc89820233aa9becc5d7ff1176fd09eafff604051806114d1339482611bb3565b0390a2005b34610303575f366003190112610303576114ee612f20565b5f51602061520f5f395f51905f5280546001600160a01b031981169091555f906001600160a01b03167f8be0079c531659141344cd1fd0a4f28419497f9722a3daafe3b4186f6b6457e08280a3005b34610303575f366003190112610303576020604051620f42408152f35b346103035761156836611028565b91906115726132af565b61157a6132d6565b6001600160801b03811661159082821515612da6565b6001546115a5906001600160a01b0316610574565b60405163eb02c30160e01b8152600481018590529160a083602481855afa928315610449575f93611781575b506040516331a9108f60e11b81526004810186905291602090839060249082905afa918215610449576116a7936116946116a29361162688966060955f91610744575033906001600160a01b031681146129f5565b611630835161330e565b61164383515f52600260205260405f2090565b835190602085019261167961166e61066786519560408a019464e8d4a5100086519102978892614269565b9d8e81811115612e15565b6116838d3361475f565b600686519451915192015493613f14565b01516001600160801b031690565b612e33565b6001549092906116bf906001600160a01b0316610574565b803b15610303576040516361d6883d60e01b8152600481018390526001600160801b0385166024820152905f908290604490829084905af18015610449576020957fa9efae0c21a2db158c2af2d36b5c18dc14d792a79dfab662442466a80095ea5f926117549261176d575b50604080516001600160801b039687168152958716602087015285015233939081906060820190565b0390a361052b60015f51602061526f5f395f51905f5255565b8061043d5f61177b93610d11565b5f61172b565b61179b91935060a03d60a01161079b5761078d8183610d11565b915f6115d1565b34610303576040366003190112610303576117be600435610813565b03915afa918215610449576108aa9261089a92610667925f92611801575b50815190604064e8d4a510006001600160801b03602086015193160293015191614269565b61181b91925060a03d60a01161079b5761078d8183610d11565b905f6117dc565b34610303576020366003190112610303576004355f526005602052602060ff60405f2054166040519015158152f35b346103035760203660031901126103035760043561186d6132af565b6118756132d6565b60015461188a906001600160a01b0316610574565b60405163eb02c30160e01b8152600481018390529060a082602481845afa918215610449575f92611a87575b506040516331a9108f60e11b81526004810184905290602090829060249082905afa80156104495761192a915f91611a68575b506001600160a01b031691611900338085146129f5565b611922602061191b61035f84515f52600260205260405f2090565b0151151590565b905190612e53565b611933826130be565b90611953610ba961194c855f52600560205260405f2090565b5460ff1690565b611a0c575b5061196381336141c7565b600154611978906001600160a01b0316610574565b91823b1561030357604051630852cd8d60e31b815260048101829052925f908490602490829084905af1928315610449576108aa936119f8575b506040518281523391907ff18ca9717b47ea7629d17b5d7b2ede46e864155725629e7d0347924c2f6d112d90602090a361089a60015f51602061526f5f395f51905f5255565b8061043d5f611a0693610d11565b5f6119b2565b60408051838152831515602082015284917f1a81eb5d53aa7bec98cadd0a6303be87e540f77ba90e63cd945e49b8eb697b0a91a3611a62611a55835f52600560205260405f2090565b805460ff19166001179055565b5f611958565b611a81915060203d60201161076c5761075e8183610d11565b5f6118e9565b611aa191925060a03d60a01161079b5761078d8183610d11565b905f6118b6565b34610303575f366003190112610303575f51602061520f5f395f51905f52546040516001600160a01b039091168152602090f35b34610303576040366003190112610303576104e36004356104c5612f20565b3461030357602036600319011261030357611b4960a0600435600154611b29906001600160a01b0316610574565b604051808095819463eb02c30160e01b8352600483019190602083019252565b03915afa80156104495761066761089a916108aa935f91611b94575b50611b8061063961062d60608401516001600160801b031690565b9080519060406020820151910151916133e5565b611bad915060a03d60a01161079b5761078d8183610d11565b5f611b65565b602060409281835280519182918282860152018484015e5f828201840152601f01601f1916010190565b34610303575f366003190112610303576108aa604051611bfe604082610d11565b60058152640352e302e360dc1b602082015260405191829182611bb3565b346103035760403660031901126103035760043560243580151503610303576104e390611c47612f20565b6104c56132af565b9b99979593919e9d9c9a98969492909e6101c08d019f15158d52151560208d015260408c01611c85916001600160401b03169052565b6001600160401b031660608b015260808a015260a089015260c088015260e087015263ffffffff1661010086015261012085015263ffffffff1661014084015215156101608301526101808201526101a001610d42916001600160401b03169052565b34610303576020366003190112610303576004355f52600260205260405f2080546108aa611d20826001600160401b039060101c1690565b92605083901c6001600160401b0316906001810154600282015460038301546004840154611d55600586015463ffffffff1690565b90600686015492600787015494611d7c611d728763ffffffff1690565b9660201c60ff1690565b96611d96600960088b01549a01546001600160401b031690565b996040519d8d8f9e8f9060ff809160081c16921690611c4f565b34610303575f36600319011261030357602060405169152d02c7e14af68000008152f35b3461030357608036600319011261030357602435606435604435600435611dfa836107ea565b611e1c81610342815f52600260205263ffffffff600560405f20015416151590565b611e326001600160801b03841693841515612da6565b805f526002602052611e4660405f20612474565b91611e518386612f53565b611e5b8382612f53565b611e69818681811315612598565b611e77818681811415612598565b60e0611e8386836125d5565b930151948515611eb15764e8d4a5100061049e95611eaa848460209a610667990715612598565b0292614269565b6125f2565b3461030357602036600319011261030357600435611ed381610b45565b611edb612f20565b6001600160a01b03811690611ef1821515612a4a565b803b15611f4f576006546104eb92906001600160a01b03167fdac3632743b879638fd2d51c4d3c1dd796615b4758a55b50b0c19b971ba9fbc75f80a360018060a01b03166bffffffffffffffffffffffff60a01b6006541617600655565b60405162461bcd60e51b815260206004820152600d60248201526c4d616e616765724e6f436f646560981b6044820152606490fd5b346103035760e036600319011261030357611fa0606435611396565b611fab608435611396565b611fb660a435611396565b611fbe612f20565b611fc66132af565b602061049e611fd36131af565b828082518301019101612a3b565b610d42909291926101a0806101c0830195611ffe84825115159052565b6020818101511515908501526040818101516001600160401b0316908501526060818101516001600160401b0316908501526080810151608085015260a081015160a085015260c081015160c085015260e081015160e085015261207161010082015161010086019063ffffffff169052565b61012081015161012085015261209661014082015161014086019063ffffffff169052565b61016081810151151590850152610180818101519085015201516001600160401b0316910152565b34610303576020366003190112610303576108aa61216d61035f6004355f6101a06040516120eb81610cf0565b8281528260208201528260408201528260608201528260808201528260a08201528260c08201528260e08201528261010082015282610120820152826101408201528261016082015282610180820152015261215f81610342815f52600260205263ffffffff600560405f20015416151590565b5f52600260205260405f2090565b60405191829182611fe1565b346103035760a03660031901126103035760443560643560043560243561219f836107ea565b608435926121ab6132af565b6121b36132d6565b61230c6001600160801b0382166121cc83821515612da6565b64e8d4a5100060066121e6875f52600260205260405f2090565b61220888610342815f52600260205263ffffffff600560405f20015416151590565b61226561225d61223a83546122256122208260ff1690565b612e6d565b61224e612246601083901c6001600160401b03165b6001600160401b031690565b421015612e83565b60501c6001600160401b031690565b421115612e99565b61227761227182612474565b88612f53565b61228961228382612474565b8b612f53565b6122978a8881811315612598565b6122a58a8881811415612598565b6122c88a886122c26122b782846125d5565b600486015490612606565b15612598565b6122f66122eb6106676122e36001600160801b038a16610639565b8d8b8d614269565b998a81811115612e15565b612300893361475f565b01549102878587613f14565b600154612321906001600160a01b0316610574565b6040516330906fad60e21b81523360048201526024810185905260448101849052606481018790526001600160801b03831660848201529590602090879060a49082905f905af1948515610449576020965f966123e2575b506040805194855260208501929092526001600160801b03909216908301526060820152339083907fc33c3b4ea19b40f02901978a93e787a0caa1d6fd23dfa228ae891fe96867e1719080608081015b0390a461049e60015f51602061526f5f395f51905f5255565b6123c99650916124227fc33c3b4ea19b40f02901978a93e787a0caa1d6fd23dfa228ae891fe96867e17193899593953d8b11610a9657610a8e8183610d11565b965091929092612379565b34610303576020366003190112610303576104eb60043561244d81610b45565b612455612f20565b612eaf565b156124625750565b634cba20ef60e01b5f5260045260245ffd5b90610d426125876009612485610d32565b946124dd6124cd82546124a161249b8260ff1690565b15158a52565b6124b5600882901c60ff16151560208b0152565b6001600160401b03601082901c1660408a015261224e565b6001600160401b03166060880152565b60018101546080870152600281015460a0870152600381015460c0870152600481015460e0870152612527612519600583015463ffffffff1690565b63ffffffff16610100880152565b600681015461012087015261256e612564600783015461255b61254d8263ffffffff1690565b63ffffffff166101408b0152565b60201c60ff1690565b1515610160880152565b600881015461018087015201546001600160401b031690565b6001600160401b03166101a0840152565b156125a1575050565b631150381b60e11b5f5260045260245260445ffd5b6040513d5f823e3d90fd5b634e487b7160e01b5f52601160045260245ffd5b81810392915f1380158285131691841216176125ed57565b6125c1565b634e487b7160e01b5f52601260045260245ffd5b8115611eb1570790565b1561261757565b639ac6cd8b60e01b5f5260045ffd5b91929092811561296b57825f52600260205261264460405f20612474565b9061264f8286612f53565b6126598282612f53565b612667818681811315612598565b612675818681811415612598565b60e061268186836125d5565b920151908115611eb15761269e81876126c0946020960715612598565b6126b361035f865f52600260205260405f2090565b9061012082015196613013565b91906126ea60026126d9875f52600360205260405f2090565b0154955f52600360205260405f2090565b60405163694f552560e01b8152600481019190915263ffffffff9182166024820152921660448301528160648173__$e8b8ff73fdf5e99c3df6a4b39aa1f5b319$__5af49182156104495784915f93612939575b506127ab9164e8d4a5100061276992612758871515613242565b612763861515613258565b02614802565b6040516330ed1f5d60e01b815260048101859052602481019190915273__$cbaf8988f3c8d5491808e1d52afb16035a$__929091602090839081906044820190565b0381865af49182156104495761280494602093836127db935f92612918575b506127d5919261328c565b9061328c565b6040516316cf339960e21b81526004810191909152602481019190915292839081906044820190565b0381845af49182156104495761283e926020915f916128fb575b506040518094819263360816cf60e01b8352600483019190602083019252565b0381845af490811561044957612882936020935f936128dc575b506040518095819482936330ed1f5d60e01b84526004840160209093929193604081019481520152565b03915af4908115610449576001600160801b03916128ad915f916128bd575b5064e8d4a51000900490565b6128b982821115612610565b1690565b6128d6915060203d602011610a9657610a8e8183610d11565b5f6128a1565b6128f4919350843d8611610a9657610a8e8183610d11565b915f612858565b6129129150823d8411610a9657610a8e8183610d11565b5f61281e565b6127d5925061293390873d8911610a9657610a8e8183610d11565b916127ca565b6127699193509164e8d4a510006129616127ab9460203d602011610a9657610a8e8183610d11565b949250509161273e565b505050505f90565b908160a0910312610303576040519060a08201908282106001600160401b03831117610d0c5760809160405280518352602081015160208401526040810151604084015260608101516129c5816107ea565b606084015201516129d581611396565b608082015290565b9081602091031261030357516129f281610b45565b90565b156129fd5750565b63d86ad9cf60e01b5f9081526001600160a01b0391909116600452602490fd5b15612a26575050565b63f6b30c7760e01b5f5260045260245260445ffd5b90816020910312610303575190565b15612a5157565b63d92e233d60e01b5f5260045ffd5b90816020910312610303575160ff811681036103035790565b15612a815750565b60ff906330946b1f60e21b5f5216600452600660245260445ffd5b6001600160a01b03169081151580612b91575b612ab890612a4a565b612ac133614214565b612ac9614e41565b612ad1614e41565b612ad9614228565b60405163313ce56760e01b815291602083600481845afa90811561044957612b16612b3692612b58955f91612b62575b50600660ff821614612a79565b60018060a01b03166bffffffffffffffffffffffff60a01b5f5416175f55565b600180546001600160a01b0319166001600160a01b0392909216919091179055565b610d426001600455565b612b84915060203d602011612b8a575b612b7c8183610d11565b810190612a60565b5f612b09565b503d612b72565b506001600160a01b0381161515612aaf565b9695939290949194612bb3612f20565b612bbb6132af565b612bdd88610342815f52600260205263ffffffff600560405f20015416151590565b83861480612d63575b612bf290949194612d6c565b612bfd861515612d6c565b612c1261035f895f52600260205260405f2090565b9473__$e8b8ff73fdf5e99c3df6a4b39aa1f5b319$__915f5b888110612c7b575050604080519788526020880198909852507ff6629d92c7a8d4e7e77619bdb488fb945a40c60d45bb71fbaa3e2f76342f7b639686955085019350612c7692505050565b0390a2565b80612c8a612ce4928b8a612d82565b35612c96828589612d82565b35908d612ca484888c612d82565b3590612cb08d84612f53565b612cba8d85612f53565b612cc8848481811315612598565b612cd38d8585613013565b9690915f52600360205260405f2090565b90893b15610303576040516330f27d1f60e01b8152600481019290925263ffffffff9081166024830152959095166044860152606485018190525f856084818b5af4948515610449578f91612d5a905f5160206151ef5f395f51905f529260019861042f57506040519081529081906020820190565b0390a401612c2b565b50858514612be6565b15612d7357565b63512509d360e11b5f5260045ffd5b9190811015612d925760051b0190565b634e487b7160e01b5f52603260045260245ffd5b15612dae5750565b6001600160801b0390633b59e48960e11b5f521660045260245ffd5b15612dd3575050565b906001600160801b03809263070a2e7b60e31b5f52166004521660245260445ffd5b906001600160801b03809116911603906001600160801b0382116125ed57565b15612e1e575050565b63f6daf99360e01b5f5260045260245260445ffd5b906001600160801b03809116911601906001600160801b0382116125ed57565b15612e5b5750565b63b23e5f9f60e01b5f5260045260245ffd5b15612e7457565b635a90bb8d60e11b5f5260045ffd5b15612e8a57565b630ee8c41760e31b5f5260045ffd5b15612ea057565b63b2094b5960e01b5f5260045ffd5b6001600160a01b03168015612f0d575f51602061520f5f395f51905f5280546001600160a01b0319811683179091556001600160a01b03167f8be0079c531659141344cd1fd0a4f28419497f9722a3daafe3b4186f6b6457e05f80a3565b631e4fbdf760e01b5f525f60045260245ffd5b5f51602061520f5f395f51905f52546001600160a01b03163303612f4057565b63118cdaa760e01b5f523360045260245ffd5b60a082018051808312159081612fc2575b60c08501519115612fa9575050612f7e60e09151836125d5565b92018051908115611eb157519207612f94575050565b6382fe647b60e01b5f5260045260245260445ffd5b83638a228b0d60e01b5f5260045260245260445260645ffd5b60c08501518413159150612f64565b8115611eb157600160ff1b81145f198314166125ed570590565b15612ff4575050565b9063ffffffff80926306fd47d960e41b5f52166004521660245260445ffd5b92906130539061304b61302c60a08601968751906125d5565b9163ffffffff61304260e0880194855190612fd1565b169651906125d5565b905190612fd1565b5f1981019081136001166125ed5763ffffffff1663ffffffff80610100839501511616808510806130b5575b1561309357508084610d4292811115612feb565b63ffffffff82818763727dbc1360e01b5f52166004521660245260445260645ffd5b5080821061307f565b6001546130da9160a091611b29906001600160a01b0316610574565b03915afa908115610449575f91613161575b5061310361035f82515f52600260205260405f2090565b613113610ba96020830151151590565b61315b576080602083015191015180911315908161314d575b501561314857606001516129f2906001600160801b031661062d565b505f90565b90506040820151135f61312c565b50505f90565b61317a915060a03d60a01161079b5761078d8183610d11565b5f6130ec565b3d156131aa573d9061319182610d44565b9161319f6040519384610d11565b82523d5f602084013e565b606090565b6006546001600160a01b03168015613233575f8091604051368382378036810184815203915af46131de613180565b90156131e75790565b8051156131f657602081519101fd5b60405162461bcd60e51b815260206004820152601560248201527413585b9859d95c91195b1959d85d1951985a5b1959605a1b6044820152606490fd5b6321f7ab5360e01b5f5260045ffd5b1561324957565b635fba374760e11b5f5260045ffd5b1561325f57565b632dc1896b60e11b5f5260045ffd5b5f198101919082116125ed57565b6103e803906103e882116125ed57565b919082039182116125ed57565b8015611eb1575f190490565b8115611eb1570490565b60ff5f51602061524f5f395f51905f5254166132c757565b63d93c066560e01b5f5260045ffd5b60025f51602061526f5f395f51905f5254146132ff5760025f51602061526f5f395f51905f5255565b633ee5aeb560e01b5f5260045ffd5b5f526002602052610d426001600160401b0360405f205461333160ff8216612e6d565b613342828260101c16421015612e83565b60501c16421115612e99565b919082018092116125ed57565b156133635750565b635a0c51d560e11b5f526004526103e860245260445ffd5b1561338257565b6332103c0560e21b5f5260045ffd5b1561339857565b63fb65ff6360e01b5f5260045ffd5b156133ae57565b6367d96d3f60e11b5f5260045ffd5b5f1981146125ed5760010190565b156133d35750565b63087e358960e01b5f5260045260245ffd5b91610120939161340061035f855f52600260205260405f2090565b9361340c858484613013565b96909501516040516330ed1f5d60e01b815260048101829052670de0b6b3a7640000602482015290959073__$cbaf8988f3c8d5491808e1d52afb16035a$__90602081604481855af480156104495761346c915f916139f8575b5061326e565b91828711613481575050506129f29550614ad8565b9093508294506134a260026126d960209499955f52600360205260405f2090565b60405163694f552560e01b8152600481019190915263ffffffff9182166024820152971660448801528660648173__$e8b8ff73fdf5e99c3df6a4b39aa1f5b319$__5af4958615610449575f966139d7575b506135028394931515613242565b61352b6135208661351b613516828861334e565b61326e565b6132a5565b6103e881111561335b565b5f92935f935b851515806139cc575b156139ba57868611156139b457865b6040516316cf339960e21b81526004810182905260248101859052602081604481895af4908115610449576135a2916020915f91613997575b506040518093819263ec6e92cd60e01b8352600483019190602083019252565b0381895af4908115610449576135ea916020915f9161397a575b50604051809381926316cf339960e21b835260048301919060206040840193670de0b6b3a764000081520152565b0381895af4908115610449575f9161395c575b5061360781613299565b8a1161381a575b98602061364f9a82158015613803575b6136279061337b565b6040516330ed1f5d60e01b81526004810184905260248101919091529a8b9081906044820190565b0381895af4998a15610449575f9a6137db575b5089613671613676928661328c565b61334e565b92613682841515613391565b8381116136b5575b50806136ac929361369f6136a69315156133a7565b999761328c565b946133bd565b93949690613531565b6040516316cf339960e21b81526004810191909152602481018490529190602083604481895af492831561044957613711936020915f916137be575b506040518095819263360816cf60e01b8352600483019190602083019252565b0381895af492831561044957613754936020915f916137a1575b506040516330ed1f5d60e01b815260048101889052602481019190915293849081906044820190565b0381895af4928315610449576136ac936136a693613779925f92613781575b5061334e565b92509061368a565b61379a91925060203d8111610a9657610a8e8183610d11565b905f613773565b6137b89150823d8111610a9657610a8e8183610d11565b5f61372b565b6137d59150823d8111610a9657610a8e8183610d11565b5f6136f1565b6136719a50906137fb6136769260203d8111610a9657610a8e8183610d11565b9a5090613662565b5061362761381084613299565b821115905061361e565b50506138306138288661327c565b87858b6149a1565b868111613955575b6040516316cf339960e21b815260048101829052602481018590529860208a604481895af4998a15610449576138929a6020915f91613938575b50604051809c819263ec6e92cd60e01b8352600483019190602083019252565b0381895af4998a15610449576138da9a6020915f9161391b575b50604051809c81926316cf339960e21b835260048301919060206040840193670de0b6b3a764000081520152565b0381895af4998a156104495761364f9a6020915f916138fe575b50919a505061360e565b6139159150823d8111610a9657610a8e8183610d11565b5f6138f4565b6139329150823d8111610a9657610a8e8183610d11565b5f6138ac565b61394f9150823d8111610a9657610a8e8183610d11565b5f613872565b5085613838565b613974915060203d8111610a9657610a8e8183610d11565b5f6135fd565b6139919150823d8111610a9657610a8e8183610d11565b5f6135bc565b6139ae9150823d8111610a9657610a8e8183610d11565b5f613582565b85613549565b9650505050506129f2915080156133cb565b506103e8851061353a565b6139f191965060203d602011610a9657610a8e8183610d11565b945f6134f4565b613a11915060203d602011610a9657610a8e8183610d11565b5f613466565b15613a1e57565b63a2f9e7b560e01b5f5260045ffd5b15613a3457565b6332581cb160e01b5f5260045ffd5b9193929092613a67613a6061035f855f52600260205260405f2090565b8686613013565b6040516330ed1f5d60e01b815260048101849052670de0b6b3a7640000602482015273__$cbaf8988f3c8d5491808e1d52afb16035a$__949293919290602081604481895af4801561044957613ac3915f916139f8575061326e565b808211613ca557506040516316cf339960e21b815260048101919091526024810191909152602081604481875af490811561044957613b25916020915f91613c8e57506040518093819263ec6e92cd60e01b8352600483019190602083019252565b0381875af4801561044957613b6d946020925f92613c6f575b5060405180809781946316cf339960e21b835260048301919060206040840193670de0b6b3a764000081520152565b03915af4928315610449575f93613c4e575b50662386f26fc1000083101580613c3b575b613b9a90613a17565b73__$e8b8ff73fdf5e99c3df6a4b39aa1f5b319$__90613bc2855f52600360205260405f2090565b91803b15610303576040516330f27d1f60e01b8152600481019390935263ffffffff9384166024840152921660448201526064810183905291905f90839060849082905af4908115610449575f5160206151ef5f395f51905f5292613c369261042f57506040519081529081906020820190565b0390a4565b5068056bc75e2d63100000831115613b91565b613c6891935060203d602011610a9657610a8e8183610d11565b915f613b7f565b613c87919250833d8511610a9657610a8e8183610d11565b905f613b3e565b6139ae9150823d8411610a9657610a8e8183610d11565b94989793969290613cc36135208761351b61351682869c989c61334e565b905f9573__$e8b8ff73fdf5e99c3df6a4b39aa1f5b319$__925b80151580613f09575b15613ef35781811115613ee657613d258260208b8f5b60405180809681946316cf339960e21b8352876004840160209093929193604081019481520152565b03915af491821561044957613d60928f6020925f92613ec7575b50604051808096819463ec6e92cd60e01b8352600483019190602083019252565b03915af491821561044957613da9928f6020925f92613ea8575b5060405180809681946316cf339960e21b835260048301919060206040840193670de0b6b3a764000081520152565b03915af4918215610449575f92613e88575b50662386f26fc1000082101580613e75575b613dd690613a17565b613de8875f52600360205260405f2090565b92863b15610303576040516330f27d1f60e01b8152600481019490945263ffffffff8d8116602486015286166044850152606484018390525f846084818a5af49384156104495789895f5160206151ef5f395f51905f52613e61613e69978f95613e6f9a61042f57506040519081529081906020820190565b0390a461328c565b976133bd565b96613cdd565b5068056bc75e2d63100000821115613dcd565b613ea191925060203d8111610a9657610a8e8183610d11565b905f613dbb565b613ec0919250833d8111610a9657610a8e8183610d11565b905f613d7a565b613edf919250833d8111610a9657610a8e8183610d11565b905f613d3f565b613d258160208b8f613cfc565b98505050505050505050610d4291925015613a2d565b506103e88810613ce6565b9193929092613f31613a6061035f855f52600260205260405f2090565b6040516330ed1f5d60e01b815260048101849052670de0b6b3a7640000602482015273__$cbaf8988f3c8d5491808e1d52afb16035a$__949293919290602081604481895af4801561044957613f8d915f916139f8575061326e565b80821161400f57506040516316cf339960e21b815260048101919091526024810191909152602081604481875af4801561044957613b6d946020925f92613ff0575b50604051808097819463ec6e92cd60e01b8352600483019190602083019252565b614008919250833d8511610a9657610a8e8183610d11565b905f613fcf565b9498979396929061402d6135208761351b61351682869c989c61334e565b905f9573__$e8b8ff73fdf5e99c3df6a4b39aa1f5b319$__925b801515806141bc575b15613ef357818111156141af576040516316cf339960e21b815260048101839052602481018a9052826020828f8180604481015b03915af4918215610449576140be928f6020925f92613ec75750604051808096819463ec6e92cd60e01b8352600483019190602083019252565b03915af4918215610449575f9261418f575b50662386f26fc100008210158061417c575b6140eb90613a17565b6140fd875f52600360205260405f2090565b92863b15610303576040516330f27d1f60e01b8152600481019490945263ffffffff8d8116602486015286166044850152606484018390525f846084818a5af49384156104495789895f5160206151ef5f395f51905f52613e61613e69978f956141769a61042f57506040519081529081906020820190565b96614047565b5068056bc75e2d631000008211156140e2565b6141a891925060203d8111610a9657610a8e8183610d11565b905f6140d0565b6140848160208b8f613cfc565b506103e88810614050565b816141d0575050565b5f5460405163a9059cbb60e01b60208201526001600160a01b039283166024820152604480820194909452928352610d4292911661420f606483610d11565b615120565b610d4290614220614e41565b612455614e41565b614230614e41565b614238614e41565b60015f51602061526f5f395f51905f5255565b15614254575050565b6339bff21b60e01b5f5260045260245260445ffd5b9290916101209261428561035f865f52600260205260405f2090565b94614291868484613013565b95909601516040516330ed1f5d60e01b815260048101829052670de0b6b3a7640000602482015290959073__$cbaf8988f3c8d5491808e1d52afb16035a$__90602081604481855af48015610449576142f0915f916139f8575061326e565b91828711614305575050506129f29550614f0e565b929350935094956020906143376002614326865f52600360205260405f2090565b0154945f52600360205260405f2090565b60405163694f552560e01b8152600481019190915263ffffffff9182166024820152921660448301528160648173__$e8b8ff73fdf5e99c3df6a4b39aa1f5b319$__5af4908115610449575f91614740575b50929091614398831515613242565b6143ac6135208661351b613516828761334e565b5f919293905f925b84151580614735575b15614722576143fb91908786111561471c57875b6040516316cf339960e21b815260048101829052602481018b905293602090859081906044820190565b0381865af493841561044957614435946020915f916146d7575b506040518096819263ec6e92cd60e01b8352600483019190602083019252565b0381865af4938415610449575f946146fc575b5061445284613299565b851161461e575b60206144999486158015614607575b6144719061337b565b6040516330ed1f5d60e01b815260048101889052602481019190915294859081906044820190565b0381865af4938415610449575f946145d7575b5060206144c2856136716144f89697988c61328c565b986144d08a8280821161424b565b6040516316cf339960e21b8152600481018b9052602481019190915293849081906044820190565b0381875af492831561044957614531936020915f916137be57506040518095819263360816cf60e01b8352600483019190602083019252565b0381875af492831561044957614574936020915f916145ba575b506040516330ed1f5d60e01b8152600481018d9052602481019190915293849081906044820190565b0381875af4928315610449576145b1936145ab93614598925f92613781575061334e565b976145a48215156133a7565b949661328c565b936133bd565b929391946143b4565b6145d19150823d8111610a9657610a8e8183610d11565b5f61454b565b6144f89394506144c2613671966145fc602093843d8111610a9657610a8e8183610d11565b9695509650506144ac565b5061447161461488613299565b8211159050614468565b50915061463561462d8561327c565b868a866149a1565b918583116146f4575b6040516316cf339960e21b815260048101849052602481018a905292602084604481865af493841561044957614697946020915f916146d757506040518096819263ec6e92cd60e01b8352600483019190602083019252565b0381865af493841561044957614499946020915f916146ba575b50945050614459565b6146d19150823d8111610a9657610a8e8183610d11565b5f6146b1565b6146ee9150823d8111610a9657610a8e8183610d11565b5f614415565b85925061463e565b61471591945060203d8111610a9657610a8e8183610d11565b925f614448565b856143d1565b965050505090506129f2915080156133cb565b506103e884106143bd565b614759915060203d602011610a9657610a8e8183610d11565b5f614389565b81614768575050565b5f546040516370a0823160e01b81526001600160a01b0383811660048301526020908290602490829086165afa908115610449575f916147e3575b508381106147c15750610d42929130916001600160a01b03166150dc565b838363db42144d60e01b5f5260018060a01b031660045260245260445260645ffd5b6147fc915060203d602011610a9657610a8e8183610d11565b5f6147a3565b6040516330ed1f5d60e01b815260048101839052670de0b6b3a764000060248201529092919073__$cbaf8988f3c8d5491808e1d52afb16035a$__602082604481845af480156104495785925f91614982575b5090670de0b6b3a7640000939293955b61486f5750505050565b909192948286115f1461497c57825b6040516316cf339960e21b81526004810182905260248101869052602081604481875af4908115610449576148d6916020915f9161399757506040518093819263ec6e92cd60e01b8352600483019190602083019252565b0381875af4801561044957614919936020925f9261495d575b506040516330ed1f5d60e01b81526004810191909152602481019190915292839081906044820190565b0381865af4801561044957614936925f9161493f575b509661328c565b92919083614865565b614957915060203d8111610a9657610a8e8183610d11565b5f61492f565b614975919250833d8111610a9657610a8e8183610d11565b905f6148ef565b8561487e565b61499b915060203d602011610a9657610a8e8183610d11565b5f614855565b909193928015614ad3578061351b6135166149bc938861334e565b918215614aca575b6040516330ed1f5d60e01b815260048101829052670de0b6b3a7640000602482015273__$cbaf8988f3c8d5491808e1d52afb16035a$__90602081604481855af4908115610449575f91614aab575b506040516330ed1f5d60e01b8152600481018490526802b5e3af16b1880000602482015290939091602090839060449082905af4918215610449575f92614a8a575b5011614a7e575b5080821015614a765750915b808311614a725750565b9150565b905091614a68565b600a900490505f614a5c565b614aa491925060203d602011610a9657610a8e8183610d11565b905f614a55565b614ac4915060203d602011610a9657610a8e8183610d11565b5f614a13565b600192506149c4565b505050565b909192614af061035f835f52600260205260405f2090565b906002614b05845f52600360205260405f2090565b01546040516316cf339960e21b81526004810183905260248101889052909573__$cbaf8988f3c8d5491808e1d52afb16035a$__9591949091906020866044818a5af495861561044957614b7d966020915f91614e24575b506040518098819263ec6e92cd60e01b8352600483019190602083019252565b03818a5af495861561044957614bc5966020915f91614e07575b50604051809881926316cf339960e21b835260048301919060206040840193670de0b6b3a764000081520152565b03818a5af4948515610449576020965f96614de4575b50614be7908484613013565b9690614bfb835f52600360205260405f2090565b60405163694f552560e01b8152600481019190915263ffffffff9182166024820152971660448801528660648173__$e8b8ff73fdf5e99c3df6a4b39aa1f5b319$__5af4958615610449575f96614dc3575b50614c5785613299565b8611614db15750505050906020614c9c92614c72838761328c565b6040516330ed1f5d60e01b8152600481019490945260248401919091529192839081906044820190565b0381865af490811561044957614cb8925f92614d97575061334e565b91614cc4831515613391565b8281111561296b576040516316cf339960e21b815260048101919091526024810192909252602082604481845af491821561044957614d26926020915f916128fb57506040518094819263360816cf60e01b8352600483019190602083019252565b0381845af490811561044957614d69936020935f936128dc57506040518095819482936330ed1f5d60e01b84526004840160209093929193604081019481520152565b03915af4908115610449575f91614d7e575090565b6129f2915060203d602011610a9657610a8e8183610d11565b61379a91925060203d602011610a9657610a8e8183610d11565b93509350935093506129f294506133e5565b614ddd91965060203d602011610a9657610a8e8183610d11565b945f614c4d565b614be7919650614e0090883d8a11610a9657610a8e8183610d11565b9590614bdb565b614e1e9150823d8411610a9657610a8e8183610d11565b5f614b97565b614e3b9150823d8411610a9657610a8e8183610d11565b5f614b5d565b60ff5f51602061528f5f395f51905f525460401c1615614e5d57565b631afcd79f60e31b5f5260045ffd5b90813b15614eed575f51602061522f5f395f51905f5280546001600160a01b0319166001600160a01b0384169081179091557fbc7cd75a20ee27fd9adebab32041f755214dbc6bffa90cc0225b39da2e5c2d3b5f80a2805115614ed557614ed291615178565b50565b505034614ede57565b63b398979f60e01b5f5260045ffd5b50634c9c8ce360e01b5f9081526001600160a01b0391909116600452602490fd5b909192614f2661035f835f52600260205260405f2090565b906002614f3b845f52600360205260405f2090565b01546040516316cf339960e21b81526004810183905260248101889052909573__$cbaf8988f3c8d5491808e1d52afb16035a$__9591949091906020866044818a5af495861561044957614fb2966020915f91614e2457506040518098819263ec6e92cd60e01b8352600483019190602083019252565b03818a5af4948515610449576020965f966150b9575b50614fd4908484613013565b9690614fe8835f52600360205260405f2090565b60405163694f552560e01b8152600481019190915263ffffffff9182166024820152971660448801528660648173__$e8b8ff73fdf5e99c3df6a4b39aa1f5b319$__5af4958615610449575f96615098575b50615046881515613242565b61504f85613299565b8611615086575050505090602061506a92614c72838761328c565b0381865af490811561044957614cc4925f92614d97575061334e565b93509350935093506129f29450614269565b6150b291965060203d602011610a9657610a8e8183610d11565b945f61503a565b614fd49196506150d590883d8a11610a9657610a8e8183610d11565b9590614fc8565b6040516323b872dd60e01b60208201526001600160a01b039283166024820152929091166044830152606480830193909352918152610d429161420f608483610d11565b905f602091828151910182855af1156125b6575f513d61516f57506001600160a01b0381163b155b61514f5750565b635274afe760e01b5f9081526001600160a01b0391909116600452602490fd5b60011415615148565b5f806129f293602081519101845af461518f613180565b91906151b457508051156151a557805190602001fd5b63d6bda27560e01b5f5260045ffd5b815115806151e5575b6151c5575090565b639996b31560e01b5f9081526001600160a01b0391909116600452602490fd5b50803b156151bd56fe221f633c06e4399f005a7cec7ba7c4ff189e3fe19092cbafe32a5f176ffc797f9016d09d72d40fdae2fd8ceac6b6234c7706214fd39c1cd1e609a0528c199300360894a13ba1a3210667c828492db98dca3e2076cc3735a920a3ca505d382bbccd5ed15c6e187e77e9aee88184c21f4f2182ab5827cb3b7e07fbedcd63f033009b779b17422d0df92223018b32b4d1fa46e071723d6817e2486d003becc55f00f0c57e16840df040f15088dc2f81fe391c3923bec73e23a9662efc9c229c6a00a164736f6c634300081e000a",
  "linkReferences": {
    "contracts/libraries/FixedPointMath.sol": {
      "FixedPointMathU": [
        {
          "length": 20,
          "start": 10165
        },
        {
          "length": 20,
          "start": 13414
        },
        {
          "length": 20,
          "start": 15033
        },
        {
          "length": 20,
          "start": 16259
        },
        {
          "length": 20,
          "start": 17131
        },
        {
          "length": 20,
          "start": 18520
        },
        {
          "length": 20,
          "start": 18966
        },
        {
          "length": 20,
          "start": 19284
        },
        {
          "length": 20,
          "start": 20362
        }
      ]
    },
    "contracts/libraries/LazyMulSegmentTree.sol": {
      "LazyMulSegmentTree": [
        {
          "length": 20,
          "start": 957
        },
        {
          "length": 20,
          "start": 2668
        },
        {
          "length": 20,
          "start": 10055
        },
        {
          "length": 20,
          "start": 11331
        },
        {
          "length": 20,
          "start": 13567
        },
        {
          "length": 20,
          "start": 15306
        },
        {
          "length": 20,
          "start": 15606
        },
        {
          "length": 20,
          "start": 16480
        },
        {
          "length": 20,
          "start": 17300
        },
        {
          "length": 20,
          "start": 19544
        },
        {
          "length": 20,
          "start": 20549
        }
      ]
    }
  },
  "deployedLinkReferences": {
    "contracts/libraries/FixedPointMath.sol": {
      "FixedPointMathU": [
        {
          "length": 20,
          "start": 10119
        },
        {
          "length": 20,
          "start": 13368
        },
        {
          "length": 20,
          "start": 14987
        },
        {
          "length": 20,
          "start": 16213
        },
        {
          "length": 20,
          "start": 17085
        },
        {
          "length": 20,
          "start": 18474
        },
        {
          "length": 20,
          "start": 18920
        },
        {
          "length": 20,
          "start": 19238
        },
        {
          "length": 20,
          "start": 20316
        }
      ]
    },
    "contracts/libraries/LazyMulSegmentTree.sol": {
      "LazyMulSegmentTree": [
        {
          "length": 20,
          "start": 911
        },
        {
          "length": 20,
          "start": 2622
        },
        {
          "length": 20,
          "start": 10009
        },
        {
          "length": 20,
          "start": 11285
        },
        {
          "length": 20,
          "start": 13521
        },
        {
          "length": 20,
          "start": 15260
        },
        {
          "length": 20,
          "start": 15560
        },
        {
          "length": 20,
          "start": 16434
        },
        {
          "length": 20,
          "start": 17254
        },
        {
          "length": 20,
          "start": 19498
        },
        {
          "length": 20,
          "start": 20503
        }
      ]
    }
  }
}