{
  "_format": "hh-sol-artifact-1",
  "contractName": "CLMSRMarketCore",
  "sourceName": "contracts/core/CLMSRMarketCore.sol",
  "abi": [
    {
      "inputs": [
        {
          "internalType": "address",
          "name": "target",
          "type": "address"
        }
      ],
      "name": "AddressEmptyCode",
      "type": "error"
    },
    {
      "inputs": [
        {
          "internalType": "uint32",
          "name": "requested",
          "type": "uint32"
        },
        {
          "internalType": "uint32",
          "name": "maxAllowed",
          "type": "uint32"
        }
      ],
      "name": "BinCountExceedsLimit",
      "type": "error"
    },
    {
      "inputs": [
        {
          "internalType": "uint256",
          "name": "cost",
          "type": "uint256"
        },
        {
          "internalType": "uint256",
          "name": "maxAllowed",
          "type": "uint256"
        }
      ],
      "name": "CostExceedsMaximum",
      "type": "error"
    },
    {
      "inputs": [
        {
          "internalType": "address",
          "name": "implementation",
          "type": "address"
        }
      ],
      "name": "ERC1967InvalidImplementation",
      "type": "error"
    },
    {
      "inputs": [],
      "name": "ERC1967NonPayable",
      "type": "error"
    },
    {
      "inputs": [],
      "name": "EnforcedPause",
      "type": "error"
    },
    {
      "inputs": [],
      "name": "ExpectedPause",
      "type": "error"
    },
    {
      "inputs": [],
      "name": "FactorOutOfBounds",
      "type": "error"
    },
    {
      "inputs": [],
      "name": "FailedCall",
      "type": "error"
    },
    {
      "inputs": [],
      "name": "IncompleteChunkProcessing",
      "type": "error"
    },
    {
      "inputs": [],
      "name": "InvalidInitialization",
      "type": "error"
    },
    {
      "inputs": [],
      "name": "InvalidLiquidityParameter",
      "type": "error"
    },
    {
      "inputs": [
        {
          "internalType": "int256",
          "name": "minTick",
          "type": "int256"
        },
        {
          "internalType": "int256",
          "name": "maxTick",
          "type": "int256"
        },
        {
          "internalType": "int256",
          "name": "tickSpacing",
          "type": "int256"
        }
      ],
      "name": "InvalidMarketParameters",
      "type": "error"
    },
    {
      "inputs": [
        {
          "internalType": "uint128",
          "name": "qty",
          "type": "uint128"
        }
      ],
      "name": "InvalidQuantity",
      "type": "error"
    },
    {
      "inputs": [
        {
          "internalType": "int256",
          "name": "tick",
          "type": "int256"
        },
        {
          "internalType": "int256",
          "name": "minTick",
          "type": "int256"
        },
        {
          "internalType": "int256",
          "name": "maxTick",
          "type": "int256"
        }
      ],
      "name": "InvalidTick",
      "type": "error"
    },
    {
      "inputs": [
        {
          "internalType": "int256",
          "name": "lowerTick",
          "type": "int256"
        },
        {
          "internalType": "int256",
          "name": "upperTick",
          "type": "int256"
        }
      ],
      "name": "InvalidTickRange",
      "type": "error"
    },
    {
      "inputs": [
        {
          "internalType": "int256",
          "name": "tick",
          "type": "int256"
        },
        {
          "internalType": "int256",
          "name": "tickSpacing",
          "type": "int256"
        }
      ],
      "name": "InvalidTickSpacing",
      "type": "error"
    },
    {
      "inputs": [],
      "name": "InvalidTimeRange",
      "type": "error"
    },
    {
      "inputs": [
        {
          "internalType": "uint256",
          "name": "marketId",
          "type": "uint256"
        }
      ],
      "name": "MarketAlreadySettled",
      "type": "error"
    },
    {
      "inputs": [],
      "name": "MarketExpired",
      "type": "error"
    },
    {
      "inputs": [],
      "name": "MarketNotActive",
      "type": "error"
    },
    {
      "inputs": [
        {
          "internalType": "uint256",
          "name": "marketId",
          "type": "uint256"
        }
      ],
      "name": "MarketNotFound",
      "type": "error"
    },
    {
      "inputs": [
        {
          "internalType": "uint256",
          "name": "marketId",
          "type": "uint256"
        }
      ],
      "name": "MarketNotSettled",
      "type": "error"
    },
    {
      "inputs": [],
      "name": "MarketNotStarted",
      "type": "error"
    },
    {
      "inputs": [],
      "name": "NotInitializing",
      "type": "error"
    },
    {
      "inputs": [
        {
          "internalType": "address",
          "name": "owner",
          "type": "address"
        }
      ],
      "name": "OwnableInvalidOwner",
      "type": "error"
    },
    {
      "inputs": [
        {
          "internalType": "address",
          "name": "account",
          "type": "address"
        }
      ],
      "name": "OwnableUnauthorizedAccount",
      "type": "error"
    },
    {
      "inputs": [],
      "name": "ReentrancyGuardReentrantCall",
      "type": "error"
    },
    {
      "inputs": [
        {
          "internalType": "address",
          "name": "token",
          "type": "address"
        }
      ],
      "name": "SafeERC20FailedOperation",
      "type": "error"
    },
    {
      "inputs": [],
      "name": "TreeNotInitialized",
      "type": "error"
    },
    {
      "inputs": [],
      "name": "UUPSUnauthorizedCallContext",
      "type": "error"
    },
    {
      "inputs": [
        {
          "internalType": "bytes32",
          "name": "slot",
          "type": "bytes32"
        }
      ],
      "name": "UUPSUnsupportedProxiableUUID",
      "type": "error"
    },
    {
      "inputs": [
        {
          "internalType": "address",
          "name": "caller",
          "type": "address"
        }
      ],
      "name": "UnauthorizedCaller",
      "type": "error"
    },
    {
      "inputs": [],
      "name": "ZeroAddress",
      "type": "error"
    },
    {
      "anonymous": false,
      "inputs": [
        {
          "indexed": false,
          "internalType": "uint256",
          "name": "step",
          "type": "uint256"
        },
        {
          "indexed": false,
          "internalType": "uint256",
          "name": "value1",
          "type": "uint256"
        },
        {
          "indexed": false,
          "internalType": "uint256",
          "name": "value2",
          "type": "uint256"
        },
        {
          "indexed": false,
          "internalType": "string",
          "name": "message",
          "type": "string"
        }
      ],
      "name": "DebugSellProceeds",
      "type": "event"
    },
    {
      "anonymous": false,
      "inputs": [
        {
          "indexed": true,
          "internalType": "address",
          "name": "by",
          "type": "address"
        },
        {
          "indexed": false,
          "internalType": "string",
          "name": "reason",
          "type": "string"
        }
      ],
      "name": "EmergencyPaused",
      "type": "event"
    },
    {
      "anonymous": false,
      "inputs": [
        {
          "indexed": true,
          "internalType": "address",
          "name": "by",
          "type": "address"
        }
      ],
      "name": "EmergencyUnpaused",
      "type": "event"
    },
    {
      "anonymous": false,
      "inputs": [
        {
          "indexed": false,
          "internalType": "uint64",
          "name": "version",
          "type": "uint64"
        }
      ],
      "name": "Initialized",
      "type": "event"
    },
    {
      "anonymous": false,
      "inputs": [
        {
          "indexed": true,
          "internalType": "uint256",
          "name": "marketId",
          "type": "uint256"
        },
        {
          "indexed": false,
          "internalType": "uint64",
          "name": "startTimestamp",
          "type": "uint64"
        },
        {
          "indexed": false,
          "internalType": "uint64",
          "name": "endTimestamp",
          "type": "uint64"
        },
        {
          "indexed": false,
          "internalType": "int256",
          "name": "minTick",
          "type": "int256"
        },
        {
          "indexed": false,
          "internalType": "int256",
          "name": "maxTick",
          "type": "int256"
        },
        {
          "indexed": false,
          "internalType": "int256",
          "name": "tickSpacing",
          "type": "int256"
        },
        {
          "indexed": false,
          "internalType": "uint32",
          "name": "numBins",
          "type": "uint32"
        },
        {
          "indexed": false,
          "internalType": "uint256",
          "name": "liquidityParameter",
          "type": "uint256"
        }
      ],
      "name": "MarketCreated",
      "type": "event"
    },
    {
      "anonymous": false,
      "inputs": [
        {
          "indexed": true,
          "internalType": "uint256",
          "name": "marketId",
          "type": "uint256"
        },
        {
          "indexed": false,
          "internalType": "int256",
          "name": "settlementTick",
          "type": "int256"
        }
      ],
      "name": "MarketSettled",
      "type": "event"
    },
    {
      "anonymous": false,
      "inputs": [
        {
          "indexed": true,
          "internalType": "uint256",
          "name": "marketId",
          "type": "uint256"
        },
        {
          "indexed": false,
          "internalType": "int256",
          "name": "settlementValue",
          "type": "int256"
        }
      ],
      "name": "MarketSettlementValueSubmitted",
      "type": "event"
    },
    {
      "anonymous": false,
      "inputs": [
        {
          "indexed": true,
          "internalType": "uint256",
          "name": "marketId",
          "type": "uint256"
        },
        {
          "indexed": false,
          "internalType": "uint64",
          "name": "newStartTimestamp",
          "type": "uint64"
        },
        {
          "indexed": false,
          "internalType": "uint64",
          "name": "newEndTimestamp",
          "type": "uint64"
        }
      ],
      "name": "MarketTimingUpdated",
      "type": "event"
    },
    {
      "anonymous": false,
      "inputs": [
        {
          "indexed": true,
          "internalType": "address",
          "name": "previousOwner",
          "type": "address"
        },
        {
          "indexed": true,
          "internalType": "address",
          "name": "newOwner",
          "type": "address"
        }
      ],
      "name": "OwnershipTransferred",
      "type": "event"
    },
    {
      "anonymous": false,
      "inputs": [
        {
          "indexed": false,
          "internalType": "address",
          "name": "account",
          "type": "address"
        }
      ],
      "name": "Paused",
      "type": "event"
    },
    {
      "anonymous": false,
      "inputs": [
        {
          "indexed": true,
          "internalType": "uint256",
          "name": "positionId",
          "type": "uint256"
        },
        {
          "indexed": true,
          "internalType": "address",
          "name": "trader",
          "type": "address"
        },
        {
          "indexed": false,
          "internalType": "uint256",
          "name": "payout",
          "type": "uint256"
        }
      ],
      "name": "PositionClaimed",
      "type": "event"
    },
    {
      "anonymous": false,
      "inputs": [
        {
          "indexed": true,
          "internalType": "uint256",
          "name": "positionId",
          "type": "uint256"
        },
        {
          "indexed": true,
          "internalType": "address",
          "name": "trader",
          "type": "address"
        },
        {
          "indexed": false,
          "internalType": "uint256",
          "name": "proceeds",
          "type": "uint256"
        }
      ],
      "name": "PositionClosed",
      "type": "event"
    },
    {
      "anonymous": false,
      "inputs": [
        {
          "indexed": true,
          "internalType": "uint256",
          "name": "positionId",
          "type": "uint256"
        },
        {
          "indexed": true,
          "internalType": "address",
          "name": "trader",
          "type": "address"
        },
        {
          "indexed": false,
          "internalType": "uint128",
          "name": "sellQuantity",
          "type": "uint128"
        },
        {
          "indexed": false,
          "internalType": "uint128",
          "name": "newQuantity",
          "type": "uint128"
        },
        {
          "indexed": false,
          "internalType": "uint256",
          "name": "proceeds",
          "type": "uint256"
        }
      ],
      "name": "PositionDecreased",
      "type": "event"
    },
    {
      "anonymous": false,
      "inputs": [
        {
          "indexed": true,
          "internalType": "uint256",
          "name": "marketId",
          "type": "uint256"
        },
        {
          "indexed": false,
          "internalType": "uint256",
          "name": "from",
          "type": "uint256"
        },
        {
          "indexed": false,
          "internalType": "uint256",
          "name": "to",
          "type": "uint256"
        },
        {
          "indexed": false,
          "internalType": "bool",
          "name": "done",
          "type": "bool"
        }
      ],
      "name": "PositionEventsProgress",
      "type": "event"
    },
    {
      "anonymous": false,
      "inputs": [
        {
          "indexed": true,
          "internalType": "uint256",
          "name": "positionId",
          "type": "uint256"
        },
        {
          "indexed": true,
          "internalType": "address",
          "name": "trader",
          "type": "address"
        },
        {
          "indexed": false,
          "internalType": "uint128",
          "name": "additionalQuantity",
          "type": "uint128"
        },
        {
          "indexed": false,
          "internalType": "uint128",
          "name": "newQuantity",
          "type": "uint128"
        },
        {
          "indexed": false,
          "internalType": "uint256",
          "name": "cost",
          "type": "uint256"
        }
      ],
      "name": "PositionIncreased",
      "type": "event"
    },
    {
      "anonymous": false,
      "inputs": [
        {
          "indexed": true,
          "internalType": "uint256",
          "name": "positionId",
          "type": "uint256"
        },
        {
          "indexed": true,
          "internalType": "address",
          "name": "trader",
          "type": "address"
        },
        {
          "indexed": true,
          "internalType": "uint256",
          "name": "marketId",
          "type": "uint256"
        },
        {
          "indexed": false,
          "internalType": "int256",
          "name": "lowerTick",
          "type": "int256"
        },
        {
          "indexed": false,
          "internalType": "int256",
          "name": "upperTick",
          "type": "int256"
        },
        {
          "indexed": false,
          "internalType": "uint128",
          "name": "quantity",
          "type": "uint128"
        },
        {
          "indexed": false,
          "internalType": "uint256",
          "name": "cost",
          "type": "uint256"
        }
      ],
      "name": "PositionOpened",
      "type": "event"
    },
    {
      "anonymous": false,
      "inputs": [
        {
          "indexed": true,
          "internalType": "uint256",
          "name": "positionId",
          "type": "uint256"
        },
        {
          "indexed": true,
          "internalType": "address",
          "name": "trader",
          "type": "address"
        },
        {
          "indexed": false,
          "internalType": "uint256",
          "name": "payout",
          "type": "uint256"
        },
        {
          "indexed": false,
          "internalType": "bool",
          "name": "isWin",
          "type": "bool"
        }
      ],
      "name": "PositionSettled",
      "type": "event"
    },
    {
      "anonymous": false,
      "inputs": [
        {
          "indexed": true,
          "internalType": "uint256",
          "name": "marketId",
          "type": "uint256"
        },
        {
          "indexed": true,
          "internalType": "int256",
          "name": "lo",
          "type": "int256"
        },
        {
          "indexed": true,
          "internalType": "int256",
          "name": "hi",
          "type": "int256"
        },
        {
          "indexed": false,
          "internalType": "uint256",
          "name": "factor",
          "type": "uint256"
        }
      ],
      "name": "RangeFactorApplied",
      "type": "event"
    },
    {
      "anonymous": false,
      "inputs": [
        {
          "indexed": false,
          "internalType": "address",
          "name": "account",
          "type": "address"
        }
      ],
      "name": "Unpaused",
      "type": "event"
    },
    {
      "anonymous": false,
      "inputs": [
        {
          "indexed": true,
          "internalType": "address",
          "name": "implementation",
          "type": "address"
        }
      ],
      "name": "Upgraded",
      "type": "event"
    },
    {
      "inputs": [],
      "name": "MAX_LIQUIDITY_PARAMETER",
      "outputs": [
        {
          "internalType": "uint256",
          "name": "",
          "type": "uint256"
        }
      ],
      "stateMutability": "view",
      "type": "function"
    },
    {
      "inputs": [],
      "name": "MAX_TICK_COUNT",
      "outputs": [
        {
          "internalType": "uint32",
          "name": "",
          "type": "uint32"
        }
      ],
      "stateMutability": "view",
      "type": "function"
    },
    {
      "inputs": [],
      "name": "MIN_LIQUIDITY_PARAMETER",
      "outputs": [
        {
          "internalType": "uint256",
          "name": "",
          "type": "uint256"
        }
      ],
      "stateMutability": "view",
      "type": "function"
    },
    {
      "inputs": [],
      "name": "UPGRADE_INTERFACE_VERSION",
      "outputs": [
        {
          "internalType": "string",
          "name": "",
          "type": "string"
        }
      ],
      "stateMutability": "view",
      "type": "function"
    },
    {
      "inputs": [],
      "name": "_nextMarketId",
      "outputs": [
        {
          "internalType": "uint256",
          "name": "",
          "type": "uint256"
        }
      ],
      "stateMutability": "view",
      "type": "function"
    },
    {
      "inputs": [
        {
          "internalType": "uint256",
          "name": "marketId",
          "type": "uint256"
        },
        {
          "internalType": "int256",
          "name": "lo",
          "type": "int256"
        },
        {
          "internalType": "int256",
          "name": "hi",
          "type": "int256"
        },
        {
          "internalType": "uint256",
          "name": "factor",
          "type": "uint256"
        }
      ],
      "name": "applyRangeFactor",
      "outputs": [],
      "stateMutability": "nonpayable",
      "type": "function"
    },
    {
      "inputs": [
        {
          "internalType": "uint256",
          "name": "positionId",
          "type": "uint256"
        }
      ],
      "name": "calculateClaimAmount",
      "outputs": [
        {
          "internalType": "uint256",
          "name": "amount",
          "type": "uint256"
        }
      ],
      "stateMutability": "view",
      "type": "function"
    },
    {
      "inputs": [
        {
          "internalType": "uint256",
          "name": "positionId",
          "type": "uint256"
        }
      ],
      "name": "calculateCloseProceeds",
      "outputs": [
        {
          "internalType": "uint256",
          "name": "proceeds",
          "type": "uint256"
        }
      ],
      "stateMutability": "view",
      "type": "function"
    },
    {
      "inputs": [
        {
          "internalType": "uint256",
          "name": "positionId",
          "type": "uint256"
        },
        {
          "internalType": "uint128",
          "name": "sellQuantity",
          "type": "uint128"
        }
      ],
      "name": "calculateDecreaseProceeds",
      "outputs": [
        {
          "internalType": "uint256",
          "name": "proceeds",
          "type": "uint256"
        }
      ],
      "stateMutability": "view",
      "type": "function"
    },
    {
      "inputs": [
        {
          "internalType": "uint256",
          "name": "positionId",
          "type": "uint256"
        },
        {
          "internalType": "uint128",
          "name": "additionalQuantity",
          "type": "uint128"
        }
      ],
      "name": "calculateIncreaseCost",
      "outputs": [
        {
          "internalType": "uint256",
          "name": "cost",
          "type": "uint256"
        }
      ],
      "stateMutability": "view",
      "type": "function"
    },
    {
      "inputs": [
        {
          "internalType": "uint256",
          "name": "marketId",
          "type": "uint256"
        },
        {
          "internalType": "int256",
          "name": "lowerTick",
          "type": "int256"
        },
        {
          "internalType": "int256",
          "name": "upperTick",
          "type": "int256"
        },
        {
          "internalType": "uint128",
          "name": "quantity",
          "type": "uint128"
        }
      ],
      "name": "calculateOpenCost",
      "outputs": [
        {
          "internalType": "uint256",
          "name": "cost",
          "type": "uint256"
        }
      ],
      "stateMutability": "view",
      "type": "function"
    },
    {
      "inputs": [
        {
          "internalType": "uint256",
          "name": "marketId",
          "type": "uint256"
        },
        {
          "internalType": "int256",
          "name": "lowerTick",
          "type": "int256"
        },
        {
          "internalType": "int256",
          "name": "upperTick",
          "type": "int256"
        },
        {
          "internalType": "uint256",
          "name": "cost",
          "type": "uint256"
        }
      ],
      "name": "calculateQuantityFromCost",
      "outputs": [
        {
          "internalType": "uint128",
          "name": "quantity",
          "type": "uint128"
        }
      ],
      "stateMutability": "view",
      "type": "function"
    },
    {
      "inputs": [
        {
          "internalType": "uint256",
          "name": "positionId",
          "type": "uint256"
        }
      ],
      "name": "claimPayout",
      "outputs": [
        {
          "internalType": "uint256",
          "name": "payout",
          "type": "uint256"
        }
      ],
      "stateMutability": "nonpayable",
      "type": "function"
    },
    {
      "inputs": [
        {
          "internalType": "uint256",
          "name": "positionId",
          "type": "uint256"
        },
        {
          "internalType": "uint256",
          "name": "minProceeds",
          "type": "uint256"
        }
      ],
      "name": "closePosition",
      "outputs": [
        {
          "internalType": "uint256",
          "name": "proceeds",
          "type": "uint256"
        }
      ],
      "stateMutability": "nonpayable",
      "type": "function"
    },
    {
      "inputs": [
        {
          "internalType": "int256",
          "name": "minTick",
          "type": "int256"
        },
        {
          "internalType": "int256",
          "name": "maxTick",
          "type": "int256"
        },
        {
          "internalType": "int256",
          "name": "tickSpacing",
          "type": "int256"
        },
        {
          "internalType": "uint64",
          "name": "startTimestamp",
          "type": "uint64"
        },
        {
          "internalType": "uint64",
          "name": "endTimestamp",
          "type": "uint64"
        },
        {
          "internalType": "uint256",
          "name": "liquidityParameter",
          "type": "uint256"
        }
      ],
      "name": "createMarket",
      "outputs": [
        {
          "internalType": "uint256",
          "name": "marketId",
          "type": "uint256"
        }
      ],
      "stateMutability": "nonpayable",
      "type": "function"
    },
    {
      "inputs": [
        {
          "internalType": "uint256",
          "name": "positionId",
          "type": "uint256"
        },
        {
          "internalType": "uint128",
          "name": "sellQuantity",
          "type": "uint128"
        },
        {
          "internalType": "uint256",
          "name": "minProceeds",
          "type": "uint256"
        }
      ],
      "name": "decreasePosition",
      "outputs": [
        {
          "internalType": "uint128",
          "name": "newQuantity",
          "type": "uint128"
        },
        {
          "internalType": "uint256",
          "name": "proceeds",
          "type": "uint256"
        }
      ],
      "stateMutability": "nonpayable",
      "type": "function"
    },
    {
      "inputs": [
        {
          "internalType": "uint256",
          "name": "marketId",
          "type": "uint256"
        },
        {
          "internalType": "uint256",
          "name": "scanLimit",
          "type": "uint256"
        }
      ],
      "name": "emitPositionSettledBatch",
      "outputs": [],
      "stateMutability": "nonpayable",
      "type": "function"
    },
    {
      "inputs": [
        {
          "internalType": "uint256",
          "name": "marketId",
          "type": "uint256"
        }
      ],
      "name": "getMarket",
      "outputs": [
        {
          "components": [
            {
              "internalType": "bool",
              "name": "isActive",
              "type": "bool"
            },
            {
              "internalType": "bool",
              "name": "settled",
              "type": "bool"
            },
            {
              "internalType": "uint64",
              "name": "startTimestamp",
              "type": "uint64"
            },
            {
              "internalType": "uint64",
              "name": "endTimestamp",
              "type": "uint64"
            },
            {
              "internalType": "int256",
              "name": "settlementTick",
              "type": "int256"
            },
            {
              "internalType": "int256",
              "name": "minTick",
              "type": "int256"
            },
            {
              "internalType": "int256",
              "name": "maxTick",
              "type": "int256"
            },
            {
              "internalType": "int256",
              "name": "tickSpacing",
              "type": "int256"
            },
            {
              "internalType": "uint32",
              "name": "numBins",
              "type": "uint32"
            },
            {
              "internalType": "uint256",
              "name": "liquidityParameter",
              "type": "uint256"
            },
            {
              "internalType": "uint32",
              "name": "positionEventsCursor",
              "type": "uint32"
            },
            {
              "internalType": "bool",
              "name": "positionEventsEmitted",
              "type": "bool"
            },
            {
              "internalType": "int256",
              "name": "settlementValue",
              "type": "int256"
            }
          ],
          "internalType": "struct ICLMSRMarketCore.Market",
          "name": "market",
          "type": "tuple"
        }
      ],
      "stateMutability": "view",
      "type": "function"
    },
    {
      "inputs": [],
      "name": "getPaymentToken",
      "outputs": [
        {
          "internalType": "address",
          "name": "",
          "type": "address"
        }
      ],
      "stateMutability": "view",
      "type": "function"
    },
    {
      "inputs": [],
      "name": "getPositionContract",
      "outputs": [
        {
          "internalType": "address",
          "name": "",
          "type": "address"
        }
      ],
      "stateMutability": "view",
      "type": "function"
    },
    {
      "inputs": [
        {
          "internalType": "uint256",
          "name": "marketId",
          "type": "uint256"
        },
        {
          "internalType": "int256",
          "name": "lo",
          "type": "int256"
        },
        {
          "internalType": "int256",
          "name": "hi",
          "type": "int256"
        }
      ],
      "name": "getRangeSum",
      "outputs": [
        {
          "internalType": "uint256",
          "name": "sum",
          "type": "uint256"
        }
      ],
      "stateMutability": "view",
      "type": "function"
    },
    {
      "inputs": [
        {
          "internalType": "uint256",
          "name": "marketId",
          "type": "uint256"
        },
        {
          "internalType": "int256",
          "name": "tick",
          "type": "int256"
        }
      ],
      "name": "getTickValue",
      "outputs": [
        {
          "internalType": "uint256",
          "name": "value",
          "type": "uint256"
        }
      ],
      "stateMutability": "view",
      "type": "function"
    },
    {
      "inputs": [
        {
          "internalType": "uint256",
          "name": "positionId",
          "type": "uint256"
        },
        {
          "internalType": "uint128",
          "name": "additionalQuantity",
          "type": "uint128"
        },
        {
          "internalType": "uint256",
          "name": "maxCost",
          "type": "uint256"
        }
      ],
      "name": "increasePosition",
      "outputs": [
        {
          "internalType": "uint128",
          "name": "newQuantity",
          "type": "uint128"
        }
      ],
      "stateMutability": "nonpayable",
      "type": "function"
    },
    {
      "inputs": [
        {
          "internalType": "address",
          "name": "_paymentToken",
          "type": "address"
        },
        {
          "internalType": "address",
          "name": "_positionContract",
          "type": "address"
        }
      ],
      "name": "initialize",
      "outputs": [],
      "stateMutability": "nonpayable",
      "type": "function"
    },
    {
      "inputs": [],
      "name": "isPaused",
      "outputs": [
        {
          "internalType": "bool",
          "name": "",
          "type": "bool"
        }
      ],
      "stateMutability": "view",
      "type": "function"
    },
    {
      "inputs": [
        {
          "internalType": "uint256",
          "name": "",
          "type": "uint256"
        }
      ],
      "name": "marketTrees",
      "outputs": [
        {
          "internalType": "uint32",
          "name": "root",
          "type": "uint32"
        },
        {
          "internalType": "uint32",
          "name": "nextIndex",
          "type": "uint32"
        },
        {
          "internalType": "uint32",
          "name": "size",
          "type": "uint32"
        },
        {
          "internalType": "uint256",
          "name": "cachedRootSum",
          "type": "uint256"
        }
      ],
      "stateMutability": "view",
      "type": "function"
    },
    {
      "inputs": [
        {
          "internalType": "uint256",
          "name": "",
          "type": "uint256"
        }
      ],
      "name": "markets",
      "outputs": [
        {
          "internalType": "bool",
          "name": "isActive",
          "type": "bool"
        },
        {
          "internalType": "bool",
          "name": "settled",
          "type": "bool"
        },
        {
          "internalType": "uint64",
          "name": "startTimestamp",
          "type": "uint64"
        },
        {
          "internalType": "uint64",
          "name": "endTimestamp",
          "type": "uint64"
        },
        {
          "internalType": "int256",
          "name": "settlementTick",
          "type": "int256"
        },
        {
          "internalType": "int256",
          "name": "minTick",
          "type": "int256"
        },
        {
          "internalType": "int256",
          "name": "maxTick",
          "type": "int256"
        },
        {
          "internalType": "int256",
          "name": "tickSpacing",
          "type": "int256"
        },
        {
          "internalType": "uint32",
          "name": "numBins",
          "type": "uint32"
        },
        {
          "internalType": "uint256",
          "name": "liquidityParameter",
          "type": "uint256"
        },
        {
          "internalType": "uint32",
          "name": "positionEventsCursor",
          "type": "uint32"
        },
        {
          "internalType": "bool",
          "name": "positionEventsEmitted",
          "type": "bool"
        },
        {
          "internalType": "int256",
          "name": "settlementValue",
          "type": "int256"
        }
      ],
      "stateMutability": "view",
      "type": "function"
    },
    {
      "inputs": [
        {
          "internalType": "uint256",
          "name": "marketId",
          "type": "uint256"
        },
        {
          "internalType": "int256",
          "name": "lowerTick",
          "type": "int256"
        },
        {
          "internalType": "int256",
          "name": "upperTick",
          "type": "int256"
        },
        {
          "internalType": "uint128",
          "name": "quantity",
          "type": "uint128"
        },
        {
          "internalType": "uint256",
          "name": "maxCost",
          "type": "uint256"
        }
      ],
      "name": "openPosition",
      "outputs": [
        {
          "internalType": "uint256",
          "name": "positionId",
          "type": "uint256"
        }
      ],
      "stateMutability": "nonpayable",
      "type": "function"
    },
    {
      "inputs": [],
      "name": "owner",
      "outputs": [
        {
          "internalType": "address",
          "name": "",
          "type": "address"
        }
      ],
      "stateMutability": "view",
      "type": "function"
    },
    {
      "inputs": [
        {
          "internalType": "string",
          "name": "reason",
          "type": "string"
        }
      ],
      "name": "pause",
      "outputs": [],
      "stateMutability": "nonpayable",
      "type": "function"
    },
    {
      "inputs": [],
      "name": "paused",
      "outputs": [
        {
          "internalType": "bool",
          "name": "",
          "type": "bool"
        }
      ],
      "stateMutability": "view",
      "type": "function"
    },
    {
      "inputs": [],
      "name": "paymentToken",
      "outputs": [
        {
          "internalType": "contract IERC20",
          "name": "",
          "type": "address"
        }
      ],
      "stateMutability": "view",
      "type": "function"
    },
    {
      "inputs": [],
      "name": "positionContract",
      "outputs": [
        {
          "internalType": "contract ICLMSRPosition",
          "name": "",
          "type": "address"
        }
      ],
      "stateMutability": "view",
      "type": "function"
    },
    {
      "inputs": [
        {
          "internalType": "uint256",
          "name": "marketId",
          "type": "uint256"
        },
        {
          "internalType": "int256",
          "name": "lo",
          "type": "int256"
        },
        {
          "internalType": "int256",
          "name": "hi",
          "type": "int256"
        }
      ],
      "name": "propagateLazy",
      "outputs": [
        {
          "internalType": "uint256",
          "name": "sum",
          "type": "uint256"
        }
      ],
      "stateMutability": "nonpayable",
      "type": "function"
    },
    {
      "inputs": [],
      "name": "proxiableUUID",
      "outputs": [
        {
          "internalType": "bytes32",
          "name": "",
          "type": "bytes32"
        }
      ],
      "stateMutability": "view",
      "type": "function"
    },
    {
      "inputs": [],
      "name": "renounceOwnership",
      "outputs": [],
      "stateMutability": "nonpayable",
      "type": "function"
    },
    {
      "inputs": [
        {
          "internalType": "uint256",
          "name": "marketId",
          "type": "uint256"
        },
        {
          "internalType": "int256",
          "name": "settlementValue",
          "type": "int256"
        }
      ],
      "name": "settleMarket",
      "outputs": [],
      "stateMutability": "nonpayable",
      "type": "function"
    },
    {
      "inputs": [
        {
          "internalType": "address",
          "name": "newOwner",
          "type": "address"
        }
      ],
      "name": "transferOwnership",
      "outputs": [],
      "stateMutability": "nonpayable",
      "type": "function"
    },
    {
      "inputs": [],
      "name": "unpause",
      "outputs": [],
      "stateMutability": "nonpayable",
      "type": "function"
    },
    {
      "inputs": [
        {
          "internalType": "uint256",
          "name": "marketId",
          "type": "uint256"
        },
        {
          "internalType": "uint64",
          "name": "newStartTimestamp",
          "type": "uint64"
        },
        {
          "internalType": "uint64",
          "name": "newEndTimestamp",
          "type": "uint64"
        }
      ],
      "name": "updateMarketTiming",
      "outputs": [],
      "stateMutability": "nonpayable",
      "type": "function"
    },
    {
      "inputs": [
        {
          "internalType": "address",
          "name": "newImplementation",
          "type": "address"
        },
        {
          "internalType": "bytes",
          "name": "data",
          "type": "bytes"
        }
      ],
      "name": "upgradeToAndCall",
      "outputs": [],
      "stateMutability": "payable",
      "type": "function"
    }
  ],
  "bytecode": "0x60a0806040523461002b5730608052615f6a908162000031823960805181818161214c01526121f30152f35b600080fdfe6080604052600436101561001257600080fd5b6000803560e01c8063070ab8c9146130ea57806309f28be61461062a57806313b6eb09146130c35780631d49df571461306c5780632d6ce61d146128d05780632ed66650146128ae5780633013ce2914610a935780633d65117b146128055780633f4ba83a14612768578063449a03881461270a57806344a1a58e1461265e5780634765b3f914612579578063485cc955146123b55780634f1ef286146121a457806352d1902d146121395780635c975abb14610d4a5780636084fa03146117de57806362a626aa146117c0578063692c3fc7146117695780636da66355146116865780636ec469b114611561578063715018a6146114f65780637404d957146114d857806379334798146112765780637ed54782146111cd5780638a69614e14610fe75780638da5cb5b14610fb15780639bbafcc314610f665780639fc46ecb14610eb4578063ad3cb1cc14610e4a578063b1283e7714610d7a578063b187bd2614610d4a578063b762d83414610c05578063bcb1732214610be0578063c9ac6b3114610aba578063d41c3a6514610a93578063de57c54f14610653578063e9eb3ba51461062a578063eb44fdd3146104dc578063f0b7f3b11461020f5763f2fde38b146101e057600080fd5b3461020c57602036600319011261020c576102096101fc613291565b6102046140b7565b614043565b80f35b80fd5b503461020c5760a036600319011261020c576024604460043582358235610234613261565b90608435916102416143a2565b6102496143cd565b6001600160801b03169081156104c45784600052602096600288526040600020610272876140f0565b156104ad57805460ff81161561049b576001600160401b0390818160101c1642106104895760501c164211610477576102b36102ad826133bc565b8761410c565b6102c56102bf826133bc565b8461410c565b82861361045b5782861461045b576102ec9060046102e38886613491565b910154906134aa565b61043f5764e8d4a510008084029064e8d4a50fff61030c83868a8c61507b565b010494808611610423575060a48992610344899361032a89336155f8565b846000526002865260066040600020015490878b87614b84565b600060018060a01b0360015416896040519c8d9687956330906fad60e21b87523360048801528601528401528660648401528760848401525af1958615610417576000966103e3575b506040519384528684015260408301526060820152827fc33c3b4ea19b40f02901978a93e787a0caa1d6fd23dfa228ae891fe96867e17160803393a46001600080516020615f3e83398151915255604051908152f35b9095508681813d8311610410575b6103fb81836132d6565b8101031261040b5751948761038d565b600080fd5b503d6103f1565b6040513d6000823e3d90fd5b858991846040519263f6daf99360e01b84526004840152820152fd5b8691859160405192631150381b60e11b84526004840152820152fd5b8786848460405192631150381b60e11b84526004840152820152fd5b60405163b2094b5960e01b8152600490fd5b604051630ee8c41760e31b8152600490fd5b604051635a90bb8d60e11b8152600490fd5b50604051634cba20ef60e01b815260048101879052fd5b604051633b59e48960e11b8152600481018390528790fd5b503461020c57602036600319011261020c57600435906040516104fe816132ba565b8181528160208201528160408201528160608201528160808201528160a08201528160c08201528160e082015261010082818301526101209280848401526101408181850152610160918083860152806101808096015261055e876140f0565b15610611579061057e6040836101a09988979695526002602052206133bc565b926040519684511515885260208501511515602089015260408501516001600160401b0380911660408a015260608601511660608901526080850151608089015260a085015160a089015260c085015160c089015260e085015160e0890152818501519163ffffffff80931690890152808501519088015281840151169086015280820151151590850152015190820152f35b604051634cba20ef60e01b815260048101889052602490fd5b503461020c578060031936011261020c576001546040516001600160a01b039091168152602090f35b503461020c5760c036600319011261020c57606435906001600160401b038216820361040b57608435906001600160401b038216820361040b576106956140b7565b61069d6143a2565b600454916106aa83614034565b6004556024356004351215610a6957816044351315610a69576106dc6044356106d7600435602435613491565b6134aa565b610a69576001600160401b0381166001600160401b0385161015610a575766038d7ea4c6800060a435108015610a42575b610a305761072a604435610725600435602435613491565b614019565b9180831380610a23575b156109e85763ffffffff83161580156109d6575b6109af57604051610758816132ba565b600181528160208201526001600160401b03861660408201526001600160401b038316606082015281608082015260043560a082015260243560c082015260443560e082015263ffffffff841661010082015260a43561012082015281610140820152816101608201528161018082015284825260026020526008610180604084209280511515845460ff61ff0060208501511515871b1692169061ffff1916171784556108136001600160401b0360408301511685613bec565b61082a6001600160401b0360608301511685613c12565b6080810151600185015560a0810151600285015560c0810151600385015560e081015160048501556005840163ffffffff6101008301511663ffffffff1982541617905561012081015160068501556007840163ffffffff6101408301511681549060ff60201b610160850151151560201b169164ffffffffff191617179055015191015560036020526040812073__$e8b8ff73fdf5e99c3df6a4b39aa1f5b319$__3b156109ab576040519063d886284b60e01b8252600482015263ffffffff84166024820152818160448173__$e8b8ff73fdf5e99c3df6a4b39aa1f5b319$__5af480156109a05761098c575b602085807f2453c1a297c658a5b6905526d84f0b4ac79c0d9cc5fb5601664602efee53121460e08a63ffffffff8a6001600160401b038b816040519516855216888401526004356040840152602435606084015260443560808401521660a082015260a43560c0820152a2604051908152f35b61099682916132a7565b61020c5780610919565b6040513d84823e3d90fd5b5080fd5b60405163515eb6ff60e11b815263ffffffff84166004820152620f42406024820152604490fd5b50620f424063ffffffff841611610748565b60405162461bcd60e51b8152602060048201526013602482015272125b9d985b1a59081c985b99d94818dbdd5b9d606a1b6044820152606490fd5b50620f4240831315610734565b604051630b281d1960e31b8152600490fd5b5069152d02c7e14af680000060a4351161070d565b60405163536a71af60e01b8152600490fd5b60405163040b1c7360e21b8152600480359082015260248035908201526044803590820152606490fd5b503461020c578060031936011261020c57546040516001600160a01b039091168152602090f35b503461020c57608036600319011261020c5760043560246044358135610ade613261565b610ae7856140f0565b15610bc8576001600160801b0316928315610bb257846000526002602052610b1260406000206133bc565b610b1c818461410c565b610b26818561410c565b838313610b9557838314610b9557610b4d9060e0610b448587613491565b910151906134aa565b610b79575060209364e8d4a50fff92610b6f9264e8d4a510008096029261507b565b0104604051908152f35b9160449260405192631150381b60e11b84526004840152820152fd5b509160449260405192631150381b60e11b84526004840152820152fd5b604051633b59e48960e11b815260048101859052fd5b604051634cba20ef60e01b8152600481018690528490fd5b503461020c578060031936011261020c57602060405169152d02c7e14af68000008152f35b503461020c57610c1436613235565b610c1c6140b7565b610c25826140f0565b15610d315781835260026020526040832080549060ff8260081c16610d1857620f424083059160028201548084128015610d0b575b610ce057507fca3a568dfb73dd7b7b3c0b28f130edbf4b688f534869c3de083664c43c11430e602080946007856101008a968a60087fab96f8f39935936b273ce917dbbe6675bcc26b5548edf323cdf3b1348e6b80169c9a015584600184015561ffff19161781550164ffffffffff198154169055604051908152a2604051908152a280f35b6003830154604051638a228b0d60e01b81526004810186905260248101929092526044820152606490fd5b5060038301548413610c5a565b604051634e0558fb60e01b815260048101859052602490fd5b604051634cba20ef60e01b815260048101839052602490fd5b503461020c578060031936011261020c57602060ff600080516020615f1e83398151915254166040519015158152f35b503461020c57602036600319011261020c5760406101a091600435815260026020522080549060ff6001600160401b03916001810154600282015490600383015491600484015463ffffffff93846005870154169260068701549460086007890154980154996040519b8a811615158d528c60208c8360081c1615159101528c6040838360101c1691015260501c1660608c015260808b015260a08a015260c089015260e0880152610100870152610120860152811661014085015260201c161515610160830152610180820152f35b503461020c578060031936011261020c5760405160408101908082106001600160401b03831117610e9e57610e9a9160405260058152640352e302e360dc1b602082015260405191829182613373565b0390f35b634e487b7160e01b600052604160045260246000fd5b503461020c57602036600319011261020c5760015460405163eb02c30160e01b815260048035908201529060a090829060249082906001600160a01b03165afa9081156104175760209291610f37575b5064e8d4a50fff610b6f64e8d4a51000928360018060801b03606083015116029080519060408782015191015191614435565b610f59915060a03d60a011610f5f575b610f5181836132d6565b810190613b16565b38610f04565b503d610f47565b503461020c57610f7536613235565b610f809291926140b7565b610f89836140f0565b15610f98576102099192613c98565b604051634cba20ef60e01b815260048101849052602490fd5b503461020c578060031936011261020c57600080516020615ede833981519152546040516001600160a01b039091168152602090f35b503461020c576020908160031936011261020c576004356110066143a2565b61100e6143cd565b60015460405163eb02c30160e01b8152600481018390526001600160a01b03939184169060a081602481855afa9081156111a057869084926111ab575b5060249192604051928380926331a9108f60e11b82528860048301525afa9081156111a0578391611173575b50843391160361115b57805182526002855284611096604084206133bc565b01511561114257506110a782614295565b926110b2843361501c565b60015416803b156109ab57818091602460405180948193630852cd8d60e31b83528860048401525af180156109a05761112e575b5050604051908282527ff18ca9717b47ea7629d17b5d7b2ede46e864155725629e7d0347924c2f6d112d843393a36001600080516020615f3e83398151915255604051908152f35b61113882916132a7565b61020c57806110e6565b602490516040519063b23e5f9f60e01b82526004820152fd5b60405163d86ad9cf60e01b8152336004820152602490fd5b6111939150863d8811611199575b61118b81836132d6565b810190613b89565b38611077565b503d611181565b6040513d85823e3d90fd5b602492506111c79060a03d60a011610f5f57610f5181836132d6565b9161104b565b503461020c57604036600319011261020c576111e761324b565b60015460405163eb02c30160e01b815260048035908201529060a090829060249082906001600160a01b03165afa9283156104175760209364e8d4a50fff92610b6f9291611257575b5080518582015160409092015164e8d4a51000956001600160801b0316860292909161507b565b611270915060a03d60a011610f5f57610f5181836132d6565b38611230565b503461020c5761128536613349565b9061128e6143a2565b6112966143cd565b6001600160801b038181169390919084156114bf5760015460405163eb02c30160e01b8152600481018390526001600160a01b03918216969195919060a0816024818b5afa908115610417576000916114a0575b5060405180986331a9108f60e11b825285600483015281602460209b8c935afa90811561041757600091611483575b50873391160361115b5761132d81516143fd565b805188820190815190604084019064e8d4a50fff61135983519264e8d4a5100093848a0296879261507b565b01049580871161146557506060928994928c611396936113798a336155f8565b600286519451915192856000525260066040600020015493614b84565b015116019484861161144f576001541690813b1561040b576040516361d6883d60e01b8152600481018490526001600160801b0387166024820152916000908390604490829084905af1908115610417577fa9efae0c21a2db158c2af2d36b5c18dc14d792a79dfab662442466a80095ea5f9261142292611440575b5060405191829188339784613c3d565b0390a36001600080516020615f3e8339815191525560405191168152f35b611449906132a7565b88611412565b634e487b7160e01b600052601160045260246000fd5b866044916040519163f6daf99360e01b835260048301526024820152fd5b61149a9150893d8b116111995761118b81836132d6565b89611319565b6114b9915060a03d60a011610f5f57610f5181836132d6565b886112ea565b604051633b59e48960e11b815260048101869052602490fd5b503461020c578060031936011261020c576020604051620f42408152f35b503461020c578060031936011261020c5761150f6140b7565b600080516020615ede83398151915280546001600160a01b031981169091556000906001600160a01b03167f8be0079c531659141344cd1fd0a4f28419497f9722a3daafe3b4186f6b6457e08280a380f35b503461020c5761157036613235565b919061157b816140f0565b1561166e5780825260209260028452611596604084206133bc565b906115a1828261410c565b60e08201519081810191821285821290801582169115161761165a57916115c991869361419c565b92845260038252604084206115f2604051948593849363694f552560e01b855260048501613bcf565b038173__$e8b8ff73fdf5e99c3df6a4b39aa1f5b319$__5af491821561164e5791611621575b50604051908152f35b90508181813d8311611647575b61163881836132d6565b8101031261040b575138611618565b503d61162e565b604051903d90823e3d90fd5b634e487b7160e01b85526011600452602485fd5b60249060405190634cba20ef60e01b82526004820152fd5b503461020c57602036600319011261020c576001600160401b036004358181116117655736602382011215611765578060040135918211611765573660248383010111611765576116e3916116d96140b7565b6024369201613312565b6116eb6143a2565b600080516020615f1e833981519152600160ff198254161790557f62e78cea01bee320cd4e420270b5ea74000d11b0c9f74754ebdbfc544b05a2586020604051338152a17f375c0abd968f4602b557f6ac9a48ffc89820233aa9becc5d7ff1176fd09eafff6040518061175f339482613373565b0390a280f35b8280fd5b503461020c57602036600319011261020c5760406080916004358152600360205220600181015490600263ffffffff91015490604051928181168452818160201c16602085015260401c1660408301526060820152f35b503461020c578060031936011261020c576020600454604051908152f35b503461020c576117ed36613349565b6117f89291926143a2565b6118006143cd565b6001600160801b038316156121185760015460405163eb02c30160e01b815260048101849052906001600160a01b031660a082602481845afa918215610417576000926120f1575b506020602491604051928380926331a9108f60e11b82528860048301525afa908115610417576000916120d2575b50336001600160a01b039091160361115b5761189281516143fd565b60608101516001600160801b03908116908516116120b157805160208201805160408401805164e8d4a5100094919392859264e8d4a50fff926118e1926001600160801b038d16860292614435565b01049480861061209357508351905191519281600052600260205260406000206119196119126006830154926133bc565b868661419c565b90916040516330ed1f5d60e01b8152816004820152670de0b6b3a7640000602482015260208160448173__$cbaf8988f3c8d5491808e1d52afb16035a$__5af490811561041757600091612061575b508060001981011161144f5760001981016001600160801b038d16860211611d3557506040516316cf339960e21b81526001600160801b038c169094026004850152602484015260208360448173__$cbaf8988f3c8d5491808e1d52afb16035a$__5af492831561041757600093611d01575b506040519263ec6e92cd60e01b8452600484015260208360248173__$cbaf8988f3c8d5491808e1d52afb16035a$__5af492831561041757600093611ccd575b50604051926316cf339960e21b8452670de0b6b3a76400006004850152602484015260208360448173__$cbaf8988f3c8d5491808e1d52afb16035a$__5af492831561041757600093611c99575b50662386f26fc1000083108015611c87575b611c755773__$e8b8ff73fdf5e99c3df6a4b39aa1f5b319$__90846000526003602052604060002091803b1561040b578493600093611ad0604051978895869485946330f27d1f60e01b86526004860161346c565b03915af490811561041757600080516020615ebe83398151915292602092611c66575b50604051908152a45b611b06823361501c565b606001516001600160801b03848116918116919091039390841161144f576001600160801b0384169283611bda576001546001600160a01b0316803b1561040b5760008091602460405180948193630852cd8d60e31b83528760048401525af18015610417576040967fe3a918fd34698242cc99d5ba0987edaa47d8f5b8ed601ef29e08a9b7d72ecc49928692611bcb575b505b611baa8851928392339784613c3d565b0390a36001600080516020615f3e8339815191525582519182526020820152f35b611bd4906132a7565b88611b98565b6001546001600160a01b0316803b1561040b576040516361d6883d60e01b8152600481018390526001600160801b0387166024820152906000908290604490829084905af18015610417576040967fe3a918fd34698242cc99d5ba0987edaa47d8f5b8ed601ef29e08a9b7d72ecc49928692611c57575b50611b9a565b611c60906132a7565b88611c51565b611c6f906132a7565b8a611af3565b60405163a2f9e7b560e01b8152600490fd5b5068056bc75e2d631000008311611a7b565b90926020823d602011611cc5575b81611cb4602093836132d6565b8101031261020c575051918a611a69565b3d9150611ca7565b9092506020813d602011611cf9575b81611ce9602093836132d6565b8101031261040b5751918a611a1b565b3d9150611cdc565b9092506020813d602011611d2d575b81611d1d602093836132d6565b8101031261040b5751918a6119db565b3d9150611d10565b919a9799909892979296959493919291611d5e60001985016001600160801b0385168302613c5f565b600019810190811161144f57611d7c6103e891600019870190614398565b1161203957600097906001600160801b038416025b8015158061202e575b156120095760001985018111156120035760001985015b604051906316cf339960e21b82528060048301528c602483015260208260448173__$cbaf8988f3c8d5491808e1d52afb16035a$__5af491821561041757600092611fcf575b506040519163ec6e92cd60e01b8352600483015260208260248173__$cbaf8988f3c8d5491808e1d52afb16035a$__5af491821561041757600092611f9b575b50604051916316cf339960e21b8352670de0b6b3a76400006004840152602483015260208260448173__$cbaf8988f3c8d5491808e1d52afb16035a$__5af491821561041757600092611f67575b50662386f26fc1000082108015611f55575b611c755787600052600360205260406000209273__$e8b8ff73fdf5e99c3df6a4b39aa1f5b319$__3b1561040b578f938d600091611eea8660405198899485946330f27d1f60e01b86526004860161346c565b038173__$e8b8ff73fdf5e99c3df6a4b39aa1f5b319$__5af4938415610417578a8a600080516020615ebe83398151915260208f9497611f3a98611f409a611f46575b50604051908152a4613c8b565b98614034565b97611d91565b611f4f906132a7565b38611f2d565b5068056bc75e2d631000008211611e97565b90916020823d602011611f93575b81611f82602093836132d6565b8101031261020c575051908f611e85565b3d9150611f75565b90916020823d602011611fc7575b81611fb6602093836132d6565b8101031261020c575051908f611e37565b3d9150611fa9565b90916020823d602011611ffb575b81611fea602093836132d6565b8101031261020c575051908f611df7565b3d9150611fdd565b80611db1565b9750985098965098505050505015611afc575b6040516332581cb160e01b8152600490fd5b506103e88910611d9a565b604051633b59e48960e11b81526001600160801b038085169092029091166004820152602490fd5b90506020813d60201161208b575b8161207c602093836132d6565b8101031261040b57518c611968565b3d915061206f565b604490866040519163f6daf99360e01b835260048301526024820152fd5b604051633b59e48960e11b81526001600160801b0385166004820152602490fd5b6120eb915060203d6020116111995761118b81836132d6565b85611876565b602491925061211060209160a03d60a011610f5f57610f5181836132d6565b929150611848565b604051633b59e48960e11b81526001600160801b0384166004820152602490fd5b503461020c578060031936011261020c577f00000000000000000000000000000000000000000000000000000000000000006001600160a01b03163003612192576020604051600080516020615efe8339815191528152f35b60405163703e46dd60e11b8152600490fd5b50604036600319011261020c576121b9613291565b6024356001600160401b0381116117655736602382011215611765576121e9903690602481600401359101613312565b6001600160a01b037f00000000000000000000000000000000000000000000000000000000000000008116308114908115612399575b506121925761222c6140b7565b6040516352d1902d60e01b8152908316926020918281600481885afa869181612366575b5061226e57604051634c9c8ce360e01b815260048101869052602490fd5b938594600080516020615efe8339815191529081810361234e5750823b156123355780546001600160a01b0319168217905560405185917fbc7cd75a20ee27fd9adebab32041f755214dbc6bffa90cc0225b39da2e5c2d3b8380a2845115612318575080848461230b96519101845af4903d1561230f573d6122ef816132f7565b906122fd60405192836132d6565b81528581943d92013e615e5a565b5080f35b60609250615e5a565b935050505034612326575080f35b63b398979f60e01b8152600490fd5b604051634c9c8ce360e01b815260048101839052602490fd5b60249060405190632a87526960e21b82526004820152fd5b9091508381813d8311612392575b61237e81836132d6565b8101031261238e57519038612250565b8680fd5b503d612374565b905081600080516020615efe833981519152541614153861221f565b503461020c57604036600319011261020c576123cf613291565b6001600160a01b0390602435828116919082900361040b577ff0c57e16840df040f15088dc2f81fe391c3923bec73e23a9662efc9c229c6a009182549360ff8560401c1615926001600160401b03861695861580612572575b60018098149081612568575b15908161255f575b5061254d5767ffffffffffffffff198116871786558461252e575b501680158015612526575b6125145761246e615bde565b612476615bde565b61247f33614043565b612487615bde565b61248f615bde565b612497615bde565b61249f615bde565b600080516020615f3e83398151915285905585546001600160a01b0319908116909117865584541617835560048390556124d7578280f35b805460ff60401b191690556040519081527fc7f505b2f371ae2175ee4913f4499e1f2633a7b5936321eed1cdaeb6115181d290602090a138808280f35b60405163d92e233d60e01b8152600490fd5b508115612462565b68ffffffffffffffffff19166801000000000000000117855538612457565b60405163f92ee8a960e01b8152600490fd5b9050153861243c565b303b159150612434565b5084612428565b503461020c57606036600319011261020c576004356001600160401b0360243581811680820361040b5760443592831680840361040b576125b86140b7565b6125c1856140f0565b15612645578486526002602052604086209260ff845460081c1661262c5781831015610a57577f66e3554b58ad477fe2e052540bbd9b1ba199fbfd763c4d2848576d2ed8722c64948461261961261e93604097613bec565b613c12565b82519182526020820152a280f35b604051634e0558fb60e01b815260048101879052602490fd5b604051634cba20ef60e01b815260048101869052602490fd5b503461020c5761266d36613277565b9291906126786140b7565b612681826140f0565b15610d31578183526020936002855261269c604085206133bc565b916126a7838261410c565b6126b1838361410c565b8181136126ed57916126c491869361419c565b92845260038252604084206115f2604051948593849363049bebd960e31b855260048501613bcf565b60449160405191631150381b60e11b835260048301526024820152fd5b503461020c5761271936613277565b929190612725826140f0565b15610d315781835260209360028552612740604085206133bc565b9161274b838261410c565b612755838361410c565b8181136126ed57916115c991869361419c565b503461020c578060031936011261020c576127816140b7565b600080516020615f1e833981519152805460ff8116156127f35760ff191690557f5db9ee0a495bf2e6ff9c91a7834c1ba4fdd244a5e8aa4e537bd38aeae4b073aa6020604051338152a1337ff5cbf596165cc457b2cd92e8d8450827ee314968160a5696402d75766fc52caf8280a280f35b604051638dfc202b60e01b8152600490fd5b503461020c57604036600319011261020c5761281f61324b565b60015460405163eb02c30160e01b815260048035908201529060a090829060249082906001600160a01b03165afa9283156104175760209364e8d4a50fff92610b6f929161288f575b5080518582015160409092015164e8d4a51000956001600160801b03168602929091614435565b6128a8915060a03d60a011610f5f57610f5181836132d6565b38612868565b503461020c578060031936011261020c57602060405166038d7ea4c680008152f35b503461020c576128df36613235565b6128e76143a2565b6128ef6143cd565b60015460405163eb02c30160e01b815260048101849052906001600160a01b031660a082602481845afa91821561041757600092613045575b506020602491604051928380926331a9108f60e11b82528860048301525afa90811561041757600091613026575b50336001600160a01b039091160361115b5761297281516143fd565b64e8d4a51000908160018060801b036060830151160291815191602081019164e8d4a50fff6129ab868551966040860197885191614435565b010494808610612093575051905191519281600052600260205260406000206129db6119126006830154926133bc565b90916040516330ed1f5d60e01b8152816004820152670de0b6b3a7640000602482015260208160448173__$cbaf8988f3c8d5491808e1d52afb16035a$__5af490811561041757600091612ff4575b5060001990808281011161144f578082018611612d07575050604051936316cf339960e21b85526004850152602484015260208360448173__$cbaf8988f3c8d5491808e1d52afb16035a$__5af492831561041757600093612cd3575b506040519263ec6e92cd60e01b8452600484015260208360248173__$cbaf8988f3c8d5491808e1d52afb16035a$__5af492831561041757600093612c9f575b50604051926316cf339960e21b8452670de0b6b3a76400006004850152602484015260208360448173__$cbaf8988f3c8d5491808e1d52afb16035a$__5af492831561041757600093612c6b575b50662386f26fc1000083108015612c59575b611c755773__$e8b8ff73fdf5e99c3df6a4b39aa1f5b319$__90846000526003602052604060002091803b1561040b578493600093612b7c604051978895869485946330f27d1f60e01b86526004860161346c565b03915af490811561041757600080516020615ebe83398151915292602092612c4a575b50604051908152a45b612bb2813361501c565b6001546001600160a01b031691823b1561040b5760008093602460405180968193630852cd8d60e31b83528660048401525af192831561041757602093612c3b575b50604051908282527f467bc11eddf702a2091fefc23d3064f17939ba1005bd43304f15604c9b6f2a9b843393a36001600080516020615f3e83398151915255604051908152f35b612c44906132a7565b83612bf4565b612c53906132a7565b88612b9f565b5068056bc75e2d631000008311612b27565b90926020823d602011612c97575b81612c86602093836132d6565b8101031261020c5750519188612b15565b3d9150612c79565b9092506020813d602011612ccb575b81612cbb602093836132d6565b8101031261040b57519188612ac7565b3d9150612cae565b9092506020813d602011612cff575b81612cef602093836132d6565b8101031261040b57519188612a87565b3d9150612ce2565b90919794612d1e83839c98959c9996990182613c5f565b83810190811161144f57612d386103e89185850190614398565b11612fd257956000965b80151580612fc7575b15612fa557828401811115612f9f578383015b604051906316cf339960e21b82528060048301528b602483015260208260448173__$cbaf8988f3c8d5491808e1d52afb16035a$__5af491821561041757600092612f6b575b506040519163ec6e92cd60e01b8352600483015260208260248173__$cbaf8988f3c8d5491808e1d52afb16035a$__5af491821561041757600092612f37575b50604051916316cf339960e21b8352670de0b6b3a76400006004840152602483015260208260448173__$cbaf8988f3c8d5491808e1d52afb16035a$__5af491821561041757600092612f03575b50662386f26fc1000082108015612ef1575b611c755786600052600360205260406000209273__$e8b8ff73fdf5e99c3df6a4b39aa1f5b319$__3b1561040b5760008f948d90612e978660405198899485946330f27d1f60e01b86526004860161346c565b038173__$e8b8ff73fdf5e99c3df6a4b39aa1f5b319$__5af4938415610417578989600080516020615ebe8339815191526020612ee5978f95612eeb9a611f465750604051908152a4613c8b565b97614034565b96612d42565b5068056bc75e2d631000008211612e44565b90916020823d602011612f2f575b81612f1e602093836132d6565b8101031261020c575051908e612e32565b3d9150612f11565b90916020823d602011612f63575b81612f52602093836132d6565b8101031261020c575051908e612de4565b3d9150612f45565b90916020823d602011612f97575b81612f86602093836132d6565b8101031261020c575051908e612da4565b3d9150612f79565b80612d5e565b985099505050505050505015612ba8576040516332581cb160e01b8152600490fd5b506103e88810612d4b565b604051633b59e48960e11b81526001600160801b039091166004820152602490fd5b90506020813d60201161301e575b8161300f602093836132d6565b8101031261040b57518a612a2a565b3d9150613002565b61303f915060203d6020116111995761118b81836132d6565b84612956565b602491925061306460209160a03d60a011610f5f57610f5181836132d6565b929150612928565b503461020c5761307b36613217565b91613085846140f0565b156130aa579061309892916020946134ca565b6040516001600160801b039091168152f35b604051634cba20ef60e01b815260048101859052602490fd5b503461020c57602036600319011261020c5760206130e2600435614295565b604051908152f35b503461020c576130f936613217565b6131049391936140b7565b61310d826140f0565b15610d31578185526002602052613126604086206133bc565b613130818561410c565b61313a818661410c565b8484136131f95761314d8691868661419c565b848352600360205260408320929173__$e8b8ff73fdf5e99c3df6a4b39aa1f5b319$__90813b156131f557859461319a604051968795869485946330f27d1f60e01b86526004860161346c565b03915af480156131ea576131c6575b506020600080516020615ebe83398151915291604051908152a480f35b600080516020615ebe83398151915291956131e26020926132a7565b9591506131a9565b6040513d88823e3d90fd5b8380fd5b6044848660405191631150381b60e11b835260048301526024820152fd5b608090600319011261040b5760043590602435906044359060643590565b604090600319011261040b576004359060243590565b602435906001600160801b038216820361040b57565b606435906001600160801b038216820361040b57565b606090600319011261040b57600435906024359060443590565b600435906001600160a01b038216820361040b57565b6001600160401b038111610e9e57604052565b6101a081019081106001600160401b03821117610e9e57604052565b90601f801991011681019081106001600160401b03821117610e9e57604052565b6001600160401b038111610e9e57601f01601f191660200190565b92919261331e826132f7565b9161332c60405193846132d6565b82948184528183011161040b578281602093846000960137010152565b606090600319011261040b57600435906024356001600160801b038116810361040b579060443590565b6020808252825181830181905290939260005b8281106133a857505060409293506000838284010152601f8019910116010190565b818101860151848201604001528501613386565b906040516133c9816132ba565b61018060088294805460ff81161515855260ff81841c16151560208601526001600160401b0390818160101c16604087015260501c16606085015260018101546080850152600281015460a0850152600381015460c0850152600481015460e085015260ff63ffffffff806005840154166101008701526006830154610120870152600783015490811661014087015260201c1615156101608501520154910152565b90815263ffffffff918216602082015291166040820152606081019190915260800190565b8181039291600013801582851316918412161761144f57565b81156134b4570790565b634e487b7160e01b600052601260045260246000fd5b90928015613b0d578160005260026020526134e860406000206133bc565b6134f2818661410c565b6134fc818561410c565b838513613aef57838514613aef5761351a9060e0610b448787613491565b613ad1576101009082600052600260205261354961353b60406000206133bc565b80956101208201519761419c565b9473__$e8b8ff73fdf5e99c3df6a4b39aa1f5b319$__9085600052600360205261358260406000209163ffffffff968791015116614358565b60405163694f552560e01b80825260048201939093526000602482015295166044860152602085606481855af494851561041757600095613a9a575b506020939495600052600384526040600020906135e960405198899586948594855260048501613bcf565b03915af492831561041757600093613a66575b508115613a54578215613a545764e8d4a5100002906040516330ed1f5d60e01b8152846004820152670de0b6b3a764000080602483015260208260448173__$cbaf8988f3c8d5491808e1d52afb16035a$__5af4908115610417578492600092613a1d575b50935b613898575050604051916330ed1f5d60e01b8352816004840152602483015260208260448173__$cbaf8988f3c8d5491808e1d52afb16035a$__5af490811561041757839260009261385f575b506136c5926136bf91613c8b565b90613c8b565b90604051916316cf339960e21b83526004830152602482015260208160448173__$cbaf8988f3c8d5491808e1d52afb16035a$__5af49081156104175760009161382d575b506040519063360816cf60e01b8252600482015260208160248173__$cbaf8988f3c8d5491808e1d52afb16035a$__5af4908115610417576000916137fb575b50604051916330ed1f5d60e01b83526004830152602482015260208160448173__$cbaf8988f3c8d5491808e1d52afb16035a$__5af48015610417576000906137c4575b6001600160801b03915064e8d4a5100090048181116137ab571690565b604051633b59e48960e11b815260048101839052602490fd5b506020813d6020116137f3575b816137de602093836132d6565b8101031261040b5764e8d4a51000905161378e565b3d91506137d1565b90506020813d602011613825575b81613816602093836132d6565b8101031261040b57513861374a565b3d9150613809565b90506020813d602011613857575b81613848602093836132d6565b8101031261040b57513861370a565b3d915061383b565b925090506020823d602011613890575b8161387c602093836132d6565b8101031261040b57905182916136c56136b1565b3d915061386f565b909281841115613a1757815b6040516316cf339960e21b815281600482015287602482015260208160448173__$cbaf8988f3c8d5491808e1d52afb16035a$__5af4908115610417576000916139e5575b506040519063ec6e92cd60e01b8252600482015260208160248173__$cbaf8988f3c8d5491808e1d52afb16035a$__5af4908115610417576000916139b3575b50604051926330ed1f5d60e01b84526004840152602483015260208260448173__$cbaf8988f3c8d5491808e1d52afb16035a$__5af480156104175760009061397f575b613978925094613c8b565b9081613664565b506020823d6020116139ab575b81613999602093836132d6565b8101031261040b57613978915161396d565b3d915061398c565b90506020813d6020116139dd575b816139ce602093836132d6565b8101031261040b575138613929565b3d91506139c1565b90506020813d602011613a0f575b81613a00602093836132d6565b8101031261040b5751386138e9565b3d91506139f3565b836138a4565b925090506020823d602011613a4c575b81613a3a602093836132d6565b8101031261040b578391519038613661565b3d9150613a2d565b604051635fba374760e11b8152600490fd5b9092506020813d602011613a92575b81613a82602093836132d6565b8101031261040b575191386135fc565b3d9150613a75565b9394506020843d602011613ac9575b81613ab6602093836132d6565b8101031261040b576020935194936135be565b3d9150613aa9565b6044848460405191631150381b60e11b835260048301526024820152fd5b6044858560405191631150381b60e11b835260048301526024820152fd5b50505050600090565b908160a091031261040b57604051906001600160401b039060a0830182811184821017610e9e576040908152815184526020808301519085015281810151908401526060810151906001600160801b038216820361040b5760809160608501520151908116810361040b57608082015290565b9081602091031261040b57516001600160a01b038116810361040b5790565b919060206040840193670de0b6b3a764000081520152565b9081602091031261040b575190565b90815263ffffffff91821660208201529116604082015260600190565b9069ffffffffffffffff000082549160101b169069ffffffffffffffff00001916179055565b805467ffffffffffffffff60501b191660509290921b67ffffffffffffffff60501b16919091179055565b6001600160801b03918216815291166020820152604081019190915260600190565b9190820180921161144f57565b60001981019190821161144f57565b906103e891820391821161144f57565b9190820391821161144f57565b90816000526002602052604060002060ff815460081c161561400057600781015460ff8160201c16613ffa578215613fc75760049263ffffffff821680613fc157506001915b600154604051635e4b419360e11b81529560209187919082906001600160a01b03165afa94851561041757600095613f8d575b5084831015613f3c5750613d259082613c5f565b91838311613f34575b6001546001600160a01b0316825b848110613dcf57505063ffffffff83166007820154948163ffffffff19871617600784015584149485613db1575b505050600019820191821161144f577fcf156953c2640827200d7348c90cddc0fd140a8dd5f3cfd29bf0b2a855c34b189260609260405192835260208301526040820152a2565b64ffffffffff191617600160201b1760079190910155388080613d6a565b604051634f558e7960e01b815260048101829052602491906020818481875afa90811561041757600091613ef9575b5015613ed35760405163eb02c30160e01b81526004810182905260a09081818581885afa908115610417578a92600092613edc575b50505103613ed357613e4481614295565b602060405180946331a9108f60e11b825284600483015281875afa928315610417577f1a81eb5d53aa7bec98cadd0a6303be87e540f77ba90e63cd945e49b8eb697b0a60406001958593600091613eb4575b5081519480865215156020860152868060a01b031693a35b01613d3c565b613ecd915060203d6020116111995761118b81836132d6565b38613e96565b60019150613eae565b613ef29250803d10610f5f57610f5181836132d6565b3880613e33565b90506020813d602011613f2c575b81613f14602093836132d6565b8101031261040b5751801515810361040b5738613dfe565b3d9150613f07565b839250613d2e565b7fcf156953c2640827200d7348c90cddc0fd140a8dd5f3cfd29bf0b2a855c34b1894506060939150600160201b60079160ff60201b19161791015560405190808252602082015260016040820152a2565b9094506020813d602011613fb9575b81613fa9602093836132d6565b8101031261040b57519338613d11565b3d9150613f9c565b91613cde565b60405162461bcd60e51b815260206004820152600b60248201526a07363616e4c696d69743d360ac1b6044820152606490fd5b50505050565b60405163b23e5f9f60e01b815260048101849052602490fd5b81156134b457600160ff1b811460001983141661144f570590565b600019811461144f5760010190565b6001600160a01b0390811690811561409e57600080516020615ede83398151915280546001600160a01b031981168417909155167f8be0079c531659141344cd1fd0a4f28419497f9722a3daafe3b4186f6b6457e0600080a3565b604051631e4fbdf760e01b815260006004820152602490fd5b600080516020615ede833981519152546001600160a01b031633036140d857565b60405163118cdaa760e01b8152336004820152602490fd5b600052600260205263ffffffff60056040600020015416151590565b9060a081018051808412801561418f575b614164575060e061413261413d925185613491565b9201918251906134aa565b614145575050565b6044925051604051916382fe647b60e01b835260048301526024820152fd5b60c0830151604051638a228b0d60e01b81526004810186905260248101929092526044820152606490fd5b5060c0830151841361411d565b92906141df6141ce916141d76141b860a0870197885190613491565b9160e087019263ffffffff958691855190614019565b16975190613491565b905190614019565b600019810190811360011661144f5781610100911693015116808410908161428b575b501561424b5781831161421157565b60405162461bcd60e51b8152602060048201526012602482015271496e76616c69642072616e67652062696e7360701b6044820152606490fd5b60405162461bcd60e51b815260206004820152601860248201527752616e67652062696e73206f7574206f6620626f756e647360401b6044820152606490fd5b9050821038614202565b60015460405163eb02c30160e01b8152600481019290925260a090829060249082906001600160a01b03165afa90811561041757600091614339575b50805160005260026020526142e960406000206133bc565b6020810151156143325760806020830151910151809113159081614324575b501561431e57606001516001600160801b031690565b50600090565b905060408201511338614308565b5050600090565b614352915060a03d60a011610f5f57610f5181836132d6565b386142d1565b63ffffffff908116600019019190821161144f57565b9081526000602082015263ffffffff909116604082015260600190565b80156134b4576000190490565b81156134b4570490565b60ff600080516020615f1e83398151915254166143bb57565b60405163d93c066560e01b8152600490fd5b600080516020615f3e83398151915260028154146143eb5760029055565b604051633ee5aeb560e01b8152600490fd5b600052600260205260406000205460ff81161561049b576001600160401b0390818160101c1642106104895760501c16421161047757565b91929092614455614450846000526002602052604060002090565b6133bc565b9361446185838361419c565b6101208701516040516330ed1f5d60e01b815260048101829052670de0b6b3a764000060248201529096929060208160448173__$cbaf8988f3c8d5491808e1d52afb16035a$__5af480156148c1576144c291600091614b65575b50613c6c565b978887116144da575050506144d795506157b7565b90565b909196929450614547935073__$e8b8ff73fdf5e99c3df6a4b39aa1f5b319$__90602061452b61452661010061451a8a6000526003602052604060002090565b94015163ffffffff1690565b614358565b6040518097819263694f552560e01b958684526004840161436e565b0381855af49485156148c157600095614b3f575b5061457460209495966000526003602052604060002090565b9061458d604051998a9586948594855260048501613bcf565b03915af49384156148c157600094614b1e575b508115613a54576103e86145c5866145c06145bb8288613c5f565b613c6c565b614398565b11612118579093926000919082905b84151580614b13575b15614b055761461e9596878611600014614afe5787915b6040516316cf339960e21b8152600481018490526024810186905297602090899081906044820190565b038173__$cbaf8988f3c8d5491808e1d52afb16035a$__5af49788156148c15761466d98602091600091614ae1575b50604051809a819263ec6e92cd60e01b8352600483019190602083019252565b038173__$cbaf8988f3c8d5491808e1d52afb16035a$__5af49788156148c1576146b798602091600091614ac4575b50604051809a81926316cf339960e21b835260048301613ba8565b038173__$cbaf8988f3c8d5491808e1d52afb16035a$__5af49788156148c157600098614aa3575b506146e98861438b565b811161493a575b80151580614929575b613a54576040516330ed1f5d60e01b815260048101829052602481019890985260208860448173__$cbaf8988f3c8d5491808e1d52afb16035a$__5af49788156148c157600098614900575b50876147546147599284613c8b565b613c5f565b908115613a545781811161478e575b508115613a54576147849161477e919796613c8b565b93614034565b95949592936145d4565b6040516316cf339960e21b8152600481019190915260248101829052909260208260448173__$cbaf8988f3c8d5491808e1d52afb16035a$__5af49182156148c1576147ff926020916000916148e3575b506040518094819263360816cf60e01b8352600483019190602083019252565b038173__$cbaf8988f3c8d5491808e1d52afb16035a$__5af49182156148c157614857926020916000916148c6575b506040516330ed1f5d60e01b815260048101889052602481019190915292839081906044820190565b038173__$cbaf8988f3c8d5491808e1d52afb16035a$__5af49081156148c15761488992600092614890575b50613c5f565b9138614768565b6148b391925060203d6020116148ba575b6148ab81836132d6565b810190613bc0565b9038614883565b503d6148a1565b610417565b6148dd9150823d84116148ba576148ab81836132d6565b3861482e565b6148fa9150823d84116148ba576148ab81836132d6565b386147df565b6147549850906149216147599260203d6020116148ba576148ab81836132d6565b985090614745565b506149338161438b565b88116146f9565b9650905061495261494a85613c7b565b86858961565b565b90858211614a9b575b6040516316cf339960e21b8152600481018390526024810185905260208160448173__$cbaf8988f3c8d5491808e1d52afb16035a$__5af49081156148c1576149c991602091600091614a7e575b506040518093819263ec6e92cd60e01b8352600483019190602083019252565b038173__$cbaf8988f3c8d5491808e1d52afb16035a$__5af49081156148c157614a1391602091600091614a61575b50604051809381926316cf339960e21b835260048301613ba8565b038173__$cbaf8988f3c8d5491808e1d52afb16035a$__5af49081156148c157600091614a42575b50966146f0565b614a5b915060203d6020116148ba576148ab81836132d6565b38614a3b565b614a789150823d84116148ba576148ab81836132d6565b386149f8565b614a959150823d84116148ba576148ab81836132d6565b386149a9565b85915061495b565b614abd91985060203d6020116148ba576148ab81836132d6565b96386146df565b614adb9150823d84116148ba576148ab81836132d6565b3861469c565b614af89150823d84116148ba576148ab81836132d6565b3861464d565b85916145f4565b50945050509050613a545790565b506103e884106145dd565b614b3891945060203d6020116148ba576148ab81836132d6565b92386145a0565b6020949550614b5d61457491863d88116148ba576148ab81836132d6565b95945061455b565b614b7e915060203d6020116148ba576148ab81836132d6565b386144bc565b9193929092826000526002602052614ba261191260406000206133bc565b90916040516330ed1f5d60e01b8152816004820152670de0b6b3a7640000602482015260208160448173__$cbaf8988f3c8d5491808e1d52afb16035a$__5af490811561041757600091614fea575b508060001981011161144f5760001981018511614daa5750604051936316cf339960e21b85526004850152602484015260208360448173__$cbaf8988f3c8d5491808e1d52afb16035a$__5af492831561041757600093614d76575b506040519263ec6e92cd60e01b8452600484015260208360248173__$cbaf8988f3c8d5491808e1d52afb16035a$__5af492831561041757600093614d42575b50662386f26fc1000083108015614d30575b611c755773__$e8b8ff73fdf5e99c3df6a4b39aa1f5b319$__90846000526003602052604060002091803b1561040b578493600093614cf4604051978895869485946330f27d1f60e01b86526004860161346c565b03915af490811561041757600080516020615ebe83398151915292602092614d21575b50604051908152a4565b614d2a906132a7565b38614d17565b5068056bc75e2d631000008311614c9f565b9092506020813d602011614d6e575b81614d5e602093836132d6565b8101031261040b57519138614c8d565b3d9150614d51565b9092506020813d602011614da2575b81614d92602093836132d6565b8101031261040b57519138614c4d565b3d9150614d85565b93614dc16000999894969297939919860182613c5f565b8060001981011161144f576103e890614de1906000198881019101614398565b11612fd257936000945b80151580614fdf575b15614fcf576000198201811115614fc95760001982015b604051906316cf339960e21b825280600483015289602483015260208260448173__$cbaf8988f3c8d5491808e1d52afb16035a$__5af491821561041757600092614f95575b506040519163ec6e92cd60e01b8352600483015260208260248173__$cbaf8988f3c8d5491808e1d52afb16035a$__5af491821561041757600092614f61575b50662386f26fc1000082108015614f4f575b611c755784600052600360205260406000209273__$e8b8ff73fdf5e99c3df6a4b39aa1f5b319$__3b1561040b5760008a8e95614ef58660405198899485946330f27d1f60e01b86526004860161346c565b038173__$e8b8ff73fdf5e99c3df6a4b39aa1f5b319$__5af4938415610417578787600080516020615ebe8339815191526020614f43978d95614f499a611f465750604051908152a4613c8b565b95614034565b94614deb565b5068056bc75e2d631000008211614ea3565b9091506020813d602011614f8d575b81614f7d602093836132d6565b8101031261040b57519038614e91565b3d9150614f70565b9091506020813d602011614fc1575b81614fb1602093836132d6565b8101031261040b57519038614e51565b3d9150614fa4565b80614e0b565b9798505050505050505061201c57565b506103e88610614df4565b90506020813d602011615014575b81615005602093836132d6565b8101031261040b575138614bf1565b3d9150614ff8565b81615025575050565b60005460405163a9059cbb60e01b60208201526001600160a01b039283166024820152604480820194909452928352608083019291166001600160401b03831182841017610e9e5761507992604052615dfe565b565b91929092615096614450846000526002602052604060002090565b936150a285838361419c565b6101208701516040516330ed1f5d60e01b815260048101829052670de0b6b3a764000060248201529096929060208160448173__$cbaf8988f3c8d5491808e1d52afb16035a$__5af480156148c15761510291600091614b655750613c6c565b97888711615117575050506144d79550615c1f565b6151699550839297945061514d614526610100615141602095976000526003602052604060002090565b93015163ffffffff1690565b60405163694f552560e01b81529687928392906004840161436e565b038173__$e8b8ff73fdf5e99c3df6a4b39aa1f5b319$__5af49384156148c1576000946155d0575b50906151a96020926000526003602052604060002090565b6151c7604051978893849363694f552560e01b855260048501613bcf565b038173__$e8b8ff73fdf5e99c3df6a4b39aa1f5b319$__5af49384156148c1576000946155af575b508115613a54576103e861520a866145c06145bb8288613c5f565b11612118579093926000919082905b841515806155a4575b15614b05576152639596878611600014614afe576040516316cf339960e21b8152600481018990526024810185905296889290602090899081906044820190565b038173__$cbaf8988f3c8d5491808e1d52afb16035a$__5af49788156148c1576152b198602091600091614ae15750604051809a819263ec6e92cd60e01b8352600483019190602083019252565b038173__$cbaf8988f3c8d5491808e1d52afb16035a$__5af49788156148c157600098615583575b506152e38861438b565b81116154a7575b80151580615496575b613a54576040516330ed1f5d60e01b815260048101829052602481019890985260208860448173__$cbaf8988f3c8d5491808e1d52afb16035a$__5af49788156148c15760009861546d575b508761475461534e9284613c8b565b9281841115613a54576040516316cf339960e21b815260048101859052602481019290925260208260448173__$cbaf8988f3c8d5491808e1d52afb16035a$__5af49182156148c1576153c5926020916000916148e357506040518094819263360816cf60e01b8352600483019190602083019252565b038173__$cbaf8988f3c8d5491808e1d52afb16035a$__5af49182156148c15761541c926020916000916148c657506040516330ed1f5d60e01b815260048101889052602481019190915292839081906044820190565b038173__$cbaf8988f3c8d5491808e1d52afb16035a$__5af49081156148c15761544d926000926148905750613c5f565b918115613a54576154639161477e919796613c8b565b9594959293615219565b61475498509061548e61534e9260203d6020116148ba576148ab81836132d6565b98509061533f565b506154a08161438b565b88116152f3565b965090506154b761494a85613c7b565b9085821161557b575b6040516316cf339960e21b8152600481018390526024810185905260208160448173__$cbaf8988f3c8d5491808e1d52afb16035a$__5af49081156148c15761552d91602091600091614a7e57506040518093819263ec6e92cd60e01b8352600483019190602083019252565b038173__$cbaf8988f3c8d5491808e1d52afb16035a$__5af49081156148c15760009161555c575b50966152ea565b615575915060203d6020116148ba576148ab81836132d6565b38615555565b8591506154c0565b61559d91985060203d6020116148ba576148ab81836132d6565b96386152d9565b506103e88410615222565b6155c991945060203d6020116148ba576148ab81836132d6565b92386151ef565b6020929194506155ef6151a991843d86116148ba576148ab81836132d6565b94919250615191565b81615601575050565b6000546040516323b872dd60e01b60208201526001600160a01b03928316602482015230604482015260648082019490945292835260a083019291166001600160401b03831182841017610e9e5761507992604052615dfe565b9091939280156157b25761566f8186613c5f565b60001981019190821161144f5761568591614398565b9182156157a9575b6040516330ed1f5d60e01b80825260048201839052670de0b6b3a764000060248301529260209173__$cbaf8988f3c8d5491808e1d52afb16035a$__908381604481855af4801561041757849160009161577a575b509560446040518094819382528860048301526802b5e3af16b188000060248301525af49283156104175760009361574a575b50501161573f575b50808210156157375750915b8083116157335750565b9150565b905091615729565b600a9150043861571d565b9080929350813d8311615773575b61576281836132d6565b8101031261040b5751903880615715565b503d615758565b82819392503d83116157a2575b61579181836132d6565b8101031261040b57839051386156e2565b503d615787565b6001925061568d565b505050565b92919061583b94916157d6614450866000526002602052604060002090565b9373__$e8b8ff73fdf5e99c3df6a4b39aa1f5b319$__615800876000526003602052604060002090565b9261581661452661010089015163ffffffff1690565b9460409889519663694f552560e01b90818952888060209e8f9360049b8c840161436e565b0381885af4998a156148c1578c8c9960009c615bae575b509188969593918895938c73__$cbaf8988f3c8d5491808e1d52afb16035a$__809d5180809d81946316cf339960e21b9e8f845283019161589e92908152602081019190915260400190565b03915af49889156148c1578f90998f8c8e916158db9d600094615b8f575b505163ec6e92cd60e01b81529081019283529b8c928391829160200190565b03915af49889156148c1578f90998f8c8b8f9261590c9e600095615b70575b50519d8e948593849384528301613ba8565b03915af49687156148c1578f928f92908c9161595f9c60009b615b4d575b5061593690898961419c565b61594d889e929e6000526003602052604060002090565b95519d8e968795869586528501613bcf565b03915af49687156148c157600097615b2e575b5061597c8561438b565b8711615b1857505050506159bc9089615995858a613c8b565b918a51809481926330ed1f5d60e01b988984528a8401908152602081019190915260400190565b0381895af49081156148c1576159d992600092615b005750613c5f565b958615615af05786811115615ae2578891615a0a895198899384938452878401908152602081019190915260400190565b0381865af49485156148c157615a42958891600091615ac5575b5087518097819263360816cf60e01b83528683019190602083019252565b0381865af49586156148c1578795600097615aa2575b505190815290810192835260208301949094528391829081906040015b03915af49182156148c157600092615a8c57505090565b6144d79250803d106148ba576148ab81836132d6565b615a75919750615abe90873d89116148ba576148ab81836132d6565b9690615a58565b615adc9150823d84116148ba576148ab81836132d6565b38615a24565b505050505050505050600090565b8751635fba374760e11b81528490fd5b6148b39192508b3d8d116148ba576148ab81836132d6565b9750975097509750505050506144d79450614435565b615b469197508d803d106148ba576148ab81836132d6565b9538615972565b615936919b50615b6990873d89116148ba576148ab81836132d6565b9a9061592a565b615b88919550863d88116148ba576148ab81836132d6565b93386158fa565b615ba7919450853d87116148ba576148ab81836132d6565b92386158bc565b819c5091615bd08a98979593838b989694903d106148ba576148ab81836132d6565b9c9193955091939596615852565b60ff7ff0c57e16840df040f15088dc2f81fe391c3923bec73e23a9662efc9c229c6a005460401c1615615c0d57565b604051631afcd79f60e31b8152600490fd5b929190615c3e94916157d6614450866000526002602052604060002090565b0381885af4998a156148c1578c8c9960009c615dce575b509188969593918895938c73__$cbaf8988f3c8d5491808e1d52afb16035a$__809d5180809d81946316cf339960e21b9e8f8452830191615ca192908152602081019190915260400190565b03915af49889156148c1578f90998f8c8e91615cdd9d600094615b8f57505163ec6e92cd60e01b81529081019283529b8c928391829160200190565b03915af49687156148c1578f928f92908c91615d069c60009b615b4d575061593690898961419c565b03915af49687156148c157600097615daf575b508a15615d9f57615d298561438b565b8711615d895750505050615d429089615995858a613c8b565b0381895af49081156148c157615d5f92600092615b005750613c5f565b86811115615ae2578891615a0a895198899384938452878401908152602081019190915260400190565b9750975097509750505050506144d7945061507b565b8b51635fba374760e11b81528890fd5b615dc79197508d803d106148ba576148ab81836132d6565b9538615d19565b819c5091615df08a98979593838b989694903d106148ba576148ab81836132d6565b9c9193955091939596615c55565b906000602091828151910182855af115610417576000513d615e5157506001600160a01b0381163b155b615e2f5750565b604051635274afe760e01b81526001600160a01b039091166004820152602490fd5b60011415615e28565b90615e815750805115615e6f57805190602001fd5b60405163d6bda27560e01b8152600490fd5b81511580615eb4575b615e92575090565b604051639996b31560e01b81526001600160a01b039091166004820152602490fd5b50803b15615e8a56fe221f633c06e4399f005a7cec7ba7c4ff189e3fe19092cbafe32a5f176ffc797f9016d09d72d40fdae2fd8ceac6b6234c7706214fd39c1cd1e609a0528c199300360894a13ba1a3210667c828492db98dca3e2076cc3735a920a3ca505d382bbccd5ed15c6e187e77e9aee88184c21f4f2182ab5827cb3b7e07fbedcd63f033009b779b17422d0df92223018b32b4d1fa46e071723d6817e2486d003becc55f00a164736f6c6343000818000a",
  "linkReferences": {
    "contracts/libraries/FixedPointMath.sol": {
      "FixedPointMathU": [
        {
          "length": 20,
          "start": 6517
        },
        {
          "length": 20,
          "start": 6632
        },
        {
          "length": 20,
          "start": 6696
        },
        {
          "length": 20,
          "start": 6774
        },
        {
          "length": 20,
          "start": 7684
        },
        {
          "length": 20,
          "start": 7748
        },
        {
          "length": 20,
          "start": 7826
        },
        {
          "length": 20,
          "start": 10807
        },
        {
          "length": 20,
          "start": 10900
        },
        {
          "length": 20,
          "start": 10964
        },
        {
          "length": 20,
          "start": 11042
        },
        {
          "length": 20,
          "start": 11697
        },
        {
          "length": 20,
          "start": 11761
        },
        {
          "length": 20,
          "start": 11839
        },
        {
          "length": 20,
          "start": 13932
        },
        {
          "length": 20,
          "start": 14012
        },
        {
          "length": 20,
          "start": 14103
        },
        {
          "length": 20,
          "start": 14167
        },
        {
          "length": 20,
          "start": 14236
        },
        {
          "length": 20,
          "start": 14582
        },
        {
          "length": 20,
          "start": 14646
        },
        {
          "length": 20,
          "start": 14715
        },
        {
          "length": 20,
          "start": 17606
        },
        {
          "length": 20,
          "start": 18003
        },
        {
          "length": 20,
          "start": 18082
        },
        {
          "length": 20,
          "start": 18156
        },
        {
          "length": 20,
          "start": 18258
        },
        {
          "length": 20,
          "start": 18405
        },
        {
          "length": 20,
          "start": 18484
        },
        {
          "length": 20,
          "start": 18572
        },
        {
          "length": 20,
          "start": 18863
        },
        {
          "length": 20,
          "start": 18942
        },
        {
          "length": 20,
          "start": 19016
        },
        {
          "length": 20,
          "start": 19454
        },
        {
          "length": 20,
          "start": 19546
        },
        {
          "length": 20,
          "start": 19610
        },
        {
          "length": 20,
          "start": 20062
        },
        {
          "length": 20,
          "start": 20126
        },
        {
          "length": 20,
          "start": 20743
        },
        {
          "length": 20,
          "start": 21144
        },
        {
          "length": 20,
          "start": 21222
        },
        {
          "length": 20,
          "start": 21324
        },
        {
          "length": 20,
          "start": 21420
        },
        {
          "length": 20,
          "start": 21498
        },
        {
          "length": 20,
          "start": 21585
        },
        {
          "length": 20,
          "start": 21780
        },
        {
          "length": 20,
          "start": 21858
        },
        {
          "length": 20,
          "start": 22247
        },
        {
          "length": 20,
          "start": 22672
        },
        {
          "length": 20,
          "start": 23699
        }
      ]
    },
    "contracts/libraries/LazyMulSegmentTree.sol": {
      "LazyMulSegmentTree": [
        {
          "length": 20,
          "start": 2283
        },
        {
          "length": 20,
          "start": 2346
        },
        {
          "length": 20,
          "start": 5671
        },
        {
          "length": 20,
          "start": 6834
        },
        {
          "length": 20,
          "start": 7901
        },
        {
          "length": 20,
          "start": 7967
        },
        {
          "length": 20,
          "start": 11102
        },
        {
          "length": 20,
          "start": 11914
        },
        {
          "length": 20,
          "start": 11980
        },
        {
          "length": 20,
          "start": 12686
        },
        {
          "length": 20,
          "start": 13693
        },
        {
          "length": 20,
          "start": 17688
        },
        {
          "length": 20,
          "start": 19670
        },
        {
          "length": 20,
          "start": 20201
        },
        {
          "length": 20,
          "start": 20266
        },
        {
          "length": 20,
          "start": 20894
        },
        {
          "length": 20,
          "start": 20988
        },
        {
          "length": 20,
          "start": 22538
        }
      ]
    }
  },
  "deployedLinkReferences": {
    "contracts/libraries/FixedPointMath.sol": {
      "FixedPointMathU": [
        {
          "length": 20,
          "start": 6468
        },
        {
          "length": 20,
          "start": 6583
        },
        {
          "length": 20,
          "start": 6647
        },
        {
          "length": 20,
          "start": 6725
        },
        {
          "length": 20,
          "start": 7635
        },
        {
          "length": 20,
          "start": 7699
        },
        {
          "length": 20,
          "start": 7777
        },
        {
          "length": 20,
          "start": 10758
        },
        {
          "length": 20,
          "start": 10851
        },
        {
          "length": 20,
          "start": 10915
        },
        {
          "length": 20,
          "start": 10993
        },
        {
          "length": 20,
          "start": 11648
        },
        {
          "length": 20,
          "start": 11712
        },
        {
          "length": 20,
          "start": 11790
        },
        {
          "length": 20,
          "start": 13883
        },
        {
          "length": 20,
          "start": 13963
        },
        {
          "length": 20,
          "start": 14054
        },
        {
          "length": 20,
          "start": 14118
        },
        {
          "length": 20,
          "start": 14187
        },
        {
          "length": 20,
          "start": 14533
        },
        {
          "length": 20,
          "start": 14597
        },
        {
          "length": 20,
          "start": 14666
        },
        {
          "length": 20,
          "start": 17557
        },
        {
          "length": 20,
          "start": 17954
        },
        {
          "length": 20,
          "start": 18033
        },
        {
          "length": 20,
          "start": 18107
        },
        {
          "length": 20,
          "start": 18209
        },
        {
          "length": 20,
          "start": 18356
        },
        {
          "length": 20,
          "start": 18435
        },
        {
          "length": 20,
          "start": 18523
        },
        {
          "length": 20,
          "start": 18814
        },
        {
          "length": 20,
          "start": 18893
        },
        {
          "length": 20,
          "start": 18967
        },
        {
          "length": 20,
          "start": 19405
        },
        {
          "length": 20,
          "start": 19497
        },
        {
          "length": 20,
          "start": 19561
        },
        {
          "length": 20,
          "start": 20013
        },
        {
          "length": 20,
          "start": 20077
        },
        {
          "length": 20,
          "start": 20694
        },
        {
          "length": 20,
          "start": 21095
        },
        {
          "length": 20,
          "start": 21173
        },
        {
          "length": 20,
          "start": 21275
        },
        {
          "length": 20,
          "start": 21371
        },
        {
          "length": 20,
          "start": 21449
        },
        {
          "length": 20,
          "start": 21536
        },
        {
          "length": 20,
          "start": 21731
        },
        {
          "length": 20,
          "start": 21809
        },
        {
          "length": 20,
          "start": 22198
        },
        {
          "length": 20,
          "start": 22623
        },
        {
          "length": 20,
          "start": 23650
        }
      ]
    },
    "contracts/libraries/LazyMulSegmentTree.sol": {
      "LazyMulSegmentTree": [
        {
          "length": 20,
          "start": 2234
        },
        {
          "length": 20,
          "start": 2297
        },
        {
          "length": 20,
          "start": 5622
        },
        {
          "length": 20,
          "start": 6785
        },
        {
          "length": 20,
          "start": 7852
        },
        {
          "length": 20,
          "start": 7918
        },
        {
          "length": 20,
          "start": 11053
        },
        {
          "length": 20,
          "start": 11865
        },
        {
          "length": 20,
          "start": 11931
        },
        {
          "length": 20,
          "start": 12637
        },
        {
          "length": 20,
          "start": 13644
        },
        {
          "length": 20,
          "start": 17639
        },
        {
          "length": 20,
          "start": 19621
        },
        {
          "length": 20,
          "start": 20152
        },
        {
          "length": 20,
          "start": 20217
        },
        {
          "length": 20,
          "start": 20845
        },
        {
          "length": 20,
          "start": 20939
        },
        {
          "length": 20,
          "start": 22489
        }
      ]
    }
  }
}