{
  "_format": "hh-sol-artifact-1",
  "contractName": "CLMSRMarketCore",
  "sourceName": "contracts/core/CLMSRMarketCore.sol",
  "abi": [
    {
      "inputs": [
        {
          "internalType": "address",
          "name": "target",
          "type": "address"
        }
      ],
      "name": "AddressEmptyCode",
      "type": "error"
    },
    {
      "inputs": [
        {
          "internalType": "uint32",
          "name": "requested",
          "type": "uint32"
        },
        {
          "internalType": "uint32",
          "name": "maxAllowed",
          "type": "uint32"
        }
      ],
      "name": "BinCountExceedsLimit",
      "type": "error"
    },
    {
      "inputs": [
        {
          "internalType": "uint256",
          "name": "cost",
          "type": "uint256"
        },
        {
          "internalType": "uint256",
          "name": "maxAllowed",
          "type": "uint256"
        }
      ],
      "name": "CostExceedsMaximum",
      "type": "error"
    },
    {
      "inputs": [
        {
          "internalType": "address",
          "name": "implementation",
          "type": "address"
        }
      ],
      "name": "ERC1967InvalidImplementation",
      "type": "error"
    },
    {
      "inputs": [],
      "name": "ERC1967NonPayable",
      "type": "error"
    },
    {
      "inputs": [],
      "name": "EnforcedPause",
      "type": "error"
    },
    {
      "inputs": [],
      "name": "ExpectedPause",
      "type": "error"
    },
    {
      "inputs": [],
      "name": "FactorOutOfBounds",
      "type": "error"
    },
    {
      "inputs": [],
      "name": "FailedCall",
      "type": "error"
    },
    {
      "inputs": [],
      "name": "IncompleteChunkProcessing",
      "type": "error"
    },
    {
      "inputs": [],
      "name": "InvalidInitialization",
      "type": "error"
    },
    {
      "inputs": [],
      "name": "InvalidLiquidityParameter",
      "type": "error"
    },
    {
      "inputs": [
        {
          "internalType": "int256",
          "name": "minTick",
          "type": "int256"
        },
        {
          "internalType": "int256",
          "name": "maxTick",
          "type": "int256"
        },
        {
          "internalType": "int256",
          "name": "tickSpacing",
          "type": "int256"
        }
      ],
      "name": "InvalidMarketParameters",
      "type": "error"
    },
    {
      "inputs": [
        {
          "internalType": "uint128",
          "name": "qty",
          "type": "uint128"
        }
      ],
      "name": "InvalidQuantity",
      "type": "error"
    },
    {
      "inputs": [
        {
          "internalType": "int256",
          "name": "tick",
          "type": "int256"
        },
        {
          "internalType": "int256",
          "name": "minTick",
          "type": "int256"
        },
        {
          "internalType": "int256",
          "name": "maxTick",
          "type": "int256"
        }
      ],
      "name": "InvalidTick",
      "type": "error"
    },
    {
      "inputs": [
        {
          "internalType": "int256",
          "name": "lowerTick",
          "type": "int256"
        },
        {
          "internalType": "int256",
          "name": "upperTick",
          "type": "int256"
        }
      ],
      "name": "InvalidTickRange",
      "type": "error"
    },
    {
      "inputs": [
        {
          "internalType": "int256",
          "name": "tick",
          "type": "int256"
        },
        {
          "internalType": "int256",
          "name": "tickSpacing",
          "type": "int256"
        }
      ],
      "name": "InvalidTickSpacing",
      "type": "error"
    },
    {
      "inputs": [],
      "name": "InvalidTimeRange",
      "type": "error"
    },
    {
      "inputs": [
        {
          "internalType": "uint256",
          "name": "marketId",
          "type": "uint256"
        }
      ],
      "name": "MarketAlreadySettled",
      "type": "error"
    },
    {
      "inputs": [],
      "name": "MarketExpired",
      "type": "error"
    },
    {
      "inputs": [],
      "name": "MarketNotActive",
      "type": "error"
    },
    {
      "inputs": [
        {
          "internalType": "uint256",
          "name": "marketId",
          "type": "uint256"
        }
      ],
      "name": "MarketNotFound",
      "type": "error"
    },
    {
      "inputs": [
        {
          "internalType": "uint256",
          "name": "marketId",
          "type": "uint256"
        }
      ],
      "name": "MarketNotSettled",
      "type": "error"
    },
    {
      "inputs": [],
      "name": "MarketNotStarted",
      "type": "error"
    },
    {
      "inputs": [],
      "name": "NotInitializing",
      "type": "error"
    },
    {
      "inputs": [
        {
          "internalType": "address",
          "name": "owner",
          "type": "address"
        }
      ],
      "name": "OwnableInvalidOwner",
      "type": "error"
    },
    {
      "inputs": [
        {
          "internalType": "address",
          "name": "account",
          "type": "address"
        }
      ],
      "name": "OwnableUnauthorizedAccount",
      "type": "error"
    },
    {
      "inputs": [],
      "name": "ReentrancyGuardReentrantCall",
      "type": "error"
    },
    {
      "inputs": [
        {
          "internalType": "address",
          "name": "token",
          "type": "address"
        }
      ],
      "name": "SafeERC20FailedOperation",
      "type": "error"
    },
    {
      "inputs": [],
      "name": "TreeNotInitialized",
      "type": "error"
    },
    {
      "inputs": [],
      "name": "UUPSUnauthorizedCallContext",
      "type": "error"
    },
    {
      "inputs": [
        {
          "internalType": "bytes32",
          "name": "slot",
          "type": "bytes32"
        }
      ],
      "name": "UUPSUnsupportedProxiableUUID",
      "type": "error"
    },
    {
      "inputs": [
        {
          "internalType": "address",
          "name": "caller",
          "type": "address"
        }
      ],
      "name": "UnauthorizedCaller",
      "type": "error"
    },
    {
      "inputs": [],
      "name": "ZeroAddress",
      "type": "error"
    },
    {
      "anonymous": false,
      "inputs": [
        {
          "indexed": false,
          "internalType": "uint256",
          "name": "step",
          "type": "uint256"
        },
        {
          "indexed": false,
          "internalType": "uint256",
          "name": "value1",
          "type": "uint256"
        },
        {
          "indexed": false,
          "internalType": "uint256",
          "name": "value2",
          "type": "uint256"
        },
        {
          "indexed": false,
          "internalType": "string",
          "name": "message",
          "type": "string"
        }
      ],
      "name": "DebugSellProceeds",
      "type": "event"
    },
    {
      "anonymous": false,
      "inputs": [
        {
          "indexed": true,
          "internalType": "address",
          "name": "by",
          "type": "address"
        },
        {
          "indexed": false,
          "internalType": "string",
          "name": "reason",
          "type": "string"
        }
      ],
      "name": "EmergencyPaused",
      "type": "event"
    },
    {
      "anonymous": false,
      "inputs": [
        {
          "indexed": true,
          "internalType": "address",
          "name": "by",
          "type": "address"
        }
      ],
      "name": "EmergencyUnpaused",
      "type": "event"
    },
    {
      "anonymous": false,
      "inputs": [
        {
          "indexed": false,
          "internalType": "uint64",
          "name": "version",
          "type": "uint64"
        }
      ],
      "name": "Initialized",
      "type": "event"
    },
    {
      "anonymous": false,
      "inputs": [
        {
          "indexed": true,
          "internalType": "uint256",
          "name": "marketId",
          "type": "uint256"
        },
        {
          "indexed": false,
          "internalType": "uint64",
          "name": "startTimestamp",
          "type": "uint64"
        },
        {
          "indexed": false,
          "internalType": "uint64",
          "name": "endTimestamp",
          "type": "uint64"
        },
        {
          "indexed": false,
          "internalType": "int256",
          "name": "minTick",
          "type": "int256"
        },
        {
          "indexed": false,
          "internalType": "int256",
          "name": "maxTick",
          "type": "int256"
        },
        {
          "indexed": false,
          "internalType": "int256",
          "name": "tickSpacing",
          "type": "int256"
        },
        {
          "indexed": false,
          "internalType": "uint32",
          "name": "numBins",
          "type": "uint32"
        },
        {
          "indexed": false,
          "internalType": "uint256",
          "name": "liquidityParameter",
          "type": "uint256"
        }
      ],
      "name": "MarketCreated",
      "type": "event"
    },
    {
      "anonymous": false,
      "inputs": [
        {
          "indexed": true,
          "internalType": "uint256",
          "name": "marketId",
          "type": "uint256"
        },
        {
          "indexed": false,
          "internalType": "int256",
          "name": "settlementTick",
          "type": "int256"
        }
      ],
      "name": "MarketSettled",
      "type": "event"
    },
    {
      "anonymous": false,
      "inputs": [
        {
          "indexed": true,
          "internalType": "uint256",
          "name": "marketId",
          "type": "uint256"
        },
        {
          "indexed": false,
          "internalType": "uint64",
          "name": "newStartTimestamp",
          "type": "uint64"
        },
        {
          "indexed": false,
          "internalType": "uint64",
          "name": "newEndTimestamp",
          "type": "uint64"
        }
      ],
      "name": "MarketTimingUpdated",
      "type": "event"
    },
    {
      "anonymous": false,
      "inputs": [
        {
          "indexed": true,
          "internalType": "address",
          "name": "previousOwner",
          "type": "address"
        },
        {
          "indexed": true,
          "internalType": "address",
          "name": "newOwner",
          "type": "address"
        }
      ],
      "name": "OwnershipTransferred",
      "type": "event"
    },
    {
      "anonymous": false,
      "inputs": [
        {
          "indexed": false,
          "internalType": "address",
          "name": "account",
          "type": "address"
        }
      ],
      "name": "Paused",
      "type": "event"
    },
    {
      "anonymous": false,
      "inputs": [
        {
          "indexed": true,
          "internalType": "uint256",
          "name": "positionId",
          "type": "uint256"
        },
        {
          "indexed": true,
          "internalType": "address",
          "name": "trader",
          "type": "address"
        },
        {
          "indexed": false,
          "internalType": "uint256",
          "name": "payout",
          "type": "uint256"
        }
      ],
      "name": "PositionClaimed",
      "type": "event"
    },
    {
      "anonymous": false,
      "inputs": [
        {
          "indexed": true,
          "internalType": "uint256",
          "name": "positionId",
          "type": "uint256"
        },
        {
          "indexed": true,
          "internalType": "address",
          "name": "trader",
          "type": "address"
        },
        {
          "indexed": false,
          "internalType": "uint256",
          "name": "proceeds",
          "type": "uint256"
        }
      ],
      "name": "PositionClosed",
      "type": "event"
    },
    {
      "anonymous": false,
      "inputs": [
        {
          "indexed": true,
          "internalType": "uint256",
          "name": "positionId",
          "type": "uint256"
        },
        {
          "indexed": true,
          "internalType": "address",
          "name": "trader",
          "type": "address"
        },
        {
          "indexed": false,
          "internalType": "uint128",
          "name": "sellQuantity",
          "type": "uint128"
        },
        {
          "indexed": false,
          "internalType": "uint128",
          "name": "newQuantity",
          "type": "uint128"
        },
        {
          "indexed": false,
          "internalType": "uint256",
          "name": "proceeds",
          "type": "uint256"
        }
      ],
      "name": "PositionDecreased",
      "type": "event"
    },
    {
      "anonymous": false,
      "inputs": [
        {
          "indexed": true,
          "internalType": "uint256",
          "name": "marketId",
          "type": "uint256"
        },
        {
          "indexed": false,
          "internalType": "uint256",
          "name": "from",
          "type": "uint256"
        },
        {
          "indexed": false,
          "internalType": "uint256",
          "name": "to",
          "type": "uint256"
        },
        {
          "indexed": false,
          "internalType": "bool",
          "name": "done",
          "type": "bool"
        }
      ],
      "name": "PositionEventsProgress",
      "type": "event"
    },
    {
      "anonymous": false,
      "inputs": [
        {
          "indexed": true,
          "internalType": "uint256",
          "name": "positionId",
          "type": "uint256"
        },
        {
          "indexed": true,
          "internalType": "address",
          "name": "trader",
          "type": "address"
        },
        {
          "indexed": false,
          "internalType": "uint128",
          "name": "additionalQuantity",
          "type": "uint128"
        },
        {
          "indexed": false,
          "internalType": "uint128",
          "name": "newQuantity",
          "type": "uint128"
        },
        {
          "indexed": false,
          "internalType": "uint256",
          "name": "cost",
          "type": "uint256"
        }
      ],
      "name": "PositionIncreased",
      "type": "event"
    },
    {
      "anonymous": false,
      "inputs": [
        {
          "indexed": true,
          "internalType": "uint256",
          "name": "positionId",
          "type": "uint256"
        },
        {
          "indexed": true,
          "internalType": "address",
          "name": "trader",
          "type": "address"
        },
        {
          "indexed": true,
          "internalType": "uint256",
          "name": "marketId",
          "type": "uint256"
        },
        {
          "indexed": false,
          "internalType": "int256",
          "name": "lowerTick",
          "type": "int256"
        },
        {
          "indexed": false,
          "internalType": "int256",
          "name": "upperTick",
          "type": "int256"
        },
        {
          "indexed": false,
          "internalType": "uint128",
          "name": "quantity",
          "type": "uint128"
        },
        {
          "indexed": false,
          "internalType": "uint256",
          "name": "cost",
          "type": "uint256"
        }
      ],
      "name": "PositionOpened",
      "type": "event"
    },
    {
      "anonymous": false,
      "inputs": [
        {
          "indexed": true,
          "internalType": "uint256",
          "name": "positionId",
          "type": "uint256"
        },
        {
          "indexed": true,
          "internalType": "address",
          "name": "trader",
          "type": "address"
        },
        {
          "indexed": false,
          "internalType": "uint256",
          "name": "payout",
          "type": "uint256"
        },
        {
          "indexed": false,
          "internalType": "bool",
          "name": "isWin",
          "type": "bool"
        }
      ],
      "name": "PositionSettled",
      "type": "event"
    },
    {
      "anonymous": false,
      "inputs": [
        {
          "indexed": true,
          "internalType": "uint256",
          "name": "marketId",
          "type": "uint256"
        },
        {
          "indexed": true,
          "internalType": "int256",
          "name": "lo",
          "type": "int256"
        },
        {
          "indexed": true,
          "internalType": "int256",
          "name": "hi",
          "type": "int256"
        },
        {
          "indexed": false,
          "internalType": "uint256",
          "name": "factor",
          "type": "uint256"
        }
      ],
      "name": "RangeFactorApplied",
      "type": "event"
    },
    {
      "anonymous": false,
      "inputs": [
        {
          "indexed": false,
          "internalType": "address",
          "name": "account",
          "type": "address"
        }
      ],
      "name": "Unpaused",
      "type": "event"
    },
    {
      "anonymous": false,
      "inputs": [
        {
          "indexed": true,
          "internalType": "address",
          "name": "implementation",
          "type": "address"
        }
      ],
      "name": "Upgraded",
      "type": "event"
    },
    {
      "inputs": [],
      "name": "MAX_LIQUIDITY_PARAMETER",
      "outputs": [
        {
          "internalType": "uint256",
          "name": "",
          "type": "uint256"
        }
      ],
      "stateMutability": "view",
      "type": "function"
    },
    {
      "inputs": [],
      "name": "MAX_TICK_COUNT",
      "outputs": [
        {
          "internalType": "uint32",
          "name": "",
          "type": "uint32"
        }
      ],
      "stateMutability": "view",
      "type": "function"
    },
    {
      "inputs": [],
      "name": "MIN_LIQUIDITY_PARAMETER",
      "outputs": [
        {
          "internalType": "uint256",
          "name": "",
          "type": "uint256"
        }
      ],
      "stateMutability": "view",
      "type": "function"
    },
    {
      "inputs": [],
      "name": "UPGRADE_INTERFACE_VERSION",
      "outputs": [
        {
          "internalType": "string",
          "name": "",
          "type": "string"
        }
      ],
      "stateMutability": "view",
      "type": "function"
    },
    {
      "inputs": [],
      "name": "_nextMarketId",
      "outputs": [
        {
          "internalType": "uint256",
          "name": "",
          "type": "uint256"
        }
      ],
      "stateMutability": "view",
      "type": "function"
    },
    {
      "inputs": [
        {
          "internalType": "uint256",
          "name": "marketId",
          "type": "uint256"
        },
        {
          "internalType": "int256",
          "name": "lo",
          "type": "int256"
        },
        {
          "internalType": "int256",
          "name": "hi",
          "type": "int256"
        },
        {
          "internalType": "uint256",
          "name": "factor",
          "type": "uint256"
        }
      ],
      "name": "applyRangeFactor",
      "outputs": [],
      "stateMutability": "nonpayable",
      "type": "function"
    },
    {
      "inputs": [
        {
          "internalType": "uint256",
          "name": "positionId",
          "type": "uint256"
        }
      ],
      "name": "calculateClaimAmount",
      "outputs": [
        {
          "internalType": "uint256",
          "name": "amount",
          "type": "uint256"
        }
      ],
      "stateMutability": "view",
      "type": "function"
    },
    {
      "inputs": [
        {
          "internalType": "uint256",
          "name": "positionId",
          "type": "uint256"
        }
      ],
      "name": "calculateCloseProceeds",
      "outputs": [
        {
          "internalType": "uint256",
          "name": "proceeds",
          "type": "uint256"
        }
      ],
      "stateMutability": "view",
      "type": "function"
    },
    {
      "inputs": [
        {
          "internalType": "uint256",
          "name": "positionId",
          "type": "uint256"
        },
        {
          "internalType": "uint128",
          "name": "sellQuantity",
          "type": "uint128"
        }
      ],
      "name": "calculateDecreaseProceeds",
      "outputs": [
        {
          "internalType": "uint256",
          "name": "proceeds",
          "type": "uint256"
        }
      ],
      "stateMutability": "view",
      "type": "function"
    },
    {
      "inputs": [
        {
          "internalType": "uint256",
          "name": "positionId",
          "type": "uint256"
        },
        {
          "internalType": "uint128",
          "name": "additionalQuantity",
          "type": "uint128"
        }
      ],
      "name": "calculateIncreaseCost",
      "outputs": [
        {
          "internalType": "uint256",
          "name": "cost",
          "type": "uint256"
        }
      ],
      "stateMutability": "view",
      "type": "function"
    },
    {
      "inputs": [
        {
          "internalType": "uint256",
          "name": "marketId",
          "type": "uint256"
        },
        {
          "internalType": "int256",
          "name": "lowerTick",
          "type": "int256"
        },
        {
          "internalType": "int256",
          "name": "upperTick",
          "type": "int256"
        },
        {
          "internalType": "uint128",
          "name": "quantity",
          "type": "uint128"
        }
      ],
      "name": "calculateOpenCost",
      "outputs": [
        {
          "internalType": "uint256",
          "name": "cost",
          "type": "uint256"
        }
      ],
      "stateMutability": "view",
      "type": "function"
    },
    {
      "inputs": [
        {
          "internalType": "uint256",
          "name": "positionId",
          "type": "uint256"
        }
      ],
      "name": "claimPayout",
      "outputs": [
        {
          "internalType": "uint256",
          "name": "payout",
          "type": "uint256"
        }
      ],
      "stateMutability": "nonpayable",
      "type": "function"
    },
    {
      "inputs": [
        {
          "internalType": "uint256",
          "name": "positionId",
          "type": "uint256"
        },
        {
          "internalType": "uint256",
          "name": "minProceeds",
          "type": "uint256"
        }
      ],
      "name": "closePosition",
      "outputs": [
        {
          "internalType": "uint256",
          "name": "proceeds",
          "type": "uint256"
        }
      ],
      "stateMutability": "nonpayable",
      "type": "function"
    },
    {
      "inputs": [
        {
          "internalType": "int256",
          "name": "minTick",
          "type": "int256"
        },
        {
          "internalType": "int256",
          "name": "maxTick",
          "type": "int256"
        },
        {
          "internalType": "int256",
          "name": "tickSpacing",
          "type": "int256"
        },
        {
          "internalType": "uint64",
          "name": "startTimestamp",
          "type": "uint64"
        },
        {
          "internalType": "uint64",
          "name": "endTimestamp",
          "type": "uint64"
        },
        {
          "internalType": "uint256",
          "name": "liquidityParameter",
          "type": "uint256"
        }
      ],
      "name": "createMarket",
      "outputs": [
        {
          "internalType": "uint256",
          "name": "marketId",
          "type": "uint256"
        }
      ],
      "stateMutability": "nonpayable",
      "type": "function"
    },
    {
      "inputs": [
        {
          "internalType": "uint256",
          "name": "positionId",
          "type": "uint256"
        },
        {
          "internalType": "uint128",
          "name": "sellQuantity",
          "type": "uint128"
        },
        {
          "internalType": "uint256",
          "name": "minProceeds",
          "type": "uint256"
        }
      ],
      "name": "decreasePosition",
      "outputs": [
        {
          "internalType": "uint128",
          "name": "newQuantity",
          "type": "uint128"
        },
        {
          "internalType": "uint256",
          "name": "proceeds",
          "type": "uint256"
        }
      ],
      "stateMutability": "nonpayable",
      "type": "function"
    },
    {
      "inputs": [
        {
          "internalType": "uint256",
          "name": "marketId",
          "type": "uint256"
        },
        {
          "internalType": "uint256",
          "name": "limit",
          "type": "uint256"
        }
      ],
      "name": "emitPositionSettledBatch",
      "outputs": [],
      "stateMutability": "nonpayable",
      "type": "function"
    },
    {
      "inputs": [
        {
          "internalType": "uint256",
          "name": "marketId",
          "type": "uint256"
        }
      ],
      "name": "getMarket",
      "outputs": [
        {
          "components": [
            {
              "internalType": "bool",
              "name": "isActive",
              "type": "bool"
            },
            {
              "internalType": "bool",
              "name": "settled",
              "type": "bool"
            },
            {
              "internalType": "uint64",
              "name": "startTimestamp",
              "type": "uint64"
            },
            {
              "internalType": "uint64",
              "name": "endTimestamp",
              "type": "uint64"
            },
            {
              "internalType": "int256",
              "name": "settlementTick",
              "type": "int256"
            },
            {
              "internalType": "int256",
              "name": "minTick",
              "type": "int256"
            },
            {
              "internalType": "int256",
              "name": "maxTick",
              "type": "int256"
            },
            {
              "internalType": "int256",
              "name": "tickSpacing",
              "type": "int256"
            },
            {
              "internalType": "uint32",
              "name": "numBins",
              "type": "uint32"
            },
            {
              "internalType": "uint256",
              "name": "liquidityParameter",
              "type": "uint256"
            },
            {
              "internalType": "uint32",
              "name": "positionEventsCursor",
              "type": "uint32"
            },
            {
              "internalType": "bool",
              "name": "positionEventsEmitted",
              "type": "bool"
            }
          ],
          "internalType": "struct ICLMSRMarketCore.Market",
          "name": "market",
          "type": "tuple"
        }
      ],
      "stateMutability": "view",
      "type": "function"
    },
    {
      "inputs": [],
      "name": "getPaymentToken",
      "outputs": [
        {
          "internalType": "address",
          "name": "",
          "type": "address"
        }
      ],
      "stateMutability": "view",
      "type": "function"
    },
    {
      "inputs": [],
      "name": "getPositionContract",
      "outputs": [
        {
          "internalType": "address",
          "name": "",
          "type": "address"
        }
      ],
      "stateMutability": "view",
      "type": "function"
    },
    {
      "inputs": [
        {
          "internalType": "uint256",
          "name": "marketId",
          "type": "uint256"
        },
        {
          "internalType": "int256",
          "name": "lo",
          "type": "int256"
        },
        {
          "internalType": "int256",
          "name": "hi",
          "type": "int256"
        }
      ],
      "name": "getRangeSum",
      "outputs": [
        {
          "internalType": "uint256",
          "name": "sum",
          "type": "uint256"
        }
      ],
      "stateMutability": "view",
      "type": "function"
    },
    {
      "inputs": [
        {
          "internalType": "uint256",
          "name": "marketId",
          "type": "uint256"
        },
        {
          "internalType": "int256",
          "name": "tick",
          "type": "int256"
        }
      ],
      "name": "getTickValue",
      "outputs": [
        {
          "internalType": "uint256",
          "name": "value",
          "type": "uint256"
        }
      ],
      "stateMutability": "view",
      "type": "function"
    },
    {
      "inputs": [
        {
          "internalType": "uint256",
          "name": "positionId",
          "type": "uint256"
        },
        {
          "internalType": "uint128",
          "name": "additionalQuantity",
          "type": "uint128"
        },
        {
          "internalType": "uint256",
          "name": "maxCost",
          "type": "uint256"
        }
      ],
      "name": "increasePosition",
      "outputs": [
        {
          "internalType": "uint128",
          "name": "newQuantity",
          "type": "uint128"
        }
      ],
      "stateMutability": "nonpayable",
      "type": "function"
    },
    {
      "inputs": [
        {
          "internalType": "address",
          "name": "_paymentToken",
          "type": "address"
        },
        {
          "internalType": "address",
          "name": "_positionContract",
          "type": "address"
        }
      ],
      "name": "initialize",
      "outputs": [],
      "stateMutability": "nonpayable",
      "type": "function"
    },
    {
      "inputs": [],
      "name": "isPaused",
      "outputs": [
        {
          "internalType": "bool",
          "name": "",
          "type": "bool"
        }
      ],
      "stateMutability": "view",
      "type": "function"
    },
    {
      "inputs": [
        {
          "internalType": "uint256",
          "name": "",
          "type": "uint256"
        }
      ],
      "name": "marketTrees",
      "outputs": [
        {
          "internalType": "uint32",
          "name": "root",
          "type": "uint32"
        },
        {
          "internalType": "uint32",
          "name": "nextIndex",
          "type": "uint32"
        },
        {
          "internalType": "uint32",
          "name": "size",
          "type": "uint32"
        },
        {
          "internalType": "uint256",
          "name": "cachedRootSum",
          "type": "uint256"
        }
      ],
      "stateMutability": "view",
      "type": "function"
    },
    {
      "inputs": [
        {
          "internalType": "uint256",
          "name": "",
          "type": "uint256"
        }
      ],
      "name": "markets",
      "outputs": [
        {
          "internalType": "bool",
          "name": "isActive",
          "type": "bool"
        },
        {
          "internalType": "bool",
          "name": "settled",
          "type": "bool"
        },
        {
          "internalType": "uint64",
          "name": "startTimestamp",
          "type": "uint64"
        },
        {
          "internalType": "uint64",
          "name": "endTimestamp",
          "type": "uint64"
        },
        {
          "internalType": "int256",
          "name": "settlementTick",
          "type": "int256"
        },
        {
          "internalType": "int256",
          "name": "minTick",
          "type": "int256"
        },
        {
          "internalType": "int256",
          "name": "maxTick",
          "type": "int256"
        },
        {
          "internalType": "int256",
          "name": "tickSpacing",
          "type": "int256"
        },
        {
          "internalType": "uint32",
          "name": "numBins",
          "type": "uint32"
        },
        {
          "internalType": "uint256",
          "name": "liquidityParameter",
          "type": "uint256"
        },
        {
          "internalType": "uint32",
          "name": "positionEventsCursor",
          "type": "uint32"
        },
        {
          "internalType": "bool",
          "name": "positionEventsEmitted",
          "type": "bool"
        }
      ],
      "stateMutability": "view",
      "type": "function"
    },
    {
      "inputs": [
        {
          "internalType": "uint256",
          "name": "marketId",
          "type": "uint256"
        },
        {
          "internalType": "int256",
          "name": "lowerTick",
          "type": "int256"
        },
        {
          "internalType": "int256",
          "name": "upperTick",
          "type": "int256"
        },
        {
          "internalType": "uint128",
          "name": "quantity",
          "type": "uint128"
        },
        {
          "internalType": "uint256",
          "name": "maxCost",
          "type": "uint256"
        }
      ],
      "name": "openPosition",
      "outputs": [
        {
          "internalType": "uint256",
          "name": "positionId",
          "type": "uint256"
        }
      ],
      "stateMutability": "nonpayable",
      "type": "function"
    },
    {
      "inputs": [],
      "name": "owner",
      "outputs": [
        {
          "internalType": "address",
          "name": "",
          "type": "address"
        }
      ],
      "stateMutability": "view",
      "type": "function"
    },
    {
      "inputs": [
        {
          "internalType": "string",
          "name": "reason",
          "type": "string"
        }
      ],
      "name": "pause",
      "outputs": [],
      "stateMutability": "nonpayable",
      "type": "function"
    },
    {
      "inputs": [],
      "name": "paused",
      "outputs": [
        {
          "internalType": "bool",
          "name": "",
          "type": "bool"
        }
      ],
      "stateMutability": "view",
      "type": "function"
    },
    {
      "inputs": [],
      "name": "paymentToken",
      "outputs": [
        {
          "internalType": "contract IERC20",
          "name": "",
          "type": "address"
        }
      ],
      "stateMutability": "view",
      "type": "function"
    },
    {
      "inputs": [],
      "name": "positionContract",
      "outputs": [
        {
          "internalType": "contract ICLMSRPosition",
          "name": "",
          "type": "address"
        }
      ],
      "stateMutability": "view",
      "type": "function"
    },
    {
      "inputs": [
        {
          "internalType": "uint256",
          "name": "marketId",
          "type": "uint256"
        },
        {
          "internalType": "int256",
          "name": "lo",
          "type": "int256"
        },
        {
          "internalType": "int256",
          "name": "hi",
          "type": "int256"
        }
      ],
      "name": "propagateLazy",
      "outputs": [
        {
          "internalType": "uint256",
          "name": "sum",
          "type": "uint256"
        }
      ],
      "stateMutability": "nonpayable",
      "type": "function"
    },
    {
      "inputs": [],
      "name": "proxiableUUID",
      "outputs": [
        {
          "internalType": "bytes32",
          "name": "",
          "type": "bytes32"
        }
      ],
      "stateMutability": "view",
      "type": "function"
    },
    {
      "inputs": [],
      "name": "renounceOwnership",
      "outputs": [],
      "stateMutability": "nonpayable",
      "type": "function"
    },
    {
      "inputs": [
        {
          "internalType": "uint256",
          "name": "marketId",
          "type": "uint256"
        },
        {
          "internalType": "int256",
          "name": "settlementTick",
          "type": "int256"
        }
      ],
      "name": "settleMarket",
      "outputs": [],
      "stateMutability": "nonpayable",
      "type": "function"
    },
    {
      "inputs": [
        {
          "internalType": "address",
          "name": "newOwner",
          "type": "address"
        }
      ],
      "name": "transferOwnership",
      "outputs": [],
      "stateMutability": "nonpayable",
      "type": "function"
    },
    {
      "inputs": [],
      "name": "unpause",
      "outputs": [],
      "stateMutability": "nonpayable",
      "type": "function"
    },
    {
      "inputs": [
        {
          "internalType": "uint256",
          "name": "marketId",
          "type": "uint256"
        },
        {
          "internalType": "uint64",
          "name": "newStartTimestamp",
          "type": "uint64"
        },
        {
          "internalType": "uint64",
          "name": "newEndTimestamp",
          "type": "uint64"
        }
      ],
      "name": "updateMarketTiming",
      "outputs": [],
      "stateMutability": "nonpayable",
      "type": "function"
    },
    {
      "inputs": [
        {
          "internalType": "address",
          "name": "newImplementation",
          "type": "address"
        },
        {
          "internalType": "bytes",
          "name": "data",
          "type": "bytes"
        }
      ],
      "name": "upgradeToAndCall",
      "outputs": [],
      "stateMutability": "payable",
      "type": "function"
    }
  ],
  "bytecode": "0x60a0806040523461002a573060805261534890816100308239608051818181611b790152611c320152f35b600080fdfe6080604052600436101561001257600080fd5b6000803560e01c8063070ab8c9146125f457806309f28be61461062b57806313b6eb09146125cd5780632d6ce61d146123d75780632ed66650146123b55780633013ce2914610ab85780633d65117b1461230d5780633f4ba83a14612270578063449a0388146121fb57806344a1a58e146121225780634765b3f914611fe4578063485cc95514611e185780634f1ef28614611be357806352d1902d14611b665780635c975abb14610d645780636084fa031461184257806362a626aa14611824578063692c3fc7146117cd5780636da66355146116ea5780636ec469b11461159c578063715018a6146115315780637404d95714611513578063793347981461129a5780637ed54782146111f25780638a69614e1461100c5780638da5cb5b14610fd65780639bbafcc314610f745780639fc46ecb14610ec1578063ad3cb1cc14610e57578063b1283e7714610d94578063b187bd2614610d64578063b762d83414610c41578063bcb1732214610c1c578063c9ac6b3114610adf578063d41c3a6514610ab8578063de57c54f14610654578063e9eb3ba51461062b578063eb44fdd3146104d7578063f0b7f3b1146102045763f2fde38b146101d557600080fd5b34610201576020366003190112610201576101fe6101f16127b5565b6101f9612ed0565b612e5c565b80f35b80fd5b50346102015760a0366003190112610201576024604460043582358235610229612785565b906001600160801b036084359261023e613175565b6102466131a0565b169081156104bf576000858152600260209081526040909120600581015491989163ffffffff16156104a857805460ff811615610496576001600160401b0390818160101c1642106104845760501c164211610472576102ae6102a8826128e0565b87612f09565b6102c06102ba826128e0565b84612f09565b82861361045657828614610456576102e79060046102de8886612e14565b91015490612e2d565b61043a5764e8d4a510008084029064e8d4a50fff61030783868a8c61449f565b01049480861161041e575060a4899261033f89936103258933614992565b846000526002865260066040600020015490878b87614015565b600060018060a01b0360015416896040519c8d9687956330906fad60e21b87523360048801528601528401528660648401528760848401525af1958615610412576000966103de575b506040519384528684015260408301526060820152827fc33c3b4ea19b40f02901978a93e787a0caa1d6fd23dfa228ae891fe96867e17160803393a460016000805160206152f383398151915255604051908152f35b9095508681813d831161040b575b6103f681836127fa565b8101031261040657519487610388565b600080fd5b503d6103ec565b6040513d6000823e3d90fd5b858991846040519263f6daf99360e01b84526004840152820152fd5b8691859160405192631150381b60e11b84526004840152820152fd5b8786848460405192631150381b60e11b84526004840152820152fd5b60405163b2094b5960e01b8152600490fd5b604051630ee8c41760e31b8152600490fd5b604051635a90bb8d60e11b8152600490fd5b50604051634cba20ef60e01b815260048101879052fd5b604051633b59e48960e11b8152600481018390528790fd5b503461020157602036600319011261020157600435906040516104f9816127de565b8181528160208201528160408201528160608201528160808201528160a08201528160c08201528160e08201526101008281830152610120928084840152610140908082850152806101608095015261056886600052600260205263ffffffff60056040600020015416151590565b15610612579061058760408361018098879695526002602052206128e0565b916040519583511515875260208401511515602088015260408401516001600160401b03809116604089015260608501511660608801526080840151608088015260a084015160a088015260c084015160c088015260e084015160e0880152818401519163ffffffff8093169088015280840151908701528183015116908501520151151590820152f35b604051634cba20ef60e01b815260048101879052602490fd5b50346102015780600319360112610201576001546040516001600160a01b039091168152602090f35b50346102015760c036600319011261020157606435906001600160401b038216820361040657608435906001600160401b038216820361040657610696612ed0565b61069e613175565b600454916106ab83612e4d565b6004556024356004351215610a8e57816044351315610a8e576106dd6044356106d8600435602435612e14565b612e2d565b610a8e576001600160401b0381166001600160401b0385161015610a7c5766038d7ea4c6800060a435108015610a67575b610a555761072b604435610726600435602435612e14565b612f99565b9180831380610a48575b15610a0d5763ffffffff83161580156109fb575b6109d457604051610759816127de565b600181528160208201526001600160401b03861660408201526001600160401b038316606082015281608082015260043560a082015260243560c082015260443560e082015263ffffffff841661010082015260a4356101208201528161014082015281610160820152848252600260205260076040832082511515815460ff61ff006020870151151560081b1692169061ffff19161717815561082b6001600160401b03604085015116829069ffffffffffffffff000082549160101b169069ffffffffffffffff00001916179055565b6060830151815467ffffffffffffffff60501b191660509190911b67ffffffffffffffff60501b161781556080830151600182015560a0830151600282015560c0830151600382015560e083015160048201556005810163ffffffff6101008501511663ffffffff198254161790556101208301516006820155019063ffffffff6101408201511664ff000000006101608454930151151560201b169164ffffffffff19161717905560036020526040812073__$e8b8ff73fdf5e99c3df6a4b39aa1f5b319$__3b156109d0576040519063d886284b60e01b8252600482015263ffffffff84166024820152818160448173__$e8b8ff73fdf5e99c3df6a4b39aa1f5b319$__5af480156109c5576109b1575b602085807f2453c1a297c658a5b6905526d84f0b4ac79c0d9cc5fb5601664602efee53121460e08a63ffffffff8a6001600160401b038b816040519516855216888401526004356040840152602435606084015260443560808401521660a082015260a43560c0820152a2604051908152f35b6109bb82916127cb565b610201578061093e565b6040513d84823e3d90fd5b5080fd5b60405163515eb6ff60e11b815263ffffffff84166004820152620f42406024820152604490fd5b50620f424063ffffffff841611610749565b60405162461bcd60e51b8152602060048201526013602482015272125b9d985b1a59081c985b99d94818dbdd5b9d606a1b6044820152606490fd5b50620f4240831315610735565b604051630b281d1960e31b8152600490fd5b5069152d02c7e14af680000060a4351161070e565b60405163536a71af60e01b8152600490fd5b60405163040b1c7360e21b8152600480359082015260248035908201526044803590820152606490fd5b5034610201578060031936011261020157546040516001600160a01b039091168152602090f35b50346102015760803660031901126102015760043560246044358135610b03612785565b610b2385600052600260205263ffffffff60056040600020015416151590565b15610c04576001600160801b0316928315610bee57846000526002602052610b4e60406000206128e0565b610b588184612f09565b610b628185612f09565b838313610bd157838314610bd157610b899060e0610b808587612e14565b91015190612e2d565b610bb5575060209364e8d4a50fff92610bab9264e8d4a510008096029261449f565b0104604051908152f35b9160449260405192631150381b60e11b84526004840152820152fd5b509160449260405192631150381b60e11b84526004840152820152fd5b604051633b59e48960e11b815260048101859052fd5b604051634cba20ef60e01b8152600481018690528490fd5b5034610201578060031936011261020157602060405169152d02c7e14af68000008152f35b503461020157610c5036612759565b610c58612ed0565b610c7882600052600260205263ffffffff60056040600020015416151590565b15610d4b57818352600260205260408320805460ff8160081c16610d325760028201548084128015610d25575b610cfa57506001820183905561ffff1916610100178155600701805464ffffffffff191690556040519081527fca3a568dfb73dd7b7b3c0b28f130edbf4b688f534869c3de083664c43c11430e90602090a280f35b6003830154604051638a228b0d60e01b81526004810186905260248101929092526044820152606490fd5b5060038301548413610ca5565b604051634e0558fb60e01b815260048101859052602490fd5b604051634cba20ef60e01b815260048101839052602490fd5b5034610201578060031936011261020157602060ff6000805160206152d383398151915254166040519015158152f35b503461020157602036600319011261020157604061018091600435815260026020522060ff8154916001600160401b0390600181015490600281015491600382015460048301549063ffffffff94856005860154169360076006870154960154976040519a8a811615158c528a8160081c16151560208d0152818160101c1660408d015260501c1660608b015260808a015260a089015260c088015260e0870152610100860152610120850152811661014084015260201c161515610160820152f35b503461020157806003193601126102015760405160408101908082106001600160401b03831117610eab57610ea79160405260058152640352e302e360dc1b602082015260405191829182612897565b0390f35b634e487b7160e01b600052604160045260246000fd5b50346102015760203660031901126102015760015460405163eb02c30160e01b815260048035908201529060a090829060249082906001600160a01b03165afa9081156104125760209291610f45575b5064e8d4a50fff610bab64e8d4a5100092836001600160801b0360608301511602908051906040878201519101519161324b565b610f67915060a03d60a011610f6d575b610f5f81836127fa565b810190612985565b38610f11565b503d610f55565b503461020157610f8336612759565b610f8e929192612ed0565b610fae83600052600260205263ffffffff60056040600020015416151590565b15610fbd576101fe9192612a33565b604051634cba20ef60e01b815260048101849052602490fd5b50346102015780600319360112610201576000805160206152b3833981519152546040516001600160a01b039091168152602090f35b503461020157602090816003193601126102015760043561102b613175565b6110336131a0565b60015460405163eb02c30160e01b8152600481018390526001600160a01b03939184169060a081602481855afa9081156111c557869084926111d0575b5060249192604051928380926331a9108f60e11b82528860048301525afa9081156111c5578391611198575b508433911603611180578051825260028552846110bb604084206128e0565b01511561116757506110cc826130b2565b926110d78433614440565b60015416803b156109d057818091602460405180948193630852cd8d60e31b83528860048401525af180156109c557611153575b5050604051908282527ff18ca9717b47ea7629d17b5d7b2ede46e864155725629e7d0347924c2f6d112d843393a360016000805160206152f383398151915255604051908152f35b61115d82916127cb565b610201578061110b565b602490516040519063b23e5f9f60e01b82526004820152fd5b60405163d86ad9cf60e01b8152336004820152602490fd5b6111b89150863d88116111be575b6111b081836127fa565b8101906129f8565b3861109c565b503d6111a6565b6040513d85823e3d90fd5b602492506111ec9060a03d60a011610f6d57610f5f81836127fa565b91611070565b50346102015760403660031901126102015761120c61276f565b60015460405163eb02c30160e01b815260048035908201529060a090829060249082906001600160a01b03165afa9283156104125760209364e8d4a50fff92610bab929161127b575b5064e8d4a51000938151906040866001600160801b03898601519316029301519161449f565b611294915060a03d60a011610f6d57610f5f81836127fa565b38611255565b5034610201576112a93661286d565b906112b2613175565b6112ba6131a0565b6001600160801b03908181169384156114fa5760015460405163eb02c30160e01b8152600481018390526001600160a01b03918216969195919060a0816024818b5afa908115610412576000916114db575b5060405180986331a9108f60e11b825285600483015281602460209b8c935afa908115610412576000916114be575b5087339116036111805761134f81516131d0565b805188820190815190604084019064e8d4a50fff61137b83519264e8d4a5100093848a0296879261449f565b0104958087116114a057506060928994928c6113b89361139b8a33614992565b600286519451915192856000525260066040600020015493614015565b015116019484861161148a576001541690813b15610406576040516361d6883d60e01b8152600481018490526001600160801b0387166024820152916000908390604490829084905af1908115610412577fa9efae0c21a2db158c2af2d36b5c18dc14d792a79dfab662442466a80095ea5f9261145d9261147b575b50604080516001600160801b039687168152958816602087015285015233939081906060820190565b0390a360016000805160206152f38339815191525560405191168152f35b611484906127cb565b88611434565b634e487b7160e01b600052601160045260246000fd5b866044916040519163f6daf99360e01b835260048301526024820152fd5b6114d59150893d8b116111be576111b081836127fa565b8961133b565b6114f4915060a03d60a011610f6d57610f5f81836127fa565b8861130c565b604051633b59e48960e11b815260048101869052602490fd5b50346102015780600319360112610201576020604051620f42408152f35b503461020157806003193601126102015761154a612ed0565b6000805160206152b383398151915280546001600160a01b031981169091556000906001600160a01b03167f8be0079c531659141344cd1fd0a4f28419497f9722a3daafe3b4186f6b6457e08280a380f35b5034610201576115ab36612759565b91906115cd81600052600260205263ffffffff60056040600020015416151590565b156116d257808252602092600284526115e8604084206128e0565b906115f38282612f09565b60e0820151908181019182128582129080158216911516176116be579161161b918693612fb4565b928452600382526040808520905163694f552560e01b8152600481019190915263ffffffff9182166024820152921660448301528180606481015b038173__$e8b8ff73fdf5e99c3df6a4b39aa1f5b319$__5af49182156116b25791611685575b50604051908152f35b90508181813d83116116ab575b61169c81836127fa565b8101031261040657513861167c565b503d611692565b604051903d90823e3d90fd5b634e487b7160e01b85526011600452602485fd5b60249060405190634cba20ef60e01b82526004820152fd5b5034610201576020366003190112610201576001600160401b036004358181116117c957366023820112156117c95780600401359182116117c95736602483830101116117c9576117479161173d612ed0565b6024369201612836565b61174f613175565b6000805160206152d3833981519152600160ff198254161790557f62e78cea01bee320cd4e420270b5ea74000d11b0c9f74754ebdbfc544b05a2586020604051338152a17f375c0abd968f4602b557f6ac9a48ffc89820233aa9becc5d7ff1176fd09eafff604051806117c3339482612897565b0390a280f35b8280fd5b50346102015760203660031901126102015760406080916004358152600360205220600181015490600263ffffffff91015490604051928181168452818160201c16602085015260401c1660408301526060820152f35b50346102015780600319360112610201576020600454604051908152f35b5034610201576118513661286d565b61185c929192613175565b6118646131a0565b6001600160801b0392838116908115611b4d5760015460405163eb02c30160e01b8152600481018690526001600160a01b03959186169360249160a0818481895afa90811561041257600091611b2e575b5060405180966331a9108f60e11b825285600483015281856020998a935afa90811561041257600091611b11575b508833911603611afa576118f781516131d0565b6060810190898251168311611ae35780519087810191825191604081019164e8d4a50fff61193384519264e8d4a5100093848b0297889261324b565b01049a808c10611ac65750918c949391611964935192519051908360005260028c52600660406000200154936139fd565b61196e8833614440565b51160396808811611ab15787169586611a2b576001541690813b1561040657600091829160405180948193630852cd8d60e31b83528760048401525af18015610412576040977fe3a918fd34698242cc99d5ba0987edaa47d8f5b8ed601ef29e08a9b7d72ecc49928792611a1c575b505b88516001600160801b0395861681529416602085015260408401523392606090a360016000805160206152f3833981519152558351928352820152f35b611a25906127cb565b896119dd565b905060015416803b15610406576040516361d6883d60e01b8152600481018390526001600160801b0388166024820152906000908290604490829084905af18015610412576040977fe3a918fd34698242cc99d5ba0987edaa47d8f5b8ed601ef29e08a9b7d72ecc49928792611aa2575b506119df565b611aab906127cb565b89611a9c565b50634e487b7160e01b60009081526011600452fd5b6044908c896040519263f6daf99360e01b84526004840152820152fd5b505060405190633b59e48960e11b82526004820152fd5b60405163d86ad9cf60e01b81523360048201528390fd5b611b289150873d89116111be576111b081836127fa565b8a6118e3565b611b47915060a03d60a011610f6d57610f5f81836127fa565b896118b5565b604051633b59e48960e11b815260048101839052602490fd5b50346102015780600319360112610201577f00000000000000000000000000000000000000000000000000000000000000006001600160a01b03163003611bd15760206040517f360894a13ba1a3210667c828492db98dca3e2076cc3735a920a3ca505d382bbc8152f35b60405163703e46dd60e11b8152600490fd5b50604036600319011261020157611bf86127b5565b6024356001600160401b0381116117c957366023820112156117c957611c28903690602481600401359101612836565b6001600160a01b037f00000000000000000000000000000000000000000000000000000000000000008116308114908115611dea575b50611bd157611c6b612ed0565b6040516352d1902d60e01b8152908316926020918281600481885afa869181611db7575b50611cad57604051634c9c8ce360e01b815260048101869052602490fd5b9385947f360894a13ba1a3210667c828492db98dca3e2076cc3735a920a3ca505d382bbc90818103611d9f5750823b15611d865780546001600160a01b0319168217905560405185917fbc7cd75a20ee27fd9adebab32041f755214dbc6bffa90cc0225b39da2e5c2d3b8380a2845115611d695750808484611d5c96519101845af4903d15611d60573d611d408161281b565b90611d4e60405192836127fa565b81528581943d92013e61522f565b5080f35b6060925061522f565b935050505034611d77575080f35b63b398979f60e01b8152600490fd5b604051634c9c8ce360e01b815260048101839052602490fd5b60249060405190632a87526960e21b82526004820152fd5b9091508381813d8311611de3575b611dcf81836127fa565b81010312611ddf57519038611c8f565b8680fd5b503d611dc5565b9050817f360894a13ba1a3210667c828492db98dca3e2076cc3735a920a3ca505d382bbc5416141538611c5e565b503461020157604036600319011261020157611e326127b5565b6001600160a01b03906024358281169190829003610406577ff0c57e16840df040f15088dc2f81fe391c3923bec73e23a9662efc9c229c6a009182549360ff8560401c1615926001600160401b03861695861580611fdd575b60018098149081611fd3575b159081611fca575b50611fb85767ffffffffffffffff1981168717865584611f99575b501680158015611f91575b611f7f57611ed1614f5b565b611ed9614f5b565b611ee233612e5c565b611eea614f5b565b611ef2614f5b565b611efa614f5b565b611f02614f5b565b846000805160206152f3833981519152556bffffffffffffffffffffffff60a01b908187541617865584541617835582600455611f3d578280f35b805468ff0000000000000000191690556040519081527fc7f505b2f371ae2175ee4913f4499e1f2633a7b5936321eed1cdaeb6115181d290602090a138808280f35b60405163d92e233d60e01b8152600490fd5b508115611ec5565b68ffffffffffffffffff19166801000000000000000117855538611eba565b60405163f92ee8a960e01b8152600490fd5b90501538611e9f565b303b159150611e97565b5084611e8b565b5034610201576060366003190112610201576004356001600160401b036024358181168082036104065760443592831680840361040657612023612ed0565b61204385600052600260205263ffffffff60056040600020015416151590565b15612109578486526002602052604086209260ff845460081c166120f05781831015610a7c57835469ffffffffffffffff0000191660109190911b69ffffffffffffffff0000161783557f66e3554b58ad477fe2e052540bbd9b1ba199fbfd763c4d2848576d2ed8722c64936040936120e29190805467ffffffffffffffff60501b191660509290921b67ffffffffffffffff60501b16919091179055565b82519182526020820152a280f35b604051634e0558fb60e01b815260048101879052602490fd5b604051634cba20ef60e01b815260048101869052602490fd5b5034610201576121313661279b565b92919061213c612ed0565b61215c82600052600260205263ffffffff60056040600020015416151590565b15610d4b5781835260209360028552612177604085206128e0565b916121828382612f09565b61218c8383612f09565b8181136121de579161219f918693612fb4565b928452600382526040808520905163049bebd960e31b8152600481019190915263ffffffff918216602482015292166044830152818060648101611656565b60449160405191631150381b60e11b835260048301526024820152fd5b50346102015761220a3661279b565b92919061222d82600052600260205263ffffffff60056040600020015416151590565b15610d4b5781835260209360028552612248604085206128e0565b916122538382612f09565b61225d8383612f09565b8181136121de579161161b918693612fb4565b5034610201578060031936011261020157612289612ed0565b6000805160206152d3833981519152805460ff8116156122fb5760ff191690557f5db9ee0a495bf2e6ff9c91a7834c1ba4fdd244a5e8aa4e537bd38aeae4b073aa6020604051338152a1337ff5cbf596165cc457b2cd92e8d8450827ee314968160a5696402d75766fc52caf8280a280f35b604051638dfc202b60e01b8152600490fd5b50346102015760403660031901126102015761232761276f565b60015460405163eb02c30160e01b815260048035908201529060a090829060249082906001600160a01b03165afa9283156104125760209364e8d4a50fff92610bab9291612396575b5064e8d4a51000938151906040866001600160801b03898601519316029301519161324b565b6123af915060a03d60a011610f6d57610f5f81836127fa565b38612370565b5034610201578060031936011261020157602060405166038d7ea4c680008152f35b5034610201576123e636612759565b6123ee613175565b6123f66131a0565b60015460405163eb02c30160e01b8152600481018490526001600160a01b0391821693919060a081602481885afa908115610412576000916125ae575b5060405180956331a9108f60e11b825284600483015281602460209889935afa90811561041257600091612591575b5082339116036111805761247681516131d0565b64e8d4a5100090816001600160801b0360608301511602908051908781019364e8d4a50fff6124af85875195604086019687519161324b565b0104968088106125735750906124de9392915192519051908360005260028952600660406000200154936139fd565b6124e88333614440565b60015416803b156104065760008091602460405180948193630852cd8d60e31b83528760048401525af1801561041257612564575b50604051908282527f467bc11eddf702a2091fefc23d3064f17939ba1005bd43304f15604c9b6f2a9b843393a360016000805160206152f383398151915255604051908152f35b61256d906127cb565b8361251d565b604490886040519163f6daf99360e01b835260048301526024820152fd5b6125a89150863d88116111be576111b081836127fa565b86612462565b6125c7915060a03d60a011610f6d57610f5f81836127fa565b85612433565b50346102015760203660031901126102015760206125ec6004356130b2565b604051908152f35b50346102015760803660031901126102015760443560243560043560643561261a612ed0565b61263a82600052600260205263ffffffff60056040600020015416151590565b15610d4b578185526002602052612653604086206128e0565b61265d8185612f09565b6126678186612f09565b84841361273b5761267a86918686612fb4565b848352600360205260408320929173__$e8b8ff73fdf5e99c3df6a4b39aa1f5b319$__90813b15612737576040516330f27d1f60e01b8152600481019590955263ffffffff908116602486015291909116604484015260648301849052829060849082905af4801561272c57612708575b50602060008051602061529383398151915291604051908152a480f35b60008051602061529383398151915291956127246020926127cb565b9591506126eb565b6040513d88823e3d90fd5b8380fd5b6044848660405191631150381b60e11b835260048301526024820152fd5b6040906003190112610406576004359060243590565b602435906001600160801b038216820361040657565b606435906001600160801b038216820361040657565b606090600319011261040657600435906024359060443590565b600435906001600160a01b038216820361040657565b6001600160401b038111610eab57604052565b61018081019081106001600160401b03821117610eab57604052565b90601f801991011681019081106001600160401b03821117610eab57604052565b6001600160401b038111610eab57601f01601f191660200190565b9291926128428261281b565b9161285060405193846127fa565b829481845281830111610406578281602093846000960137010152565b606090600319011261040657600435906024356001600160801b0381168103610406579060443590565b6020808252825181830181905290939260005b8281106128cc57505060409293506000838284010152601f8019910116010190565b8181018601518482016040015285016128aa565b906040516128ed816127de565b61016060ff8294805482811615158552828160081c16151560208601526001600160401b0390818160101c16604087015260501c16606085015260018101546080850152600281015460a0850152600381015460c0850152600481015460e0850152600763ffffffff91826005820154166101008701526006810154610120870152015490811661014085015260201c161515910152565b908160a091031261040657604051906001600160401b039060a0830182811184821017610eab576040528051835260208101516020840152604081015160408401526060810151906001600160801b03821682036104065760809160608501520151908116810361040657608082015290565b9081602091031261040657516001600160a01b03811681036104065790565b90816020910312610406575190565b9190820180921161148a57565b9081600052600260205260406000209060ff825460081c1615612dfb5760078201549160ff8360201c16612df5578115612dc65760015460405163348dbbed60e21b8152600481018690529190600090839060249082906001600160a01b03165afa91821561041257600092612d1f575b508151928363ffffffff86161015612cc357612ac69063ffffffff8616612a26565b91838311612cbb575b60018281015490546001600160a01b0316919063ffffffff87165b858110612b7c5750505050918160609363ffffffff7fcf156953c2640827200d7348c90cddc0fd140a8dd5f3cfd29bf0b2a855c34b189694166007820154938163ffffffff19861617600784015583149384612b5d575b50505063ffffffff6040519316835260208301526040820152a2565b64ffffffffff1916176401000000001760079190910155388080612b41565b8251811015612ca55760208160051b840101519060405163eb02c30160e01b815282600482015260a081602481895afa90811561041257600091612c86575b506040516331a9108f60e11b815260048101849052926020846024818a5afa801561041257600194600091612c67575b5085602084015113159283612c59575b7f1a81eb5d53aa7bec98cadd0a6303be87e540f77ba90e63cd945e49b8eb697b0a916040918515612c5057606001516001600160801b0316945b825195865215156020860152868060a01b031693a301612aea565b50600094612c35565b604081015187129350612bfb565b612c80915060203d6020116111be576111b081836127fa565b38612beb565b612c9f915060a03d60a011610f6d57610f5f81836127fa565b38612bbb565b634e487b7160e01b600052603260045260246000fd5b839250612acf565b50606092507fcf156953c2640827200d7348c90cddc0fd140a8dd5f3cfd29bf0b2a855c34b18939150600764010000000064ff000000001984161791015563ffffffff60405191818116835216602082015260016040820152a2565b9091503d806000833e612d3281836127fa565b6020828281010312610406578151916001600160401b03831161040657818101601f8483010112156104065782810151906001600160401b038211610eab5760405193612d8560208460051b01866127fa565b82855260208086019360051b828401010193820184116104065701602001905b828210612db6575050509038612aa4565b8151815260209182019101612da5565b60405162461bcd60e51b815260206004820152600760248201526606c696d69743d360cc1b6044820152606490fd5b50505050565b60405163b23e5f9f60e01b815260048101849052602490fd5b8181039291600013801582851316918412161761148a57565b8115612e37570790565b634e487b7160e01b600052601260045260246000fd5b600019811461148a5760010190565b6001600160a01b03908116908115612eb7576000805160206152b383398151915280546001600160a01b031981168417909155167f8be0079c531659141344cd1fd0a4f28419497f9722a3daafe3b4186f6b6457e0600080a3565b604051631e4fbdf760e01b815260006004820152602490fd5b6000805160206152b3833981519152546001600160a01b03163303612ef157565b60405163118cdaa760e01b8152336004820152602490fd5b9060a0810180518084128015612f8c575b612f61575060e0612f2f612f3a925185612e14565b920191825190612e2d565b612f42575050565b6044925051604051916382fe647b60e01b835260048301526024820152fd5b60c0830151604051638a228b0d60e01b81526004810186905260248101929092526044820152606490fd5b5060c08301518413612f1a565b8115612e3757600160ff1b811460001983141661148a570590565b9290612ff7612fe691612fef612fd060a0870197885190612e14565b9160e087019263ffffffff958691855190612f99565b16975190612e14565b905190612f99565b600019810190811360011661148a578161010091169301511680841090816130a8575b50156130635781831161302957565b60405162461bcd60e51b8152602060048201526012602482015271496e76616c69642072616e67652062696e7360701b6044820152606490fd5b60405162461bcd60e51b815260206004820152601860248201527f52616e67652062696e73206f7574206f6620626f756e647300000000000000006044820152606490fd5b905082103861301a565b60015460405163eb02c30160e01b8152600481019290925260a090829060249082906001600160a01b03165afa90811561041257600091613156575b508051600052600260205261310660406000206128e0565b60208101511561314f5760806020830151910151809113159081613141575b501561313b57606001516001600160801b031690565b50600090565b905060408201511338613125565b5050600090565b61316f915060a03d60a011610f6d57610f5f81836127fa565b386130ee565b60ff6000805160206152d3833981519152541661318e57565b60405163d93c066560e01b8152600490fd5b6000805160206152f383398151915260028154146131be5760029055565b604051633ee5aeb560e01b8152600490fd5b600052600260205260406000205460ff811615610496576001600160401b0390818160101c1642106104845760501c16421161047257565b60001981019190821161148a57565b906103e891820391821161148a57565b9190820391821161148a57565b8015612e37576000190490565b8115612e37570490565b91610120939161326d613268856000526002602052604060002090565b6128e0565b93613279858484612fb4565b96909501516040516330ed1f5d60e01b815260048101829052670de0b6b3a7640000602482015290959060208160448173__$cbaf8988f3c8d5491808e1d52afb16035a$__5af48015613706576132d8916000916139de575b50613208565b968786116132ef5750506132ec9550614b51565b90565b9092506133439591935073__$e8b8ff73fdf5e99c3df6a4b39aa1f5b319$__6020613324866000526003602052604060002090565b604051809981926304afd7ff60e21b8352600483019190602083019252565b0381845af4938415613706576133ad976000956139b8575b5061337460209495966000526003602052604060002090565b60405163694f552560e01b8152600481019190915263ffffffff9182166024820152921660448301529095869190829081906064820190565b03915af493841561370657600094613997575b5081156135c1576103e86133e5866133e06133db8288612a26565b613208565b613241565b11613976579093926000919082905b8415158061396b575b1561395d5761343e95968786116000146139565787915b6040516316cf339960e21b8152600481018490526024810186905297602090899081906044820190565b038173__$cbaf8988f3c8d5491808e1d52afb16035a$__5af49788156137065761348d98602091600091613939575b50604051809a819263ec6e92cd60e01b8352600483019190602083019252565b038173__$cbaf8988f3c8d5491808e1d52afb16035a$__5af4978815613706576134ea9860209160009161391c575b50604051809a81926316cf339960e21b835260048301919060206040840193670de0b6b3a764000081520152565b038173__$cbaf8988f3c8d5491808e1d52afb16035a$__5af4978815613706576000986138fb575b5061351c88613234565b811161377f575b8015158061376e575b6135c1576040516330ed1f5d60e01b815260048101829052602481019890985260208860448173__$cbaf8988f3c8d5491808e1d52afb16035a$__5af497881561370657600098613745575b508761358761358c9284613227565b612a26565b9081156135c1578181116135d3575b5081156135c1576135b7916135b1919796613227565b93612e4d565b95949592936133f4565b604051635fba374760e11b8152600490fd5b6040516316cf339960e21b8152600481019190915260248101829052909260208260448173__$cbaf8988f3c8d5491808e1d52afb16035a$__5af49182156137065761364492602091600091613728575b506040518094819263360816cf60e01b8352600483019190602083019252565b038173__$cbaf8988f3c8d5491808e1d52afb16035a$__5af49182156137065761369c9260209160009161370b575b506040516330ed1f5d60e01b815260048101889052602481019190915292839081906044820190565b038173__$cbaf8988f3c8d5491808e1d52afb16035a$__5af4908115613706576136ce926000926136d5575b50612a26565b913861359b565b6136f891925060203d6020116136ff575b6136f081836127fa565b810190612a17565b90386136c8565b503d6136e6565b610412565b6137229150823d84116136ff576136f081836127fa565b38613673565b61373f9150823d84116136ff576136f081836127fa565b38613624565b61358798509061376661358c9260203d6020116136ff576136f081836127fa565b985090613578565b5061377881613234565b881161352c565b9650905061379761378f85613217565b8685896149f5565b908582116138f3575b6040516316cf339960e21b8152600481018390526024810185905260208160448173__$cbaf8988f3c8d5491808e1d52afb16035a$__5af49081156137065761380e916020916000916138d6575b506040518093819263ec6e92cd60e01b8352600483019190602083019252565b038173__$cbaf8988f3c8d5491808e1d52afb16035a$__5af49081156137065761386b916020916000916138b9575b50604051809381926316cf339960e21b835260048301919060206040840193670de0b6b3a764000081520152565b038173__$cbaf8988f3c8d5491808e1d52afb16035a$__5af49081156137065760009161389a575b5096613523565b6138b3915060203d6020116136ff576136f081836127fa565b38613893565b6138d09150823d84116136ff576136f081836127fa565b3861383d565b6138ed9150823d84116136ff576136f081836127fa565b386137ee565b8591506137a0565b61391591985060203d6020116136ff576136f081836127fa565b9638613512565b6139339150823d84116136ff576136f081836127fa565b386134bc565b6139509150823d84116136ff576136f081836127fa565b3861346d565b8591613414565b509450505090506135c15790565b506103e884106133fd565b604051633b59e48960e11b81526001600160801b0384166004820152602490fd5b6139b191945060203d6020116136ff576136f081836127fa565b92386133c0565b60209495506139d661337491863d88116136ff576136f081836127fa565b95945061335b565b6139f7915060203d6020116136ff576136f081836127fa565b386132d2565b9193929092826000526002602052613a22613a1b60406000206128e0565b8686612fb4565b90916040516330ed1f5d60e01b8152816004820152670de0b6b3a7640000602482015260208160448173__$cbaf8988f3c8d5491808e1d52afb16035a$__5af490811561041257600091613fe3575b508060001981011161148a5760001981018511613ccd5750604051906316cf339960e21b948583526004830152602482015260208160448173__$cbaf8988f3c8d5491808e1d52afb16035a$__5af490811561041257600091613c9b575b506040519063ec6e92cd60e01b8252600482015260208160248173__$cbaf8988f3c8d5491808e1d52afb16035a$__5af490811561041257600091613c69575b50604051938452670de0b6b3a76400006004850152602484015260208360448173__$cbaf8988f3c8d5491808e1d52afb16035a$__5af492831561041257600093613c35575b50662386f26fc1000083108015613c23575b613c115773__$e8b8ff73fdf5e99c3df6a4b39aa1f5b319$__90846000526003602052604060002091803b15610406576040516330f27d1f60e01b8152600481019390935263ffffffff93841660248401529216604482015260648101839052919060009083908180608481015b03915af49081156104125760008051602061529383398151915292602092613c02575b50604051908152a4565b613c0b906127cb565b38613bf8565b60405163a2f9e7b560e01b8152600490fd5b5068056bc75e2d631000008311613b67565b9092506020813d602011613c61575b81613c51602093836127fa565b8101031261040657519138613b55565b3d9150613c44565b90506020813d602011613c93575b81613c84602093836127fa565b81010312610406575138613b0f565b3d9150613c77565b90506020813d602011613cc5575b81613cb6602093836127fa565b81010312610406575138613acf565b3d9150613ca9565b93613ce46000999894969297939919860182612a26565b8060001981011161148a576103e890613d04906000198881019101613241565b11613fc157936000945b80151580613fb6575b15613f94576000198201811115613f8e5760001982015b604051906316cf339960e21b825280600483015289602483015260208260448173__$cbaf8988f3c8d5491808e1d52afb16035a$__5af491821561041257600092613f5a575b506040519163ec6e92cd60e01b8352600483015260208260248173__$cbaf8988f3c8d5491808e1d52afb16035a$__5af491821561041257600092613f26575b50604051916316cf339960e21b8352670de0b6b3a76400006004840152602483015260208260448173__$cbaf8988f3c8d5491808e1d52afb16035a$__5af491821561041257600092613ef2575b50662386f26fc1000082108015613ee0575b613c115784600052600360205260406000209273__$e8b8ff73fdf5e99c3df6a4b39aa1f5b319$__3b15610406576040516330f27d1f60e01b8152600481019490945263ffffffff8a811660248601528d1660448501526064840183905260008460848173__$e8b8ff73fdf5e99c3df6a4b39aa1f5b319$__5af49384156104125787876000805160206152938339815191526020613ec5978d95613ecb9a613ed1575b50604051908152a4613227565b95612e4d565b94613d0e565b613eda906127cb565b38613eb8565b5068056bc75e2d631000008211613e14565b9091506020813d602011613f1e575b81613f0e602093836127fa565b8101031261040657519038613e02565b3d9150613f01565b9091506020813d602011613f52575b81613f42602093836127fa565b8101031261040657519038613db4565b3d9150613f35565b9091506020813d602011613f86575b81613f76602093836127fa565b8101031261040657519038613d74565b3d9150613f69565b80613d2e565b97985050505050505050613fa457565b6040516332581cb160e01b8152600490fd5b506103e88610613d17565b604051633b59e48960e11b81526001600160801b039091166004820152602490fd5b90506020813d60201161400d575b81613ffe602093836127fa565b81010312610406575138613a71565b3d9150613ff1565b9193929092826000526002602052614033613a1b60406000206128e0565b90916040516330ed1f5d60e01b8152816004820152670de0b6b3a7640000602482015260208160448173__$cbaf8988f3c8d5491808e1d52afb16035a$__5af49081156104125760009161440e575b508060001981011161148a57600019810185116141d45750604051936316cf339960e21b85526004850152602484015260208360448173__$cbaf8988f3c8d5491808e1d52afb16035a$__5af4928315610412576000936141a0575b506040519263ec6e92cd60e01b8452600484015260208360248173__$cbaf8988f3c8d5491808e1d52afb16035a$__5af492831561041257600093613c355750662386f26fc1000083108015613c2357613c115773__$e8b8ff73fdf5e99c3df6a4b39aa1f5b319$__90846000526003602052604060002091803b15610406576040516330f27d1f60e01b8152600481019390935263ffffffff9384166024840152921660448201526064810183905291906000908390818060848101613bd5565b9092506020813d6020116141cc575b816141bc602093836127fa565b81010312610406575191386140de565b3d91506141af565b936141eb6000999894969297939919860182612a26565b8060001981011161148a576103e89061420b906000198881019101613241565b11613fc157936000945b80151580614403575b15613f945760001982018111156143fd5760001982015b604051906316cf339960e21b825280600483015289602483015260208260448173__$cbaf8988f3c8d5491808e1d52afb16035a$__5af4918215610412576000926143c9575b506040519163ec6e92cd60e01b8352600483015260208260248173__$cbaf8988f3c8d5491808e1d52afb16035a$__5af491821561041257600092614395575b50662386f26fc1000082108015614383575b613c115784600052600360205260406000209273__$e8b8ff73fdf5e99c3df6a4b39aa1f5b319$__3b15610406576040516330f27d1f60e01b8152600481019490945263ffffffff8a811660248601528d1660448501526064840183905260008460848173__$e8b8ff73fdf5e99c3df6a4b39aa1f5b319$__5af49384156104125787876000805160206152938339815191526020613ec5978d9561437d9a613ed15750604051908152a4613227565b94614215565b5068056bc75e2d6310000082116142cd565b9091506020813d6020116143c1575b816143b1602093836127fa565b81010312610406575190386142bb565b3d91506143a4565b9091506020813d6020116143f5575b816143e5602093836127fa565b810103126104065751903861427b565b3d91506143d8565b80614235565b506103e8861061421e565b90506020813d602011614438575b81614429602093836127fa565b81010312610406575138614082565b3d915061441c565b81614449575050565b60005460405163a9059cbb60e01b60208201526001600160a01b039283166024820152604480820194909452928352608083019291166001600160401b03831182841017610eab5761449d926040526151d3565b565b9161012093916144bc613268856000526002602052604060002090565b936144c8858484612fb4565b96909501516040516330ed1f5d60e01b815260048101829052670de0b6b3a7640000602482015290959060208160448173__$cbaf8988f3c8d5491808e1d52afb16035a$__5af4801561370657614526916000916139de5750613208565b9687861161453a5750506132ec9550614f9c565b90925061456f9591935073__$e8b8ff73fdf5e99c3df6a4b39aa1f5b319$__6020613324866000526003602052604060002090565b0381845af49384156137065761459f976000956139b8575061337460209495966000526003602052604060002090565b03915af493841561370657600094614971575b5081156135c1576103e86145cd866133e06133db8288612a26565b11613976579093926000919082905b84151580614966575b1561395d5761462595968786116000146139565787916040516316cf339960e21b8152600481018490526024810186905297602090899081906044820190565b038173__$cbaf8988f3c8d5491808e1d52afb16035a$__5af497881561370657614673986020916000916139395750604051809a819263ec6e92cd60e01b8352600483019190602083019252565b038173__$cbaf8988f3c8d5491808e1d52afb16035a$__5af497881561370657600098614945575b506146a588613234565b8111614869575b80151580614858575b6135c1576040516330ed1f5d60e01b815260048101829052602481019890985260208860448173__$cbaf8988f3c8d5491808e1d52afb16035a$__5af49788156137065760009861482f575b50876135876147109284613227565b92818411156135c1576040516316cf339960e21b815260048101859052602481019290925260208260448173__$cbaf8988f3c8d5491808e1d52afb16035a$__5af4918215613706576147879260209160009161372857506040518094819263360816cf60e01b8352600483019190602083019252565b038173__$cbaf8988f3c8d5491808e1d52afb16035a$__5af4918215613706576147de9260209160009161370b57506040516330ed1f5d60e01b815260048101889052602481019190915292839081906044820190565b038173__$cbaf8988f3c8d5491808e1d52afb16035a$__5af49081156137065761480f926000926136d55750612a26565b9181156135c157614825916135b1919796613227565b95949592936145dc565b6135879850906148506147109260203d6020116136ff576136f081836127fa565b985090614701565b5061486281613234565b88116146b5565b9650905061487961378f85613217565b9085821161493d575b6040516316cf339960e21b8152600481018390526024810185905260208160448173__$cbaf8988f3c8d5491808e1d52afb16035a$__5af4908115613706576148ef916020916000916138d657506040518093819263ec6e92cd60e01b8352600483019190602083019252565b038173__$cbaf8988f3c8d5491808e1d52afb16035a$__5af49081156137065760009161491e575b50966146ac565b614937915060203d6020116136ff576136f081836127fa565b38614917565b859150614882565b61495f91985060203d6020116136ff576136f081836127fa565b963861469b565b506103e884106145e5565b61498b91945060203d6020116136ff576136f081836127fa565b92386145b2565b8161499b575050565b6000546040516323b872dd60e01b60208201526001600160a01b03928316602482015230604482015260648082019490945292835260a083019291166001600160401b03831182841017610eab5761449d926040526151d3565b909193928015614b4c57614a098186612a26565b60001981019190821161148a57614a1f91613241565b918215614b43575b6040516330ed1f5d60e01b80825260048201839052670de0b6b3a764000060248301529260209173__$cbaf8988f3c8d5491808e1d52afb16035a$__908381604481855af48015610412578491600091614b14575b509560446040518094819382528860048301526802b5e3af16b188000060248301525af492831561041257600093614ae4575b505011614ad9575b5080821015614ad15750915b808311614acd5750565b9150565b905091614ac3565b600a91500438614ab7565b9080929350813d8311614b0d575b614afc81836127fa565b810103126104065751903880614aaf565b503d614af2565b82819392503d8311614b3c575b614b2b81836127fa565b810103126104065783905138614a7c565b503d614b21565b60019250614a27565b505050565b9293909173__$e8b8ff73fdf5e99c3df6a4b39aa1f5b319$__614b7e856000526003602052604060002090565b906040958651956304afd7ff60e21b8752602098898880614ba86004988983019190602083019252565b0381875af497881561370657600098614f3c575b5073__$cbaf8988f3c8d5491808e1d52afb16035a$__958951926316cf339960e21b948585528c8580614bff8d888d840160209093929193604081019481520152565b03818c5af494851561370657614c37958e91600091614f1f575b508d518097819263ec6e92cd60e01b83528c83019190602083019252565b03818c5af494851561370657614c76958e91600091614f02575b508d51809781928a83528c8301919060206040840193670de0b6b3a764000081520152565b03818c5af494851561370657600095614ee3575b508c8c614ca7613a1b613268856000526002602052604060002090565b9990918b614cf8614cc2876000526003602052604060002090565b925163694f552560e01b815291820192835263ffffffff948516602084015293909b1660408201528a9283918291606090910190565b03915af496871561370657600097614ec4575b50614d1585613234565b8711614eae5750505050614d569089614d2e858a613227565b918a51809481926330ed1f5d60e01b988984528a840160209093929193604081019481520152565b0381895af490811561370657614d7392600092614e965750612a26565b958615614e865786811115614e785787519182528382019081526020810196909652948790869081906040015b0381865af494851561370657614dd8958891600091614e5b575b5087518097819263360816cf60e01b83528683019190602083019252565b0381865af4958615613706578795600097614e38575b505190815290810192835260208301949094528391829081906040015b03915af491821561370657600092614e2257505090565b6132ec9250803d106136ff576136f081836127fa565b614e0b919750614e5490873d89116136ff576136f081836127fa565b9690614dee565b614e729150823d84116136ff576136f081836127fa565b38614dba565b505050505050505050600090565b8751635fba374760e11b81528490fd5b6136f89192508b3d8d116136ff576136f081836127fa565b9750975097509750505050506132ec945061324b565b614edc9197508d803d106136ff576136f081836127fa565b9538614d0b565b614efb9195508d803d106136ff576136f081836127fa565b9338614c8a565b614f199150823d84116136ff576136f081836127fa565b38614c51565b614f369150823d84116136ff576136f081836127fa565b38614c19565b614f549198508a3d8c116136ff576136f081836127fa565b9638614bbc565b60ff7ff0c57e16840df040f15088dc2f81fe391c3923bec73e23a9662efc9c229c6a005460401c1615614f8a57565b604051631afcd79f60e31b8152600490fd5b9293909173__$e8b8ff73fdf5e99c3df6a4b39aa1f5b319$__614fc9856000526003602052604060002090565b906040958651956304afd7ff60e21b8752602098898880614ff36004988983019190602083019252565b0381875af4978815613706576000986151b4575b5073__$cbaf8988f3c8d5491808e1d52afb16035a$__958951926316cf339960e21b948585528c858061504a8d888d840160209093929193604081019481520152565b03818c5af494851561370657615081958e91600091614f1f57508d518097819263ec6e92cd60e01b83528c83019190602083019252565b03818c5af494851561370657600095615195575b508c8c6150b2613a1b613268856000526002602052604060002090565b9990918b6150cd614cc2876000526003602052604060002090565b03915af496871561370657600097615176575b508a15615166576150f085613234565b871161515057505050506151099089614d2e858a613227565b0381895af49081156137065761512692600092614e965750612a26565b86811115614e78578751918252838201908152602081019690965294879086908190604001614da0565b9750975097509750505050506132ec945061449f565b8b51635fba374760e11b81528890fd5b61518e9197508d803d106136ff576136f081836127fa565b95386150e0565b6151ad9195508d803d106136ff576136f081836127fa565b9338615095565b6151cc9198508a3d8c116136ff576136f081836127fa565b9638615007565b906000602091828151910182855af115610412576000513d61522657506001600160a01b0381163b155b6152045750565b604051635274afe760e01b81526001600160a01b039091166004820152602490fd5b600114156151fd565b90615256575080511561524457805190602001fd5b60405163d6bda27560e01b8152600490fd5b81511580615289575b615267575090565b604051639996b31560e01b81526001600160a01b039091166004820152602490fd5b50803b1561525f56fe221f633c06e4399f005a7cec7ba7c4ff189e3fe19092cbafe32a5f176ffc797f9016d09d72d40fdae2fd8ceac6b6234c7706214fd39c1cd1e609a0528c199300cd5ed15c6e187e77e9aee88184c21f4f2182ab5827cb3b7e07fbedcd63f033009b779b17422d0df92223018b32b4d1fa46e071723d6817e2486d003becc55f00a26469706673582212205e6a957826462b7b171021f9e72bd3946e0288c7792e98435a972503bb4e4e9d64736f6c63430008180033",
  "linkReferences": {
    "contracts/libraries/FixedPointMath.sol": {
      "FixedPointMathU": [
        {
          "length": 20,
          "start": 13019
        },
        {
          "length": 20,
          "start": 13426
        },
        {
          "length": 20,
          "start": 13505
        },
        {
          "length": 20,
          "start": 13598
        },
        {
          "length": 20,
          "start": 13700
        },
        {
          "length": 20,
          "start": 13865
        },
        {
          "length": 20,
          "start": 13944
        },
        {
          "length": 20,
          "start": 14032
        },
        {
          "length": 20,
          "start": 14323
        },
        {
          "length": 20,
          "start": 14402
        },
        {
          "length": 20,
          "start": 14495
        },
        {
          "length": 20,
          "start": 14973
        },
        {
          "length": 20,
          "start": 15067
        },
        {
          "length": 20,
          "start": 15131
        },
        {
          "length": 20,
          "start": 15201
        },
        {
          "length": 20,
          "start": 15744
        },
        {
          "length": 20,
          "start": 15808
        },
        {
          "length": 20,
          "start": 15886
        },
        {
          "length": 20,
          "start": 16526
        },
        {
          "length": 20,
          "start": 16618
        },
        {
          "length": 20,
          "start": 16682
        },
        {
          "length": 20,
          "start": 17031
        },
        {
          "length": 20,
          "start": 17095
        },
        {
          "length": 20,
          "start": 17706
        },
        {
          "length": 20,
          "start": 18009
        },
        {
          "length": 20,
          "start": 18087
        },
        {
          "length": 20,
          "start": 18189
        },
        {
          "length": 20,
          "start": 18285
        },
        {
          "length": 20,
          "start": 18363
        },
        {
          "length": 20,
          "start": 18450
        },
        {
          "length": 20,
          "start": 18645
        },
        {
          "length": 20,
          "start": 18723
        },
        {
          "length": 20,
          "start": 19072
        },
        {
          "length": 20,
          "start": 19439
        },
        {
          "length": 20,
          "start": 20538
        }
      ]
    },
    "contracts/libraries/LazyMulSegmentTree.sol": {
      "LazyMulSegmentTree": [
        {
          "length": 20,
          "start": 2319
        },
        {
          "length": 20,
          "start": 2382
        },
        {
          "length": 20,
          "start": 5770
        },
        {
          "length": 20,
          "start": 9914
        },
        {
          "length": 20,
          "start": 13099
        },
        {
          "length": 20,
          "start": 15261
        },
        {
          "length": 20,
          "start": 15961
        },
        {
          "length": 20,
          "start": 16042
        },
        {
          "length": 20,
          "start": 16740
        },
        {
          "length": 20,
          "start": 17170
        },
        {
          "length": 20,
          "start": 17251
        },
        {
          "length": 20,
          "start": 17782
        },
        {
          "length": 20,
          "start": 19335
        },
        {
          "length": 20,
          "start": 20434
        }
      ]
    }
  },
  "deployedLinkReferences": {
    "contracts/libraries/FixedPointMath.sol": {
      "FixedPointMathU": [
        {
          "length": 20,
          "start": 12971
        },
        {
          "length": 20,
          "start": 13378
        },
        {
          "length": 20,
          "start": 13457
        },
        {
          "length": 20,
          "start": 13550
        },
        {
          "length": 20,
          "start": 13652
        },
        {
          "length": 20,
          "start": 13817
        },
        {
          "length": 20,
          "start": 13896
        },
        {
          "length": 20,
          "start": 13984
        },
        {
          "length": 20,
          "start": 14275
        },
        {
          "length": 20,
          "start": 14354
        },
        {
          "length": 20,
          "start": 14447
        },
        {
          "length": 20,
          "start": 14925
        },
        {
          "length": 20,
          "start": 15019
        },
        {
          "length": 20,
          "start": 15083
        },
        {
          "length": 20,
          "start": 15153
        },
        {
          "length": 20,
          "start": 15696
        },
        {
          "length": 20,
          "start": 15760
        },
        {
          "length": 20,
          "start": 15838
        },
        {
          "length": 20,
          "start": 16478
        },
        {
          "length": 20,
          "start": 16570
        },
        {
          "length": 20,
          "start": 16634
        },
        {
          "length": 20,
          "start": 16983
        },
        {
          "length": 20,
          "start": 17047
        },
        {
          "length": 20,
          "start": 17658
        },
        {
          "length": 20,
          "start": 17961
        },
        {
          "length": 20,
          "start": 18039
        },
        {
          "length": 20,
          "start": 18141
        },
        {
          "length": 20,
          "start": 18237
        },
        {
          "length": 20,
          "start": 18315
        },
        {
          "length": 20,
          "start": 18402
        },
        {
          "length": 20,
          "start": 18597
        },
        {
          "length": 20,
          "start": 18675
        },
        {
          "length": 20,
          "start": 19024
        },
        {
          "length": 20,
          "start": 19391
        },
        {
          "length": 20,
          "start": 20490
        }
      ]
    },
    "contracts/libraries/LazyMulSegmentTree.sol": {
      "LazyMulSegmentTree": [
        {
          "length": 20,
          "start": 2271
        },
        {
          "length": 20,
          "start": 2334
        },
        {
          "length": 20,
          "start": 5722
        },
        {
          "length": 20,
          "start": 9866
        },
        {
          "length": 20,
          "start": 13051
        },
        {
          "length": 20,
          "start": 15213
        },
        {
          "length": 20,
          "start": 15913
        },
        {
          "length": 20,
          "start": 15994
        },
        {
          "length": 20,
          "start": 16692
        },
        {
          "length": 20,
          "start": 17122
        },
        {
          "length": 20,
          "start": 17203
        },
        {
          "length": 20,
          "start": 17734
        },
        {
          "length": 20,
          "start": 19287
        },
        {
          "length": 20,
          "start": 20386
        }
      ]
    }
  }
}