{
  "_format": "hh-sol-artifact-1",
  "contractName": "CLMSRMarketCore",
  "sourceName": "contracts/core/CLMSRMarketCore.sol",
  "abi": [
    {
      "inputs": [
        {
          "internalType": "address",
          "name": "target",
          "type": "address"
        }
      ],
      "name": "AddressEmptyCode",
      "type": "error"
    },
    {
      "inputs": [],
      "name": "AffectedSumZero",
      "type": "error"
    },
    {
      "inputs": [
        {
          "internalType": "uint32",
          "name": "requested",
          "type": "uint32"
        },
        {
          "internalType": "uint32",
          "name": "maxAllowed",
          "type": "uint32"
        }
      ],
      "name": "BinCountExceedsLimit",
      "type": "error"
    },
    {
      "inputs": [
        {
          "internalType": "uint256",
          "name": "required",
          "type": "uint256"
        },
        {
          "internalType": "uint256",
          "name": "maxAllowed",
          "type": "uint256"
        }
      ],
      "name": "ChunkLimitExceeded",
      "type": "error"
    },
    {
      "inputs": [
        {
          "internalType": "uint256",
          "name": "cost",
          "type": "uint256"
        },
        {
          "internalType": "uint256",
          "name": "maxAllowed",
          "type": "uint256"
        }
      ],
      "name": "CostExceedsMaximum",
      "type": "error"
    },
    {
      "inputs": [
        {
          "internalType": "address",
          "name": "implementation",
          "type": "address"
        }
      ],
      "name": "ERC1967InvalidImplementation",
      "type": "error"
    },
    {
      "inputs": [],
      "name": "ERC1967NonPayable",
      "type": "error"
    },
    {
      "inputs": [],
      "name": "EnforcedPause",
      "type": "error"
    },
    {
      "inputs": [],
      "name": "ExpectedPause",
      "type": "error"
    },
    {
      "inputs": [],
      "name": "FactorOutOfBounds",
      "type": "error"
    },
    {
      "inputs": [],
      "name": "FailedCall",
      "type": "error"
    },
    {
      "inputs": [],
      "name": "IncompleteChunkProcessing",
      "type": "error"
    },
    {
      "inputs": [
        {
          "internalType": "address",
          "name": "account",
          "type": "address"
        },
        {
          "internalType": "uint256",
          "name": "required",
          "type": "uint256"
        },
        {
          "internalType": "uint256",
          "name": "available",
          "type": "uint256"
        }
      ],
      "name": "InsufficientBalance",
      "type": "error"
    },
    {
      "inputs": [
        {
          "internalType": "uint128",
          "name": "want",
          "type": "uint128"
        },
        {
          "internalType": "uint128",
          "name": "have",
          "type": "uint128"
        }
      ],
      "name": "InsufficientPositionQuantity",
      "type": "error"
    },
    {
      "inputs": [],
      "name": "InvalidInitialization",
      "type": "error"
    },
    {
      "inputs": [],
      "name": "InvalidLiquidityParameter",
      "type": "error"
    },
    {
      "inputs": [
        {
          "internalType": "int256",
          "name": "minTick",
          "type": "int256"
        },
        {
          "internalType": "int256",
          "name": "maxTick",
          "type": "int256"
        },
        {
          "internalType": "int256",
          "name": "tickSpacing",
          "type": "int256"
        }
      ],
      "name": "InvalidMarketParameters",
      "type": "error"
    },
    {
      "inputs": [
        {
          "internalType": "uint128",
          "name": "qty",
          "type": "uint128"
        }
      ],
      "name": "InvalidQuantity",
      "type": "error"
    },
    {
      "inputs": [
        {
          "internalType": "uint32",
          "name": "lowerBin",
          "type": "uint32"
        },
        {
          "internalType": "uint32",
          "name": "upperBin",
          "type": "uint32"
        }
      ],
      "name": "InvalidRangeBins",
      "type": "error"
    },
    {
      "inputs": [
        {
          "internalType": "int256",
          "name": "ranges",
          "type": "int256"
        },
        {
          "internalType": "uint256",
          "name": "maxAllowed",
          "type": "uint256"
        }
      ],
      "name": "InvalidRangeCount",
      "type": "error"
    },
    {
      "inputs": [
        {
          "internalType": "int256",
          "name": "tick",
          "type": "int256"
        },
        {
          "internalType": "int256",
          "name": "minTick",
          "type": "int256"
        },
        {
          "internalType": "int256",
          "name": "maxTick",
          "type": "int256"
        }
      ],
      "name": "InvalidTick",
      "type": "error"
    },
    {
      "inputs": [
        {
          "internalType": "int256",
          "name": "lowerTick",
          "type": "int256"
        },
        {
          "internalType": "int256",
          "name": "upperTick",
          "type": "int256"
        }
      ],
      "name": "InvalidTickRange",
      "type": "error"
    },
    {
      "inputs": [
        {
          "internalType": "int256",
          "name": "tick",
          "type": "int256"
        },
        {
          "internalType": "int256",
          "name": "tickSpacing",
          "type": "int256"
        }
      ],
      "name": "InvalidTickSpacing",
      "type": "error"
    },
    {
      "inputs": [],
      "name": "InvalidTimeRange",
      "type": "error"
    },
    {
      "inputs": [
        {
          "internalType": "uint256",
          "name": "marketId",
          "type": "uint256"
        }
      ],
      "name": "MarketAlreadyExists",
      "type": "error"
    },
    {
      "inputs": [
        {
          "internalType": "uint256",
          "name": "marketId",
          "type": "uint256"
        }
      ],
      "name": "MarketAlreadySettled",
      "type": "error"
    },
    {
      "inputs": [],
      "name": "MarketExpired",
      "type": "error"
    },
    {
      "inputs": [],
      "name": "MarketNotActive",
      "type": "error"
    },
    {
      "inputs": [
        {
          "internalType": "uint256",
          "name": "marketId",
          "type": "uint256"
        }
      ],
      "name": "MarketNotFound",
      "type": "error"
    },
    {
      "inputs": [
        {
          "internalType": "uint256",
          "name": "marketId",
          "type": "uint256"
        }
      ],
      "name": "MarketNotSettled",
      "type": "error"
    },
    {
      "inputs": [],
      "name": "MarketNotStarted",
      "type": "error"
    },
    {
      "inputs": [],
      "name": "MathMulOverflow",
      "type": "error"
    },
    {
      "inputs": [],
      "name": "NoChunkProgress",
      "type": "error"
    },
    {
      "inputs": [
        {
          "internalType": "uint256",
          "name": "beforeSum",
          "type": "uint256"
        },
        {
          "internalType": "uint256",
          "name": "afterSum",
          "type": "uint256"
        }
      ],
      "name": "NonIncreasingSum",
      "type": "error"
    },
    {
      "inputs": [],
      "name": "NotInitializing",
      "type": "error"
    },
    {
      "inputs": [
        {
          "internalType": "address",
          "name": "owner",
          "type": "address"
        }
      ],
      "name": "OwnableInvalidOwner",
      "type": "error"
    },
    {
      "inputs": [
        {
          "internalType": "address",
          "name": "account",
          "type": "address"
        }
      ],
      "name": "OwnableUnauthorizedAccount",
      "type": "error"
    },
    {
      "inputs": [
        {
          "internalType": "uint256",
          "name": "proceeds",
          "type": "uint256"
        },
        {
          "internalType": "uint256",
          "name": "minProceeds",
          "type": "uint256"
        }
      ],
      "name": "ProceedsBelowMinimum",
      "type": "error"
    },
    {
      "inputs": [],
      "name": "QuantityOverflow",
      "type": "error"
    },
    {
      "inputs": [
        {
          "internalType": "uint32",
          "name": "lowerBin",
          "type": "uint32"
        },
        {
          "internalType": "uint32",
          "name": "upperBin",
          "type": "uint32"
        },
        {
          "internalType": "uint32",
          "name": "numBins",
          "type": "uint32"
        }
      ],
      "name": "RangeBinsOutOfBounds",
      "type": "error"
    },
    {
      "inputs": [],
      "name": "ReentrancyGuardReentrantCall",
      "type": "error"
    },
    {
      "inputs": [
        {
          "internalType": "uint256",
          "name": "remaining",
          "type": "uint256"
        }
      ],
      "name": "ResidualQuantity",
      "type": "error"
    },
    {
      "inputs": [
        {
          "internalType": "address",
          "name": "token",
          "type": "address"
        }
      ],
      "name": "SafeERC20FailedOperation",
      "type": "error"
    },
    {
      "inputs": [
        {
          "internalType": "uint64",
          "name": "requiredTimestamp",
          "type": "uint64"
        },
        {
          "internalType": "uint64",
          "name": "currentTimestamp",
          "type": "uint64"
        }
      ],
      "name": "SettlementTooEarly",
      "type": "error"
    },
    {
      "inputs": [],
      "name": "SumAfterZero",
      "type": "error"
    },
    {
      "inputs": [],
      "name": "TreeNotInitialized",
      "type": "error"
    },
    {
      "inputs": [],
      "name": "UUPSUnauthorizedCallContext",
      "type": "error"
    },
    {
      "inputs": [
        {
          "internalType": "bytes32",
          "name": "slot",
          "type": "bytes32"
        }
      ],
      "name": "UUPSUnsupportedProxiableUUID",
      "type": "error"
    },
    {
      "inputs": [
        {
          "internalType": "address",
          "name": "caller",
          "type": "address"
        }
      ],
      "name": "UnauthorizedCaller",
      "type": "error"
    },
    {
      "inputs": [],
      "name": "ZeroAddress",
      "type": "error"
    },
    {
      "inputs": [],
      "name": "ZeroLimit",
      "type": "error"
    },
    {
      "anonymous": false,
      "inputs": [
        {
          "indexed": false,
          "internalType": "uint256",
          "name": "step",
          "type": "uint256"
        },
        {
          "indexed": false,
          "internalType": "uint256",
          "name": "value1",
          "type": "uint256"
        },
        {
          "indexed": false,
          "internalType": "uint256",
          "name": "value2",
          "type": "uint256"
        },
        {
          "indexed": false,
          "internalType": "string",
          "name": "message",
          "type": "string"
        }
      ],
      "name": "DebugSellProceeds",
      "type": "event"
    },
    {
      "anonymous": false,
      "inputs": [
        {
          "indexed": true,
          "internalType": "address",
          "name": "by",
          "type": "address"
        },
        {
          "indexed": false,
          "internalType": "string",
          "name": "reason",
          "type": "string"
        }
      ],
      "name": "EmergencyPaused",
      "type": "event"
    },
    {
      "anonymous": false,
      "inputs": [
        {
          "indexed": true,
          "internalType": "address",
          "name": "by",
          "type": "address"
        }
      ],
      "name": "EmergencyUnpaused",
      "type": "event"
    },
    {
      "anonymous": false,
      "inputs": [
        {
          "indexed": false,
          "internalType": "uint64",
          "name": "version",
          "type": "uint64"
        }
      ],
      "name": "Initialized",
      "type": "event"
    },
    {
      "anonymous": false,
      "inputs": [
        {
          "indexed": true,
          "internalType": "uint256",
          "name": "marketId",
          "type": "uint256"
        },
        {
          "indexed": false,
          "internalType": "uint64",
          "name": "startTimestamp",
          "type": "uint64"
        },
        {
          "indexed": false,
          "internalType": "uint64",
          "name": "endTimestamp",
          "type": "uint64"
        },
        {
          "indexed": false,
          "internalType": "int256",
          "name": "minTick",
          "type": "int256"
        },
        {
          "indexed": false,
          "internalType": "int256",
          "name": "maxTick",
          "type": "int256"
        },
        {
          "indexed": false,
          "internalType": "int256",
          "name": "tickSpacing",
          "type": "int256"
        },
        {
          "indexed": false,
          "internalType": "uint32",
          "name": "numBins",
          "type": "uint32"
        },
        {
          "indexed": false,
          "internalType": "uint256",
          "name": "liquidityParameter",
          "type": "uint256"
        }
      ],
      "name": "MarketCreated",
      "type": "event"
    },
    {
      "anonymous": false,
      "inputs": [
        {
          "indexed": true,
          "internalType": "uint256",
          "name": "marketId",
          "type": "uint256"
        }
      ],
      "name": "MarketReopened",
      "type": "event"
    },
    {
      "anonymous": false,
      "inputs": [
        {
          "indexed": true,
          "internalType": "uint256",
          "name": "marketId",
          "type": "uint256"
        },
        {
          "indexed": false,
          "internalType": "int256",
          "name": "settlementTick",
          "type": "int256"
        }
      ],
      "name": "MarketSettled",
      "type": "event"
    },
    {
      "anonymous": false,
      "inputs": [
        {
          "indexed": true,
          "internalType": "uint256",
          "name": "marketId",
          "type": "uint256"
        },
        {
          "indexed": false,
          "internalType": "int256",
          "name": "settlementValue",
          "type": "int256"
        }
      ],
      "name": "MarketSettlementValueSubmitted",
      "type": "event"
    },
    {
      "anonymous": false,
      "inputs": [
        {
          "indexed": true,
          "internalType": "uint256",
          "name": "marketId",
          "type": "uint256"
        },
        {
          "indexed": false,
          "internalType": "uint64",
          "name": "newStartTimestamp",
          "type": "uint64"
        },
        {
          "indexed": false,
          "internalType": "uint64",
          "name": "newEndTimestamp",
          "type": "uint64"
        }
      ],
      "name": "MarketTimingUpdated",
      "type": "event"
    },
    {
      "anonymous": false,
      "inputs": [
        {
          "indexed": true,
          "internalType": "address",
          "name": "previousOwner",
          "type": "address"
        },
        {
          "indexed": true,
          "internalType": "address",
          "name": "newOwner",
          "type": "address"
        }
      ],
      "name": "OwnershipTransferred",
      "type": "event"
    },
    {
      "anonymous": false,
      "inputs": [
        {
          "indexed": false,
          "internalType": "address",
          "name": "account",
          "type": "address"
        }
      ],
      "name": "Paused",
      "type": "event"
    },
    {
      "anonymous": false,
      "inputs": [
        {
          "indexed": true,
          "internalType": "uint256",
          "name": "positionId",
          "type": "uint256"
        },
        {
          "indexed": true,
          "internalType": "address",
          "name": "trader",
          "type": "address"
        },
        {
          "indexed": false,
          "internalType": "uint256",
          "name": "payout",
          "type": "uint256"
        }
      ],
      "name": "PositionClaimed",
      "type": "event"
    },
    {
      "anonymous": false,
      "inputs": [
        {
          "indexed": true,
          "internalType": "uint256",
          "name": "positionId",
          "type": "uint256"
        },
        {
          "indexed": true,
          "internalType": "address",
          "name": "trader",
          "type": "address"
        },
        {
          "indexed": false,
          "internalType": "uint256",
          "name": "proceeds",
          "type": "uint256"
        }
      ],
      "name": "PositionClosed",
      "type": "event"
    },
    {
      "anonymous": false,
      "inputs": [
        {
          "indexed": true,
          "internalType": "uint256",
          "name": "positionId",
          "type": "uint256"
        },
        {
          "indexed": true,
          "internalType": "address",
          "name": "trader",
          "type": "address"
        },
        {
          "indexed": false,
          "internalType": "uint128",
          "name": "sellQuantity",
          "type": "uint128"
        },
        {
          "indexed": false,
          "internalType": "uint128",
          "name": "newQuantity",
          "type": "uint128"
        },
        {
          "indexed": false,
          "internalType": "uint256",
          "name": "proceeds",
          "type": "uint256"
        }
      ],
      "name": "PositionDecreased",
      "type": "event"
    },
    {
      "anonymous": false,
      "inputs": [
        {
          "indexed": true,
          "internalType": "uint256",
          "name": "marketId",
          "type": "uint256"
        },
        {
          "indexed": false,
          "internalType": "uint256",
          "name": "from",
          "type": "uint256"
        },
        {
          "indexed": false,
          "internalType": "uint256",
          "name": "to",
          "type": "uint256"
        },
        {
          "indexed": false,
          "internalType": "bool",
          "name": "done",
          "type": "bool"
        }
      ],
      "name": "PositionEventsProgress",
      "type": "event"
    },
    {
      "anonymous": false,
      "inputs": [
        {
          "indexed": true,
          "internalType": "uint256",
          "name": "positionId",
          "type": "uint256"
        },
        {
          "indexed": true,
          "internalType": "address",
          "name": "trader",
          "type": "address"
        },
        {
          "indexed": false,
          "internalType": "uint128",
          "name": "additionalQuantity",
          "type": "uint128"
        },
        {
          "indexed": false,
          "internalType": "uint128",
          "name": "newQuantity",
          "type": "uint128"
        },
        {
          "indexed": false,
          "internalType": "uint256",
          "name": "cost",
          "type": "uint256"
        }
      ],
      "name": "PositionIncreased",
      "type": "event"
    },
    {
      "anonymous": false,
      "inputs": [
        {
          "indexed": true,
          "internalType": "uint256",
          "name": "positionId",
          "type": "uint256"
        },
        {
          "indexed": true,
          "internalType": "address",
          "name": "trader",
          "type": "address"
        },
        {
          "indexed": true,
          "internalType": "uint256",
          "name": "marketId",
          "type": "uint256"
        },
        {
          "indexed": false,
          "internalType": "int256",
          "name": "lowerTick",
          "type": "int256"
        },
        {
          "indexed": false,
          "internalType": "int256",
          "name": "upperTick",
          "type": "int256"
        },
        {
          "indexed": false,
          "internalType": "uint128",
          "name": "quantity",
          "type": "uint128"
        },
        {
          "indexed": false,
          "internalType": "uint256",
          "name": "cost",
          "type": "uint256"
        }
      ],
      "name": "PositionOpened",
      "type": "event"
    },
    {
      "anonymous": false,
      "inputs": [
        {
          "indexed": true,
          "internalType": "uint256",
          "name": "positionId",
          "type": "uint256"
        },
        {
          "indexed": true,
          "internalType": "address",
          "name": "trader",
          "type": "address"
        },
        {
          "indexed": false,
          "internalType": "uint256",
          "name": "payout",
          "type": "uint256"
        },
        {
          "indexed": false,
          "internalType": "bool",
          "name": "isWin",
          "type": "bool"
        }
      ],
      "name": "PositionSettled",
      "type": "event"
    },
    {
      "anonymous": false,
      "inputs": [
        {
          "indexed": true,
          "internalType": "uint256",
          "name": "marketId",
          "type": "uint256"
        },
        {
          "indexed": true,
          "internalType": "int256",
          "name": "lo",
          "type": "int256"
        },
        {
          "indexed": true,
          "internalType": "int256",
          "name": "hi",
          "type": "int256"
        },
        {
          "indexed": false,
          "internalType": "uint256",
          "name": "factor",
          "type": "uint256"
        }
      ],
      "name": "RangeFactorApplied",
      "type": "event"
    },
    {
      "anonymous": false,
      "inputs": [
        {
          "indexed": true,
          "internalType": "uint256",
          "name": "marketId",
          "type": "uint256"
        },
        {
          "indexed": false,
          "internalType": "uint64",
          "name": "settlementTimestamp",
          "type": "uint64"
        }
      ],
      "name": "SettlementTimestampUpdated",
      "type": "event"
    },
    {
      "anonymous": false,
      "inputs": [
        {
          "indexed": false,
          "internalType": "address",
          "name": "account",
          "type": "address"
        }
      ],
      "name": "Unpaused",
      "type": "event"
    },
    {
      "anonymous": false,
      "inputs": [
        {
          "indexed": true,
          "internalType": "address",
          "name": "implementation",
          "type": "address"
        }
      ],
      "name": "Upgraded",
      "type": "event"
    },
    {
      "inputs": [],
      "name": "MAX_LIQUIDITY_PARAMETER",
      "outputs": [
        {
          "internalType": "uint256",
          "name": "",
          "type": "uint256"
        }
      ],
      "stateMutability": "view",
      "type": "function"
    },
    {
      "inputs": [],
      "name": "MAX_TICK_COUNT",
      "outputs": [
        {
          "internalType": "uint32",
          "name": "",
          "type": "uint32"
        }
      ],
      "stateMutability": "view",
      "type": "function"
    },
    {
      "inputs": [],
      "name": "MIN_LIQUIDITY_PARAMETER",
      "outputs": [
        {
          "internalType": "uint256",
          "name": "",
          "type": "uint256"
        }
      ],
      "stateMutability": "view",
      "type": "function"
    },
    {
      "inputs": [],
      "name": "UPGRADE_INTERFACE_VERSION",
      "outputs": [
        {
          "internalType": "string",
          "name": "",
          "type": "string"
        }
      ],
      "stateMutability": "view",
      "type": "function"
    },
    {
      "inputs": [],
      "name": "_nextMarketId",
      "outputs": [
        {
          "internalType": "uint256",
          "name": "",
          "type": "uint256"
        }
      ],
      "stateMutability": "view",
      "type": "function"
    },
    {
      "inputs": [
        {
          "internalType": "uint256",
          "name": "marketId",
          "type": "uint256"
        },
        {
          "internalType": "int256",
          "name": "lo",
          "type": "int256"
        },
        {
          "internalType": "int256",
          "name": "hi",
          "type": "int256"
        },
        {
          "internalType": "uint256",
          "name": "factor",
          "type": "uint256"
        }
      ],
      "name": "applyRangeFactor",
      "outputs": [],
      "stateMutability": "nonpayable",
      "type": "function"
    },
    {
      "inputs": [
        {
          "internalType": "uint256",
          "name": "positionId",
          "type": "uint256"
        }
      ],
      "name": "calculateClaimAmount",
      "outputs": [
        {
          "internalType": "uint256",
          "name": "amount",
          "type": "uint256"
        }
      ],
      "stateMutability": "view",
      "type": "function"
    },
    {
      "inputs": [
        {
          "internalType": "uint256",
          "name": "positionId",
          "type": "uint256"
        }
      ],
      "name": "calculateCloseProceeds",
      "outputs": [
        {
          "internalType": "uint256",
          "name": "proceeds",
          "type": "uint256"
        }
      ],
      "stateMutability": "view",
      "type": "function"
    },
    {
      "inputs": [
        {
          "internalType": "uint256",
          "name": "positionId",
          "type": "uint256"
        },
        {
          "internalType": "uint128",
          "name": "sellQuantity",
          "type": "uint128"
        }
      ],
      "name": "calculateDecreaseProceeds",
      "outputs": [
        {
          "internalType": "uint256",
          "name": "proceeds",
          "type": "uint256"
        }
      ],
      "stateMutability": "view",
      "type": "function"
    },
    {
      "inputs": [
        {
          "internalType": "uint256",
          "name": "positionId",
          "type": "uint256"
        },
        {
          "internalType": "uint128",
          "name": "additionalQuantity",
          "type": "uint128"
        }
      ],
      "name": "calculateIncreaseCost",
      "outputs": [
        {
          "internalType": "uint256",
          "name": "cost",
          "type": "uint256"
        }
      ],
      "stateMutability": "view",
      "type": "function"
    },
    {
      "inputs": [
        {
          "internalType": "uint256",
          "name": "marketId",
          "type": "uint256"
        },
        {
          "internalType": "int256",
          "name": "lowerTick",
          "type": "int256"
        },
        {
          "internalType": "int256",
          "name": "upperTick",
          "type": "int256"
        },
        {
          "internalType": "uint128",
          "name": "quantity",
          "type": "uint128"
        }
      ],
      "name": "calculateOpenCost",
      "outputs": [
        {
          "internalType": "uint256",
          "name": "cost",
          "type": "uint256"
        }
      ],
      "stateMutability": "view",
      "type": "function"
    },
    {
      "inputs": [
        {
          "internalType": "uint256",
          "name": "marketId",
          "type": "uint256"
        },
        {
          "internalType": "int256",
          "name": "lowerTick",
          "type": "int256"
        },
        {
          "internalType": "int256",
          "name": "upperTick",
          "type": "int256"
        },
        {
          "internalType": "uint256",
          "name": "cost",
          "type": "uint256"
        }
      ],
      "name": "calculateQuantityFromCost",
      "outputs": [
        {
          "internalType": "uint128",
          "name": "quantity",
          "type": "uint128"
        }
      ],
      "stateMutability": "view",
      "type": "function"
    },
    {
      "inputs": [
        {
          "internalType": "uint256",
          "name": "positionId",
          "type": "uint256"
        }
      ],
      "name": "claimPayout",
      "outputs": [
        {
          "internalType": "uint256",
          "name": "payout",
          "type": "uint256"
        }
      ],
      "stateMutability": "nonpayable",
      "type": "function"
    },
    {
      "inputs": [
        {
          "internalType": "uint256",
          "name": "positionId",
          "type": "uint256"
        },
        {
          "internalType": "uint256",
          "name": "minProceeds",
          "type": "uint256"
        }
      ],
      "name": "closePosition",
      "outputs": [
        {
          "internalType": "uint256",
          "name": "proceeds",
          "type": "uint256"
        }
      ],
      "stateMutability": "nonpayable",
      "type": "function"
    },
    {
      "inputs": [
        {
          "internalType": "int256",
          "name": "minTick",
          "type": "int256"
        },
        {
          "internalType": "int256",
          "name": "maxTick",
          "type": "int256"
        },
        {
          "internalType": "int256",
          "name": "tickSpacing",
          "type": "int256"
        },
        {
          "internalType": "uint64",
          "name": "startTimestamp",
          "type": "uint64"
        },
        {
          "internalType": "uint64",
          "name": "endTimestamp",
          "type": "uint64"
        },
        {
          "internalType": "uint64",
          "name": "settlementTimestamp",
          "type": "uint64"
        },
        {
          "internalType": "uint256",
          "name": "liquidityParameter",
          "type": "uint256"
        }
      ],
      "name": "createMarket",
      "outputs": [
        {
          "internalType": "uint256",
          "name": "marketId",
          "type": "uint256"
        }
      ],
      "stateMutability": "nonpayable",
      "type": "function"
    },
    {
      "inputs": [
        {
          "internalType": "uint256",
          "name": "positionId",
          "type": "uint256"
        },
        {
          "internalType": "uint128",
          "name": "sellQuantity",
          "type": "uint128"
        },
        {
          "internalType": "uint256",
          "name": "minProceeds",
          "type": "uint256"
        }
      ],
      "name": "decreasePosition",
      "outputs": [
        {
          "internalType": "uint128",
          "name": "newQuantity",
          "type": "uint128"
        },
        {
          "internalType": "uint256",
          "name": "proceeds",
          "type": "uint256"
        }
      ],
      "stateMutability": "nonpayable",
      "type": "function"
    },
    {
      "inputs": [
        {
          "internalType": "uint256",
          "name": "marketId",
          "type": "uint256"
        },
        {
          "internalType": "uint256",
          "name": "limit",
          "type": "uint256"
        }
      ],
      "name": "emitPositionSettledBatch",
      "outputs": [],
      "stateMutability": "nonpayable",
      "type": "function"
    },
    {
      "inputs": [
        {
          "internalType": "uint256",
          "name": "marketId",
          "type": "uint256"
        }
      ],
      "name": "getMarket",
      "outputs": [
        {
          "components": [
            {
              "internalType": "bool",
              "name": "isActive",
              "type": "bool"
            },
            {
              "internalType": "bool",
              "name": "settled",
              "type": "bool"
            },
            {
              "internalType": "uint64",
              "name": "startTimestamp",
              "type": "uint64"
            },
            {
              "internalType": "uint64",
              "name": "endTimestamp",
              "type": "uint64"
            },
            {
              "internalType": "int256",
              "name": "settlementTick",
              "type": "int256"
            },
            {
              "internalType": "int256",
              "name": "minTick",
              "type": "int256"
            },
            {
              "internalType": "int256",
              "name": "maxTick",
              "type": "int256"
            },
            {
              "internalType": "int256",
              "name": "tickSpacing",
              "type": "int256"
            },
            {
              "internalType": "uint32",
              "name": "numBins",
              "type": "uint32"
            },
            {
              "internalType": "uint256",
              "name": "liquidityParameter",
              "type": "uint256"
            },
            {
              "internalType": "uint32",
              "name": "positionEventsCursor",
              "type": "uint32"
            },
            {
              "internalType": "bool",
              "name": "positionEventsEmitted",
              "type": "bool"
            },
            {
              "internalType": "int256",
              "name": "settlementValue",
              "type": "int256"
            },
            {
              "internalType": "uint64",
              "name": "settlementTimestamp",
              "type": "uint64"
            }
          ],
          "internalType": "struct ICLMSRMarketCore.Market",
          "name": "market",
          "type": "tuple"
        }
      ],
      "stateMutability": "view",
      "type": "function"
    },
    {
      "inputs": [],
      "name": "getPaymentToken",
      "outputs": [
        {
          "internalType": "address",
          "name": "",
          "type": "address"
        }
      ],
      "stateMutability": "view",
      "type": "function"
    },
    {
      "inputs": [],
      "name": "getPositionContract",
      "outputs": [
        {
          "internalType": "address",
          "name": "",
          "type": "address"
        }
      ],
      "stateMutability": "view",
      "type": "function"
    },
    {
      "inputs": [
        {
          "internalType": "uint256",
          "name": "marketId",
          "type": "uint256"
        },
        {
          "internalType": "int256",
          "name": "lo",
          "type": "int256"
        },
        {
          "internalType": "int256",
          "name": "hi",
          "type": "int256"
        }
      ],
      "name": "getRangeSum",
      "outputs": [
        {
          "internalType": "uint256",
          "name": "sum",
          "type": "uint256"
        }
      ],
      "stateMutability": "view",
      "type": "function"
    },
    {
      "inputs": [
        {
          "internalType": "uint256",
          "name": "positionId",
          "type": "uint256"
        },
        {
          "internalType": "uint128",
          "name": "additionalQuantity",
          "type": "uint128"
        },
        {
          "internalType": "uint256",
          "name": "maxCost",
          "type": "uint256"
        }
      ],
      "name": "increasePosition",
      "outputs": [
        {
          "internalType": "uint128",
          "name": "newQuantity",
          "type": "uint128"
        }
      ],
      "stateMutability": "nonpayable",
      "type": "function"
    },
    {
      "inputs": [
        {
          "internalType": "address",
          "name": "_paymentToken",
          "type": "address"
        },
        {
          "internalType": "address",
          "name": "_positionContract",
          "type": "address"
        }
      ],
      "name": "initialize",
      "outputs": [],
      "stateMutability": "nonpayable",
      "type": "function"
    },
    {
      "inputs": [],
      "name": "isPaused",
      "outputs": [
        {
          "internalType": "bool",
          "name": "",
          "type": "bool"
        }
      ],
      "stateMutability": "view",
      "type": "function"
    },
    {
      "inputs": [
        {
          "internalType": "uint256",
          "name": "",
          "type": "uint256"
        }
      ],
      "name": "marketTrees",
      "outputs": [
        {
          "internalType": "uint32",
          "name": "root",
          "type": "uint32"
        },
        {
          "internalType": "uint32",
          "name": "nextIndex",
          "type": "uint32"
        },
        {
          "internalType": "uint32",
          "name": "size",
          "type": "uint32"
        },
        {
          "internalType": "uint256",
          "name": "cachedRootSum",
          "type": "uint256"
        }
      ],
      "stateMutability": "view",
      "type": "function"
    },
    {
      "inputs": [
        {
          "internalType": "uint256",
          "name": "",
          "type": "uint256"
        }
      ],
      "name": "markets",
      "outputs": [
        {
          "internalType": "bool",
          "name": "isActive",
          "type": "bool"
        },
        {
          "internalType": "bool",
          "name": "settled",
          "type": "bool"
        },
        {
          "internalType": "uint64",
          "name": "startTimestamp",
          "type": "uint64"
        },
        {
          "internalType": "uint64",
          "name": "endTimestamp",
          "type": "uint64"
        },
        {
          "internalType": "int256",
          "name": "settlementTick",
          "type": "int256"
        },
        {
          "internalType": "int256",
          "name": "minTick",
          "type": "int256"
        },
        {
          "internalType": "int256",
          "name": "maxTick",
          "type": "int256"
        },
        {
          "internalType": "int256",
          "name": "tickSpacing",
          "type": "int256"
        },
        {
          "internalType": "uint32",
          "name": "numBins",
          "type": "uint32"
        },
        {
          "internalType": "uint256",
          "name": "liquidityParameter",
          "type": "uint256"
        },
        {
          "internalType": "uint32",
          "name": "positionEventsCursor",
          "type": "uint32"
        },
        {
          "internalType": "bool",
          "name": "positionEventsEmitted",
          "type": "bool"
        },
        {
          "internalType": "int256",
          "name": "settlementValue",
          "type": "int256"
        },
        {
          "internalType": "uint64",
          "name": "settlementTimestamp",
          "type": "uint64"
        }
      ],
      "stateMutability": "view",
      "type": "function"
    },
    {
      "inputs": [
        {
          "internalType": "uint256",
          "name": "marketId",
          "type": "uint256"
        },
        {
          "internalType": "int256",
          "name": "lowerTick",
          "type": "int256"
        },
        {
          "internalType": "int256",
          "name": "upperTick",
          "type": "int256"
        },
        {
          "internalType": "uint128",
          "name": "quantity",
          "type": "uint128"
        },
        {
          "internalType": "uint256",
          "name": "maxCost",
          "type": "uint256"
        }
      ],
      "name": "openPosition",
      "outputs": [
        {
          "internalType": "uint256",
          "name": "positionId",
          "type": "uint256"
        }
      ],
      "stateMutability": "nonpayable",
      "type": "function"
    },
    {
      "inputs": [],
      "name": "owner",
      "outputs": [
        {
          "internalType": "address",
          "name": "",
          "type": "address"
        }
      ],
      "stateMutability": "view",
      "type": "function"
    },
    {
      "inputs": [
        {
          "internalType": "string",
          "name": "reason",
          "type": "string"
        }
      ],
      "name": "pause",
      "outputs": [],
      "stateMutability": "nonpayable",
      "type": "function"
    },
    {
      "inputs": [],
      "name": "paused",
      "outputs": [
        {
          "internalType": "bool",
          "name": "",
          "type": "bool"
        }
      ],
      "stateMutability": "view",
      "type": "function"
    },
    {
      "inputs": [],
      "name": "paymentToken",
      "outputs": [
        {
          "internalType": "contract IERC20",
          "name": "",
          "type": "address"
        }
      ],
      "stateMutability": "view",
      "type": "function"
    },
    {
      "inputs": [],
      "name": "positionContract",
      "outputs": [
        {
          "internalType": "contract ICLMSRPosition",
          "name": "",
          "type": "address"
        }
      ],
      "stateMutability": "view",
      "type": "function"
    },
    {
      "inputs": [
        {
          "internalType": "uint256",
          "name": "",
          "type": "uint256"
        }
      ],
      "name": "positionSettledEmitted",
      "outputs": [
        {
          "internalType": "bool",
          "name": "",
          "type": "bool"
        }
      ],
      "stateMutability": "view",
      "type": "function"
    },
    {
      "inputs": [
        {
          "internalType": "uint256",
          "name": "marketId",
          "type": "uint256"
        },
        {
          "internalType": "int256",
          "name": "lo",
          "type": "int256"
        },
        {
          "internalType": "int256",
          "name": "hi",
          "type": "int256"
        }
      ],
      "name": "propagateLazy",
      "outputs": [
        {
          "internalType": "uint256",
          "name": "sum",
          "type": "uint256"
        }
      ],
      "stateMutability": "nonpayable",
      "type": "function"
    },
    {
      "inputs": [],
      "name": "proxiableUUID",
      "outputs": [
        {
          "internalType": "bytes32",
          "name": "",
          "type": "bytes32"
        }
      ],
      "stateMutability": "view",
      "type": "function"
    },
    {
      "inputs": [],
      "name": "renounceOwnership",
      "outputs": [],
      "stateMutability": "nonpayable",
      "type": "function"
    },
    {
      "inputs": [
        {
          "internalType": "uint256",
          "name": "marketId",
          "type": "uint256"
        }
      ],
      "name": "reopenMarket",
      "outputs": [],
      "stateMutability": "nonpayable",
      "type": "function"
    },
    {
      "inputs": [
        {
          "internalType": "uint256",
          "name": "marketId",
          "type": "uint256"
        },
        {
          "internalType": "int256",
          "name": "settlementValue",
          "type": "int256"
        }
      ],
      "name": "settleMarket",
      "outputs": [],
      "stateMutability": "nonpayable",
      "type": "function"
    },
    {
      "inputs": [
        {
          "internalType": "address",
          "name": "newOwner",
          "type": "address"
        }
      ],
      "name": "transferOwnership",
      "outputs": [],
      "stateMutability": "nonpayable",
      "type": "function"
    },
    {
      "inputs": [],
      "name": "unpause",
      "outputs": [],
      "stateMutability": "nonpayable",
      "type": "function"
    },
    {
      "inputs": [
        {
          "internalType": "uint256",
          "name": "marketId",
          "type": "uint256"
        },
        {
          "internalType": "uint64",
          "name": "newStartTimestamp",
          "type": "uint64"
        },
        {
          "internalType": "uint64",
          "name": "newEndTimestamp",
          "type": "uint64"
        },
        {
          "internalType": "uint64",
          "name": "newSettlementTimestamp",
          "type": "uint64"
        }
      ],
      "name": "updateMarketTiming",
      "outputs": [],
      "stateMutability": "nonpayable",
      "type": "function"
    },
    {
      "inputs": [
        {
          "internalType": "address",
          "name": "newImplementation",
          "type": "address"
        },
        {
          "internalType": "bytes",
          "name": "data",
          "type": "bytes"
        }
      ],
      "name": "upgradeToAndCall",
      "outputs": [],
      "stateMutability": "payable",
      "type": "function"
    }
  ],
  "bytecode": "0x60a0806040523460295730608052615767908161002e8239608051818181611be00152611c840152f35b5f80fdfe60806040526004361015610011575f80fd5b5f5f3560e01c8063070ab8c91461267157806309f28be6146105e857806313b6eb091461264a57806316ae2866146125a05780631d49df57146125505780632d6ce61d146123725780632ed66650146123505780633013ce2914610a935780633d65117b146122a55780633f4ba83a14612200578063449a03881461218857806344a1a58e14612060578063485cc95514611e595780634f1ef28614611c3457806352d1902d14611bcd5780635c975abb14610d335780636084fa03146118d457806362a626aa146118b6578063692c3fc7146118615780636c1155a1146116d65780636da66355146115e5578063715018a61461157c5780637404d9571461155e57806379334798146112d35780637ed547821461121d578063855e2368146111ee5780638a69614e14610fb95780638da5cb5b14610f845780639bbafcc314610f425780639fc46ecb14610e8d578063ad3cb1cc14610e48578063b1283e7714610d62578063b187bd2614610d33578063b762d83414610bc1578063bcb1732214610b9c578063c9ac6b3114610aba578063d41c3a6514610a93578063e9904d8714610611578063e9eb3ba5146105e8578063eb44fdd314610485578063f0b7f3b1146102175763f2fde38b146101e8575f80fd5b3461021457602036600319011261021457610211610204612815565b61020c6135a6565b613535565b80f35b80fd5b50346102145760a03660031901126102145760243560043560443561023a6127e5565b608435916102466137ce565b61024e6137f5565b6102646001600160801b0383169283151561305a565b5f848152600260205260409020600581015461028e90869063ffffffff161515612937565b612937565b805460ff811615610476576001600160401b038160101c1642106104675760501c6001600160401b03164211610458579061036d866006846102db6102d58c999897612951565b846135d9565b6102ed6102e782612951565b866135d9565b6102fb858481811315612a11565b610309858481811415612a11565b61032c858461032661031b8284612a49565b600486015490612a75565b15612a11565b61035864e8d4a5100064e8d4a50fff61034b8c89848c029889926148ec565b0104978881811115613098565b6103628733614de2565b0154908389896144cf565b602060015460018060a01b031660a4604051809a81936330906fad60e21b83523360048401528a60248401528b60448401528660648401528760848401525af195861561044d578496610414575b60209750604051945084528684015260408301526060820152827fc33c3b4ea19b40f02901978a93e787a0caa1d6fd23dfa228ae891fe96867e17160803393a460015f51602061571b5f395f51905f5255604051908152f35b95506020873d602011610445575b8161042f6020938361285b565b810103126104415760209651956103bb565b5f80fd5b3d9150610422565b6040513d86823e3d90fd5b63b2094b5960e01b8752600487fd5b630ee8c41760e31b8852600488fd5b635a90bb8d60e11b8852600488fd5b50346102145760203660031901126102145761053260406101c092600435816101a084516104b28161282b565b82815282602082015282868201528260608201528260808201528260a08201528260c08201528260e08201528261010082015282610120820152826101408201528261016082015282610180820152015261052581610289815f52600260205263ffffffff600560405f20015416151590565b8152600260205220612951565b6001600160401b036101a0604051928051151584526020810151151560208501528260408201511660408501528260608201511660608501526080810151608085015260a081015160a085015260c081015160c085015260e081015160e085015263ffffffff6101008201511661010085015261012081015161012085015263ffffffff6101408201511661014085015261016081015115156101608501526101808101516101808501520151166101a0820152f35b50346102145780600319360112610214576001546040516001600160a01b039091168152602090f35b50346102145760e036600319011261021457604435906024356004356106356128f7565b92608435946001600160401b038616809603610a8f5760a435936001600160401b0385168095036109f75760c4359361066c6135a6565b6106746137ce565b6004549661068188613527565b6004556106a2885f52600260205263ffffffff600560405f20015416151590565b610a7b576001600160401b03906106bd858585818112614eba565b6106cb858585898313614eba565b6106ea8585856106e4836106df8385612a49565b612a75565b15614eba565b169780891015610a6c5786811015610a6c5766038d7ea4c6800086101580610a58575b15610a4957610725846107208486612a49565b6134eb565b85811380610a3c575b15610a235763ffffffff169485151580610a16575b156109fb578288828b8d8b8b8b8b6040519889956107608761282b565b600187528c60208801918a8352604089019081526060890191825260808901928b845260a08a0194855260c08a0195865260e08a019687526101008a019788526101208a019889528b6101408b019b818d526101608c019b828d5261018081019e8f526101a0019e8f528152600260205260409020809e51151560ff198254169060ff161790555115158d549060081b61ff00169061ff001916178d55516001600160401b0316610832908d9069ffffffffffffffff000082549160101b169069ffffffffffffffff00001916179055565b518b5467ffffffffffffffff60501b191660509190911b67ffffffffffffffff60501b16178b555160018b01555160028a01555160038901555160048801555163ffffffff16600587019063ffffffff1663ffffffff1982541617905551600686015560078501915163ffffffff1663ffffffff1663ffffffff1983541617825551151581549060201b64ff00000000169064ff000000001916179055516008830155516001600160401b031690600901906001600160401b03166001600160401b031982541617905573__$e8b8ff73fdf5e99c3df6a4b39aa1f5b319$__898252600360205260408220813b156109f757829060446040518094819363d886284b60e01b835260048301528b60248301525af480156109ec576109d7575b50506020987f016333b70e521192f82524294d14cf8542fd0b3fbf4901f7ab10ddbb910f8185968a968a99968a967f2453c1a297c658a5b6905526d84f0b4ac79c0d9cc5fb5601664602efee5312149660e0966040519687528b87015260408601526060850152608084015260a083015260c0820152a2604051908152a2604051908152f35b6109e282809261285b565b6102145780610951565b6040513d84823e3d90fd5b8280fd5b63515eb6ff60e11b81526004869052620f4240602452604490fd5b50620f4240861115610743565b6369ec507b60e11b8652600452620f4240602452604485fd5b50620f424081131561072e565b630b281d1960e31b8552600485fd5b5069152d02c7e14af680000086111561070d565b63536a71af60e01b8552600485fd5b6311453d1960e31b85526004889052602485fd5b5080fd5b5034610214578060031936011261021457546040516001600160a01b039091168152602090f35b50346102145760803660031901126102145764e8d4a5100064e8d4a50fff602092610b906004356024356044359086610af16127e5565b610b1385610289815f52600260205263ffffffff600560405f20015416151590565b610b296001600160801b0382169182151561305a565b84875260028a52610b898484610326610b4460408c20612951565b610b4e81846135d9565b610b5881856135d9565b610b66848481811315612a11565b610b74848481811415612a11565b60e0610b808486612a49565b91015190612a75565b02926148ec565b90500104604051908152f35b5034610214578060031936011261021457602060405169152d02c7e14af68000008152f35b503461021457604036600319011261021457600435602435610be16135a6565b610c0382610289815f52600260205263ffffffff600560405f20015416151590565b818352600260205260408320805490610c238460ff8460081c161561307e565b60098101546001600160401b031680610d2557506001600160401b03808360501c165b16804210610d06575091837fca3a568dfb73dd7b7b3c0b28f130edbf4b688f534869c3de083664c43c11430e6020809460077fab96f8f39935936b273ce917dbbe6675bcc26b5548edf323cdf3b1348e6b801697610100620f4240880593610cc36002840154808712159081610cf7575b87600387015492613505565b600883018990556001830185905561ffff191617815501805464ffffffffff19169055604051908152a2604051908152a280f35b60038601548813159150610cb7565b630527939360e01b8652600452426001600160401b0316602452604485fd5b6001600160401b0390610c46565b5034610214578060031936011261021457602060ff5f5160206156fb5f395f51905f5254166040519015158152f35b50346102145760203660031901126102145760406101c091600435815260026020522080549060018101549060ff60028201546003830154600484015463ffffffff600586015416906006860154926007870154946001600160401b03600960088a015499015416986001600160401b036040519b89811615158d528c60208b8360081c1615159101528c6040838360101c1691015260501c1660608c015260808b015260a08a015260c089015260e088015261010087015261012086015263ffffffff811661014086015260201c1615156101608401526101808301526101a0820152f35b503461021457806003193601126102145750610e89604051610e6b60408261285b565b60058152640352e302e360dc1b60208201526040519182918261290d565b0390f35b50346102145760203660031901126102145760015460405163eb02c30160e01b815260048035908201529060a090829060249082906001600160a01b03165afa9081156109ec5782610b9064e8d4a510009364e8d4a50fff9360209691610f13575b50846001600160801b03606083015116029080519060408882015191015191613912565b610f35915060a03d60a011610f3b575b610f2d818361285b565b810190612f6e565b5f610eef565b503d610f23565b503461021457610211610f54366127b9565b90610f5d6135a6565b610f7f81610289815f52600260205263ffffffff600560405f20015416151590565b6130ee565b50346102145780600319360112610214575f5160206156bb5f395f51905f52546040516001600160a01b039091168152602090f35b503461021457602036600319011261021457600435610fd66137ce565b610fde6137f5565b60015460405163eb02c30160e01b81526004810183905291906001600160a01b031660a083602481845afa92831561044d5784936111c7575b506020602491604051928380926331a9108f60e11b82528660048301525afa801561044d57611081918591611198575b506001600160a01b03169261105e33808614613005565b805185526002602052602061107560408720612951565b01511515905190612a2f565b61108a816136f3565b91818452600560205260ff60408520541615611147575b506110ac823361487f565b60015483906001600160a01b0316803b15610a8f578190602460405180948193630852cd8d60e31b83528760048401525af1801561044d57611132575b60208383604051908282527ff18ca9717b47ea7629d17b5d7b2ede46e864155725629e7d0347924c2f6d112d843393a360015f51602061571b5f395f51905f5255604051908152f35b61113d84809261285b565b6109f757826110e9565b60408051848152841515602082015283917f1a81eb5d53aa7bec98cadd0a6303be87e540f77ba90e63cd945e49b8eb697b0a91a3808352600560205260408320805460ff191660011790555f6110a1565b6111ba915060203d6020116111c0575b6111b2818361285b565b810190612fe6565b5f611047565b503d6111a8565b60249193506111e660209160a03d60a011610f3b57610f2d818361285b565b939150611017565b50346102145760203660031901126102145760ff60406020926004358152600584522054166040519015158152f35b50346102145760403660031901126102145760246112396127cf565b60015460405163eb02c30160e01b815260048035908201529260a09184919082906001600160a01b03165afa9182156112c85792610b9064e8d4a510009364e8d4a50fff9360209684926112a7575b508151906040876001600160801b038a860151931602930151916148ec565b6112c191925060a03d60a011610f3b57610f2d818361285b565b905f611288565b6040513d85823e3d90fd5b5034610214576112e2366128cd565b92916112ec6137ce565b6112f46137f5565b6001600160801b03821661130a8382151561305a565b60015460405163eb02c30160e01b815260048101849052906001600160a01b031660a082602481845afa91821561152c578692611537575b506020602491604051928380926331a9108f60e11b82528860048301525afa90811561152c57916113926060926001600160801b0394899161150d575b5033906001600160a01b03168114613005565b61139c815161382d565b80515f5260026020526114078760405f20835190876113ec64e8d4a5100064e8d4a50fff60208901966113dd88519760408c01968588519102998a926148ec565b905001049d8e81811115613098565b6113f68d33614de2565b6006865194519151920154936144cf565b01511601926001600160801b0384116114f9576001546001600160a01b0316803b15610a8f576040516361d6883d60e01b8152600481018490526001600160801b03861660248201529082908290604490829084905af180156109ec576114e2575b50507fa9efae0c21a2db158c2af2d36b5c18dc14d792a79dfab662442466a80095ea5f6114bd602095604051918291873397846001600160801b036040929594938160608401971683521660208201520152565b0390a360015f51602061571b5f395f51905f52556001600160801b0360405191168152f35b816114ec9161285b565b805f126102145780611469565b634e487b7160e01b81526011600452602490fd5b611526915060203d6020116111c0576111b2818361285b565b5f61137f565b6040513d88823e3d90fd5b602491925061155660209160a03d60a011610f3b57610f2d818361285b565b929150611342565b50346102145780600319360112610214576020604051620f42408152f35b50346102145780600319360112610214576115956135a6565b5f5160206156bb5f395f51905f5280546001600160a01b0319811690915581906001600160a01b03167f8be0079c531659141344cd1fd0a4f28419497f9722a3daafe3b4186f6b6457e08280a380f35b5034610214576020366003190112610214576004356001600160401b038111610a8f5736602382011215610a8f578060040135906001600160401b0382116109f75736602483830101116109f7576116499161163f6135a6565b6024369201612897565b6116516137ce565b600160ff195f5160206156fb5f395f51905f525416175f5160206156fb5f395f51905f52557f62e78cea01bee320cd4e420270b5ea74000d11b0c9f74754ebdbfc544b05a2586020604051338152a17f375c0abd968f4602b557f6ac9a48ffc89820233aa9becc5d7ff1176fd09eafff604051806116d033948261290d565b0390a280f35b5034610214576080366003190112610214576004356024356001600160401b03811680820361185d576044356001600160401b038116908181036118595761171c6128f7565b906117256135a6565b61174786610289815f52600260205263ffffffff600560405f20015416151590565b858752600260205260408720916117668760ff855460081c161561307e565b8385101561184a576001600160401b0316948584101561184a576020947f016333b70e521192f82524294d14cf8542fd0b3fbf4901f7ab10ddbb910f818596946009856118247f66e3554b58ad477fe2e052540bbd9b1ba199fbfd763c4d2848576d2ed8722c64966117fc6040978e9a9069ffffffffffffffff000082549160101b169069ffffffffffffffff00001916179055565b825467ffffffffffffffff60501b191660509190911b67ffffffffffffffff60501b16178255565b01805467ffffffffffffffff191687179055825191825286820152a2604051908152a280f35b63536a71af60e01b8852600488fd5b8580fd5b8380fd5b503461021457602036600319011261021457604060809160043581526003602052206002600182015491015463ffffffff604051928181168452818160201c16602085015260401c1660408301526060820152f35b50346102145780600319360112610214576020600454604051908152f35b5034610214576118e3366128cd565b906118ec6137ce565b6118f46137f5565b6001600160801b03811661190a8282151561305a565b60015460405163eb02c30160e01b815260048101869052906001600160a01b031660a082602481845afa918215611afc578792611ba6575b506020602491604051928380926331a9108f60e11b82528a60048301525afa8015611afc5761198491889161150d575033906001600160a01b03168114613005565b61198e815161382d565b80515f52600260205260405f209060608101916001600160801b03835116808511611b8f57508782611a12928660066001600160801b0397965193611a0464e8d4a5100064e8d4a50fff60208401986119f58a51996040870198858a5191029b8c92613912565b905001049c8d8181101561302d565b519451915192015493613f72565b611a1c853361487f565b511603906001600160801b038211611b7b576001600160801b0382169384611b075760015486906001600160a01b0316803b15610a8f578190602460405180948193630852cd8d60e31b83528760048401525af18015611afc57611ae5575b50604095505b85516001600160801b03928316815291831660208301526040820184905233917fe3a918fd34698242cc99d5ba0987edaa47d8f5b8ed601ef29e08a9b7d72ecc4990606090a35060015f51602061571b5f395f51905f525582519182526020820152f35b86611aef9161285b565b855f126118595785611a7b565b6040513d89823e3d90fd5b6001546001600160a01b0316803b15611b77576040516361d6883d60e01b8152600481018390526001600160801b03851660248201529087908290604490829084905af18015611afc57611b60575b5060409550611a81565b86611b6a9161285b565b855f126118595785611b56565b8680fd5b634e487b7160e01b85526011600452602485fd5b63070a2e7b60e31b89526004859052602452604488fd5b6024919250611bc560209160a03d60a011610f3b57610f2d818361285b565b929150611942565b50346102145780600319360112610214577f00000000000000000000000000000000000000000000000000000000000000006001600160a01b03163003611c255760206040515f5160206156db5f395f51905f528152f35b63703e46dd60e11b8152600490fd5b50604036600319011261021457611c49612815565b906024356001600160401b038111610a8f5736602382011215610a8f57611c7a903690602481600401359101612897565b6001600160a01b037f000000000000000000000000000000000000000000000000000000000000000016308114908115611e37575b50611e2857611cbc6135a6565b6040516352d1902d60e01b8152926001600160a01b0381169190602085600481865afa80958596611df0575b50611d0157634c9c8ce360e01b84526004839052602484fd5b9091845f5160206156db5f395f51905f528103611dde5750813b15611dcc575f5160206156db5f395f51905f5280546001600160a01b031916821790557fbc7cd75a20ee27fd9adebab32041f755214dbc6bffa90cc0225b39da2e5c2d3b8480a28151839015611db25780836020611da695519101845af43d15611daa573d91611d8a8361287c565b92611d98604051948561285b565b83523d85602085013e61563c565b5080f35b60609161563c565b50505034611dbd5780f35b63b398979f60e01b8152600490fd5b634c9c8ce360e01b8452600452602483fd5b632a87526960e21b8552600452602484fd5b9095506020813d602011611e20575b81611e0c6020938361285b565b81010312611e1c5751945f611ce8565b8480fd5b3d9150611dff565b63703e46dd60e11b8252600482fd5b5f5160206156db5f395f51905f52546001600160a01b0316141590505f611caf565b503461021457604036600319011261021457611e73612815565b6024356001600160a01b038116908190036109f7575f51602061573b5f395f51905f5254916001600160401b0360ff8460401c1615931680159081612058575b600114908161204e575b159081612045575b50612036578260016001600160401b03195f51602061573b5f395f51905f525416175f51602061573b5f395f51905f5255612001575b6001600160a01b031680151580611ff8575b15611fe957611f1a6153eb565b611f226153eb565b611f2b33613535565b611f336153eb565b611f3b6153eb565b611f436153eb565b611f4b6153eb565b60015f51602061571b5f395f51905f52556bffffffffffffffffffffffff60a01b8454161783556bffffffffffffffffffffffff60a01b60015416176001556001600455611f965780f35b60ff60401b195f51602061573b5f395f51905f5254165f51602061573b5f395f51905f52557fc7f505b2f371ae2175ee4913f4499e1f2633a7b5936321eed1cdaeb6115181d2602060405160018152a180f35b63d92e233d60e01b8452600484fd5b50811515611f0d565b6801000000000000000060ff60401b195f51602061573b5f395f51905f525416175f51602061573b5f395f51905f5255611efb565b63f92ee8a960e01b8452600484fd5b9050155f611ec5565b303b159150611ebd565b849150611eb3565b5034610214576120dd906020612075366127fb565b6120809592956135a6565b6120a286610289815f52600260205263ffffffff600560405f20015416151590565b858552600284526120b560408620612951565b916120c083826135d9565b6120ca83836135d9565b6120d8828281811315612a11565b613644565b938352600382526040808420905163049bebd960e31b8152600481019190915263ffffffff9182166024820152931660448401528280606481015b038173__$e8b8ff73fdf5e99c3df6a4b39aa1f5b319$__5af490811561217c5790612149575b602090604051908152f35b506020813d602011612174575b816121636020938361285b565b81010312610441576020905161213e565b3d9150612156565b604051903d90823e3d90fd5b5034610214576121c190602061219d366127fb565b6120a2836102898198955f52600260205263ffffffff600560405f20015416151590565b938352600382526040808420905163694f552560e01b8152600481019190915263ffffffff918216602482015293166044840152828060648101612118565b50346102145780600319360112610214576122196135a6565b5f5160206156fb5f395f51905f525460ff8116156122965760ff19165f5160206156fb5f395f51905f52557f5db9ee0a495bf2e6ff9c91a7834c1ba4fdd244a5e8aa4e537bd38aeae4b073aa6020604051338152a1337ff5cbf596165cc457b2cd92e8d8450827ee314968160a5696402d75766fc52caf8280a280f35b638dfc202b60e01b8252600482fd5b50346102145760403660031901126102145760246122c16127cf565b60015460405163eb02c30160e01b815260048035908201529260a09184919082906001600160a01b03165afa9182156112c85792610b9064e8d4a510009364e8d4a50fff93602096849261232f575b508151906040876001600160801b038a86015193160293015191613912565b61234991925060a03d60a011610f3b57610f2d818361285b565b905f612310565b5034610214578060031936011261021457602060405166038d7ea4c680008152f35b503461021457612381366127b9565b9061238a6137ce565b6123926137f5565b60015460405163eb02c30160e01b815260048101839052906001600160a01b031660a082602481845afa90811561252157602492869261252c575b50602090604051938480926331a9108f60e11b82528760048301525afa918215612521576124789261241291879161150d575033906001600160a01b03168114613005565b61241c815161382d565b80515f52600260205260405f2064e8d4a510006001600160801b036060840151160290825160066020850194611a0464e8d4a5100064e8d4a50fff61246b888a51976040870198895191613912565b0104998a8181101561302d565b612482823361487f565b60015483906001600160a01b0316803b15610a8f578190602460405180948193630852cd8d60e31b83528760048401525af1801561044d5761250a575b509160209260405191508282527f467bc11eddf702a2091fefc23d3064f17939ba1005bd43304f15604c9b6f2a9b843393a360015f51602061571b5f395f51905f5255604051908152f35b836125149161285b565b825f126109f7575f6124bf565b6040513d87823e3d90fd5b60209192506125499060a03d60a011610f3b57610f2d818361285b565b91906123cd565b503461021457602061258f6125643661279b565b9261258a81610289819594955f52600260205263ffffffff600560405f20015416151590565b612a93565b6001600160801b0360405191168152f35b5034610214576020366003190112610214576004356125bd6135a6565b6125df81610289815f52600260205263ffffffff600560405f20015416151590565b8082526002602052600760408320600181546126018560ff8360081c16612a2f565b6008830186905581830186905561ffff191617815501805464ffffffffff191690557f5ef50885499c454dc732d24a8b2d3b83f5193d2537a71f4cca62414c4ad09d1b8280a280f35b50346102145760203660031901126102145760206126696004356136f3565b604051908152f35b5034610441576126803661279b565b61268b9391936135a6565b6126ad82610289815f52600260205263ffffffff600560405f20015416151590565b815f5260026020526126ed6126c460405f20612951565b6126ce81866135d9565b6126d881876135d9565b6126e6868681811315612a11565b8585613644565b73__$e8b8ff73fdf5e99c3df6a4b39aa1f5b319$__90845f52600360205260405f2091803b15610441576040516330f27d1f60e01b8152600481019390935263ffffffff93841660248401529216604482015260648101839052905f90829060849082905af480156127905761277a575b5060205f51602061569b5f395f51905f5291604051908152a480f35b6127879195505f9061285b565b5f93602061275e565b6040513d5f823e3d90fd5b60809060031901126104415760043590602435906044359060643590565b6040906003190112610441576004359060243590565b602435906001600160801b038216820361044157565b606435906001600160801b038216820361044157565b606090600319011261044157600435906024359060443590565b600435906001600160a01b038216820361044157565b6101c081019081106001600160401b0382111761284757604052565b634e487b7160e01b5f52604160045260245ffd5b90601f801991011681019081106001600160401b0382111761284757604052565b6001600160401b03811161284757601f01601f191660200190565b9291926128a38261287c565b916128b1604051938461285b565b829481845281830111610441578281602093845f960137010152565b606090600319011261044157600435906024356001600160801b0381168103610441579060443590565b606435906001600160401b038216820361044157565b602060409281835280519182918282860152018484015e5f828201840152601f01601f1916010190565b1561293f5750565b634cba20ef60e01b5f5260045260245ffd5b9060405161295e8161282b565b6101a06001600160401b036009839582815460ff81161515875260ff8160081c1615156020880152818160101c16604088015260501c16606086015260018101546080860152600281015460a0860152600381015460c0860152600481015460e086015263ffffffff600582015416610100860152600681015461012086015260ff600782015463ffffffff811661014088015260201c1615156101608601526008810154610180860152015416910152565b15612a1a575050565b631150381b60e11b5f5260045260245260445ffd5b15612a375750565b63b23e5f9f60e01b5f5260045260245ffd5b81810392915f138015828513169184121617612a6157565b634e487b7160e01b5f52601160045260245ffd5b8115612a7f570790565b634e487b7160e01b5f52601260045260245ffd5b928015612f6657612adb602093855f5260028552612abb8185610326610b4460405f20612951565b855f5260028552612ace60405f20612951565b9061012082015194613644565b5f868152600380875260408083206002015498835290875290819020905163694f552560e01b8152600481019190915263ffffffff928316602482015291166044820152928360648173__$e8b8ff73fdf5e99c3df6a4b39aa1f5b319$__5af4928315612790575f93612f32575b508315612f23578215612f145764e8d4a510000273__$cbaf8988f3c8d5491808e1d52afb16035a$__936040516330ed1f5d60e01b8152836004820152670de0b6b3a76400006024820152602081604481895af480156127905783915f91612edf575b50670de0b6b3a7640000935b612d9c575050604051916330ed1f5d60e01b83528160048401526024830152602082604481885af49081156127905784925f92612d63575b50612c0492612bfe916130e1565b906130e1565b91604051926316cf339960e21b845260048401526024830152602082604481865af4918215612790575f92612d2f575b506040519163360816cf60e01b83526004830152602082602481865af4918215612790575f92612cfa575b5090604460209260405194859384926330ed1f5d60e01b8452600484015260248301525af48015612790575f90612cc3575b64e8d4a510009150046001600160801b038111612cb4576001600160801b031690565b639ac6cd8b60e01b5f5260045ffd5b506020813d602011612cf2575b81612cdd6020938361285b565b810103126104415764e8d4a510009051612c91565b3d9150612cd0565b91506020823d602011612d27575b81612d156020938361285b565b81010312610441579051906044612c5f565b3d9150612d08565b9091506020813d602011612d5b575b81612d4b6020938361285b565b810103126104415751905f612c34565b3d9150612d3e565b925090506020823d602011612d94575b81612d806020938361285b565b810103126104415790518391612c04612bf0565b3d9150612d73565b909281841115612ed957815b6040516316cf339960e21b81528160048201528660248201526020816044818c5af4908115612790575f91612ea8575b506040519063ec6e92cd60e01b825260048201526020816024818c5af4908115612790575f91612e77575b50604051926330ed1f5d60e01b8452600484015260248301526020826044818b5af48015612790575f90612e44575b612e3d9250946130e1565b9081612bb8565b506020823d8211612e6f575b81612e5d6020938361285b565b8101031261044157612e3d9151612e32565b3d9150612e50565b90506020813d8211612ea0575b81612e916020938361285b565b8101031261044157515f612e03565b3d9150612e84565b90506020813d8211612ed1575b81612ec26020938361285b565b8101031261044157515f612dd8565b3d9150612eb5565b83612da8565b9150506020813d602011612f0c575b81612efb6020938361285b565b81010312610441578290515f612bac565b3d9150612eee565b632dc1896b60e11b5f5260045ffd5b635fba374760e11b5f5260045ffd5b9092506020813d602011612f5e575b81612f4e6020938361285b565b810103126104415751915f612b49565b3d9150612f41565b505050505f90565b908160a0910312610441576040519060a082018281106001600160401b03821117612847576040528051825260208101516020830152604081015160408301526060810151906001600160801b038216820361044157608091606084015201516001600160401b038116810361044157608082015290565b9081602091031261044157516001600160a01b03811681036104415790565b1561300d5750565b63d86ad9cf60e01b5f9081526001600160a01b0391909116600452602490fd5b15613036575050565b63f6b30c7760e01b5f5260045260245260445ffd5b90816020910312610441575190565b156130625750565b6001600160801b0390633b59e48960e11b5f521660045260245ffd5b156130865750565b634e0558fb60e01b5f5260045260245ffd5b156130a1575050565b63f6daf99360e01b5f5260045260245260445ffd5b91908201809211612a6157565b5f19810191908211612a6157565b6103e803906103e88211612a6157565b91908203918211612a6157565b90815f526002602052600760405f2061310e8460ff835460081c16612a2f565b019081549060ff8260201c166134e55780156134d65760015460405163233292ed60e01b8152600481018690529190602090839060249082906001600160a01b03165afa918215612790575f926134a2575b5063ffffffff83169282841015613451575061317c90836130b6565b90808211613449575b825b82811061323b5750835463ffffffff191663ffffffff831617845581149283613222575b50806131ec57506060907fcf156953c2640827200d7348c90cddc0fd140a8dd5f3cfd29bf0b2a855c34b18925f5b60405192835260208301526040820152a2565b5f19810191908211612a61577fcf156953c2640827200d7348c90cddc0fd140a8dd5f3cfd29bf0b2a855c34b18926060926131d9565b805464ff0000000019166401000000001790555f6131ab565b60018060a01b03600154169060405163e315e93560e01b8152876004820152816024820152602081604481865afa908115612790575f91613418575b5080156133b657805f52600560205260ff60405f2054166133b657604051634f558e7960e01b815260048101829052602081602481875afa908115612790575f916133de575b50156133b65760405163eb02c30160e01b81526004810182905260a081602481875afa80156127905789915f916133c0575b5051036133b6576024926020613304836136f3565b91604051958680926331a9108f60e11b82528660048301525afa938415612790577f1a81eb5d53aa7bec98cadd0a6303be87e540f77ba90e63cd945e49b8eb697b0a61337960019685935f91613398575b5060408051868152951515602087015260a089901b89900390911694918291820190565b0390a35f52600560205260405f208260ff198254161790555b01613187565b6133b0915060203d81116111c0576111b2818361285b565b5f613355565b5060019150613392565b6133d8915060a03d8111610f3b57610f2d818361285b565b5f6132ef565b90506020813d8211613410575b816133f86020938361285b565b8101031261044157518015158103610441575f6132bd565b3d91506133eb565b90506020813d8211613441575b816134326020938361285b565b8101031261044157515f613277565b3d9150613425565b905080613185565b60609392507fcf156953c2640827200d7348c90cddc0fd140a8dd5f3cfd29bf0b2a855c34b189491506401000000009064ff00000000191617905560405190808252602082015260016040820152a2565b9091506020813d6020116134ce575b816134be6020938361285b565b810103126104415751905f613160565b3d91506134b1565b6396cb8a7f60e01b5f5260045ffd5b50505050565b8115612a7f57600160ff1b81145f19831416612a61570590565b1561350f57505050565b638a228b0d60e01b5f5260045260245260445260645ffd5b5f198114612a615760010190565b6001600160a01b03168015613593575f5160206156bb5f395f51905f5280546001600160a01b0319811683179091556001600160a01b03167f8be0079c531659141344cd1fd0a4f28419497f9722a3daafe3b4186f6b6457e05f80a3565b631e4fbdf760e01b5f525f60045260245ffd5b5f5160206156bb5f395f51905f52546001600160a01b031633036135c657565b63118cdaa760e01b5f523360045260245ffd5b61361360e061360860a085016136018151808712159081613635575b8760c08a015192613505565b5184612a49565b930192835190612a75565b1591519115613620575050565b6382fe647b60e01b5f5260045260245260445ffd5b60c089015188131591506135f5565b92906136849061367c61365d60a0860196875190612a49565b9163ffffffff61367360e08801948551906134eb565b16965190612a49565b9051906134eb565b5f198101908113600116612a615761010063ffffffff80921693015116808410806136ea575b156136d057508183116136b957565b50906306fd47d960e41b5f5260045260245260445ffd5b828463727dbc1360e01b5f5260045260245260445260645ffd5b508083106136aa565b60015460405163eb02c30160e01b8152600481019290925260a090829060249082906001600160a01b03165afa908115612790575f91613792575b5080515f52600260205261374460405f20612951565b60208101511561378c576080602083015191015180911315908161377e575b501561377957606001516001600160801b031690565b505f90565b90506040820151135f613763565b50505f90565b6137ab915060a03d60a011610f3b57610f2d818361285b565b5f61372e565b15612f2357565b8015612a7f575f190490565b8115612a7f570490565b60ff5f5160206156fb5f395f51905f5254166137e657565b63d93c066560e01b5f5260045ffd5b60025f51602061571b5f395f51905f52541461381e5760025f51602061571b5f395f51905f5255565b633ee5aeb560e01b5f5260045ffd5b5f52600260205260405f205460ff811615613887576001600160401b038160101c1642106138785760501c6001600160401b0316421161386957565b63b2094b5960e01b5f5260045ffd5b630ee8c41760e31b5f5260045ffd5b635a90bb8d60e11b5f5260045ffd5b1561389e5750565b635a0c51d560e11b5f526004526103e860245260445ffd5b156138bd57565b6332103c0560e21b5f5260045ffd5b156138d357565b63fb65ff6360e01b5f5260045ffd5b156138e957565b6367d96d3f60e11b5f5260045ffd5b156139005750565b63087e358960e01b5f5260045260245ffd5b91610120939161393261392d855f52600260205260405f2090565b612951565b9361393e858484613644565b96909501516040516330ed1f5d60e01b815260048101829052670de0b6b3a7640000602482015290959073__$cbaf8988f3c8d5491808e1d52afb16035a$__90602081604481855af48015613cf75761399e915f91613f53575b506130c3565b918287116139b6575050506139b39550615044565b90565b9093508294506139e860026139d760209499955f52600360205260405f2090565b0154955f52600360205260405f2090565b60405163694f552560e01b8152600481019190915263ffffffff9182166024820152971660448801528660648173__$e8b8ff73fdf5e99c3df6a4b39aa1f5b319$__5af4958615613cf7575f96613f32575b50613a4883949315156137b1565b613a71613a6686613a61613a5c82886130b6565b6130c3565b6137c4565b6103e8811115613896565b5f92935f935b85151580613f27575b15613f155786861115613f0f57865b6040516316cf339960e21b81526004810182905260248101859052602081604481895af4908115613cf757613ae8916020915f91613ef2575b506040518093819263ec6e92cd60e01b8352600483019190602083019252565b0381895af4908115613cf757613b30916020915f91613ed5575b50604051809381926316cf339960e21b835260048301919060206040840193670de0b6b3a764000081520152565b0381895af4908115613cf7575f91613eb7575b50613b4d816137b8565b8a11613d75575b986020613b959a82158015613d5e575b613b6d906138b6565b6040516330ed1f5d60e01b81526004810184905260248101919091529a8b9081906044820190565b0381895af4998a15613cf7575f9a613d36575b5089613bb7613bbc92866130e1565b6130b6565b92613bc88415156138cc565b838111613bfb575b5080613bf29293613be5613bec9315156138e2565b99976130e1565b94613527565b93949690613a77565b6040516316cf339960e21b81526004810191909152602481018490529190602083604481895af4928315613cf757613c57936020915f91613d19575b506040518095819263360816cf60e01b8352600483019190602083019252565b0381895af4928315613cf757613c9a936020915f91613cfc575b506040516330ed1f5d60e01b815260048101889052602481019190915293849081906044820190565b0381895af4928315613cf757613bf293613bec93613cbf925f92613cc7575b506130b6565b925090613bd0565b613ce991925060203d8111613cf0575b613ce1818361285b565b81019061304b565b905f613cb9565b503d613cd7565b612790565b613d139150823d8111613cf057613ce1818361285b565b5f613c71565b613d309150823d8111613cf057613ce1818361285b565b5f613c37565b613bb79a5090613d56613bbc9260203d8111613cf057613ce1818361285b565b9a5090613ba8565b50613b6d613d6b846137b8565b8211159050613b64565b5050613d8b613d83866130d1565b87858b614edc565b868111613eb0575b6040516316cf339960e21b815260048101829052602481018590529860208a604481895af4998a15613cf757613ded9a6020915f91613e93575b50604051809c819263ec6e92cd60e01b8352600483019190602083019252565b0381895af4998a15613cf757613e359a6020915f91613e76575b50604051809c81926316cf339960e21b835260048301919060206040840193670de0b6b3a764000081520152565b0381895af4998a15613cf757613b959a6020915f91613e59575b50919a5050613b54565b613e709150823d8111613cf057613ce1818361285b565b5f613e4f565b613e8d9150823d8111613cf057613ce1818361285b565b5f613e07565b613eaa9150823d8111613cf057613ce1818361285b565b5f613dcd565b5085613d93565b613ecf915060203d8111613cf057613ce1818361285b565b5f613b43565b613eec9150823d8111613cf057613ce1818361285b565b5f613b02565b613f099150823d8111613cf057613ce1818361285b565b5f613ac8565b85613a8f565b9650505050506139b3915080156138f8565b506103e88510613a80565b613f4c91965060203d602011613cf057613ce1818361285b565b945f613a3a565b613f6c915060203d602011613cf057613ce1818361285b565b5f613998565b91939092825f526002602052613f94613f8d60405f20612951565b8686613644565b909173__$cbaf8988f3c8d5491808e1d52afb16035a$__936040516330ed1f5d60e01b8152816004820152670de0b6b3a76400006024820152602081604481895af4908115612790575f9161449d575b505f198101908111612a61578083116142005750604051916316cf339960e21b835260048301526024820152602081604481875af4908115612790575f916141ce575b506040519063ec6e92cd60e01b82526004820152602081602481875af48015612790575f9061419b575b602091506044604051809681936316cf339960e21b8352670de0b6b3a7640000600484015260248301525af4928315612790575f93614167575b50662386f26fc1000083101580614154575b156141455773__$e8b8ff73fdf5e99c3df6a4b39aa1f5b319$__90845f52600360205260405f2091803b15610441576040516330f27d1f60e01b8152600481019390935263ffffffff9384166024840152921660448201526064810183905291905f9083908180608481015b03915af4908115612790575f51602061569b5f395f51905f5292602092614135575b50604051908152a4565b5f61413f9161285b565b5f61412b565b63a2f9e7b560e01b5f5260045ffd5b5068056bc75e2d6310000083111561409d565b9092506020813d602011614193575b816141836020938361285b565b810103126104415751915f61408b565b3d9150614176565b506020813d6020116141c6575b816141b56020938361285b565b810103126104415760209051614051565b3d91506141a8565b90506020813d6020116141f8575b816141e96020938361285b565b8101031261044157515f614027565b3d91506141dc565b97939692949890959161421389826130b6565b5f198101908111612a615789614228916137c4565b6103e8811161389e575097949097905f9573__$e8b8ff73fdf5e99c3df6a4b39aa1f5b319$__925b80151580614492575b15614471578181111561446a578b825b60208b6044604051809581936316cf339960e21b835286600484015260248301525af48015612790578e925f91614434575b5060209060246040518095819363ec6e92cd60e01b835260048301525af48015612790578e925f916143fe575b5080602091506044604051809581936316cf339960e21b8352670de0b6b3a7640000600484015260248301525af4918215612790575f926143cb575b50662386f26fc10000821015806143b8575b1561414557865f52600360205260405f2092863b15610441576040516330f27d1f60e01b8152600481019490945263ffffffff8d8116602486015286166044850152606484018390525f846084818a5af49384156127905789895f51602061569b5f395f51905f52602061439c978f956143a29a6143a8575b50604051908152a46130e1565b97613527565b96614250565b5f6143b29161285b565b5f61438f565b5068056bc75e2d63100000821115614316565b9091506020813d82116143f6575b816143e66020938361285b565b810103126104415751905f614304565b3d91506143d9565b9250506020823d821161442c575b816144196020938361285b565b810103126104415760208e9251906142c8565b3d915061440c565b9250506020823d8211614462575b8161444f6020938361285b565b810103126104415760208e92519061429b565b3d9150614442565b8b81614269565b999a5050505050505050505061448357565b6332581cb160e01b5f5260045ffd5b506103e88810614259565b90506020813d6020116144c7575b816144b86020938361285b565b8101031261044157515f613fe4565b3d91506144ab565b91939092825f5260026020526144ea613f8d60405f20612951565b909173__$cbaf8988f3c8d5491808e1d52afb16035a$__936040516330ed1f5d60e01b8152816004820152670de0b6b3a76400006024820152602081604481895af4908115612790575f9161484d575b505f198101908111612a615780831161465b5750604051916316cf339960e21b835260048301526024820152602081604481875af48015612790575f90614628575b6020915060246040518096819363ec6e92cd60e01b835260048301525af4928315612790575f936141675750662386f26fc100008310158061415457156141455773__$e8b8ff73fdf5e99c3df6a4b39aa1f5b319$__90845f52600360205260405f2091803b15610441576040516330f27d1f60e01b8152600481019390935263ffffffff9384166024840152921660448201526064810183905291905f908390818060848101614109565b506020813d602011614653575b816146426020938361285b565b81010312610441576020905161457c565b3d9150614635565b97939692949890959161466e89826130b6565b5f198101908111612a615789614683916137c4565b6103e8811161389e575097949097905f9573__$e8b8ff73fdf5e99c3df6a4b39aa1f5b319$__925b80151580614842575b15614471578181111561483b578b825b60208b6044604051809581936316cf339960e21b835286600484015260248301525af48015612790578e925f91614805575b5060209060246040518095819363ec6e92cd60e01b835260048301525af4918215612790575f926147d2575b50662386f26fc10000821015806147bf575b1561414557865f52600360205260405f2092863b15610441576040516330f27d1f60e01b8152600481019490945263ffffffff8d8116602486015286166044850152606484018390525f846084818a5af49384156127905789895f51602061569b5f395f51905f52602061439c978f956147b99a6143a85750604051908152a46130e1565b966146ab565b5068056bc75e2d63100000821115614734565b9091506020813d82116147fd575b816147ed6020938361285b565b810103126104415751905f614722565b3d91506147e0565b9250506020823d8211614833575b816148206020938361285b565b810103126104415760208e9251906146f6565b3d9150614813565b8b816146c4565b506103e888106146b4565b90506020813d602011614877575b816148686020938361285b565b8101031261044157515f61453a565b3d915061485b565b81614888575050565b5f5460405163a9059cbb60e01b60208201526001600160a01b0392831660248201526044808201949094529283526148cc9291166148c760648361285b565b6155e4565b565b156148d7575050565b6339bff21b60e01b5f5260045260245260445ffd5b9290916101209261490861392d865f52600260205260405f2090565b94614914868484613644565b95909601516040516330ed1f5d60e01b815260048101829052670de0b6b3a7640000602482015290959073__$cbaf8988f3c8d5491808e1d52afb16035a$__90602081604481855af48015613cf757614973915f91613f5357506130c3565b91828711614988575050506139b39550615416565b929350935094956020906149ba60026149a9865f52600360205260405f2090565b0154945f52600360205260405f2090565b60405163694f552560e01b8152600481019190915263ffffffff9182166024820152921660448301528160648173__$e8b8ff73fdf5e99c3df6a4b39aa1f5b319$__5af4908115613cf7575f91614dc3575b50929091614a1b8315156137b1565b614a2f613a6686613a61613a5c82876130b6565b5f919293905f925b84151580614db8575b15614da557614a7e919087861115614d9f57875b6040516316cf339960e21b815260048101829052602481018b905293602090859081906044820190565b0381865af4938415613cf757614ab8946020915f91614d5a575b506040518096819263ec6e92cd60e01b8352600483019190602083019252565b0381865af4938415613cf7575f94614d7f575b50614ad5846137b8565b8511614ca1575b6020614b1c9486158015614c8a575b614af4906138b6565b6040516330ed1f5d60e01b815260048101889052602481019190915294859081906044820190565b0381865af4938415613cf7575f94614c5a575b506020614b4585613bb7614b7b9697988c6130e1565b98614b538a828082116148ce565b6040516316cf339960e21b8152600481018b9052602481019190915293849081906044820190565b0381875af4928315613cf757614bb4936020915f91613d1957506040518095819263360816cf60e01b8352600483019190602083019252565b0381875af4928315613cf757614bf7936020915f91614c3d575b506040516330ed1f5d60e01b8152600481018d9052602481019190915293849081906044820190565b0381875af4928315613cf757614c3493614c2e93614c1b925f92613cc757506130b6565b97614c278215156138e2565b94966130e1565b93613527565b92939194614a37565b614c549150823d8111613cf057613ce1818361285b565b5f614bce565b614b7b939450614b45613bb796614c7f602093843d8111613cf057613ce1818361285b565b969550965050614b2f565b50614af4614c97886137b8565b8211159050614aeb565b509150614cb8614cb0856130d1565b868a86614edc565b91858311614d77575b6040516316cf339960e21b815260048101849052602481018a905292602084604481865af4938415613cf757614d1a946020915f91614d5a57506040518096819263ec6e92cd60e01b8352600483019190602083019252565b0381865af4938415613cf757614b1c946020915f91614d3d575b50945050614adc565b614d549150823d8111613cf057613ce1818361285b565b5f614d34565b614d719150823d8111613cf057613ce1818361285b565b5f614a98565b859250614cc1565b614d9891945060203d8111613cf057613ce1818361285b565b925f614acb565b85614a54565b965050505090506139b3915080156138f8565b506103e88410614a40565b614ddc915060203d602011613cf057613ce1818361285b565b5f614a0c565b919080614dee57509050565b5f546040516370a0823160e01b81526001600160a01b039485166004820181905290949092911690602085602481855afa948515612790575f95614e86575b50808510614e6b576148cc939450604051926323b872dd60e01b602085015260248401523060448401526064830152606482526148c760848361285b565b92505063db42144d60e01b5f5260045260245260445260645ffd5b9094506020813d602011614eb2575b81614ea26020938361285b565b810103126104415751935f614e2d565b3d9150614e95565b15614ec457505050565b63040b1c7360e21b5f5260045260245260445260645ffd5b90919392801561503f57614ef081866130b6565b5f19810191908211612a6157614f05916137c4565b918215615036575b6040516330ed1f5d60e01b815260048101829052670de0b6b3a7640000602482015273__$cbaf8988f3c8d5491808e1d52afb16035a$__92602082604481875af4918215612790575f92615001575b50602060449294604051938480926330ed1f5d60e01b82528760048301526802b5e3af16b188000060248301525af4918215612790575f92614fcd575b5011614fc2575b5080821015614fba5750915b808311614fb65750565b9150565b905091614fac565b600a9150045f614fa0565b9091506020813d602011614ff9575b81614fe96020938361285b565b810103126104415751905f614f99565b3d9150614fdc565b91506020823d60201161502e575b8161501c6020938361285b565b81010312610441579051906020614f5c565b3d915061500f565b60019250614f0d565b505050565b90919261505c61392d835f52600260205260405f2090565b906002615071845f52600360205260405f2090565b01546040516316cf339960e21b81526004810183905260248101889052909573__$cbaf8988f3c8d5491808e1d52afb16035a$__9591949091906020866044818a5af4958615613cf7576150e9966020915f916153ce575b506040518098819263ec6e92cd60e01b8352600483019190602083019252565b03818a5af4958615613cf757615131966020915f916153b1575b50604051809881926316cf339960e21b835260048301919060206040840193670de0b6b3a764000081520152565b03818a5af4948515613cf7576020965f9661538e575b50615153908484613644565b9690615167835f52600360205260405f2090565b60405163694f552560e01b8152600481019190915263ffffffff9182166024820152971660448801528660648173__$e8b8ff73fdf5e99c3df6a4b39aa1f5b319$__5af4958615613cf7575f9661536d575b506151c3856137b8565b861161535b5750505050906020615208926151de83876130e1565b6040516330ed1f5d60e01b8152600481019490945260248401919091529192839081906044820190565b0381865af4908115613cf757615224925f9261534157506130b6565b916152308315156138cc565b82811115612f66576040516316cf339960e21b815260048101919091526024810192909252602082604481845af4918215613cf757615293926020915f91615324575b506040518094819263360816cf60e01b8352600483019190602083019252565b0381845af4908115613cf7576152d7936020935f93615305575b506040518095819482936330ed1f5d60e01b84526004840160209093929193604081019481520152565b03915af4908115613cf7575f916152ec575090565b6139b3915060203d602011613cf057613ce1818361285b565b61531d919350843d8611613cf057613ce1818361285b565b915f6152ad565b61533b9150823d8411613cf057613ce1818361285b565b5f615273565b613ce991925060203d602011613cf057613ce1818361285b565b93509350935093506139b39450613912565b61538791965060203d602011613cf057613ce1818361285b565b945f6151b9565b6151539196506153aa90883d8a11613cf057613ce1818361285b565b9590615147565b6153c89150823d8411613cf057613ce1818361285b565b5f615103565b6153e59150823d8411613cf057613ce1818361285b565b5f6150c9565b60ff5f51602061573b5f395f51905f525460401c161561540757565b631afcd79f60e31b5f5260045ffd5b90919261542e61392d835f52600260205260405f2090565b906002615443845f52600360205260405f2090565b01546040516316cf339960e21b81526004810183905260248101889052909573__$cbaf8988f3c8d5491808e1d52afb16035a$__9591949091906020866044818a5af4958615613cf7576154ba966020915f916153ce57506040518098819263ec6e92cd60e01b8352600483019190602083019252565b03818a5af4948515613cf7576020965f966155c1575b506154dc908484613644565b96906154f0835f52600360205260405f2090565b60405163694f552560e01b8152600481019190915263ffffffff9182166024820152971660448801528660648173__$e8b8ff73fdf5e99c3df6a4b39aa1f5b319$__5af4958615613cf7575f966155a0575b5061554e8815156137b1565b615557856137b8565b861161558e5750505050906020615572926151de83876130e1565b0381865af4908115613cf757615230925f9261534157506130b6565b93509350935093506139b394506148ec565b6155ba91965060203d602011613cf057613ce1818361285b565b945f615542565b6154dc9196506155dd90883d8a11613cf057613ce1818361285b565b95906154d0565b905f602091828151910182855af115612790575f513d61563357506001600160a01b0381163b155b6156135750565b635274afe760e01b5f9081526001600160a01b0391909116600452602490fd5b6001141561560c565b90615660575080511561565157805190602001fd5b63d6bda27560e01b5f5260045ffd5b81511580615691575b615671575090565b639996b31560e01b5f9081526001600160a01b0391909116600452602490fd5b50803b1561566956fe221f633c06e4399f005a7cec7ba7c4ff189e3fe19092cbafe32a5f176ffc797f9016d09d72d40fdae2fd8ceac6b6234c7706214fd39c1cd1e609a0528c199300360894a13ba1a3210667c828492db98dca3e2076cc3735a920a3ca505d382bbccd5ed15c6e187e77e9aee88184c21f4f2182ab5827cb3b7e07fbedcd63f033009b779b17422d0df92223018b32b4d1fa46e071723d6817e2486d003becc55f00f0c57e16840df040f15088dc2f81fe391c3923bec73e23a9662efc9c229c6a00a164736f6c634300081e000a",
  "linkReferences": {
    "contracts/libraries/FixedPointMath.sol": {
      "FixedPointMathU": [
        {
          "length": 20,
          "start": 11149
        },
        {
          "length": 20,
          "start": 14744
        },
        {
          "length": 20,
          "start": 16326
        },
        {
          "length": 20,
          "start": 17692
        },
        {
          "length": 20,
          "start": 18798
        },
        {
          "length": 20,
          "start": 20319
        },
        {
          "length": 20,
          "start": 20672
        },
        {
          "length": 20,
          "start": 21650
        }
      ]
    },
    "contracts/libraries/LazyMulSegmentTree.sol": {
      "LazyMulSegmentTree": [
        {
          "length": 20,
          "start": 2348
        },
        {
          "length": 20,
          "start": 8522
        },
        {
          "length": 20,
          "start": 10013
        },
        {
          "length": 20,
          "start": 11092
        },
        {
          "length": 20,
          "start": 14917
        },
        {
          "length": 20,
          "start": 16594
        },
        {
          "length": 20,
          "start": 17001
        },
        {
          "length": 20,
          "start": 17901
        },
        {
          "length": 20,
          "start": 18116
        },
        {
          "length": 20,
          "start": 18967
        },
        {
          "length": 20,
          "start": 20932
        },
        {
          "length": 20,
          "start": 21837
        }
      ]
    }
  },
  "deployedLinkReferences": {
    "contracts/libraries/FixedPointMath.sol": {
      "FixedPointMathU": [
        {
          "length": 20,
          "start": 11103
        },
        {
          "length": 20,
          "start": 14698
        },
        {
          "length": 20,
          "start": 16280
        },
        {
          "length": 20,
          "start": 17646
        },
        {
          "length": 20,
          "start": 18752
        },
        {
          "length": 20,
          "start": 20273
        },
        {
          "length": 20,
          "start": 20626
        },
        {
          "length": 20,
          "start": 21604
        }
      ]
    },
    "contracts/libraries/LazyMulSegmentTree.sol": {
      "LazyMulSegmentTree": [
        {
          "length": 20,
          "start": 2302
        },
        {
          "length": 20,
          "start": 8476
        },
        {
          "length": 20,
          "start": 9967
        },
        {
          "length": 20,
          "start": 11046
        },
        {
          "length": 20,
          "start": 14871
        },
        {
          "length": 20,
          "start": 16548
        },
        {
          "length": 20,
          "start": 16955
        },
        {
          "length": 20,
          "start": 17855
        },
        {
          "length": 20,
          "start": 18070
        },
        {
          "length": 20,
          "start": 18921
        },
        {
          "length": 20,
          "start": 20886
        },
        {
          "length": 20,
          "start": 21791
        }
      ]
    }
  }
}