{
  "_format": "hh-sol-artifact-1",
  "contractName": "CLMSRMarketCore",
  "sourceName": "contracts/core/CLMSRMarketCore.sol",
  "abi": [
    {
      "inputs": [
        {
          "internalType": "address",
          "name": "_paymentToken",
          "type": "address"
        },
        {
          "internalType": "address",
          "name": "_positionContract",
          "type": "address"
        },
        {
          "internalType": "address",
          "name": "_managerContract",
          "type": "address"
        }
      ],
      "stateMutability": "nonpayable",
      "type": "constructor"
    },
    {
      "inputs": [
        {
          "internalType": "uint32",
          "name": "requested",
          "type": "uint32"
        },
        {
          "internalType": "uint32",
          "name": "maxAllowed",
          "type": "uint32"
        }
      ],
      "name": "BinCountExceedsLimit",
      "type": "error"
    },
    {
      "inputs": [],
      "name": "ContractPaused",
      "type": "error"
    },
    {
      "inputs": [
        {
          "internalType": "uint256",
          "name": "cost",
          "type": "uint256"
        },
        {
          "internalType": "uint256",
          "name": "maxAllowed",
          "type": "uint256"
        }
      ],
      "name": "CostExceedsMaximum",
      "type": "error"
    },
    {
      "inputs": [],
      "name": "FactorOutOfBounds",
      "type": "error"
    },
    {
      "inputs": [],
      "name": "IncompleteChunkProcessing",
      "type": "error"
    },
    {
      "inputs": [],
      "name": "InvalidLiquidityParameter",
      "type": "error"
    },
    {
      "inputs": [
        {
          "internalType": "int256",
          "name": "minTick",
          "type": "int256"
        },
        {
          "internalType": "int256",
          "name": "maxTick",
          "type": "int256"
        },
        {
          "internalType": "int256",
          "name": "tickSpacing",
          "type": "int256"
        }
      ],
      "name": "InvalidMarketParameters",
      "type": "error"
    },
    {
      "inputs": [
        {
          "internalType": "uint128",
          "name": "qty",
          "type": "uint128"
        }
      ],
      "name": "InvalidQuantity",
      "type": "error"
    },
    {
      "inputs": [
        {
          "internalType": "int256",
          "name": "tick",
          "type": "int256"
        },
        {
          "internalType": "int256",
          "name": "minTick",
          "type": "int256"
        },
        {
          "internalType": "int256",
          "name": "maxTick",
          "type": "int256"
        }
      ],
      "name": "InvalidTick",
      "type": "error"
    },
    {
      "inputs": [
        {
          "internalType": "int256",
          "name": "lowerTick",
          "type": "int256"
        },
        {
          "internalType": "int256",
          "name": "upperTick",
          "type": "int256"
        }
      ],
      "name": "InvalidTickRange",
      "type": "error"
    },
    {
      "inputs": [
        {
          "internalType": "int256",
          "name": "tick",
          "type": "int256"
        },
        {
          "internalType": "int256",
          "name": "tickSpacing",
          "type": "int256"
        }
      ],
      "name": "InvalidTickSpacing",
      "type": "error"
    },
    {
      "inputs": [],
      "name": "InvalidTimeRange",
      "type": "error"
    },
    {
      "inputs": [
        {
          "internalType": "uint256",
          "name": "marketId",
          "type": "uint256"
        }
      ],
      "name": "MarketAlreadyExists",
      "type": "error"
    },
    {
      "inputs": [
        {
          "internalType": "uint256",
          "name": "marketId",
          "type": "uint256"
        }
      ],
      "name": "MarketAlreadySettled",
      "type": "error"
    },
    {
      "inputs": [],
      "name": "MarketExpired",
      "type": "error"
    },
    {
      "inputs": [],
      "name": "MarketNotActive",
      "type": "error"
    },
    {
      "inputs": [
        {
          "internalType": "uint256",
          "name": "marketId",
          "type": "uint256"
        }
      ],
      "name": "MarketNotFound",
      "type": "error"
    },
    {
      "inputs": [
        {
          "internalType": "uint256",
          "name": "marketId",
          "type": "uint256"
        }
      ],
      "name": "MarketNotSettled",
      "type": "error"
    },
    {
      "inputs": [],
      "name": "MarketNotStarted",
      "type": "error"
    },
    {
      "inputs": [],
      "name": "ReentrancyGuardReentrantCall",
      "type": "error"
    },
    {
      "inputs": [
        {
          "internalType": "address",
          "name": "token",
          "type": "address"
        }
      ],
      "name": "SafeERC20FailedOperation",
      "type": "error"
    },
    {
      "inputs": [],
      "name": "TreeNotInitialized",
      "type": "error"
    },
    {
      "inputs": [
        {
          "internalType": "address",
          "name": "caller",
          "type": "address"
        }
      ],
      "name": "UnauthorizedCaller",
      "type": "error"
    },
    {
      "inputs": [],
      "name": "ZeroAddress",
      "type": "error"
    },
    {
      "anonymous": false,
      "inputs": [
        {
          "indexed": true,
          "internalType": "address",
          "name": "by",
          "type": "address"
        },
        {
          "indexed": false,
          "internalType": "string",
          "name": "reason",
          "type": "string"
        }
      ],
      "name": "EmergencyPaused",
      "type": "event"
    },
    {
      "anonymous": false,
      "inputs": [
        {
          "indexed": true,
          "internalType": "address",
          "name": "by",
          "type": "address"
        }
      ],
      "name": "EmergencyUnpaused",
      "type": "event"
    },
    {
      "anonymous": false,
      "inputs": [
        {
          "indexed": true,
          "internalType": "uint256",
          "name": "marketId",
          "type": "uint256"
        },
        {
          "indexed": false,
          "internalType": "uint64",
          "name": "startTimestamp",
          "type": "uint64"
        },
        {
          "indexed": false,
          "internalType": "uint64",
          "name": "endTimestamp",
          "type": "uint64"
        },
        {
          "indexed": false,
          "internalType": "int256",
          "name": "minTick",
          "type": "int256"
        },
        {
          "indexed": false,
          "internalType": "int256",
          "name": "maxTick",
          "type": "int256"
        },
        {
          "indexed": false,
          "internalType": "int256",
          "name": "tickSpacing",
          "type": "int256"
        },
        {
          "indexed": false,
          "internalType": "uint32",
          "name": "numBins",
          "type": "uint32"
        },
        {
          "indexed": false,
          "internalType": "uint256",
          "name": "liquidityParameter",
          "type": "uint256"
        }
      ],
      "name": "MarketCreated",
      "type": "event"
    },
    {
      "anonymous": false,
      "inputs": [
        {
          "indexed": true,
          "internalType": "uint256",
          "name": "marketId",
          "type": "uint256"
        },
        {
          "indexed": false,
          "internalType": "int256",
          "name": "settlementTick",
          "type": "int256"
        }
      ],
      "name": "MarketSettled",
      "type": "event"
    },
    {
      "anonymous": false,
      "inputs": [
        {
          "indexed": true,
          "internalType": "uint256",
          "name": "positionId",
          "type": "uint256"
        },
        {
          "indexed": true,
          "internalType": "address",
          "name": "trader",
          "type": "address"
        },
        {
          "indexed": false,
          "internalType": "uint256",
          "name": "payout",
          "type": "uint256"
        }
      ],
      "name": "PositionClaimed",
      "type": "event"
    },
    {
      "anonymous": false,
      "inputs": [
        {
          "indexed": true,
          "internalType": "uint256",
          "name": "positionId",
          "type": "uint256"
        },
        {
          "indexed": true,
          "internalType": "address",
          "name": "trader",
          "type": "address"
        },
        {
          "indexed": false,
          "internalType": "uint256",
          "name": "proceeds",
          "type": "uint256"
        }
      ],
      "name": "PositionClosed",
      "type": "event"
    },
    {
      "anonymous": false,
      "inputs": [
        {
          "indexed": true,
          "internalType": "uint256",
          "name": "positionId",
          "type": "uint256"
        },
        {
          "indexed": true,
          "internalType": "address",
          "name": "trader",
          "type": "address"
        },
        {
          "indexed": false,
          "internalType": "uint128",
          "name": "sellQuantity",
          "type": "uint128"
        },
        {
          "indexed": false,
          "internalType": "uint128",
          "name": "newQuantity",
          "type": "uint128"
        },
        {
          "indexed": false,
          "internalType": "uint256",
          "name": "proceeds",
          "type": "uint256"
        }
      ],
      "name": "PositionDecreased",
      "type": "event"
    },
    {
      "anonymous": false,
      "inputs": [
        {
          "indexed": true,
          "internalType": "uint256",
          "name": "positionId",
          "type": "uint256"
        },
        {
          "indexed": true,
          "internalType": "address",
          "name": "trader",
          "type": "address"
        },
        {
          "indexed": false,
          "internalType": "uint128",
          "name": "additionalQuantity",
          "type": "uint128"
        },
        {
          "indexed": false,
          "internalType": "uint128",
          "name": "newQuantity",
          "type": "uint128"
        },
        {
          "indexed": false,
          "internalType": "uint256",
          "name": "cost",
          "type": "uint256"
        }
      ],
      "name": "PositionIncreased",
      "type": "event"
    },
    {
      "anonymous": false,
      "inputs": [
        {
          "indexed": true,
          "internalType": "uint256",
          "name": "positionId",
          "type": "uint256"
        },
        {
          "indexed": true,
          "internalType": "address",
          "name": "trader",
          "type": "address"
        },
        {
          "indexed": true,
          "internalType": "uint256",
          "name": "marketId",
          "type": "uint256"
        },
        {
          "indexed": false,
          "internalType": "int256",
          "name": "lowerTick",
          "type": "int256"
        },
        {
          "indexed": false,
          "internalType": "int256",
          "name": "upperTick",
          "type": "int256"
        },
        {
          "indexed": false,
          "internalType": "uint128",
          "name": "quantity",
          "type": "uint128"
        },
        {
          "indexed": false,
          "internalType": "uint256",
          "name": "cost",
          "type": "uint256"
        }
      ],
      "name": "PositionOpened",
      "type": "event"
    },
    {
      "anonymous": false,
      "inputs": [
        {
          "indexed": true,
          "internalType": "uint256",
          "name": "marketId",
          "type": "uint256"
        },
        {
          "indexed": true,
          "internalType": "int256",
          "name": "lo",
          "type": "int256"
        },
        {
          "indexed": true,
          "internalType": "int256",
          "name": "hi",
          "type": "int256"
        },
        {
          "indexed": false,
          "internalType": "uint256",
          "name": "factor",
          "type": "uint256"
        }
      ],
      "name": "RangeFactorApplied",
      "type": "event"
    },
    {
      "inputs": [],
      "name": "MAX_LIQUIDITY_PARAMETER",
      "outputs": [
        {
          "internalType": "uint256",
          "name": "",
          "type": "uint256"
        }
      ],
      "stateMutability": "view",
      "type": "function"
    },
    {
      "inputs": [],
      "name": "MAX_TICK_COUNT",
      "outputs": [
        {
          "internalType": "uint32",
          "name": "",
          "type": "uint32"
        }
      ],
      "stateMutability": "view",
      "type": "function"
    },
    {
      "inputs": [],
      "name": "MIN_LIQUIDITY_PARAMETER",
      "outputs": [
        {
          "internalType": "uint256",
          "name": "",
          "type": "uint256"
        }
      ],
      "stateMutability": "view",
      "type": "function"
    },
    {
      "inputs": [
        {
          "internalType": "uint256",
          "name": "marketId",
          "type": "uint256"
        },
        {
          "internalType": "int256",
          "name": "lo",
          "type": "int256"
        },
        {
          "internalType": "int256",
          "name": "hi",
          "type": "int256"
        },
        {
          "internalType": "uint256",
          "name": "factor",
          "type": "uint256"
        }
      ],
      "name": "applyRangeFactor",
      "outputs": [],
      "stateMutability": "nonpayable",
      "type": "function"
    },
    {
      "inputs": [
        {
          "internalType": "uint256",
          "name": "positionId",
          "type": "uint256"
        }
      ],
      "name": "calculateClaimAmount",
      "outputs": [
        {
          "internalType": "uint256",
          "name": "amount",
          "type": "uint256"
        }
      ],
      "stateMutability": "view",
      "type": "function"
    },
    {
      "inputs": [
        {
          "internalType": "uint256",
          "name": "positionId",
          "type": "uint256"
        }
      ],
      "name": "calculateCloseProceeds",
      "outputs": [
        {
          "internalType": "uint256",
          "name": "proceeds",
          "type": "uint256"
        }
      ],
      "stateMutability": "view",
      "type": "function"
    },
    {
      "inputs": [
        {
          "internalType": "uint256",
          "name": "positionId",
          "type": "uint256"
        },
        {
          "internalType": "uint128",
          "name": "sellQuantity",
          "type": "uint128"
        }
      ],
      "name": "calculateDecreaseProceeds",
      "outputs": [
        {
          "internalType": "uint256",
          "name": "proceeds",
          "type": "uint256"
        }
      ],
      "stateMutability": "view",
      "type": "function"
    },
    {
      "inputs": [
        {
          "internalType": "uint256",
          "name": "positionId",
          "type": "uint256"
        },
        {
          "internalType": "uint128",
          "name": "additionalQuantity",
          "type": "uint128"
        }
      ],
      "name": "calculateIncreaseCost",
      "outputs": [
        {
          "internalType": "uint256",
          "name": "cost",
          "type": "uint256"
        }
      ],
      "stateMutability": "view",
      "type": "function"
    },
    {
      "inputs": [
        {
          "internalType": "uint256",
          "name": "marketId",
          "type": "uint256"
        },
        {
          "internalType": "int256",
          "name": "lowerTick",
          "type": "int256"
        },
        {
          "internalType": "int256",
          "name": "upperTick",
          "type": "int256"
        },
        {
          "internalType": "uint128",
          "name": "quantity",
          "type": "uint128"
        }
      ],
      "name": "calculateOpenCost",
      "outputs": [
        {
          "internalType": "uint256",
          "name": "cost",
          "type": "uint256"
        }
      ],
      "stateMutability": "view",
      "type": "function"
    },
    {
      "inputs": [
        {
          "internalType": "uint256",
          "name": "positionId",
          "type": "uint256"
        }
      ],
      "name": "claimPayout",
      "outputs": [
        {
          "internalType": "uint256",
          "name": "payout",
          "type": "uint256"
        }
      ],
      "stateMutability": "nonpayable",
      "type": "function"
    },
    {
      "inputs": [
        {
          "internalType": "uint256",
          "name": "positionId",
          "type": "uint256"
        },
        {
          "internalType": "uint256",
          "name": "minProceeds",
          "type": "uint256"
        }
      ],
      "name": "closePosition",
      "outputs": [
        {
          "internalType": "uint256",
          "name": "proceeds",
          "type": "uint256"
        }
      ],
      "stateMutability": "nonpayable",
      "type": "function"
    },
    {
      "inputs": [
        {
          "internalType": "uint256",
          "name": "marketId",
          "type": "uint256"
        },
        {
          "internalType": "int256",
          "name": "minTick",
          "type": "int256"
        },
        {
          "internalType": "int256",
          "name": "maxTick",
          "type": "int256"
        },
        {
          "internalType": "int256",
          "name": "tickSpacing",
          "type": "int256"
        },
        {
          "internalType": "uint64",
          "name": "startTimestamp",
          "type": "uint64"
        },
        {
          "internalType": "uint64",
          "name": "endTimestamp",
          "type": "uint64"
        },
        {
          "internalType": "uint256",
          "name": "liquidityParameter",
          "type": "uint256"
        }
      ],
      "name": "createMarket",
      "outputs": [],
      "stateMutability": "nonpayable",
      "type": "function"
    },
    {
      "inputs": [
        {
          "internalType": "uint256",
          "name": "positionId",
          "type": "uint256"
        },
        {
          "internalType": "uint128",
          "name": "sellQuantity",
          "type": "uint128"
        },
        {
          "internalType": "uint256",
          "name": "minProceeds",
          "type": "uint256"
        }
      ],
      "name": "decreasePosition",
      "outputs": [
        {
          "internalType": "uint128",
          "name": "newQuantity",
          "type": "uint128"
        },
        {
          "internalType": "uint256",
          "name": "proceeds",
          "type": "uint256"
        }
      ],
      "stateMutability": "nonpayable",
      "type": "function"
    },
    {
      "inputs": [],
      "name": "getManagerContract",
      "outputs": [
        {
          "internalType": "address",
          "name": "",
          "type": "address"
        }
      ],
      "stateMutability": "view",
      "type": "function"
    },
    {
      "inputs": [
        {
          "internalType": "uint256",
          "name": "marketId",
          "type": "uint256"
        }
      ],
      "name": "getMarket",
      "outputs": [
        {
          "components": [
            {
              "internalType": "bool",
              "name": "isActive",
              "type": "bool"
            },
            {
              "internalType": "bool",
              "name": "settled",
              "type": "bool"
            },
            {
              "internalType": "uint64",
              "name": "startTimestamp",
              "type": "uint64"
            },
            {
              "internalType": "uint64",
              "name": "endTimestamp",
              "type": "uint64"
            },
            {
              "internalType": "int256",
              "name": "settlementTick",
              "type": "int256"
            },
            {
              "internalType": "int256",
              "name": "minTick",
              "type": "int256"
            },
            {
              "internalType": "int256",
              "name": "maxTick",
              "type": "int256"
            },
            {
              "internalType": "int256",
              "name": "tickSpacing",
              "type": "int256"
            },
            {
              "internalType": "uint32",
              "name": "numBins",
              "type": "uint32"
            },
            {
              "internalType": "uint256",
              "name": "liquidityParameter",
              "type": "uint256"
            }
          ],
          "internalType": "struct ICLMSRMarketCore.Market",
          "name": "market",
          "type": "tuple"
        }
      ],
      "stateMutability": "view",
      "type": "function"
    },
    {
      "inputs": [],
      "name": "getPaymentToken",
      "outputs": [
        {
          "internalType": "address",
          "name": "",
          "type": "address"
        }
      ],
      "stateMutability": "view",
      "type": "function"
    },
    {
      "inputs": [],
      "name": "getPositionContract",
      "outputs": [
        {
          "internalType": "address",
          "name": "",
          "type": "address"
        }
      ],
      "stateMutability": "view",
      "type": "function"
    },
    {
      "inputs": [
        {
          "internalType": "uint256",
          "name": "marketId",
          "type": "uint256"
        },
        {
          "internalType": "int256",
          "name": "lo",
          "type": "int256"
        },
        {
          "internalType": "int256",
          "name": "hi",
          "type": "int256"
        }
      ],
      "name": "getRangeSum",
      "outputs": [
        {
          "internalType": "uint256",
          "name": "sum",
          "type": "uint256"
        }
      ],
      "stateMutability": "view",
      "type": "function"
    },
    {
      "inputs": [
        {
          "internalType": "uint256",
          "name": "marketId",
          "type": "uint256"
        },
        {
          "internalType": "int256",
          "name": "tick",
          "type": "int256"
        }
      ],
      "name": "getTickValue",
      "outputs": [
        {
          "internalType": "uint256",
          "name": "value",
          "type": "uint256"
        }
      ],
      "stateMutability": "view",
      "type": "function"
    },
    {
      "inputs": [
        {
          "internalType": "uint256",
          "name": "positionId",
          "type": "uint256"
        },
        {
          "internalType": "uint128",
          "name": "additionalQuantity",
          "type": "uint128"
        },
        {
          "internalType": "uint256",
          "name": "maxCost",
          "type": "uint256"
        }
      ],
      "name": "increasePosition",
      "outputs": [
        {
          "internalType": "uint128",
          "name": "newQuantity",
          "type": "uint128"
        }
      ],
      "stateMutability": "nonpayable",
      "type": "function"
    },
    {
      "inputs": [],
      "name": "isPaused",
      "outputs": [
        {
          "internalType": "bool",
          "name": "",
          "type": "bool"
        }
      ],
      "stateMutability": "view",
      "type": "function"
    },
    {
      "inputs": [],
      "name": "managerContract",
      "outputs": [
        {
          "internalType": "address",
          "name": "",
          "type": "address"
        }
      ],
      "stateMutability": "view",
      "type": "function"
    },
    {
      "inputs": [
        {
          "internalType": "uint256",
          "name": "",
          "type": "uint256"
        }
      ],
      "name": "marketTrees",
      "outputs": [
        {
          "internalType": "uint32",
          "name": "root",
          "type": "uint32"
        },
        {
          "internalType": "uint32",
          "name": "nextIndex",
          "type": "uint32"
        },
        {
          "internalType": "uint32",
          "name": "size",
          "type": "uint32"
        },
        {
          "internalType": "uint256",
          "name": "cachedRootSum",
          "type": "uint256"
        }
      ],
      "stateMutability": "view",
      "type": "function"
    },
    {
      "inputs": [
        {
          "internalType": "uint256",
          "name": "",
          "type": "uint256"
        }
      ],
      "name": "markets",
      "outputs": [
        {
          "internalType": "bool",
          "name": "isActive",
          "type": "bool"
        },
        {
          "internalType": "bool",
          "name": "settled",
          "type": "bool"
        },
        {
          "internalType": "uint64",
          "name": "startTimestamp",
          "type": "uint64"
        },
        {
          "internalType": "uint64",
          "name": "endTimestamp",
          "type": "uint64"
        },
        {
          "internalType": "int256",
          "name": "settlementTick",
          "type": "int256"
        },
        {
          "internalType": "int256",
          "name": "minTick",
          "type": "int256"
        },
        {
          "internalType": "int256",
          "name": "maxTick",
          "type": "int256"
        },
        {
          "internalType": "int256",
          "name": "tickSpacing",
          "type": "int256"
        },
        {
          "internalType": "uint32",
          "name": "numBins",
          "type": "uint32"
        },
        {
          "internalType": "uint256",
          "name": "liquidityParameter",
          "type": "uint256"
        }
      ],
      "stateMutability": "view",
      "type": "function"
    },
    {
      "inputs": [
        {
          "internalType": "uint256",
          "name": "marketId",
          "type": "uint256"
        },
        {
          "internalType": "int256",
          "name": "lowerTick",
          "type": "int256"
        },
        {
          "internalType": "int256",
          "name": "upperTick",
          "type": "int256"
        },
        {
          "internalType": "uint128",
          "name": "quantity",
          "type": "uint128"
        },
        {
          "internalType": "uint256",
          "name": "maxCost",
          "type": "uint256"
        }
      ],
      "name": "openPosition",
      "outputs": [
        {
          "internalType": "uint256",
          "name": "positionId",
          "type": "uint256"
        }
      ],
      "stateMutability": "nonpayable",
      "type": "function"
    },
    {
      "inputs": [
        {
          "internalType": "string",
          "name": "reason",
          "type": "string"
        }
      ],
      "name": "pause",
      "outputs": [],
      "stateMutability": "nonpayable",
      "type": "function"
    },
    {
      "inputs": [],
      "name": "paused",
      "outputs": [
        {
          "internalType": "bool",
          "name": "",
          "type": "bool"
        }
      ],
      "stateMutability": "view",
      "type": "function"
    },
    {
      "inputs": [],
      "name": "paymentToken",
      "outputs": [
        {
          "internalType": "contract IERC20",
          "name": "",
          "type": "address"
        }
      ],
      "stateMutability": "view",
      "type": "function"
    },
    {
      "inputs": [],
      "name": "positionContract",
      "outputs": [
        {
          "internalType": "contract ICLMSRPosition",
          "name": "",
          "type": "address"
        }
      ],
      "stateMutability": "view",
      "type": "function"
    },
    {
      "inputs": [
        {
          "internalType": "uint256",
          "name": "marketId",
          "type": "uint256"
        },
        {
          "internalType": "int256",
          "name": "lo",
          "type": "int256"
        },
        {
          "internalType": "int256",
          "name": "hi",
          "type": "int256"
        }
      ],
      "name": "propagateLazy",
      "outputs": [
        {
          "internalType": "uint256",
          "name": "sum",
          "type": "uint256"
        }
      ],
      "stateMutability": "nonpayable",
      "type": "function"
    },
    {
      "inputs": [
        {
          "internalType": "uint256",
          "name": "marketId",
          "type": "uint256"
        },
        {
          "internalType": "int256",
          "name": "settlementTick",
          "type": "int256"
        }
      ],
      "name": "settleMarket",
      "outputs": [],
      "stateMutability": "nonpayable",
      "type": "function"
    },
    {
      "inputs": [],
      "name": "unpause",
      "outputs": [],
      "stateMutability": "nonpayable",
      "type": "function"
    }
  ],
  "bytecode": "0x60e0346200019d57601f6200503138819003918201601f19168301916001600160401b03831184841017620001a2578084926060946040528339810103126200019d576200004d81620001b8565b6200006960406200006160208501620001b8565b9301620001b8565b6001600055916001600160a01b039182168015801562000192575b801562000187575b62000175576080521660a05260c052604051614e639081620001ce82396080518181816109e90152818161407601526145ea015260a0518181816106ea015281816109a401528181610dce01528181610eb30152818161109701528181611175015281816116b90152818161170801528181611a0c01528181611a5101528181611aeb01528181611b43015281816123210152818161241b0152818161246b0152818161270e015281816127550152613216015260c0518181816101ce01528181610b8e0152818161153d0152818161207f0152818161228a01528181612c3d0152612dd20152f35b60405163d92e233d60e01b8152600490fd5b50828416156200008c565b508282161562000084565b600080fd5b634e487b7160e01b600052604160045260246000fd5b51906001600160a01b03821682036200019d5756fe60a080604052600436101561001357600080fd5b60009060e0908235821c908163070ab8c914612c185750806309f28be61461098e57806313b6eb0914612bf15780632710ac8014610d9a5780632d6ce61d146123cd5780632ed66650146123ab5780633013ce29146109d35780633d65117b146122ea5780633f4ba83a14612277578063449a0388146121c357806344a1a58e1461206b5780635c975abb14610cd15780636084fa0314611663578063692c3fc71461160c5780636da66355146114f25780636ec469b1146113c35780637404d957146113a557806379334798146111215780637ed54782146110605780638a69614e14610e6b5780639fc46ecb14610d9f578063a3a6b8ce14610d9a578063b1283e7714610cf4578063b187bd2614610cd1578063b762d83414610b7d578063bcb1732214610b59578063c9ac6b3114610a18578063d41c3a65146109d3578063e9eb3ba51461098e578063eb44fdd314610865578063f0b7f3b11461057c5763f980b80c1461018357600080fd5b34610578578060031936011261057857600435906001600160401b039060843582811690602480359160643590604435908590036105735760a4359687168097036105735760c435937f00000000000000000000000000000000000000000000000000000000000000006001600160a01b0316330361055c5760ff6001541661054a5761022689600052600260205263ffffffff60056040600020015416151590565b610532578181121561050957898313156105095761024d836102488385613017565b613030565b61050957878610156104f75766038d7ea4c68000851080156104e5575b6104d3576102818361027c8385613017565b6130e0565b938a8513806104c6575b1561048c5763ffffffff8095169485158015610480575b61045f57908a87878e9488888f8f8f908b928b926040519a6102c38c612eb0565b60018c5260208c019385855260408d0192835260608d0193845260808d0195865260a08d0196875260c08d019788528c019788526101008c01998a526101208c019a8b528d52600260205260408d209a511515928b549051151560081b61ff0016915160101b69ffffffffffffffff000016926001600160401b0360501b905160501b169360ff169071ffffffffffffffffffffffffffffffffffff19161717171788555160018801555160028701555160038601555160048501556005840191511663ffffffff1982541617905551906006015573__$e8b8ff73fdf5e99c3df6a4b39aa1f5b319$__9060036020526040832090823b1561045b57604484928994604051958694859363d886284b60e01b855260048501528301525af4801561045057610438575b50507f2453c1a297c658a5b6905526d84f0b4ac79c0d9cc5fb5601664602efee53121497604051968752602087015260408601526060850152608084015260a083015260c0820152a280f35b61044190612e87565b61044c5789386103ec565b8980fd5b6040513d84823e3d90fd5b8380fd5b60405163515eb6ff60e11b815260048101879052620f424081840152604490fd5b50620f424086116102a2565b60649060136040519162461bcd60e51b83526020600484015282015272125b9d985b1a59081c985b99d94818dbdd5b9d606a1b6044820152fd5b50620f424085131561028b565b604051630b281d1960e31b8152600490fd5b50683635c9adc5dea00000851161026a565b60405163536a71af60e01b8152600490fd5b60405163040b1c7360e21b81526004810191909152602481019190915260448101829052606490fd5b6040516311453d1960e31b8152600481018a90528490fd5b60405163ab35696f60e01b8152600490fd5b60405163d86ad9cf60e01b81523360048201528490fd5b600080fd5b5080fd5b82346108625760a03660031901126108625760446024600435813583356105a1612e17565b906084359160ff6001541661054a576001600160801b03906105c16132d6565b1690811561084a576000858152600260209081526040909120600581015491989163ffffffff161561083257805460ff811615610820576001600160401b0390818160101c16421061080e5760501c1642116107fc5761062961062382612eed565b87613050565b61063b61063582612eed565b84613050565b8286136107df578286146107df576106629060046106598886613017565b91015490613030565b6107c35764e8d4a510008084029064e8d4a50fff61068283868a8c61409c565b0104948086116107a75750906106b7869261069d873361458f565b8860005260028b526006604060002001549085858b613b42565b6040516330906fad60e21b81523360048201529788018790528701526064860181905260848601829052868660a48160007f00000000000000000000000000000000000000000000000000000000000000006001600160a01b03165af195861561079b5760009661076c575b506040519384528684015260408301526060820152827fc33c3b4ea19b40f02901978a93e787a0caa1d6fd23dfa228ae891fe96867e17160803393a46001600055604051908152f35b9095508681813d8311610794575b6107848183612ecc565b8101031261057357519487610723565b503d61077a565b6040513d6000823e3d90fd5b859150886040519263f6daf99360e01b84526004840152820152fd5b604051631150381b60e11b815260048101869052808801839052fd5b50604051631150381b60e11b815260048101869052808801839052fd5b60405163b2094b5960e01b8152600490fd5b604051630ee8c41760e31b8152600490fd5b604051635a90bb8d60e11b8152600490fd5b604051634cba20ef60e01b8152600481018890528890fd5b604051633b59e48960e11b8152600481018390528690fd5b80fd5b5034610578576020366003190112610578576040516004359261088782612eb0565b8082528060208301528060408301528060608301528060808301528060a08301528060c0830152808383015261010090808284015280610120809401526108e485600052600260205263ffffffff60056040600020015416151590565b15610975579061090260408361014097869552600260205220612eed565b906040519482511515865260208301511515602087015260408301516001600160401b03809116604088015260608401511660608701526080830151608087015260a083015160a087015260c083015160c0870152808301519086015263ffffffff818301511690850152015190820152f35b604051634cba20ef60e01b815260048101869052602490fd5b82346108625780600319360112610862576040517f00000000000000000000000000000000000000000000000000000000000000006001600160a01b03168152602090f35b82346108625780600319360112610862576040517f00000000000000000000000000000000000000000000000000000000000000006001600160a01b03168152602090f35b5090346108625760803660031901126108625750600435906024803560443591610a40612e17565b610a6086600052600260205263ffffffff60056040600020015416151590565b15610b42576001600160801b0316938415610b2b57856000526002602052610a8b6040600020612eed565b90610a968285613050565b610aa08286613050565b848413610b0e57848414610b0e5790610ac691610abd8587613017565b91015190613030565b610af2575060209364e8d4a50fff92610ae89264e8d4a510008096029261409c565b0104604051908152f35b9160449260405192631150381b60e11b84526004840152820152fd5b604484868560405192631150381b60e11b84526004840152820152fd5b50604051633b59e48960e11b815260048101859052fd5b50604051634cba20ef60e01b815260048101869052fd5b82346108625780600319360112610862576020604051683635c9adc5dea000008152f35b823461086257610b8c36612e71565b7f00000000000000000000000000000000000000000000000000000000000000006001600160a01b03163303610cb957610bdc82600052600260205263ffffffff60056040600020015416151590565b15610ca057818352600260205260408320805460ff8160081c16610c875760028201548084128015610c7a575b610c4f57506001820183905561ffff19166101001790556040519081527fca3a568dfb73dd7b7b3c0b28f130edbf4b688f534869c3de083664c43c11430e90602090a280f35b6003830154604051638a228b0d60e01b81526004810186905260248101929092526044820152606490fd5b5060038301548413610c09565b604051634e0558fb60e01b815260048101859052602490fd5b604051634cba20ef60e01b815260048101839052602490fd5b60405163d86ad9cf60e01b8152336004820152602490fd5b8234610862578060031936011261086257602060ff600154166040519015158152f35b5034610578576020366003190112610578576040610140926004358152600260205220908154916001600160401b03916001820154906002830154600384015490600485015493600663ffffffff600588015416960154966040519860ff811615158a5260ff8160081c16151560208b0152818160101c1660408b015260501c166060890152608088015260a087015260c0860152840152610100830152610120820152f35b612dbc565b82346108625760203660031901126108625760405163eb02c30160e01b8152600480359082015260a0816024817f00000000000000000000000000000000000000000000000000000000000000006001600160a01b03165afa90811561079b5760209291610e3c575b5064e8d4a50fff610ae864e8d4a5100092836001600160801b03606083015116029080519060408782015191015191613390565b610e5e915060a03d60a011610e64575b610e568183612ecc565b810190612f76565b82610e08565b503d610e4c565b82346108625760209081600319360112610862576004359060ff6001541661054a57610e956132d6565b60405163eb02c30160e01b8152600481018390526001600160a01b037f0000000000000000000000000000000000000000000000000000000000000000811693919060a082602481885afa918215611055578492611034575b506040516331a9108f60e11b815260048101849052908682602481895afa918215611029578592610ffa575b5033911603610cb957805183526002855284610f3860408520612eed565b015115610fe15750610f49816131f9565b92610f548433614021565b803b15610fdd57828091602460405180948193630e3298ef60e21b83528760048401525af18015610fd257610fbe575b5090600191604051908482527ff18ca9717b47ea7629d17b5d7b2ede46e864155725629e7d0347924c2f6d112d863393a355604051908152f35b610fc88391612e87565b6105785784610f84565b6040513d85823e3d90fd5b8280fd5b602490516040519063b23e5f9f60e01b82526004820152fd5b61101b919250873d8911611022575b6110138183612ecc565b810190612fe9565b9087610f1a565b503d611009565b6040513d87823e3d90fd5b61104e91925060a03d60a011610e6457610e568183612ecc565b9086610eee565b6040513d86823e3d90fd5b82346108625760403660031901126108625761107a612e01565b60405163eb02c30160e01b8152600480359082015260a0816024817f00000000000000000000000000000000000000000000000000000000000000006001600160a01b03165afa92831561079b5760209364e8d4a50fff92610ae89291611102575b5064e8d4a51000938151906040866001600160801b03898601519316029301519161409c565b61111b915060a03d60a011610e6457610e568183612ecc565b856110dc565b82346108625761113036612e47565b9060ff6001541661054a576111436132d6565b6001600160801b039081811693841561138c5760405163eb02c30160e01b8152600481018290526001600160a01b03957f000000000000000000000000000000000000000000000000000000000000000087169160a081602481865afa90811561079b5760009161136d575b506040516331a9108f60e11b8152600481018590526020988982602481885afa91821561079b5760009261134e575b5033911603610cb9576111f181516132f9565b805188820190815190604084019064e8d4a50fff61121d83519264e8d4a5100093848a0296879261409c565b010499808b1161133057506060928994928c61125a9361123d8e3361458f565b600286519451915192856000525260066040600020015493613b42565b015116019484861161131a57813b1561057357604051630168610b60e51b8152600481018490526001600160801b0387166024820152916000908390604490829084905af190811561079b577fa9efae0c21a2db158c2af2d36b5c18dc14d792a79dfab662442466a80095ea5f926112fa9261130b575b50604080516001600160801b039687168152958816602087015285015233939081906060820190565b0390a3600160005560405191168152f35b61131490612e87565b886112d1565b634e487b7160e01b600052601160045260246000fd5b8a6044916040519163f6daf99360e01b835260048301526024820152fd5b6113669192508a3d8c11611022576110138183612ecc565b908a6111de565b611386915060a03d60a011610e6457610e568183612ecc565b886111af565b604051633b59e48960e11b815260048101869052602490fd5b82346108625780600319360112610862576020604051620f42408152f35b509034610862576113d336612e71565b926113f482600052600260205263ffffffff60056040600020015416151590565b15610ca0578183526020936002855261140f60408520612eed565b9161141a8383613050565b820151908181019182128582129080158216911516176114de57916114409186936130fb565b928452600382526040808520905163694f552560e01b8152600481019190915263ffffffff9182166024820152921660448301528160648173__$e8b8ff73fdf5e99c3df6a4b39aa1f5b319$__5af49182156114d257916114a5575b50604051908152f35b90508181813d83116114cb575b6114bc8183612ecc565b8101031261057357513861149c565b503d6114b2565b604051903d90823e3d90fd5b634e487b7160e01b85526011600452602485fd5b82346108625760208060031936011261057857600435906001600160401b0380831161045b573660238401121561045b57826004013590811161045b57366024828501011161045b577f00000000000000000000000000000000000000000000000000000000000000006001600160a01b03163303610cb9578382601f1992806024604051976115898588601f860116018a612ecc565b828952018388013785010152600160ff1981541617600155604051918083528351938482850152855b8581106115f857505050906040817f375c0abd968f4602b557f6ac9a48ffc89820233aa9becc5d7ff1176fd09eafff9386838784010152601f339601168101030190a280f35b8181018301518582016040015282016115b2565b82346108625760203660031901126108625760406080916004358152600360205220600181015490600263ffffffff91015490604051928181168452818160201c16602085015260401c1660408301526060820152f35b82346108625761167236612e47565b60ff6001541661054a576116846132d6565b6001600160801b0382161561200c5760405163eb02c30160e01b8152600481018490526001600160a01b03929060a0816024817f000000000000000000000000000000000000000000000000000000000000000088165afa90811561079b5760009161204c575b506040516331a9108f60e11b8152600481018690526020816024817f000000000000000000000000000000000000000000000000000000000000000089165afa90811561079b5760009161202d575b508433911603610cb95761174e81516132f9565b6001600160801b036060820151166001600160801b0383161161200c57805160208201805190604084019164e8d4a50fff6117a084519564e8d4a51000968794856001600160801b038c160292613390565b010495808710611fee5750835190519151928160005260026020526040600020906117d96117d2600684015493612eed565b86866130fb565b608052916040516330ed1f5d60e01b81528160048201526701cdda4faccd0000602482015260208160448173__$cbaf8988f3c8d5491808e1d52afb16035a$__5af490811561079b57600091611fbc575b508060001981011161131a5760001981016001600160801b038a16840211611c755750604051906316cf339960e21b928383526001600160801b038a16026004830152602482015260208160448173__$cbaf8988f3c8d5491808e1d52afb16035a$__5af490811561079b57600091611c43575b506040519063ec6e92cd60e01b8252600482015260208160248173__$cbaf8988f3c8d5491808e1d52afb16035a$__5af490811561079b57600091611c11575b50604051918252670de0b6b3a76400006004830152602482015260208160448173__$cbaf8988f3c8d5491808e1d52afb16035a$__5af490811561079b57600091611bdf575b50662386f26fc1000081108015611bcd575b611bbb5773__$e8b8ff73fdf5e99c3df6a4b39aa1f5b319$__91836000526003602052604060002090833b15610573576040516330f27d1f60e01b8152608051600482019390935263ffffffff9182166024820152911660448201526064810182905291600090839060849082905af490811561079b57600080516020614e0e83398151915292602092611bac575b50604051908152a45b6119d88333614021565b6001600160801b0360608184169201511603936001600160801b03851161131a576001600160801b0385169384611ae857807f0000000000000000000000000000000000000000000000000000000000000000163b156105735760008091602460405180948193630e3298ef60e21b83528760048401527f0000000000000000000000000000000000000000000000000000000000000000165af1801561079b576040967fe3a918fd34698242cc99d5ba0987edaa47d8f5b8ed601ef29e08a9b7d72ecc49928692611ad9575b505b87516001600160801b0395861681529416602085015260408401523392606090a3600160005582519182526020820152f35b611ae290612e87565b88611aa5565b807f0000000000000000000000000000000000000000000000000000000000000000163b1561057357604051630168610b60e51b8152600481018390526001600160801b0387166024820152906000908290604490829084907f0000000000000000000000000000000000000000000000000000000000000000165af1801561079b576040967fe3a918fd34698242cc99d5ba0987edaa47d8f5b8ed601ef29e08a9b7d72ecc49928692611b9d575b50611aa7565b611ba690612e87565b88611b97565b611bb590612e87565b8b6119c5565b60405163a2f9e7b560e01b8152600490fd5b5068056bc75e2d631000008111611936565b906020823d602011611c09575b81611bf960209383612ecc565b810103126108625750518a611924565b3d9150611bec565b90506020813d602011611c3b575b81611c2c60209383612ecc565b8101031261057357518b6118de565b3d9150611c1f565b90506020813d602011611c6d575b81611c5e60209383612ecc565b8101031261057357518b61189e565b3d9150611c51565b9397969991611c9860009c949a929c198601826001600160801b038b160261335d565b600019810190811161131a57611cb66103e891600019880190613377565b11611f97576001600160801b03881602966000975b80151580611f8c575b15611f67578c906000198701811115611f615760001987015b604051926316cf339960e21b8452816004850152602484015260208360448173__$cbaf8988f3c8d5491808e1d52afb16035a$__5af492831561079b57600093611f2d575b506040519263ec6e92cd60e01b8452600484015260208360248173__$cbaf8988f3c8d5491808e1d52afb16035a$__5af492831561079b57600093611ef9575b50604051926316cf339960e21b8452670de0b6b3a76400006004850152602484015260208360448173__$cbaf8988f3c8d5491808e1d52afb16035a$__5af492831561079b57600093611ec5575b50662386f26fc1000083108015611eb3575b611bbb578b600052600360205260406000209173__$e8b8ff73fdf5e99c3df6a4b39aa1f5b319$__3b1561057357600084938f611e4860405196879384936330f27d1f60e01b8552608051916004860190949392916060926080830196835263ffffffff80921660208401521660408201520152565b038173__$e8b8ff73fdf5e99c3df6a4b39aa1f5b319$__5af492831561079b578a8e600080516020614e0e83398151915260208f9498611e9e99611e9899611ea4575b50604051908152a4613350565b98613381565b97611ccb565b611ead90612e87565b38611e8b565b5068056bc75e2d631000008311611dd2565b90926020823d602011611ef1575b81611ee060209383612ecc565b81010312610862575051918f611dc0565b3d9150611ed3565b90926020823d602011611f25575b81611f1460209383612ecc565b81010312610862575051918f611d72565b3d9150611f07565b90926020823d602011611f59575b81611f4860209383612ecc565b81010312610862575051918f611d32565b3d9150611f3b565b80611ced565b96509750975097945097505050156119ce575b6040516332581cb160e01b8152600490fd5b506103e88910611cd4565b876001600160801b036024928160405193633b59e48960e11b85521602166004820152fd5b90506020813d602011611fe6575b81611fd760209383612ecc565b8101031261057357518c61182a565b3d9150611fca565b604490876040519163f6daf99360e01b835260048301526024820152fd5b604051633b59e48960e11b81526001600160801b0383166004820152602490fd5b612046915060203d602011611022576110138183612ecc565b8661173a565b612065915060a03d60a011610e6457610e568183612ecc565b856116eb565b82346108625761207a36612e2d565b9291907f00000000000000000000000000000000000000000000000000000000000000006001600160a01b03163303610cb9576120cd82600052600260205263ffffffff60056040600020015416151590565b15610ca057818352602093600285526120e860408520612eed565b916120f38382613050565b6120fd8383613050565b8181136121a657916121109186936130fb565b928452600382526040808520905163049bebd960e31b8152600481019190915263ffffffff9182166024820152921660448301528180606481015b038173__$e8b8ff73fdf5e99c3df6a4b39aa1f5b319$__5af49182156114d257916121795750604051908152f35b90508181813d831161219f575b6121908183612ecc565b8101031261057357518261149c565b503d612186565b60449160405191631150381b60e11b835260048301526024820152fd5b8234610862576121d236612e2d565b9291906121f582600052600260205263ffffffff60056040600020015416151590565b15610ca0578183526020936002855261221060408520612eed565b9161221b8382613050565b6122258383613050565b8181136121a657916122389186936130fb565b928452600382526040808520905163694f552560e01b8152600481019190915263ffffffff91821660248201529216604483015281806064810161214b565b82346108625780600319360112610862577f00000000000000000000000000000000000000000000000000000000000000006001600160a01b03163303610cb95760ff1960015416600155337ff5cbf596165cc457b2cd92e8d8450827ee314968160a5696402d75766fc52caf8280a280f35b823461086257604036600319011261086257612304612e01565b60405163eb02c30160e01b8152600480359082015260a0816024817f00000000000000000000000000000000000000000000000000000000000000006001600160a01b03165afa92831561079b5760209364e8d4a50fff92610ae8929161238c575b5064e8d4a51000938151906040866001600160801b038986015193160293015191613390565b6123a5915060a03d60a011610e6457610e568183612ecc565b85612366565b8234610862578060031936011261086257602060405166038d7ea4c680008152f35b82346108625760403660031901126108625760243560ff6001541661054a576123f46132d6565b60405163eb02c30160e01b815260048035908201526001600160a01b03919060a0816024817f000000000000000000000000000000000000000000000000000000000000000087165afa90811561079b57600091612bd2575b506040516331a9108f60e11b815260048035908201526020816024817f000000000000000000000000000000000000000000000000000000000000000088165afa90811561079b57600091612bb3575b508333911603610cb9576124b181516132f9565b64e8d4a51000906001600160801b0391808360608401511602825192602081019264e8d4a50fff6124ec848651976040860198895191613390565b010495808710611fee5750519151925193826000526002602052604060002061252361251c600683015492612eed565b87876130fb565b9190926040516330ed1f5d60e01b81528260048201526701cdda4faccd0000602482015260208160448173__$cbaf8988f3c8d5491808e1d52afb16035a$__5af490811561079b57600091612b81575b5060001991818381011161131a57818301871161288b57505050604051906316cf339960e21b948583526004830152602482015260208160448173__$cbaf8988f3c8d5491808e1d52afb16035a$__5af490811561079b57600091612859575b506040519063ec6e92cd60e01b8252600482015260208160248173__$cbaf8988f3c8d5491808e1d52afb16035a$__5af490811561079b57600091612827575b50604051938452670de0b6b3a76400006004850152602484015260208360448173__$cbaf8988f3c8d5491808e1d52afb16035a$__5af492831561079b576000936127f3575b50662386f26fc10000831080156127e1575b611bbb5773__$e8b8ff73fdf5e99c3df6a4b39aa1f5b319$__90846000526003602052604060002091803b15610573576040516330f27d1f60e01b8152600481019390935263ffffffff938416602484015292166044820152606481018390529190600090839060849082905af490811561079b57600080516020614e0e833981519152926020926127d2575b50604051908152a45b61270b8133614021565b817f0000000000000000000000000000000000000000000000000000000000000000163b156105735760008092602460405180958193630e3298ef60e21b835260043560048401527f0000000000000000000000000000000000000000000000000000000000000000165af191821561079b576020926127c3575b5060405181815233907f467bc11eddf702a2091fefc23d3064f17939ba1005bd43304f15604c9b6f2a9b8460043592a36001600055604051908152f35b6127cc90612e87565b82612786565b6127db90612e87565b886126f8565b5068056bc75e2d63100000831161266b565b90926020823d60201161281f575b8161280e60209383612ecc565b810103126108625750519188612659565b3d9150612801565b90506020813d602011612851575b8161284260209383612ecc565b81010312610573575189612613565b3d9150612835565b90506020813d602011612883575b8161287460209383612ecc565b810103126105735751896125d3565b3d9150612867565b6128a3838394959b98939d99969d9a979a018361335d565b84810190811161131a576128bd6103e89186860190613377565b11612b675750956000965b80151580612b5c575b15612b3a57828401811115612b34578383015b604051906316cf339960e21b82528060048301528b602483015260208260448173__$cbaf8988f3c8d5491808e1d52afb16035a$__5af491821561079b57600092612b00575b506040519163ec6e92cd60e01b8352600483015260208260248173__$cbaf8988f3c8d5491808e1d52afb16035a$__5af491821561079b57600092612acc575b50604051916316cf339960e21b8352670de0b6b3a76400006004840152602483015260208260448173__$cbaf8988f3c8d5491808e1d52afb16035a$__5af491821561079b57600092612a98575b50662386f26fc1000082108015612a86575b611bbb5786600052600360205260406000209273__$e8b8ff73fdf5e99c3df6a4b39aa1f5b319$__3b15610573576040516330f27d1f60e01b8152600481019490945263ffffffff8c811660248601528f1660448501526064840183905260008460848173__$e8b8ff73fdf5e99c3df6a4b39aa1f5b319$__5af493841561079b578989600080516020614e0e8339815191526020612a7a978f95612a809a611ea45750604051908152a4613350565b97613381565b966128c8565b5068056bc75e2d6310000082116129ca565b90916020823d602011612ac4575b81612ab360209383612ecc565b81010312610862575051908e6129b8565b3d9150612aa6565b90916020823d602011612af8575b81612ae760209383612ecc565b81010312610862575051908e61296a565b3d9150612ada565b90916020823d602011612b2c575b81612b1b60209383612ecc565b81010312610862575051908e61292a565b3d9150612b0e565b806128e4565b985099505050505050505015612701576040516332581cb160e01b8152600490fd5b506103e888106128d1565b604051633b59e48960e11b81529116600482015260249150fd5b90506020813d602011612bab575b81612b9c60209383612ecc565b8101031261057357518b612573565b3d9150612b8f565b612bcc915060203d602011611022576110138183612ecc565b8461249d565b612beb915060a03d60a011610e6457610e568183612ecc565b8361244d565b8234610862576020366003190112610862576020612c106004356131f9565b604051908152f35b83903461057857608036600319011261057857604435906024359060043590606435907f00000000000000000000000000000000000000000000000000000000000000006001600160a01b03163303612da75750612c8c82600052600260205263ffffffff60056040600020015416151590565b15610ca0578185526002602052612ca560408620612eed565b612caf8185613050565b612cb98186613050565b848413612d8957612ccc869186866130fb565b848352600360205260408320929173__$e8b8ff73fdf5e99c3df6a4b39aa1f5b319$__90813b1561045b576040516330f27d1f60e01b8152600481019590955263ffffffff908116602486015291909116604484015260648301849052829060849082905af48015612d7e57612d5a575b506020600080516020614e0e83398151915291604051908152a480f35b600080516020614e0e8339815191529195612d76602092612e87565b959150612d3d565b6040513d88823e3d90fd5b6044848660405191631150381b60e11b835260048301526024820152fd5b63d86ad9cf60e01b8152336004820152602490fd5b34610573576000366003190112610573576040517f00000000000000000000000000000000000000000000000000000000000000006001600160a01b03168152602090f35b602435906001600160801b038216820361057357565b606435906001600160801b038216820361057357565b606090600319011261057357600435906024359060443590565b606090600319011261057357600435906024356001600160801b0381168103610573579060443590565b6040906003190112610573576004359060243590565b6001600160401b038111612e9a57604052565b634e487b7160e01b600052604160045260246000fd5b61014081019081106001600160401b03821117612e9a57604052565b90601f801991011681019081106001600160401b03821117612e9a57604052565b90604051612efa81612eb0565b61012060068294805460ff81161515855260ff8160081c16151560208601526001600160401b0390818160101c16604087015260501c16606085015260018101546080850152600281015460a0850152600381015460c0850152600481015460e085015263ffffffff6005820154166101008501520154910152565b908160a091031261057357604051906001600160401b039060a0830182811184821017612e9a576040528051835260208101516020840152604081015160408401526060810151906001600160801b03821682036105735760809160608501520151908116810361057357608082015290565b9081602091031261057357516001600160a01b03811681036105735790565b90816020910312610573575190565b8181039291600013801582851316918412161761131a57565b811561303a570790565b634e487b7160e01b600052601260045260246000fd5b9060a08101805180841280156130d3575b6130a8575060e0613076613081925185613017565b920191825190613030565b613089575050565b6044925051604051916382fe647b60e01b835260048301526024820152fd5b60c0830151604051638a228b0d60e01b81526004810186905260248101929092526044820152606490fd5b5060c08301518413613061565b811561303a57600160ff1b811460001983141661131a570590565b929061313e61312d9161313661311760a0870197885190613017565b9160e087019263ffffffff9586918551906130e0565b16975190613017565b9051906130e0565b600019810190811360011661131a578161010091169301511680841090816131ef575b50156131aa5781831161317057565b60405162461bcd60e51b8152602060048201526012602482015271496e76616c69642072616e67652062696e7360701b6044820152606490fd5b60405162461bcd60e51b815260206004820152601860248201527f52616e67652062696e73206f7574206f6620626f756e647300000000000000006044820152606490fd5b9050821038613161565b60405163eb02c30160e01b8152600481019190915260a0816024817f00000000000000000000000000000000000000000000000000000000000000006001600160a01b03165afa90811561079b576000916132b7575b50805160005260026020526132676040600020612eed565b6020810151156132b057608060208301519101518091131590816132a2575b501561329c57606001516001600160801b031690565b50600090565b905060408201511338613286565b5050600090565b6132d0915060a03d60a011610e6457610e568183612ecc565b3861324f565b6002600054146132e7576002600055565b604051633ee5aeb560e01b8152600490fd5b600052600260205260406000205460ff811615610820576001600160401b0390818160101c16421061080e5760501c1642116107fc57565b60001981019190821161131a57565b906103e891820391821161131a57565b9190820391821161131a57565b9190820180921161131a57565b801561303a576000190490565b811561303a570490565b600019811461131a5760010190565b9161012093916133b26133ad856000526002602052604060002090565b612eed565b936133be8584846130fb565b96909501516040516330ed1f5d60e01b8152600481018290526701cdda4faccd0000602482015290959060208160448173__$cbaf8988f3c8d5491808e1d52afb16035a$__5af4801561384b5761341d91600091613b23575b50613331565b96878611613434575050613431955061476a565b90565b9092506134889591935073__$e8b8ff73fdf5e99c3df6a4b39aa1f5b319$__6020613469866000526003602052604060002090565b604051809981926304afd7ff60e21b8352600483019190602083019252565b0381845af493841561384b576134f297600095613afd575b506134b960209495966000526003602052604060002090565b60405163694f552560e01b8152600481019190915263ffffffff9182166024820152921660448301529095869190829081906064820190565b03915af493841561384b57600094613adc575b508115613706576103e861352a86613525613520828861335d565b613331565b613377565b11613abb579093926000919082905b84151580613ab0575b15613aa2576135839596878611600014613a9b5787915b6040516316cf339960e21b8152600481018490526024810186905297602090899081906044820190565b038173__$cbaf8988f3c8d5491808e1d52afb16035a$__5af497881561384b576135d298602091600091613a7e575b50604051809a819263ec6e92cd60e01b8352600483019190602083019252565b038173__$cbaf8988f3c8d5491808e1d52afb16035a$__5af497881561384b5761362f98602091600091613a61575b50604051809a81926316cf339960e21b835260048301919060206040840193670de0b6b3a764000081520152565b038173__$cbaf8988f3c8d5491808e1d52afb16035a$__5af497881561384b57600098613a40575b506136618861336a565b81116138c4575b801515806138b3575b613706576040516330ed1f5d60e01b815260048101829052602481019890985260208860448173__$cbaf8988f3c8d5491808e1d52afb16035a$__5af497881561384b5760009861388a575b50876136cc6136d19284613350565b61335d565b90811561370657818111613718575b508115613706576136fc916136f6919796613350565b93613381565b9594959293613539565b604051635fba374760e11b8152600490fd5b6040516316cf339960e21b8152600481019190915260248101829052909260208260448173__$cbaf8988f3c8d5491808e1d52afb16035a$__5af491821561384b576137899260209160009161386d575b506040518094819263360816cf60e01b8352600483019190602083019252565b038173__$cbaf8988f3c8d5491808e1d52afb16035a$__5af491821561384b576137e192602091600091613850575b506040516330ed1f5d60e01b815260048101889052602481019190915292839081906044820190565b038173__$cbaf8988f3c8d5491808e1d52afb16035a$__5af490811561384b576138139260009261381a575b5061335d565b91386136e0565b61383d91925060203d602011613844575b6138358183612ecc565b810190613008565b903861380d565b503d61382b565b61079b565b6138679150823d8411613844576138358183612ecc565b386137b8565b6138849150823d8411613844576138358183612ecc565b38613769565b6136cc9850906138ab6136d19260203d602011613844576138358183612ecc565b9850906136bd565b506138bd8161336a565b8811613671565b965090506138dc6138d485613340565b86858961460e565b90858211613a38575b6040516316cf339960e21b8152600481018390526024810185905260208160448173__$cbaf8988f3c8d5491808e1d52afb16035a$__5af490811561384b5761395391602091600091613a1b575b506040518093819263ec6e92cd60e01b8352600483019190602083019252565b038173__$cbaf8988f3c8d5491808e1d52afb16035a$__5af490811561384b576139b0916020916000916139fe575b50604051809381926316cf339960e21b835260048301919060206040840193670de0b6b3a764000081520152565b038173__$cbaf8988f3c8d5491808e1d52afb16035a$__5af490811561384b576000916139df575b5096613668565b6139f8915060203d602011613844576138358183612ecc565b386139d8565b613a159150823d8411613844576138358183612ecc565b38613982565b613a329150823d8411613844576138358183612ecc565b38613933565b8591506138e5565b613a5a91985060203d602011613844576138358183612ecc565b9638613657565b613a789150823d8411613844576138358183612ecc565b38613601565b613a959150823d8411613844576138358183612ecc565b386135b2565b8591613559565b509450505090506137065790565b506103e88410613542565b604051633b59e48960e11b81526001600160801b0384166004820152602490fd5b613af691945060203d602011613844576138358183612ecc565b9238613505565b6020949550613b1b6134b991863d8811613844576138358183612ecc565b9594506134a0565b613b3c915060203d602011613844576138358183612ecc565b38613417565b9193929092826000526002602052613b606117d26040600020612eed565b90916040516330ed1f5d60e01b81528160048201526701cdda4faccd0000602482015260208160448173__$cbaf8988f3c8d5491808e1d52afb16035a$__5af490811561079b57600091613fef575b508060001981011161131a5760001981018511613d7d5750604051936316cf339960e21b85526004850152602484015260208360448173__$cbaf8988f3c8d5491808e1d52afb16035a$__5af492831561079b57600093613d49575b506040519263ec6e92cd60e01b8452600484015260208360248173__$cbaf8988f3c8d5491808e1d52afb16035a$__5af492831561079b57600093613d15575b50662386f26fc1000083108015613d03575b611bbb5773__$e8b8ff73fdf5e99c3df6a4b39aa1f5b319$__90846000526003602052604060002091803b15610573576040516330f27d1f60e01b8152600481019390935263ffffffff938416602484015292166044820152606481018390529190600090839060849082905af490811561079b57600080516020614e0e83398151915292602092613cf4575b50604051908152a4565b613cfd90612e87565b38613cea565b5068056bc75e2d631000008311613c5d565b9092506020813d602011613d41575b81613d3160209383612ecc565b8101031261057357519138613c4b565b3d9150613d24565b9092506020813d602011613d75575b81613d6560209383612ecc565b8101031261057357519138613c0b565b3d9150613d58565b93613d94600099989496929793991986018261335d565b8060001981011161131a576103e890613db4906000198881019101613377565b11613fcd57936000945b80151580613fc2575b15613fb2576000198201811115613fac5760001982015b604051906316cf339960e21b825280600483015289602483015260208260448173__$cbaf8988f3c8d5491808e1d52afb16035a$__5af491821561079b57600092613f78575b506040519163ec6e92cd60e01b8352600483015260208260248173__$cbaf8988f3c8d5491808e1d52afb16035a$__5af491821561079b57600092613f44575b50662386f26fc1000082108015613f32575b611bbb5784600052600360205260406000209273__$e8b8ff73fdf5e99c3df6a4b39aa1f5b319$__3b15610573576040516330f27d1f60e01b8152600481019490945263ffffffff8a811660248601528d1660448501526064840183905260008460848173__$e8b8ff73fdf5e99c3df6a4b39aa1f5b319$__5af493841561079b578787600080516020614e0e8339815191526020613f26978d95613f2c9a611ea45750604051908152a4613350565b95613381565b94613dbe565b5068056bc75e2d631000008211613e76565b9091506020813d602011613f70575b81613f6060209383612ecc565b8101031261057357519038613e64565b3d9150613f53565b9091506020813d602011613fa4575b81613f9460209383612ecc565b8101031261057357519038613e24565b3d9150613f87565b80613dde565b97985050505050505050611f7a57565b506103e88610613dc7565b604051633b59e48960e11b81526001600160801b039091166004820152602490fd5b90506020813d602011614019575b8161400a60209383612ecc565b81010312610573575138613baf565b3d9150613ffd565b908061402b575050565b60405163a9059cbb60e01b60208201526001600160a01b039092166024830152604480830191909152815260808101906001600160401b03821181831017612e9a5761409a916040527f0000000000000000000000000000000000000000000000000000000000000000614db1565b565b9161012093916140b96133ad856000526002602052604060002090565b936140c58584846130fb565b96909501516040516330ed1f5d60e01b8152600481018290526701cdda4faccd0000602482015290959060208160448173__$cbaf8988f3c8d5491808e1d52afb16035a$__5af4801561384b5761412391600091613b235750613331565b968786116141375750506134319550614b7a565b90925061416c9591935073__$e8b8ff73fdf5e99c3df6a4b39aa1f5b319$__6020613469866000526003602052604060002090565b0381845af493841561384b5761419c97600095613afd57506134b960209495966000526003602052604060002090565b03915af493841561384b5760009461456e575b508115613706576103e86141ca86613525613520828861335d565b11613abb579093926000919082905b84151580614563575b15613aa2576142229596878611600014613a9b5787916040516316cf339960e21b8152600481018490526024810186905297602090899081906044820190565b038173__$cbaf8988f3c8d5491808e1d52afb16035a$__5af497881561384b5761427098602091600091613a7e5750604051809a819263ec6e92cd60e01b8352600483019190602083019252565b038173__$cbaf8988f3c8d5491808e1d52afb16035a$__5af497881561384b57600098614542575b506142a28861336a565b8111614466575b80151580614455575b613706576040516330ed1f5d60e01b815260048101829052602481019890985260208860448173__$cbaf8988f3c8d5491808e1d52afb16035a$__5af497881561384b5760009861442c575b50876136cc61430d9284613350565b9281841115613706576040516316cf339960e21b815260048101859052602481019290925260208260448173__$cbaf8988f3c8d5491808e1d52afb16035a$__5af491821561384b576143849260209160009161386d57506040518094819263360816cf60e01b8352600483019190602083019252565b038173__$cbaf8988f3c8d5491808e1d52afb16035a$__5af491821561384b576143db9260209160009161385057506040516330ed1f5d60e01b815260048101889052602481019190915292839081906044820190565b038173__$cbaf8988f3c8d5491808e1d52afb16035a$__5af490811561384b5761440c9260009261381a575061335d565b91811561370657614422916136f6919796613350565b95949592936141d9565b6136cc98509061444d61430d9260203d602011613844576138358183612ecc565b9850906142fe565b5061445f8161336a565b88116142b2565b965090506144766138d485613340565b9085821161453a575b6040516316cf339960e21b8152600481018390526024810185905260208160448173__$cbaf8988f3c8d5491808e1d52afb16035a$__5af490811561384b576144ec91602091600091613a1b57506040518093819263ec6e92cd60e01b8352600483019190602083019252565b038173__$cbaf8988f3c8d5491808e1d52afb16035a$__5af490811561384b5760009161451b575b50966142a9565b614534915060203d602011613844576138358183612ecc565b38614514565b85915061447f565b61455c91985060203d602011613844576138358183612ecc565b9638614298565b506103e884106141e2565b61458891945060203d602011613844576138358183612ecc565b92386141af565b9080614599575050565b6040516323b872dd60e01b60208201526001600160a01b039092166024830152306044830152606480830191909152815260a08101906001600160401b03821181831017612e9a5761409a916040527f0000000000000000000000000000000000000000000000000000000000000000614db1565b90919392801561476557614622818661335d565b60001981019190821161131a5761463891613377565b91821561475c575b6040516330ed1f5d60e01b808252600482018390526701cdda4faccd000060248301529260209173__$cbaf8988f3c8d5491808e1d52afb16035a$__908381604481855af4801561079b57849160009161472d575b509560446040518094819382528860048301526802b5e3af16b188000060248301525af492831561079b576000936146fd575b5050116146f2575b50808210156146ea5750915b8083116146e65750565b9150565b9050916146dc565b600a915004386146d0565b9080929350813d8311614726575b6147158183612ecc565b8101031261057357519038806146c8565b503d61470b565b82819392503d8311614755575b6147448183612ecc565b810103126105735783905138614695565b503d61473a565b60019250614640565b505050565b9293909173__$e8b8ff73fdf5e99c3df6a4b39aa1f5b319$__614797856000526003602052604060002090565b906040958651956304afd7ff60e21b87526020988988806147c16004988983019190602083019252565b0381875af497881561384b57600098614b5b575b5073__$cbaf8988f3c8d5491808e1d52afb16035a$__958951926316cf339960e21b948585528c85806148188d888d840160209093929193604081019481520152565b03818c5af494851561384b57614850958e91600091614b3e575b508d518097819263ec6e92cd60e01b83528c83019190602083019252565b03818c5af494851561384b5761488f958e91600091614b21575b508d51809781928a83528c8301919060206040840193670de0b6b3a764000081520152565b03818c5af494851561384b57600095614b02575b508c8c6148c06117d26133ad856000526002602052604060002090565b9990918b6149116148db876000526003602052604060002090565b925163694f552560e01b815291820192835263ffffffff948516602084015293909b1660408201528a9283918291606090910190565b03915af496871561384b57600097614ae3575b5061492e8561336a565b8711614acd575050505061496f9089614947858a613350565b918a51809481926330ed1f5d60e01b988984528a840160209093929193604081019481520152565b0381895af490811561384b5761498c92600092614ab5575061335d565b958615614aa5578015614aa55786811115614a975787519182528382019081526020810196909652948790869081906040015b0381865af494851561384b576149f7958891600091614a7a575b5087518097819263360816cf60e01b83528683019190602083019252565b0381865af495861561384b578795600097614a57575b505190815290810192835260208301949094528391829081906040015b03915af491821561384b57600092614a4157505090565b6134319250803d10613844576138358183612ecc565b614a2a919750614a7390873d8911613844576138358183612ecc565b9690614a0d565b614a919150823d8411613844576138358183612ecc565b386149d9565b505050505050505050600090565b8751635fba374760e11b81528490fd5b61383d9192508b3d8d11613844576138358183612ecc565b9750975097509750505050506134319450613390565b614afb9197508d803d10613844576138358183612ecc565b9538614924565b614b1a9195508d803d10613844576138358183612ecc565b93386148a3565b614b389150823d8411613844576138358183612ecc565b3861486a565b614b559150823d8411613844576138358183612ecc565b38614832565b614b739198508a3d8c11613844576138358183612ecc565b96386147d5565b9293909173__$e8b8ff73fdf5e99c3df6a4b39aa1f5b319$__614ba7856000526003602052604060002090565b906040958651956304afd7ff60e21b8752602098898880614bd16004988983019190602083019252565b0381875af497881561384b57600098614d92575b5073__$cbaf8988f3c8d5491808e1d52afb16035a$__958951926316cf339960e21b948585528c8580614c288d888d840160209093929193604081019481520152565b03818c5af494851561384b57614c5f958e91600091614b3e57508d518097819263ec6e92cd60e01b83528c83019190602083019252565b03818c5af494851561384b57600095614d73575b508c8c614c906117d26133ad856000526002602052604060002090565b9990918b614cab6148db876000526003602052604060002090565b03915af496871561384b57600097614d54575b508a15614d4457614cce8561336a565b8711614d2e5750505050614ce79089614947858a613350565b0381895af490811561384b57614d0492600092614ab5575061335d565b86811115614a975787519182528382019081526020810196909652948790869081906040016149bf565b975097509750975050505050613431945061409c565b8b51635fba374760e11b81528890fd5b614d6c9197508d803d10613844576138358183612ecc565b9538614cbe565b614d8b9195508d803d10613844576138358183612ecc565b9338614c73565b614daa9198508a3d8c11613844576138358183612ecc565b9638614be5565b906000602091828151910182855af11561079b576000513d614e0457506001600160a01b0381163b155b614de25750565b604051635274afe760e01b81526001600160a01b039091166004820152602490fd5b60011415614ddb56fe221f633c06e4399f005a7cec7ba7c4ff189e3fe19092cbafe32a5f176ffc797fa26469706673582212200300dbb6cb5021c5ad1cad370dff910237584f0063ae5fb14ab36a9047f643a864736f6c63430008180033",
  "linkReferences": {
    "contracts/libraries/FixedPointMath.sol": {
      "FixedPointMathU": [
        {
          "length": 20,
          "start": 6612
        },
        {
          "length": 20,
          "start": 6728
        },
        {
          "length": 20,
          "start": 6792
        },
        {
          "length": 20,
          "start": 6862
        },
        {
          "length": 20,
          "start": 7900
        },
        {
          "length": 20,
          "start": 7964
        },
        {
          "length": 20,
          "start": 8042
        },
        {
          "length": 20,
          "start": 10013
        },
        {
          "length": 20,
          "start": 10109
        },
        {
          "length": 20,
          "start": 10173
        },
        {
          "length": 20,
          "start": 10243
        },
        {
          "length": 20,
          "start": 10964
        },
        {
          "length": 20,
          "start": 11028
        },
        {
          "length": 20,
          "start": 11106
        },
        {
          "length": 20,
          "start": 13758
        },
        {
          "length": 20,
          "start": 14165
        },
        {
          "length": 20,
          "start": 14244
        },
        {
          "length": 20,
          "start": 14337
        },
        {
          "length": 20,
          "start": 14439
        },
        {
          "length": 20,
          "start": 14604
        },
        {
          "length": 20,
          "start": 14683
        },
        {
          "length": 20,
          "start": 14771
        },
        {
          "length": 20,
          "start": 15062
        },
        {
          "length": 20,
          "start": 15141
        },
        {
          "length": 20,
          "start": 15234
        },
        {
          "length": 20,
          "start": 15705
        },
        {
          "length": 20,
          "start": 15797
        },
        {
          "length": 20,
          "start": 15861
        },
        {
          "length": 20,
          "start": 16334
        },
        {
          "length": 20,
          "start": 16398
        },
        {
          "length": 20,
          "start": 17093
        },
        {
          "length": 20,
          "start": 17396
        },
        {
          "length": 20,
          "start": 17474
        },
        {
          "length": 20,
          "start": 17576
        },
        {
          "length": 20,
          "start": 17672
        },
        {
          "length": 20,
          "start": 17750
        },
        {
          "length": 20,
          "start": 17837
        },
        {
          "length": 20,
          "start": 18032
        },
        {
          "length": 20,
          "start": 18110
        },
        {
          "length": 20,
          "start": 18487
        },
        {
          "length": 20,
          "start": 18854
        },
        {
          "length": 20,
          "start": 19894
        }
      ]
    },
    "contracts/libraries/LazyMulSegmentTree.sol": {
      "LazyMulSegmentTree": [
        {
          "length": 20,
          "start": 1384
        },
        {
          "length": 20,
          "start": 5704
        },
        {
          "length": 20,
          "start": 6922
        },
        {
          "length": 20,
          "start": 8117
        },
        {
          "length": 20,
          "start": 8218
        },
        {
          "length": 20,
          "start": 8989
        },
        {
          "length": 20,
          "start": 10303
        },
        {
          "length": 20,
          "start": 11181
        },
        {
          "length": 20,
          "start": 11262
        },
        {
          "length": 20,
          "start": 11946
        },
        {
          "length": 20,
          "start": 13838
        },
        {
          "length": 20,
          "start": 15921
        },
        {
          "length": 20,
          "start": 16473
        },
        {
          "length": 20,
          "start": 16554
        },
        {
          "length": 20,
          "start": 17169
        },
        {
          "length": 20,
          "start": 18750
        },
        {
          "length": 20,
          "start": 19790
        }
      ]
    }
  },
  "deployedLinkReferences": {
    "contracts/libraries/FixedPointMath.sol": {
      "FixedPointMathU": [
        {
          "length": 20,
          "start": 6150
        },
        {
          "length": 20,
          "start": 6266
        },
        {
          "length": 20,
          "start": 6330
        },
        {
          "length": 20,
          "start": 6400
        },
        {
          "length": 20,
          "start": 7438
        },
        {
          "length": 20,
          "start": 7502
        },
        {
          "length": 20,
          "start": 7580
        },
        {
          "length": 20,
          "start": 9551
        },
        {
          "length": 20,
          "start": 9647
        },
        {
          "length": 20,
          "start": 9711
        },
        {
          "length": 20,
          "start": 9781
        },
        {
          "length": 20,
          "start": 10502
        },
        {
          "length": 20,
          "start": 10566
        },
        {
          "length": 20,
          "start": 10644
        },
        {
          "length": 20,
          "start": 13296
        },
        {
          "length": 20,
          "start": 13703
        },
        {
          "length": 20,
          "start": 13782
        },
        {
          "length": 20,
          "start": 13875
        },
        {
          "length": 20,
          "start": 13977
        },
        {
          "length": 20,
          "start": 14142
        },
        {
          "length": 20,
          "start": 14221
        },
        {
          "length": 20,
          "start": 14309
        },
        {
          "length": 20,
          "start": 14600
        },
        {
          "length": 20,
          "start": 14679
        },
        {
          "length": 20,
          "start": 14772
        },
        {
          "length": 20,
          "start": 15243
        },
        {
          "length": 20,
          "start": 15335
        },
        {
          "length": 20,
          "start": 15399
        },
        {
          "length": 20,
          "start": 15872
        },
        {
          "length": 20,
          "start": 15936
        },
        {
          "length": 20,
          "start": 16631
        },
        {
          "length": 20,
          "start": 16934
        },
        {
          "length": 20,
          "start": 17012
        },
        {
          "length": 20,
          "start": 17114
        },
        {
          "length": 20,
          "start": 17210
        },
        {
          "length": 20,
          "start": 17288
        },
        {
          "length": 20,
          "start": 17375
        },
        {
          "length": 20,
          "start": 17570
        },
        {
          "length": 20,
          "start": 17648
        },
        {
          "length": 20,
          "start": 18025
        },
        {
          "length": 20,
          "start": 18392
        },
        {
          "length": 20,
          "start": 19432
        }
      ]
    },
    "contracts/libraries/LazyMulSegmentTree.sol": {
      "LazyMulSegmentTree": [
        {
          "length": 20,
          "start": 922
        },
        {
          "length": 20,
          "start": 5242
        },
        {
          "length": 20,
          "start": 6460
        },
        {
          "length": 20,
          "start": 7655
        },
        {
          "length": 20,
          "start": 7756
        },
        {
          "length": 20,
          "start": 8527
        },
        {
          "length": 20,
          "start": 9841
        },
        {
          "length": 20,
          "start": 10719
        },
        {
          "length": 20,
          "start": 10800
        },
        {
          "length": 20,
          "start": 11484
        },
        {
          "length": 20,
          "start": 13376
        },
        {
          "length": 20,
          "start": 15459
        },
        {
          "length": 20,
          "start": 16011
        },
        {
          "length": 20,
          "start": 16092
        },
        {
          "length": 20,
          "start": 16707
        },
        {
          "length": 20,
          "start": 18288
        },
        {
          "length": 20,
          "start": 19328
        }
      ]
    }
  }
}