{
  "_format": "hh-sol-artifact-1",
  "contractName": "CLMSRMarketCore",
  "sourceName": "contracts/core/CLMSRMarketCore.sol",
  "abi": [
    {
      "inputs": [
        {
          "internalType": "address",
          "name": "target",
          "type": "address"
        }
      ],
      "name": "AddressEmptyCode",
      "type": "error"
    },
    {
      "inputs": [],
      "name": "AffectedSumZero",
      "type": "error"
    },
    {
      "inputs": [],
      "name": "ArrayLengthMismatch",
      "type": "error"
    },
    {
      "inputs": [
        {
          "internalType": "uint32",
          "name": "requested",
          "type": "uint32"
        },
        {
          "internalType": "uint32",
          "name": "maxAllowed",
          "type": "uint32"
        }
      ],
      "name": "BinCountExceedsLimit",
      "type": "error"
    },
    {
      "inputs": [
        {
          "internalType": "uint32",
          "name": "bin",
          "type": "uint32"
        },
        {
          "internalType": "uint32",
          "name": "numBins",
          "type": "uint32"
        }
      ],
      "name": "BinOutOfBounds",
      "type": "error"
    },
    {
      "inputs": [
        {
          "internalType": "uint256",
          "name": "required",
          "type": "uint256"
        },
        {
          "internalType": "uint256",
          "name": "maxAllowed",
          "type": "uint256"
        }
      ],
      "name": "ChunkLimitExceeded",
      "type": "error"
    },
    {
      "inputs": [
        {
          "internalType": "uint256",
          "name": "cost",
          "type": "uint256"
        },
        {
          "internalType": "uint256",
          "name": "maxAllowed",
          "type": "uint256"
        }
      ],
      "name": "CostExceedsMaximum",
      "type": "error"
    },
    {
      "inputs": [
        {
          "internalType": "address",
          "name": "implementation",
          "type": "address"
        }
      ],
      "name": "ERC1967InvalidImplementation",
      "type": "error"
    },
    {
      "inputs": [],
      "name": "ERC1967NonPayable",
      "type": "error"
    },
    {
      "inputs": [],
      "name": "EnforcedPause",
      "type": "error"
    },
    {
      "inputs": [],
      "name": "ExpectedPause",
      "type": "error"
    },
    {
      "inputs": [],
      "name": "FactorOutOfBounds",
      "type": "error"
    },
    {
      "inputs": [],
      "name": "FailedCall",
      "type": "error"
    },
    {
      "inputs": [
        {
          "internalType": "uint256",
          "name": "fee",
          "type": "uint256"
        },
        {
          "internalType": "uint256",
          "name": "baseAmount",
          "type": "uint256"
        }
      ],
      "name": "FeeExceedsBase",
      "type": "error"
    },
    {
      "inputs": [],
      "name": "IncompleteChunkProcessing",
      "type": "error"
    },
    {
      "inputs": [
        {
          "internalType": "uint32",
          "name": "index",
          "type": "uint32"
        },
        {
          "internalType": "uint32",
          "name": "size",
          "type": "uint32"
        }
      ],
      "name": "IndexOutOfBounds",
      "type": "error"
    },
    {
      "inputs": [
        {
          "internalType": "address",
          "name": "account",
          "type": "address"
        },
        {
          "internalType": "uint256",
          "name": "required",
          "type": "uint256"
        },
        {
          "internalType": "uint256",
          "name": "available",
          "type": "uint256"
        }
      ],
      "name": "InsufficientBalance",
      "type": "error"
    },
    {
      "inputs": [
        {
          "internalType": "uint128",
          "name": "want",
          "type": "uint128"
        },
        {
          "internalType": "uint128",
          "name": "have",
          "type": "uint128"
        }
      ],
      "name": "InsufficientPositionQuantity",
      "type": "error"
    },
    {
      "inputs": [
        {
          "internalType": "uint256",
          "name": "factor",
          "type": "uint256"
        }
      ],
      "name": "InvalidFactor",
      "type": "error"
    },
    {
      "inputs": [
        {
          "internalType": "address",
          "name": "policy",
          "type": "address"
        }
      ],
      "name": "InvalidFeePolicy",
      "type": "error"
    },
    {
      "inputs": [],
      "name": "InvalidInitialization",
      "type": "error"
    },
    {
      "inputs": [],
      "name": "InvalidLiquidityParameter",
      "type": "error"
    },
    {
      "inputs": [
        {
          "internalType": "int256",
          "name": "minTick",
          "type": "int256"
        },
        {
          "internalType": "int256",
          "name": "maxTick",
          "type": "int256"
        },
        {
          "internalType": "int256",
          "name": "tickSpacing",
          "type": "int256"
        }
      ],
      "name": "InvalidMarketParameters",
      "type": "error"
    },
    {
      "inputs": [
        {
          "internalType": "uint128",
          "name": "qty",
          "type": "uint128"
        }
      ],
      "name": "InvalidQuantity",
      "type": "error"
    },
    {
      "inputs": [
        {
          "internalType": "uint32",
          "name": "lo",
          "type": "uint32"
        },
        {
          "internalType": "uint32",
          "name": "hi",
          "type": "uint32"
        }
      ],
      "name": "InvalidRange",
      "type": "error"
    },
    {
      "inputs": [
        {
          "internalType": "uint32",
          "name": "lowerBin",
          "type": "uint32"
        },
        {
          "internalType": "uint32",
          "name": "upperBin",
          "type": "uint32"
        }
      ],
      "name": "InvalidRangeBins",
      "type": "error"
    },
    {
      "inputs": [
        {
          "internalType": "int256",
          "name": "ranges",
          "type": "int256"
        },
        {
          "internalType": "uint256",
          "name": "maxAllowed",
          "type": "uint256"
        }
      ],
      "name": "InvalidRangeCount",
      "type": "error"
    },
    {
      "inputs": [
        {
          "internalType": "int256",
          "name": "tick",
          "type": "int256"
        },
        {
          "internalType": "int256",
          "name": "minTick",
          "type": "int256"
        },
        {
          "internalType": "int256",
          "name": "maxTick",
          "type": "int256"
        }
      ],
      "name": "InvalidTick",
      "type": "error"
    },
    {
      "inputs": [
        {
          "internalType": "int256",
          "name": "lowerTick",
          "type": "int256"
        },
        {
          "internalType": "int256",
          "name": "upperTick",
          "type": "int256"
        }
      ],
      "name": "InvalidTickRange",
      "type": "error"
    },
    {
      "inputs": [
        {
          "internalType": "int256",
          "name": "tick",
          "type": "int256"
        },
        {
          "internalType": "int256",
          "name": "tickSpacing",
          "type": "int256"
        }
      ],
      "name": "InvalidTickSpacing",
      "type": "error"
    },
    {
      "inputs": [],
      "name": "InvalidTimeRange",
      "type": "error"
    },
    {
      "inputs": [
        {
          "internalType": "uint8",
          "name": "provided",
          "type": "uint8"
        },
        {
          "internalType": "uint8",
          "name": "expected",
          "type": "uint8"
        }
      ],
      "name": "InvalidTokenDecimals",
      "type": "error"
    },
    {
      "inputs": [],
      "name": "LazyFactorOverflow",
      "type": "error"
    },
    {
      "inputs": [],
      "name": "ManagerNotSet",
      "type": "error"
    },
    {
      "inputs": [
        {
          "internalType": "uint256",
          "name": "marketId",
          "type": "uint256"
        }
      ],
      "name": "MarketAlreadyExists",
      "type": "error"
    },
    {
      "inputs": [
        {
          "internalType": "uint256",
          "name": "marketId",
          "type": "uint256"
        }
      ],
      "name": "MarketAlreadySettled",
      "type": "error"
    },
    {
      "inputs": [],
      "name": "MarketExpired",
      "type": "error"
    },
    {
      "inputs": [],
      "name": "MarketNotActive",
      "type": "error"
    },
    {
      "inputs": [
        {
          "internalType": "uint256",
          "name": "marketId",
          "type": "uint256"
        }
      ],
      "name": "MarketNotFound",
      "type": "error"
    },
    {
      "inputs": [
        {
          "internalType": "uint256",
          "name": "marketId",
          "type": "uint256"
        }
      ],
      "name": "MarketNotSettled",
      "type": "error"
    },
    {
      "inputs": [],
      "name": "MarketNotStarted",
      "type": "error"
    },
    {
      "inputs": [],
      "name": "MathMulOverflow",
      "type": "error"
    },
    {
      "inputs": [],
      "name": "NoChunkProgress",
      "type": "error"
    },
    {
      "inputs": [
        {
          "internalType": "uint256",
          "name": "beforeSum",
          "type": "uint256"
        },
        {
          "internalType": "uint256",
          "name": "afterSum",
          "type": "uint256"
        }
      ],
      "name": "NonIncreasingSum",
      "type": "error"
    },
    {
      "inputs": [],
      "name": "NotInitializing",
      "type": "error"
    },
    {
      "inputs": [
        {
          "internalType": "address",
          "name": "owner",
          "type": "address"
        }
      ],
      "name": "OwnableInvalidOwner",
      "type": "error"
    },
    {
      "inputs": [
        {
          "internalType": "address",
          "name": "account",
          "type": "address"
        }
      ],
      "name": "OwnableUnauthorizedAccount",
      "type": "error"
    },
    {
      "inputs": [
        {
          "internalType": "uint256",
          "name": "positionId",
          "type": "uint256"
        }
      ],
      "name": "PositionNotFound",
      "type": "error"
    },
    {
      "inputs": [
        {
          "internalType": "uint256",
          "name": "proceeds",
          "type": "uint256"
        },
        {
          "internalType": "uint256",
          "name": "minProceeds",
          "type": "uint256"
        }
      ],
      "name": "ProceedsBelowMinimum",
      "type": "error"
    },
    {
      "inputs": [],
      "name": "QuantityOverflow",
      "type": "error"
    },
    {
      "inputs": [
        {
          "internalType": "int256",
          "name": "bin",
          "type": "int256"
        },
        {
          "internalType": "uint32",
          "name": "numBins",
          "type": "uint32"
        }
      ],
      "name": "RangeBinOutOfBounds",
      "type": "error"
    },
    {
      "inputs": [
        {
          "internalType": "uint32",
          "name": "lowerBin",
          "type": "uint32"
        },
        {
          "internalType": "uint32",
          "name": "upperBin",
          "type": "uint32"
        },
        {
          "internalType": "uint32",
          "name": "numBins",
          "type": "uint32"
        }
      ],
      "name": "RangeBinsOutOfBounds",
      "type": "error"
    },
    {
      "inputs": [],
      "name": "ReentrancyGuardReentrantCall",
      "type": "error"
    },
    {
      "inputs": [
        {
          "internalType": "uint256",
          "name": "remaining",
          "type": "uint256"
        }
      ],
      "name": "ResidualQuantity",
      "type": "error"
    },
    {
      "inputs": [
        {
          "internalType": "address",
          "name": "token",
          "type": "address"
        }
      ],
      "name": "SafeERC20FailedOperation",
      "type": "error"
    },
    {
      "inputs": [
        {
          "internalType": "uint64",
          "name": "requiredTimestamp",
          "type": "uint64"
        },
        {
          "internalType": "uint64",
          "name": "currentTimestamp",
          "type": "uint64"
        }
      ],
      "name": "SettlementTooEarly",
      "type": "error"
    },
    {
      "inputs": [],
      "name": "SumAfterZero",
      "type": "error"
    },
    {
      "inputs": [],
      "name": "TreeAlreadyInitialized",
      "type": "error"
    },
    {
      "inputs": [],
      "name": "TreeNotInitialized",
      "type": "error"
    },
    {
      "inputs": [],
      "name": "TreeSizeTooLarge",
      "type": "error"
    },
    {
      "inputs": [],
      "name": "TreeSizeZero",
      "type": "error"
    },
    {
      "inputs": [],
      "name": "UUPSUnauthorizedCallContext",
      "type": "error"
    },
    {
      "inputs": [
        {
          "internalType": "bytes32",
          "name": "slot",
          "type": "bytes32"
        }
      ],
      "name": "UUPSUnsupportedProxiableUUID",
      "type": "error"
    },
    {
      "inputs": [
        {
          "internalType": "address",
          "name": "caller",
          "type": "address"
        }
      ],
      "name": "UnauthorizedCaller",
      "type": "error"
    },
    {
      "inputs": [],
      "name": "ZeroAddress",
      "type": "error"
    },
    {
      "inputs": [],
      "name": "ZeroLimit",
      "type": "error"
    },
    {
      "anonymous": false,
      "inputs": [
        {
          "indexed": true,
          "internalType": "address",
          "name": "by",
          "type": "address"
        },
        {
          "indexed": false,
          "internalType": "string",
          "name": "reason",
          "type": "string"
        }
      ],
      "name": "EmergencyPaused",
      "type": "event"
    },
    {
      "anonymous": false,
      "inputs": [
        {
          "indexed": true,
          "internalType": "address",
          "name": "by",
          "type": "address"
        }
      ],
      "name": "EmergencyUnpaused",
      "type": "event"
    },
    {
      "anonymous": false,
      "inputs": [
        {
          "indexed": true,
          "internalType": "address",
          "name": "oldPolicy",
          "type": "address"
        },
        {
          "indexed": true,
          "internalType": "address",
          "name": "newPolicy",
          "type": "address"
        }
      ],
      "name": "FeePolicyUpdated",
      "type": "event"
    },
    {
      "anonymous": false,
      "inputs": [
        {
          "indexed": true,
          "internalType": "address",
          "name": "oldRecipient",
          "type": "address"
        },
        {
          "indexed": true,
          "internalType": "address",
          "name": "newRecipient",
          "type": "address"
        }
      ],
      "name": "FeeRecipientUpdated",
      "type": "event"
    },
    {
      "anonymous": false,
      "inputs": [
        {
          "indexed": false,
          "internalType": "uint64",
          "name": "version",
          "type": "uint64"
        }
      ],
      "name": "Initialized",
      "type": "event"
    },
    {
      "anonymous": false,
      "inputs": [
        {
          "indexed": true,
          "internalType": "address",
          "name": "oldManager",
          "type": "address"
        },
        {
          "indexed": true,
          "internalType": "address",
          "name": "newManager",
          "type": "address"
        }
      ],
      "name": "ManagerUpdated",
      "type": "event"
    },
    {
      "anonymous": false,
      "inputs": [
        {
          "indexed": true,
          "internalType": "uint256",
          "name": "marketId",
          "type": "uint256"
        },
        {
          "indexed": false,
          "internalType": "bool",
          "name": "isActive",
          "type": "bool"
        }
      ],
      "name": "MarketActivationUpdated",
      "type": "event"
    },
    {
      "anonymous": false,
      "inputs": [
        {
          "indexed": true,
          "internalType": "uint256",
          "name": "marketId",
          "type": "uint256"
        },
        {
          "indexed": false,
          "internalType": "uint64",
          "name": "startTimestamp",
          "type": "uint64"
        },
        {
          "indexed": false,
          "internalType": "uint64",
          "name": "endTimestamp",
          "type": "uint64"
        },
        {
          "indexed": false,
          "internalType": "int256",
          "name": "minTick",
          "type": "int256"
        },
        {
          "indexed": false,
          "internalType": "int256",
          "name": "maxTick",
          "type": "int256"
        },
        {
          "indexed": false,
          "internalType": "int256",
          "name": "tickSpacing",
          "type": "int256"
        },
        {
          "indexed": false,
          "internalType": "uint32",
          "name": "numBins",
          "type": "uint32"
        },
        {
          "indexed": false,
          "internalType": "uint256",
          "name": "liquidityParameter",
          "type": "uint256"
        }
      ],
      "name": "MarketCreated",
      "type": "event"
    },
    {
      "anonymous": false,
      "inputs": [
        {
          "indexed": true,
          "internalType": "uint256",
          "name": "marketId",
          "type": "uint256"
        },
        {
          "indexed": true,
          "internalType": "address",
          "name": "oldPolicy",
          "type": "address"
        },
        {
          "indexed": true,
          "internalType": "address",
          "name": "newPolicy",
          "type": "address"
        }
      ],
      "name": "MarketFeePolicySet",
      "type": "event"
    },
    {
      "anonymous": false,
      "inputs": [
        {
          "indexed": true,
          "internalType": "uint256",
          "name": "marketId",
          "type": "uint256"
        }
      ],
      "name": "MarketReopened",
      "type": "event"
    },
    {
      "anonymous": false,
      "inputs": [
        {
          "indexed": true,
          "internalType": "uint256",
          "name": "marketId",
          "type": "uint256"
        },
        {
          "indexed": false,
          "internalType": "int256",
          "name": "settlementTick",
          "type": "int256"
        }
      ],
      "name": "MarketSettled",
      "type": "event"
    },
    {
      "anonymous": false,
      "inputs": [
        {
          "indexed": true,
          "internalType": "uint256",
          "name": "marketId",
          "type": "uint256"
        },
        {
          "indexed": false,
          "internalType": "int256",
          "name": "settlementValue",
          "type": "int256"
        }
      ],
      "name": "MarketSettlementValueSubmitted",
      "type": "event"
    },
    {
      "anonymous": false,
      "inputs": [
        {
          "indexed": true,
          "internalType": "uint256",
          "name": "marketId",
          "type": "uint256"
        },
        {
          "indexed": false,
          "internalType": "uint64",
          "name": "newStartTimestamp",
          "type": "uint64"
        },
        {
          "indexed": false,
          "internalType": "uint64",
          "name": "newEndTimestamp",
          "type": "uint64"
        }
      ],
      "name": "MarketTimingUpdated",
      "type": "event"
    },
    {
      "anonymous": false,
      "inputs": [
        {
          "indexed": true,
          "internalType": "address",
          "name": "previousOwner",
          "type": "address"
        },
        {
          "indexed": true,
          "internalType": "address",
          "name": "newOwner",
          "type": "address"
        }
      ],
      "name": "OwnershipTransferred",
      "type": "event"
    },
    {
      "anonymous": false,
      "inputs": [
        {
          "indexed": false,
          "internalType": "address",
          "name": "account",
          "type": "address"
        }
      ],
      "name": "Paused",
      "type": "event"
    },
    {
      "anonymous": false,
      "inputs": [
        {
          "indexed": true,
          "internalType": "uint256",
          "name": "positionId",
          "type": "uint256"
        },
        {
          "indexed": true,
          "internalType": "address",
          "name": "trader",
          "type": "address"
        },
        {
          "indexed": false,
          "internalType": "uint256",
          "name": "payout",
          "type": "uint256"
        }
      ],
      "name": "PositionClaimed",
      "type": "event"
    },
    {
      "anonymous": false,
      "inputs": [
        {
          "indexed": true,
          "internalType": "uint256",
          "name": "positionId",
          "type": "uint256"
        },
        {
          "indexed": true,
          "internalType": "address",
          "name": "trader",
          "type": "address"
        },
        {
          "indexed": false,
          "internalType": "uint256",
          "name": "proceeds",
          "type": "uint256"
        }
      ],
      "name": "PositionClosed",
      "type": "event"
    },
    {
      "anonymous": false,
      "inputs": [
        {
          "indexed": true,
          "internalType": "uint256",
          "name": "positionId",
          "type": "uint256"
        },
        {
          "indexed": true,
          "internalType": "address",
          "name": "trader",
          "type": "address"
        },
        {
          "indexed": false,
          "internalType": "uint128",
          "name": "sellQuantity",
          "type": "uint128"
        },
        {
          "indexed": false,
          "internalType": "uint128",
          "name": "newQuantity",
          "type": "uint128"
        },
        {
          "indexed": false,
          "internalType": "uint256",
          "name": "proceeds",
          "type": "uint256"
        }
      ],
      "name": "PositionDecreased",
      "type": "event"
    },
    {
      "anonymous": false,
      "inputs": [
        {
          "indexed": true,
          "internalType": "uint256",
          "name": "marketId",
          "type": "uint256"
        },
        {
          "indexed": false,
          "internalType": "uint256",
          "name": "from",
          "type": "uint256"
        },
        {
          "indexed": false,
          "internalType": "uint256",
          "name": "to",
          "type": "uint256"
        },
        {
          "indexed": false,
          "internalType": "bool",
          "name": "done",
          "type": "bool"
        }
      ],
      "name": "PositionEventsProgress",
      "type": "event"
    },
    {
      "anonymous": false,
      "inputs": [
        {
          "indexed": true,
          "internalType": "uint256",
          "name": "positionId",
          "type": "uint256"
        },
        {
          "indexed": true,
          "internalType": "address",
          "name": "trader",
          "type": "address"
        },
        {
          "indexed": false,
          "internalType": "uint128",
          "name": "additionalQuantity",
          "type": "uint128"
        },
        {
          "indexed": false,
          "internalType": "uint128",
          "name": "newQuantity",
          "type": "uint128"
        },
        {
          "indexed": false,
          "internalType": "uint256",
          "name": "cost",
          "type": "uint256"
        }
      ],
      "name": "PositionIncreased",
      "type": "event"
    },
    {
      "anonymous": false,
      "inputs": [
        {
          "indexed": true,
          "internalType": "uint256",
          "name": "positionId",
          "type": "uint256"
        },
        {
          "indexed": true,
          "internalType": "address",
          "name": "trader",
          "type": "address"
        },
        {
          "indexed": true,
          "internalType": "uint256",
          "name": "marketId",
          "type": "uint256"
        },
        {
          "indexed": false,
          "internalType": "int256",
          "name": "lowerTick",
          "type": "int256"
        },
        {
          "indexed": false,
          "internalType": "int256",
          "name": "upperTick",
          "type": "int256"
        },
        {
          "indexed": false,
          "internalType": "uint128",
          "name": "quantity",
          "type": "uint128"
        },
        {
          "indexed": false,
          "internalType": "uint256",
          "name": "cost",
          "type": "uint256"
        }
      ],
      "name": "PositionOpened",
      "type": "event"
    },
    {
      "anonymous": false,
      "inputs": [
        {
          "indexed": true,
          "internalType": "uint256",
          "name": "positionId",
          "type": "uint256"
        },
        {
          "indexed": true,
          "internalType": "address",
          "name": "trader",
          "type": "address"
        },
        {
          "indexed": false,
          "internalType": "uint256",
          "name": "payout",
          "type": "uint256"
        },
        {
          "indexed": false,
          "internalType": "bool",
          "name": "isWin",
          "type": "bool"
        }
      ],
      "name": "PositionSettled",
      "type": "event"
    },
    {
      "anonymous": false,
      "inputs": [
        {
          "indexed": true,
          "internalType": "uint256",
          "name": "marketId",
          "type": "uint256"
        },
        {
          "indexed": true,
          "internalType": "int256",
          "name": "lo",
          "type": "int256"
        },
        {
          "indexed": true,
          "internalType": "int256",
          "name": "hi",
          "type": "int256"
        },
        {
          "indexed": false,
          "internalType": "uint256",
          "name": "factor",
          "type": "uint256"
        }
      ],
      "name": "RangeFactorApplied",
      "type": "event"
    },
    {
      "anonymous": false,
      "inputs": [
        {
          "indexed": true,
          "internalType": "uint256",
          "name": "marketId",
          "type": "uint256"
        },
        {
          "indexed": false,
          "internalType": "uint256",
          "name": "operationCount",
          "type": "uint256"
        },
        {
          "indexed": false,
          "internalType": "bytes32",
          "name": "context",
          "type": "bytes32"
        }
      ],
      "name": "RangeFactorBatchApplied",
      "type": "event"
    },
    {
      "anonymous": false,
      "inputs": [
        {
          "indexed": true,
          "internalType": "uint256",
          "name": "marketId",
          "type": "uint256"
        },
        {
          "indexed": false,
          "internalType": "uint64",
          "name": "settlementTimestamp",
          "type": "uint64"
        }
      ],
      "name": "SettlementTimestampUpdated",
      "type": "event"
    },
    {
      "anonymous": false,
      "inputs": [
        {
          "indexed": true,
          "internalType": "address",
          "name": "trader",
          "type": "address"
        },
        {
          "indexed": true,
          "internalType": "uint256",
          "name": "marketId",
          "type": "uint256"
        },
        {
          "indexed": true,
          "internalType": "uint256",
          "name": "positionId",
          "type": "uint256"
        },
        {
          "indexed": false,
          "internalType": "bool",
          "name": "isBuy",
          "type": "bool"
        },
        {
          "indexed": false,
          "internalType": "uint256",
          "name": "baseAmount",
          "type": "uint256"
        },
        {
          "indexed": false,
          "internalType": "uint256",
          "name": "feeAmount",
          "type": "uint256"
        },
        {
          "indexed": false,
          "internalType": "address",
          "name": "policy",
          "type": "address"
        }
      ],
      "name": "TradeFeeCharged",
      "type": "event"
    },
    {
      "anonymous": false,
      "inputs": [
        {
          "indexed": false,
          "internalType": "address",
          "name": "account",
          "type": "address"
        }
      ],
      "name": "Unpaused",
      "type": "event"
    },
    {
      "anonymous": false,
      "inputs": [
        {
          "indexed": true,
          "internalType": "address",
          "name": "implementation",
          "type": "address"
        }
      ],
      "name": "Upgraded",
      "type": "event"
    },
    {
      "inputs": [],
      "name": "MAX_LIQUIDITY_PARAMETER",
      "outputs": [
        {
          "internalType": "uint256",
          "name": "",
          "type": "uint256"
        }
      ],
      "stateMutability": "view",
      "type": "function"
    },
    {
      "inputs": [],
      "name": "MAX_TICK_COUNT",
      "outputs": [
        {
          "internalType": "uint32",
          "name": "",
          "type": "uint32"
        }
      ],
      "stateMutability": "view",
      "type": "function"
    },
    {
      "inputs": [],
      "name": "MIN_LIQUIDITY_PARAMETER",
      "outputs": [
        {
          "internalType": "uint256",
          "name": "",
          "type": "uint256"
        }
      ],
      "stateMutability": "view",
      "type": "function"
    },
    {
      "inputs": [],
      "name": "UPGRADE_INTERFACE_VERSION",
      "outputs": [
        {
          "internalType": "string",
          "name": "",
          "type": "string"
        }
      ],
      "stateMutability": "view",
      "type": "function"
    },
    {
      "inputs": [],
      "name": "_nextMarketId",
      "outputs": [
        {
          "internalType": "uint256",
          "name": "",
          "type": "uint256"
        }
      ],
      "stateMutability": "view",
      "type": "function"
    },
    {
      "inputs": [
        {
          "internalType": "uint256",
          "name": "marketId",
          "type": "uint256"
        },
        {
          "internalType": "int256",
          "name": "lo",
          "type": "int256"
        },
        {
          "internalType": "int256",
          "name": "hi",
          "type": "int256"
        },
        {
          "internalType": "uint256",
          "name": "factor",
          "type": "uint256"
        }
      ],
      "name": "applyRangeFactor",
      "outputs": [],
      "stateMutability": "nonpayable",
      "type": "function"
    },
    {
      "inputs": [
        {
          "internalType": "uint256",
          "name": "marketId",
          "type": "uint256"
        },
        {
          "internalType": "int256[]",
          "name": "lowers",
          "type": "int256[]"
        },
        {
          "internalType": "int256[]",
          "name": "uppers",
          "type": "int256[]"
        },
        {
          "internalType": "uint256[]",
          "name": "factors",
          "type": "uint256[]"
        },
        {
          "internalType": "bytes32",
          "name": "context",
          "type": "bytes32"
        }
      ],
      "name": "applyRangeFactorBatch",
      "outputs": [],
      "stateMutability": "nonpayable",
      "type": "function"
    },
    {
      "inputs": [
        {
          "internalType": "uint256",
          "name": "positionId",
          "type": "uint256"
        }
      ],
      "name": "calculateClaimAmount",
      "outputs": [
        {
          "internalType": "uint256",
          "name": "amount",
          "type": "uint256"
        }
      ],
      "stateMutability": "view",
      "type": "function"
    },
    {
      "inputs": [
        {
          "internalType": "uint256",
          "name": "positionId",
          "type": "uint256"
        }
      ],
      "name": "calculateCloseProceeds",
      "outputs": [
        {
          "internalType": "uint256",
          "name": "proceeds",
          "type": "uint256"
        }
      ],
      "stateMutability": "view",
      "type": "function"
    },
    {
      "inputs": [
        {
          "internalType": "uint256",
          "name": "positionId",
          "type": "uint256"
        },
        {
          "internalType": "uint128",
          "name": "sellQuantity",
          "type": "uint128"
        }
      ],
      "name": "calculateDecreaseProceeds",
      "outputs": [
        {
          "internalType": "uint256",
          "name": "proceeds",
          "type": "uint256"
        }
      ],
      "stateMutability": "view",
      "type": "function"
    },
    {
      "inputs": [
        {
          "internalType": "uint256",
          "name": "positionId",
          "type": "uint256"
        },
        {
          "internalType": "uint128",
          "name": "additionalQuantity",
          "type": "uint128"
        }
      ],
      "name": "calculateIncreaseCost",
      "outputs": [
        {
          "internalType": "uint256",
          "name": "cost",
          "type": "uint256"
        }
      ],
      "stateMutability": "view",
      "type": "function"
    },
    {
      "inputs": [
        {
          "internalType": "uint256",
          "name": "marketId",
          "type": "uint256"
        },
        {
          "internalType": "int256",
          "name": "lowerTick",
          "type": "int256"
        },
        {
          "internalType": "int256",
          "name": "upperTick",
          "type": "int256"
        },
        {
          "internalType": "uint128",
          "name": "quantity",
          "type": "uint128"
        }
      ],
      "name": "calculateOpenCost",
      "outputs": [
        {
          "internalType": "uint256",
          "name": "cost",
          "type": "uint256"
        }
      ],
      "stateMutability": "view",
      "type": "function"
    },
    {
      "inputs": [
        {
          "internalType": "uint256",
          "name": "marketId",
          "type": "uint256"
        },
        {
          "internalType": "int256",
          "name": "lowerTick",
          "type": "int256"
        },
        {
          "internalType": "int256",
          "name": "upperTick",
          "type": "int256"
        },
        {
          "internalType": "uint256",
          "name": "cost",
          "type": "uint256"
        }
      ],
      "name": "calculateQuantityFromCost",
      "outputs": [
        {
          "internalType": "uint128",
          "name": "quantity",
          "type": "uint128"
        }
      ],
      "stateMutability": "view",
      "type": "function"
    },
    {
      "inputs": [
        {
          "internalType": "uint256",
          "name": "positionId",
          "type": "uint256"
        }
      ],
      "name": "claimPayout",
      "outputs": [
        {
          "internalType": "uint256",
          "name": "payout",
          "type": "uint256"
        }
      ],
      "stateMutability": "nonpayable",
      "type": "function"
    },
    {
      "inputs": [
        {
          "internalType": "uint256",
          "name": "positionId",
          "type": "uint256"
        },
        {
          "internalType": "uint256",
          "name": "minProceeds",
          "type": "uint256"
        }
      ],
      "name": "closePosition",
      "outputs": [
        {
          "internalType": "uint256",
          "name": "proceeds",
          "type": "uint256"
        }
      ],
      "stateMutability": "nonpayable",
      "type": "function"
    },
    {
      "inputs": [
        {
          "internalType": "int256",
          "name": "minTick",
          "type": "int256"
        },
        {
          "internalType": "int256",
          "name": "maxTick",
          "type": "int256"
        },
        {
          "internalType": "int256",
          "name": "tickSpacing",
          "type": "int256"
        },
        {
          "internalType": "uint64",
          "name": "startTimestamp",
          "type": "uint64"
        },
        {
          "internalType": "uint64",
          "name": "endTimestamp",
          "type": "uint64"
        },
        {
          "internalType": "uint64",
          "name": "settlementTimestamp",
          "type": "uint64"
        },
        {
          "internalType": "uint256",
          "name": "liquidityParameter",
          "type": "uint256"
        },
        {
          "internalType": "address",
          "name": "feePolicy",
          "type": "address"
        }
      ],
      "name": "createMarket",
      "outputs": [
        {
          "internalType": "uint256",
          "name": "marketId",
          "type": "uint256"
        }
      ],
      "stateMutability": "nonpayable",
      "type": "function"
    },
    {
      "inputs": [
        {
          "internalType": "uint256",
          "name": "positionId",
          "type": "uint256"
        },
        {
          "internalType": "uint128",
          "name": "sellQuantity",
          "type": "uint128"
        },
        {
          "internalType": "uint256",
          "name": "minProceeds",
          "type": "uint256"
        }
      ],
      "name": "decreasePosition",
      "outputs": [
        {
          "internalType": "uint128",
          "name": "newQuantity",
          "type": "uint128"
        },
        {
          "internalType": "uint256",
          "name": "proceeds",
          "type": "uint256"
        }
      ],
      "stateMutability": "nonpayable",
      "type": "function"
    },
    {
      "inputs": [],
      "name": "deprecatedFeePolicy",
      "outputs": [
        {
          "internalType": "contract ICLMSRFeePolicy",
          "name": "",
          "type": "address"
        }
      ],
      "stateMutability": "view",
      "type": "function"
    },
    {
      "inputs": [
        {
          "internalType": "uint256",
          "name": "marketId",
          "type": "uint256"
        },
        {
          "internalType": "uint256",
          "name": "limit",
          "type": "uint256"
        }
      ],
      "name": "emitPositionSettledBatch",
      "outputs": [],
      "stateMutability": "nonpayable",
      "type": "function"
    },
    {
      "inputs": [],
      "name": "feeRecipient",
      "outputs": [
        {
          "internalType": "address",
          "name": "",
          "type": "address"
        }
      ],
      "stateMutability": "view",
      "type": "function"
    },
    {
      "inputs": [],
      "name": "getFeeRecipient",
      "outputs": [
        {
          "internalType": "address",
          "name": "",
          "type": "address"
        }
      ],
      "stateMutability": "view",
      "type": "function"
    },
    {
      "inputs": [
        {
          "internalType": "uint256",
          "name": "marketId",
          "type": "uint256"
        }
      ],
      "name": "getMarket",
      "outputs": [
        {
          "components": [
            {
              "internalType": "bool",
              "name": "isActive",
              "type": "bool"
            },
            {
              "internalType": "bool",
              "name": "settled",
              "type": "bool"
            },
            {
              "internalType": "uint64",
              "name": "startTimestamp",
              "type": "uint64"
            },
            {
              "internalType": "uint64",
              "name": "endTimestamp",
              "type": "uint64"
            },
            {
              "internalType": "int256",
              "name": "settlementTick",
              "type": "int256"
            },
            {
              "internalType": "int256",
              "name": "minTick",
              "type": "int256"
            },
            {
              "internalType": "int256",
              "name": "maxTick",
              "type": "int256"
            },
            {
              "internalType": "int256",
              "name": "tickSpacing",
              "type": "int256"
            },
            {
              "internalType": "uint32",
              "name": "numBins",
              "type": "uint32"
            },
            {
              "internalType": "uint256",
              "name": "liquidityParameter",
              "type": "uint256"
            },
            {
              "internalType": "uint32",
              "name": "positionEventsCursor",
              "type": "uint32"
            },
            {
              "internalType": "bool",
              "name": "positionEventsEmitted",
              "type": "bool"
            },
            {
              "internalType": "int256",
              "name": "settlementValue",
              "type": "int256"
            },
            {
              "internalType": "uint64",
              "name": "settlementTimestamp",
              "type": "uint64"
            },
            {
              "internalType": "address",
              "name": "feePolicy",
              "type": "address"
            }
          ],
          "internalType": "struct ICLMSRMarketCore.Market",
          "name": "market",
          "type": "tuple"
        }
      ],
      "stateMutability": "view",
      "type": "function"
    },
    {
      "inputs": [
        {
          "internalType": "uint256",
          "name": "marketId",
          "type": "uint256"
        }
      ],
      "name": "getMarketFeePolicy",
      "outputs": [
        {
          "internalType": "address",
          "name": "",
          "type": "address"
        }
      ],
      "stateMutability": "view",
      "type": "function"
    },
    {
      "inputs": [],
      "name": "getPaymentToken",
      "outputs": [
        {
          "internalType": "address",
          "name": "",
          "type": "address"
        }
      ],
      "stateMutability": "view",
      "type": "function"
    },
    {
      "inputs": [],
      "name": "getPositionContract",
      "outputs": [
        {
          "internalType": "address",
          "name": "",
          "type": "address"
        }
      ],
      "stateMutability": "view",
      "type": "function"
    },
    {
      "inputs": [
        {
          "internalType": "uint256",
          "name": "marketId",
          "type": "uint256"
        },
        {
          "internalType": "int256",
          "name": "lo",
          "type": "int256"
        },
        {
          "internalType": "int256",
          "name": "hi",
          "type": "int256"
        }
      ],
      "name": "getRangeSum",
      "outputs": [
        {
          "internalType": "uint256",
          "name": "sum",
          "type": "uint256"
        }
      ],
      "stateMutability": "view",
      "type": "function"
    },
    {
      "inputs": [
        {
          "internalType": "uint256",
          "name": "positionId",
          "type": "uint256"
        },
        {
          "internalType": "uint128",
          "name": "additionalQuantity",
          "type": "uint128"
        },
        {
          "internalType": "uint256",
          "name": "maxCost",
          "type": "uint256"
        }
      ],
      "name": "increasePosition",
      "outputs": [
        {
          "internalType": "uint128",
          "name": "newQuantity",
          "type": "uint128"
        }
      ],
      "stateMutability": "nonpayable",
      "type": "function"
    },
    {
      "inputs": [
        {
          "internalType": "address",
          "name": "_paymentToken",
          "type": "address"
        },
        {
          "internalType": "address",
          "name": "_positionContract",
          "type": "address"
        }
      ],
      "name": "initialize",
      "outputs": [],
      "stateMutability": "nonpayable",
      "type": "function"
    },
    {
      "inputs": [],
      "name": "isPaused",
      "outputs": [
        {
          "internalType": "bool",
          "name": "",
          "type": "bool"
        }
      ],
      "stateMutability": "view",
      "type": "function"
    },
    {
      "inputs": [],
      "name": "manager",
      "outputs": [
        {
          "internalType": "address",
          "name": "",
          "type": "address"
        }
      ],
      "stateMutability": "view",
      "type": "function"
    },
    {
      "inputs": [
        {
          "internalType": "uint256",
          "name": "",
          "type": "uint256"
        }
      ],
      "name": "marketTrees",
      "outputs": [
        {
          "internalType": "uint32",
          "name": "root",
          "type": "uint32"
        },
        {
          "internalType": "uint32",
          "name": "nextIndex",
          "type": "uint32"
        },
        {
          "internalType": "uint32",
          "name": "size",
          "type": "uint32"
        },
        {
          "internalType": "uint256",
          "name": "cachedRootSum",
          "type": "uint256"
        }
      ],
      "stateMutability": "view",
      "type": "function"
    },
    {
      "inputs": [
        {
          "internalType": "uint256",
          "name": "",
          "type": "uint256"
        }
      ],
      "name": "markets",
      "outputs": [
        {
          "internalType": "bool",
          "name": "isActive",
          "type": "bool"
        },
        {
          "internalType": "bool",
          "name": "settled",
          "type": "bool"
        },
        {
          "internalType": "uint64",
          "name": "startTimestamp",
          "type": "uint64"
        },
        {
          "internalType": "uint64",
          "name": "endTimestamp",
          "type": "uint64"
        },
        {
          "internalType": "int256",
          "name": "settlementTick",
          "type": "int256"
        },
        {
          "internalType": "int256",
          "name": "minTick",
          "type": "int256"
        },
        {
          "internalType": "int256",
          "name": "maxTick",
          "type": "int256"
        },
        {
          "internalType": "int256",
          "name": "tickSpacing",
          "type": "int256"
        },
        {
          "internalType": "uint32",
          "name": "numBins",
          "type": "uint32"
        },
        {
          "internalType": "uint256",
          "name": "liquidityParameter",
          "type": "uint256"
        },
        {
          "internalType": "uint32",
          "name": "positionEventsCursor",
          "type": "uint32"
        },
        {
          "internalType": "bool",
          "name": "positionEventsEmitted",
          "type": "bool"
        },
        {
          "internalType": "int256",
          "name": "settlementValue",
          "type": "int256"
        },
        {
          "internalType": "uint64",
          "name": "settlementTimestamp",
          "type": "uint64"
        },
        {
          "internalType": "address",
          "name": "feePolicy",
          "type": "address"
        }
      ],
      "stateMutability": "view",
      "type": "function"
    },
    {
      "inputs": [
        {
          "internalType": "uint256",
          "name": "marketId",
          "type": "uint256"
        },
        {
          "internalType": "int256",
          "name": "lowerTick",
          "type": "int256"
        },
        {
          "internalType": "int256",
          "name": "upperTick",
          "type": "int256"
        },
        {
          "internalType": "uint128",
          "name": "quantity",
          "type": "uint128"
        },
        {
          "internalType": "uint256",
          "name": "maxCost",
          "type": "uint256"
        }
      ],
      "name": "openPosition",
      "outputs": [
        {
          "internalType": "uint256",
          "name": "positionId",
          "type": "uint256"
        }
      ],
      "stateMutability": "nonpayable",
      "type": "function"
    },
    {
      "inputs": [],
      "name": "owner",
      "outputs": [
        {
          "internalType": "address",
          "name": "",
          "type": "address"
        }
      ],
      "stateMutability": "view",
      "type": "function"
    },
    {
      "inputs": [
        {
          "internalType": "string",
          "name": "reason",
          "type": "string"
        }
      ],
      "name": "pause",
      "outputs": [],
      "stateMutability": "nonpayable",
      "type": "function"
    },
    {
      "inputs": [],
      "name": "paused",
      "outputs": [
        {
          "internalType": "bool",
          "name": "",
          "type": "bool"
        }
      ],
      "stateMutability": "view",
      "type": "function"
    },
    {
      "inputs": [],
      "name": "paymentToken",
      "outputs": [
        {
          "internalType": "contract IERC20",
          "name": "",
          "type": "address"
        }
      ],
      "stateMutability": "view",
      "type": "function"
    },
    {
      "inputs": [],
      "name": "positionContract",
      "outputs": [
        {
          "internalType": "contract ICLMSRPosition",
          "name": "",
          "type": "address"
        }
      ],
      "stateMutability": "view",
      "type": "function"
    },
    {
      "inputs": [
        {
          "internalType": "uint256",
          "name": "",
          "type": "uint256"
        }
      ],
      "name": "positionSettledEmitted",
      "outputs": [
        {
          "internalType": "bool",
          "name": "",
          "type": "bool"
        }
      ],
      "stateMutability": "view",
      "type": "function"
    },
    {
      "inputs": [
        {
          "internalType": "uint256",
          "name": "marketId",
          "type": "uint256"
        },
        {
          "internalType": "int256",
          "name": "lowerTick",
          "type": "int256"
        },
        {
          "internalType": "int256",
          "name": "upperTick",
          "type": "int256"
        },
        {
          "internalType": "uint128",
          "name": "quantity",
          "type": "uint128"
        },
        {
          "internalType": "uint256",
          "name": "cost",
          "type": "uint256"
        }
      ],
      "name": "previewOpenFee",
      "outputs": [
        {
          "internalType": "uint256",
          "name": "",
          "type": "uint256"
        }
      ],
      "stateMutability": "view",
      "type": "function"
    },
    {
      "inputs": [
        {
          "internalType": "uint256",
          "name": "positionId",
          "type": "uint256"
        },
        {
          "internalType": "uint128",
          "name": "sellQuantity",
          "type": "uint128"
        },
        {
          "internalType": "uint256",
          "name": "proceeds",
          "type": "uint256"
        }
      ],
      "name": "previewSellFee",
      "outputs": [
        {
          "internalType": "uint256",
          "name": "",
          "type": "uint256"
        }
      ],
      "stateMutability": "view",
      "type": "function"
    },
    {
      "inputs": [
        {
          "internalType": "uint256",
          "name": "marketId",
          "type": "uint256"
        },
        {
          "internalType": "int256",
          "name": "lo",
          "type": "int256"
        },
        {
          "internalType": "int256",
          "name": "hi",
          "type": "int256"
        }
      ],
      "name": "propagateLazy",
      "outputs": [
        {
          "internalType": "uint256",
          "name": "sum",
          "type": "uint256"
        }
      ],
      "stateMutability": "nonpayable",
      "type": "function"
    },
    {
      "inputs": [],
      "name": "proxiableUUID",
      "outputs": [
        {
          "internalType": "bytes32",
          "name": "",
          "type": "bytes32"
        }
      ],
      "stateMutability": "view",
      "type": "function"
    },
    {
      "inputs": [],
      "name": "renounceOwnership",
      "outputs": [],
      "stateMutability": "nonpayable",
      "type": "function"
    },
    {
      "inputs": [
        {
          "internalType": "uint256",
          "name": "marketId",
          "type": "uint256"
        }
      ],
      "name": "reopenMarket",
      "outputs": [],
      "stateMutability": "nonpayable",
      "type": "function"
    },
    {
      "inputs": [
        {
          "internalType": "address",
          "name": "newRecipient",
          "type": "address"
        }
      ],
      "name": "setFeeRecipient",
      "outputs": [],
      "stateMutability": "nonpayable",
      "type": "function"
    },
    {
      "inputs": [
        {
          "internalType": "address",
          "name": "newManager",
          "type": "address"
        }
      ],
      "name": "setManager",
      "outputs": [],
      "stateMutability": "nonpayable",
      "type": "function"
    },
    {
      "inputs": [
        {
          "internalType": "uint256",
          "name": "marketId",
          "type": "uint256"
        },
        {
          "internalType": "bool",
          "name": "active",
          "type": "bool"
        }
      ],
      "name": "setMarketActive",
      "outputs": [],
      "stateMutability": "nonpayable",
      "type": "function"
    },
    {
      "inputs": [
        {
          "internalType": "uint256",
          "name": "marketId",
          "type": "uint256"
        },
        {
          "internalType": "address",
          "name": "newPolicy",
          "type": "address"
        }
      ],
      "name": "setMarketFeePolicy",
      "outputs": [],
      "stateMutability": "nonpayable",
      "type": "function"
    },
    {
      "inputs": [
        {
          "internalType": "uint256",
          "name": "marketId",
          "type": "uint256"
        },
        {
          "internalType": "int256",
          "name": "settlementValue",
          "type": "int256"
        }
      ],
      "name": "settleMarket",
      "outputs": [],
      "stateMutability": "nonpayable",
      "type": "function"
    },
    {
      "inputs": [
        {
          "internalType": "address",
          "name": "newOwner",
          "type": "address"
        }
      ],
      "name": "transferOwnership",
      "outputs": [],
      "stateMutability": "nonpayable",
      "type": "function"
    },
    {
      "inputs": [],
      "name": "unpause",
      "outputs": [],
      "stateMutability": "nonpayable",
      "type": "function"
    },
    {
      "inputs": [
        {
          "internalType": "uint256",
          "name": "marketId",
          "type": "uint256"
        },
        {
          "internalType": "uint64",
          "name": "newStartTimestamp",
          "type": "uint64"
        },
        {
          "internalType": "uint64",
          "name": "newEndTimestamp",
          "type": "uint64"
        },
        {
          "internalType": "uint64",
          "name": "newSettlementTimestamp",
          "type": "uint64"
        }
      ],
      "name": "updateMarketTiming",
      "outputs": [],
      "stateMutability": "nonpayable",
      "type": "function"
    },
    {
      "inputs": [
        {
          "internalType": "address",
          "name": "newImplementation",
          "type": "address"
        },
        {
          "internalType": "bytes",
          "name": "data",
          "type": "bytes"
        }
      ],
      "name": "upgradeToAndCall",
      "outputs": [],
      "stateMutability": "payable",
      "type": "function"
    }
  ],
  "bytecode": "0x60a0806040523460295730608052615ef8908161002e823960805181818161264c01526126f00152f35b5f80fdfe6101006040526004361015610012575f80fd5b5f5f3560e01c8063070ab8c9146131f757806309f28be614610c2557806313b6eb09146131d857806316ae2866146131b85780631d49df57146131685780632d6ce61d14612ecf5780632ed6665014612ead5780633013ce2914610d005780633d65117b14612e085780633f4ba83a14612d63578063449a038814612ceb57806344a1a58e14612bcf57806346904840146128f1578063481c6a7514612ba6578063485cc9551461291a5780634ccb20c0146128f15780634cd31c27146128965780634f1ef286146126a057806352d1902d14612639578063573add03146123f05780635c975abb14610fcb5780636084fa031461205a57806362a626aa1461203c578063692c3fc714611fe75780636c1155a114611fb55780636da6635514611ec4578063715018a614611e5b5780637404d95714611e3d57806379334798146116545780637ed54782146115ae578063855e23681461157f5780638a69614e1461133a5780638da5cb5b14611305578063974f1d2f146112dc5780639bbafcc3146112c15780639fc46ecb1461120c578063a73c9c9b14611170578063ad3cb1cc1461112b578063aea61556146110f3578063b1283e7714610ffa578063b187bd2614610fcb578063b762d83414610f81578063bcb1732214610f5c578063c9ac6b3114610e7f578063cfb51cf914610e56578063d0ebdbe714610d96578063d382bcc514610d27578063d41c3a6514610d00578063d68b88c914610cb8578063e74b981b14610c4e578063e9eb3ba514610c25578063eb44fdd314610a98578063f0b7f3b11461029c5763f2fde38b1461026d575f80fd5b3461029957602036600319011261029957610296610289613385565b610291613dce565b613d5d565b80f35b80fd5b5034610299576102ab36613577565b916102b8959493956140d4565b6102c06140fb565b6102d5826001600160801b0381161515613d1b565b5f848152600260205260409020600581015490929061030290869063ffffffff1615156135a9565b6135a9565b825460ff811615610a89576001600160401b038160101c164210610a7a5760501c6001600160401b03164211610a6b5761034461033e846135c3565b88613e01565b610356610350846135c3565b83613e01565b61036482888181131561369d565b61037282888181141561369d565b610395828861038f61038482846136bb565b6004880154906136e7565b1561369d565b64e8d4a510006001600160801b03821602916103c96103be6103b985848c8b614ff8565b615d3e565b958681811115613d3f565b6103d78583838b8a33614973565b926103e286336154af565b83610a4b575b600685015490878952600260205261040c61040560408b206135c3565b848c613e9e565b906080529061041a83615587565b808211610778575073__$cbaf8988f3c8d5491808e1d52afb16035a$__92604051916316cf339960e21b835260048301526024820152602081604481865af4801561076d578a9061073a575b6020915060246040518095819363ec6e92cd60e01b835260048301525af49182156106d5578992610706575b50662386f26fc10000821015806106f3575b156106e45773__$e8b8ff73fdf5e99c3df6a4b39aa1f5b319$__90888a52600360205260408a20823b156106e0576040516330f27d1f60e01b8152608051600482019290925263ffffffff91821660248201529116604482015260648101839052908990829060849082905af480156106d557899493928b928a926106af575b50905f516020615e0c5f395f51905f526020859493604051908152a45b602060015460018060a01b031660a48b6040519b8c9384926330906fad60e21b84523360048501528d602485015260448401528660648401526001600160801b03881660848401525af19788156106a457839861065b575b50956020986001600160801b038297969594938a996040519384528c840152166040820152856060820152877fc33c3b4ea19b40f02901978a93e787a0caa1d6fd23dfa228ae891fe96867e17160803393a48161060c575b878660015f516020615e8c5f395f51905f5255604051908152f35b506009919091015460408051600181526020810194909452838101929092526001600160a01b03911c16606082015233905f516020615ecc5f395f51905f5290608090a4805f808080806105f1565b9096959493929197506020813d60201161069c575b8161067d60209383613413565b81010312610698575196949593949293919290916020610599565b5f80fd5b3d9150610670565b6040513d85823e3d90fd5b8693506106c192509590939495613413565b6106d1579088878994935f610524565b8780fd5b6040513d8b823e3d90fd5b8a80fd5b63a2f9e7b560e01b8952600489fd5b5068056bc75e2d631000008211156104a4565b9091506020813d602011610732575b8161072260209383613413565b810103126106985751905f610492565b3d9150610715565b506020813d602011610765575b8161075460209383613413565b810103126106985760209051610466565b3d9150610747565b6040513d8c823e3d90fd5b9294999397919a969061078e84829b989b61419c565b5f198101908111610a3757846107a3916141b5565b6103e88111610a1f57509884995b80151580610a14575b156109ec57848111156109e65784905b6040516316cf339960e21b815282600482015288602482015260208160448173__$cbaf8988f3c8d5491808e1d52afb16035a$__5af49081156109aa5788916109b5575b506040519063ec6e92cd60e01b8252600482015260208160248173__$cbaf8988f3c8d5491808e1d52afb16035a$__5af49081156109aa578891610979575b50662386f26fc1000081101580610966575b156109575789885260036020526040882073__$e8b8ff73fdf5e99c3df6a4b39aa1f5b319$__3b15610953578f899083926108d260405194859384936330f27d1f60e01b855260805190600486019094939263ffffffff9081606094608085019885521660208401521660408201520152565b038173__$e8b8ff73fdf5e99c3df6a4b39aa1f5b319$__5af480156106d5578d928a8e938e93610933575b50509161092d9593915f516020615e0c5f395f51905f5260206109279795604051908152a4613cdb565b9a614221565b996107b1565b909350839194506109449250613413565b6106d1578a8a8d928a5f6108fd565b8880fd5b63a2f9e7b560e01b8852600488fd5b5068056bc75e2d6310000081111561085f565b90506020813d82116109a2575b8161099360209383613413565b8101031261069857515f61084d565b3d9150610986565b6040513d8a823e3d90fd5b90506020813d82116109de575b816109cf60209383613413565b8101031261069857515f61080e565b3d91506109c2565b806107ca565b93509598509599509591979250610a0557908691610541565b6332581cb160e01b8752600487fd5b506103e88b106107ba565b635a0c51d560e11b86526004526103e8602452604485fd5b634e487b7160e01b86526011600452602486fd5b610a5584336154af565b610a6684610a61614fa9565b614f5a565b6103e8565b63b2094b5960e01b8652600486fd5b630ee8c41760e31b8752600487fd5b635a90bb8d60e11b8752600487fd5b503461029957602036600319011261029957610b4c60406101e092600435816101c08451610ac5816133c7565b82815282602082015282868201528260608201528260808201528260a08201528260c08201528260e08201528261010082015282610120820152826101408201528261016082015282610180820152826101a08201520152610b3f816102fd815f52600260205263ffffffff600560405f20015416151590565b81526002602052206135c3565b604051908051151582526020810151151560208301526001600160401b0360408201511660408301526001600160401b0360608201511660608301526080810151608083015260a081015160a083015260c081015160c083015260e081015160e083015263ffffffff6101008201511661010083015261012081015161012083015263ffffffff6101408201511661014083015261016081015115156101608301526101808101516101808301526001600160401b036101a0820151166101a08301526101c060018060a01b03910151166101c0820152f35b50346102995780600319360112610299576001546040516001600160a01b039091168152602090f35b503461029957602036600319011261029957610c68613385565b610c70613dce565b6008546001600160a01b0391821691829082167faaebcf1bfa00580e41d966056b48521fa9f202645c86d4ddf28113e617c1b1d38580a36001600160a01b0319161760085580f35b5034610299576020610cf8610ccc36613577565b93610cf2816102fd819694965f52600260205263ffffffff600560405f20015416151590565b33614973565b604051908152f35b5034610299578060031936011261029957546040516001600160a01b039091168152602090f35b50346102995761010036600319011261029957610d4261350b565b50610d4b613521565b50610d54613537565b50610d5d6133b1565b50610d66613dce565b610d6e6140d4565b610d7661403a565b602081519181808201938492010103126106985760209051604051908152f35b503461029957602036600319011261029957610db0613385565b610db8613dce565b6001600160a01b038116908115610e47573b15610e1257600654816001600160a01b0382167fdac3632743b879638fd2d51c4d3c1dd796615b4758a55b50b0c19b971ba9fbc78580a36001600160a01b0319161760065580f35b60405162461bcd60e51b815260206004820152600d60248201526c4d616e616765724e6f436f646560981b6044820152606490fd5b63d92e233d60e01b8352600483fd5b50346102995780600319360112610299576007546040516001600160a01b039091168152602090f35b503461029957608036600319011261029957600435602435604435906064356001600160801b03811690818103610f58579164e8d4a510008492610f516103b9968461038f610f0c604060209d610eff8e9c610cf89f806102fd610ef7925f52600260205263ffffffff600560405f20015416151590565b891515613d1b565b8b815260028f52206135c3565b610f168184613e01565b610f208185613e01565b610f2e84848181131561369d565b610f3c84848181141561369d565b60e0610f4884866136bb565b910151906136e7565b0292614ff8565b8580fd5b5034610299578060031936011261029957602060405169152d02c7e14af68000008152f35b503461029957604036600319011261029957610fbf600435610fa1613dce565b6102fd815f52600260205263ffffffff600560405f20015416151590565b610fc761403a565b5080f35b5034610299578060031936011261029957602060ff5f516020615e6c5f395f51905f5254166040519015158152f35b50346102995760203660031901126102995760406101e091600435815260026020522080549060018101549060ff60028201546003830154600484015463ffffffff6005860154169060068601549260078701549460096008890154980154986001600160401b036040519b89811615158d528c60208b8360081c1615159101528c6040838360101c1691015260501c1660608c015260808b015260a08a015260c089015260e088015261010087015261012086015263ffffffff811661014086015260201c1615156101608401526101808301526001600160401b0381166101a083015260018060a01b039060401c166101c0820152f35b5034610299576040366003190112610299576004356024358015150361112757610fbf9061111f613dce565b610fa16140d4565b5080fd5b50346102995780600319360112610299575061116c60405161114e604082613413565b60058152640352e302e360dc1b60208201526040519182918261354d565b0390f35b50346102995761117f366134b5565b9160a0600180821b03600154169160246040518094819363eb02c30160e01b835260048301525afa9081156112015790610cf8939291602095916111d2575b508051906040868201519101519133614850565b6111f4915060a03d60a0116111fa575b6111ec8183613413565b810190613be0565b5f6111be565b503d6111e2565b6040513d86823e3d90fd5b50346102995760203660031901126102995760015460405163eb02c30160e01b815260048035908201529060a090829060249082906001600160a01b03165afa9081156112b6579161128c64e8d4a51000926020948391611297575b50836001600160801b03606083015116029080519060408782015191015191614249565b905004604051908152f35b6112b0915060a03d60a0116111fa576111ec8183613413565b5f611268565b6040513d84823e3d90fd5b503461029957610fbf6112d33661333f565b50610fa1613dce565b503461029957604036600319011261029957610fbf6004356112fc61339b565b5061111f613dce565b50346102995780600319360112610299575f516020615e2c5f395f51905f52546040516001600160a01b039091168152602090f35b5034610299576020366003190112610299576004356113576140d4565b61135f6140fb565b60015460405163eb02c30160e01b81526004810183905291906001600160a01b031660a083602481845afa928315611201578493611558575b506020602491604051928380926331a9108f60e11b82528660048301525afa908115611201578491611529575b506001600160a01b0316916113dc33808514613c77565b80518452600260205260206113f3604086206135c3565b015115905190611517575061140781613f4d565b91818452600560205260ff604085205416156114c8575b506114298233614f5a565b60015483906001600160a01b0316803b15611127578190602460405180948193630852cd8d60e31b83528760048401525af18015611201576114af575b60208383604051908282527ff18ca9717b47ea7629d17b5d7b2ede46e864155725629e7d0347924c2f6d112d843393a360015f516020615e8c5f395f51905f5255604051908152f35b6114ba848092613413565b6114c45782611466565b8280fd5b817f1a81eb5d53aa7bec98cadd0a6303be87e540f77ba90e63cd945e49b8eb697b0a604080518681528615156020820152a3808352600560205260408320805460ff191660011790555f61141e565b63b23e5f9f60e01b8452600452602483fd5b61154b915060203d602011611551575b6115438183613413565b810190613c58565b5f6113c5565b503d611539565b602491935061157760209160a03d60a0116111fa576111ec8183613413565b939150611398565b50346102995760203660031901126102995760ff60406020926004358152600584522054166040519015158152f35b50346102995760403660031901126102995760246115ca613355565b60015460405163eb02c30160e01b815260048035908201529260a09184919082906001600160a01b03165afa9182156106a457916103b991610cf89360209592611633575b50815190604064e8d4a510006001600160801b038886015193160293015191614ff8565b61164d91925060a03d60a0116111fa576111ec8183613413565b905f61160f565b503461029957611663366134b5565b61166e9291926140d4565b6116766140fb565b61168b836001600160801b0381161515613d1b565b60015460405163eb02c30160e01b81526004810184905291906001600160a01b031660a083602481845afa928315611e0b578693611e16575b506020602491604051928380926331a9108f60e11b82528860048301525afa8015611e0b57611707918791611dec575b5033906001600160a01b03168114613c77565b6117118251614133565b81515f52600260205260405f2091805160208201908151906117536103be6103b960408701938b64e8d4a510006001600160801b038751921602968792614ff8565b61176585898651865185519133614973565b9261177086336154af565b83611dd1575b84519051915160a052600687015492818b5260026020526117a561179c60408d206135c3565b60a05185613e9e565b9060e052906117b385615587565b808211611b04575073__$cbaf8988f3c8d5491808e1d52afb16035a$__94604051916316cf339960e21b835260048301526024820152602081604481885af48015611af9578c90611ac6575b6020915060246040518097819363ec6e92cd60e01b835260048301525af4938415611abb578b94611a87575b50662386f26fc1000084101580611a74575b15611a65578a9073__$e8b8ff73fdf5e99c3df6a4b39aa1f5b319$__90838352600360205260408320823b15611a61576040516330f27d1f60e01b815260e051600482019290925263ffffffff91821660248201529116604482015260648101869052908290829060849082905af480156112b657611a48575b50506040519283525f516020615e0c5f395f51905f52602060a05194a45b6001600160801b036060830151166001600160801b03871601956001600160801b038711611a34576001546001600160a01b031688813b15610299576040516361d6883d60e01b8152600481018990526001600160801b038a166024820152918290604490829084905af180156106d557611a1d575b5096602097867fa9efae0c21a2db158c2af2d36b5c18dc14d792a79dfab662442466a80095ea5f6040518061199f898d3397846001600160801b036040929594938160608401971683521660208201520152565b0390a3816119cc575b878760015f516020615e8c5f395f51905f52556001600160801b0360405191168152f35b5090516009939093015460408051600181526020810194909452838101929092526001600160a01b03911c16606082015233905f516020615ecc5f395f51905f5290608090a45f80808080806119a8565b88611a2791613413565b875f126106d1575f61194b565b634e487b7160e01b88526011600452602488fd5b81611a5291613413565b611a5d57895f6118b7565b8980fd5b8380fd5b63a2f9e7b560e01b8b5260048bfd5b5068056bc75e2d6310000084111561183d565b9093506020813d602011611ab3575b81611aa360209383613413565b810103126106985751925f61182b565b3d9150611a96565b6040513d8d823e3d90fd5b506020813d602011611af1575b81611ae060209383613413565b8101031261069857602090516117ff565b3d9150611ad3565b6040513d8e823e3d90fd5b95999397919a9498929690611b19878261419c565b5f198101908111611dbd5787611b2e916141b5565b6103e88111611da557508c908160c0525b80151580611d98575b15611d775787811115611d715787905b6040516316cf339960e21b81528260048201528c602482015260208160448173__$cbaf8988f3c8d5491808e1d52afb16035a$__5af4908115611201578491611d3d575b506040519063ec6e92cd60e01b8252600482015260208160248173__$cbaf8988f3c8d5491808e1d52afb16035a$__5af4938415611d315793611cfe575b50662386f26fc1000083101580611ceb575b15611cdc578e8a815260036020526040812073__$e8b8ff73fdf5e99c3df6a4b39aa1f5b319$__3b15611127578f82908692611c6060405194859384936330f27d1f60e01b855260e05190600486019094939263ffffffff9081606094608085019885521660208401521660408201520152565b038173__$e8b8ff73fdf5e99c3df6a4b39aa1f5b319$__5af480156112b657611cc3575b5050611cac926040519081528b8b5f516020615e0c5f395f51905f52602060a05194a4613cdb565b99611cb860c051614221565b60c052998c90611b3f565b81611ccd91613413565b611cd8578e5f611c84565b8e80fd5b63a2f9e7b560e01b8f5260048ffd5b5068056bc75e2d63100000831115611bec565b9092506020813d8211611d29575b81611d1960209383613413565b810103126106985751915f611bda565b3d9150611d0c565b604051903d90823e3d90fd5b9350506020833d8211611d69575b81611d5860209383613413565b81010312610698578e92515f611b9c565b3d9150611d4b565b80611b58565b959b5050955095509550959150156118d5576332581cb160e01b8752600487fd5b506103e860c05110611b48565b635a0c51d560e11b8e526004526103e860245260448dfd5b634e487b7160e01b8e52601160045260248efd5b611ddb84336154af565b611de784610a61614fa9565b611776565b611e05915060203d602011611551576115438183613413565b5f6116f4565b6040513d88823e3d90fd5b6024919350611e3560209160a03d60a0116111fa576111ec8183613413565b9391506116c4565b50346102995780600319360112610299576020604051620f42408152f35b5034610299578060031936011261029957611e74613dce565b5f516020615e2c5f395f51905f5280546001600160a01b0319811690915581906001600160a01b03167f8be0079c531659141344cd1fd0a4f28419497f9722a3daafe3b4186f6b6457e08280a380f35b5034610299576020366003190112610299576004356001600160401b0381116111275736602382011215611127578060040135906001600160401b0382116114c45736602483830101116114c457611f2891611f1e613dce565b602436920161344f565b611f306140d4565b600160ff195f516020615e6c5f395f51905f525416175f516020615e6c5f395f51905f52557f62e78cea01bee320cd4e420270b5ea74000d11b0c9f74754ebdbfc544b05a2586020604051338152a17f375c0abd968f4602b557f6ac9a48ffc89820233aa9becc5d7ff1176fd09eafff60405180611faf33948261354d565b0390a280f35b503461029957608036600319011261029957610fbf600435611fd56134df565b50611fde6134f5565b506112d361350b565b503461029957602036600319011261029957604060809160043581526003602052206002600182015491015463ffffffff604051928181168452818160201c16602085015260401c1660408301526060820152f35b50346102995780600319360112610299576020600454604051908152f35b503461029957612069366134b5565b9190926120746140d4565b61207c6140fb565b6001600160801b0384169161209385841515613d1b565b60015460405163eb02c30160e01b81526004810183905294906001600160a01b031660a086602481845afa9586156112015784966123c9575b506020602491604051928380926331a9108f60e11b82528760048301525afa9081156112015790612110918591611dec575033906001600160a01b03168114613c77565b61211a8551614133565b84515f52600260205260405f209060608601956001600160801b038751168087116123b25750805195602082019081519161217564e8d4a51000612169604087019b8c51838702978892614249565b04958681811015613c9f565b612187858c865184518d519133614850565b9285841161239b57906121b19161219e8588613cdb565b9a8651925190519060068a015493614a5d565b6121bb8833614f5a565b6001600160801b03821515998a61238a575b511603956001600160801b038711612376576001600160801b0387169889612307576001546001600160a01b0316803b156114c457828091602460405180948193630852cd8d60e31b83528d60048401525af180156106a4576122f0575b5060409a5b8b516001600160801b039182168152908916602082015260408101869052339088907fe3a918fd34698242cc99d5ba0987edaa47d8f5b8ed601ef29e08a9b7d72ecc4990606090a36122a1575b5050505050505060015f516020615e8c5f395f51905f525582519182526020820152f35b5090516009939093015488515f815260208101939093526040830191909152871c6001600160a01b0316606082015233905f516020615ecc5f395f51905f5290608090a45f808080808061227d565b826122fa91613413565b815f12611127575f61222b565b6001546001600160a01b0316803b156114c4576040516361d6883d60e01b8152600481018990526001600160801b038a1660248201529083908290604490829084905af180156106a45761235f575b5060409a612230565b8261236991613413565b815f12611127575f612356565b634e487b7160e01b81526011600452602490fd5b61239684610a61614fa9565b6121cd565b604489878663059b6caf60e41b8352600452602452fd5b63070a2e7b60e31b86526004879052602452604485fd5b60249196506123e860209160a03d60a0116111fa576111ec8183613413565b9691506120cc565b50346102995760a0366003190112610299576004356024356001600160401b0381116114c457612424903690600401613485565b906044356001600160401b03811161263557612444903690600401613485565b90916064356001600160401b03811161263157612465903690600401613485565b939091612470613dce565b6124786140d4565b61249a876102fd815f52600260205263ffffffff600560405f20015416151590565b83861480612628575b15612619578515612619579286885260026020526124c3604089206135c3565b9473__$e8b8ff73fdf5e99c3df6a4b39aa1f5b319$__9189805b89811061251b5750897ff6629d92c7a8d4e7e77619bdb488fb945a40c60d45bb71fbaa3e2f76342f7b6360408b81519081526084356020820152a280f35b612526818b8a613cf7565b35612532828589613cf7565b35908c61254084888c613cf7565b359461254c8d84613e01565b6125568d85613e01565b61256484848181131561369d565b61256f8d8585613e9e565b928252600360205260408220908a3b156114c4576040516330f27d1f60e01b8152600481019290925263ffffffff90811660248301529290921660448301526064820186905280826084818c5af491821561260c578f926125ef575b50505f516020615e0c5f395f51905f526020600196604051908152a4018a906124dd565b819250906125fc91613413565b612608578c8e5f6125cb565b8d80fd5b50604051903d90823e3d90fd5b63512509d360e11b8852600488fd5b508486146124a3565b8680fd5b8480fd5b50346102995780600319360112610299577f00000000000000000000000000000000000000000000000000000000000000006001600160a01b031630036126915760206040515f516020615e4c5f395f51905f528152f35b63703e46dd60e11b8152600490fd5b506040366003190112610299576126b5613385565b906024356001600160401b0381116111275736602382011215611127576126e690369060248160040135910161344f565b6001600160a01b037f000000000000000000000000000000000000000000000000000000000000000016308114908115612874575b5061286557612728613dce565b6040516352d1902d60e01b8152926001600160a01b0381169190602085600481865afa80958596612831575b5061276d57634c9c8ce360e01b84526004839052602484fd5b9091845f516020615e4c5f395f51905f52810361281f5750813b1561280d575f516020615e4c5f395f51905f5280546001600160a01b031916821790557fbc7cd75a20ee27fd9adebab32041f755214dbc6bffa90cc0225b39da2e5c2d3b8480a281518390156127f35780836020610fc795519101845af46127ed61400b565b91615dad565b505050346127fe5780f35b63b398979f60e01b8152600490fd5b634c9c8ce360e01b8452600452602483fd5b632a87526960e21b8552600452602484fd5b9095506020813d60201161285d575b8161284d60209383613413565b810103126126355751945f612754565b3d9150612840565b63703e46dd60e11b8252600482fd5b5f516020615e4c5f395f51905f52546001600160a01b0316141590505f61271b565b5034610299576020366003190112610299576020906004356128d0816102fd815f52600260205263ffffffff600560405f20015416151590565b815260028252604090819020600901548151911c6001600160a01b03168152f35b50346102995780600319360112610299576008546040516001600160a01b039091168152602090f35b503461029957604036600319011261029957612934613385565b61293c61339b565b5f516020615eac5f395f51905f52549160ff8360401c1615926001600160401b03811680159081612b9e575b6001149081612b94575b159081612b8b575b50612b7c5767ffffffffffffffff1981166001175f516020615eac5f395f51905f525583612b50575b506001600160a01b031680151580612b3e575b15612b2f576129c3615b45565b6129cb615b45565b6129d433613d5d565b6129dc615b45565b6129e4615b45565b6129ec615b45565b6129f4615b45565b60015f516020615e8c5f395f51905f525560405163313ce56760e01b8152602081600481855afa8015612b24578590612ae7575b60ff91501660068103612ad057506bffffffffffffffffffffffff60a01b84541617835560018060a01b03166bffffffffffffffffffffffff60a01b60015416176001556001600455612a785780f35b68ff0000000000000000195f516020615eac5f395f51905f5254165f516020615eac5f395f51905f52557fc7f505b2f371ae2175ee4913f4499e1f2633a7b5936321eed1cdaeb6115181d2602060405160018152a180f35b6330946b1f60e21b85526004526006602452604484fd5b506020813d602011612b1c575b81612b0160209383613413565b81010312612635575160ff811681036126355760ff90612a28565b3d9150612af4565b6040513d87823e3d90fd5b63d92e233d60e01b8452600484fd5b506001600160a01b03821615156129b6565b68ffffffffffffffffff191668010000000000000001175f516020615eac5f395f51905f52555f6129a3565b63f92ee8a960e01b8552600485fd5b9050155f61297a565b303b159150612972565b859150612968565b50346102995780600319360112610299576006546040516001600160a01b039091168152602090f35b503461029957612c4c906020612be43661336b565b612bef959295613dce565b612c11866102fd815f52600260205263ffffffff600560405f20015416151590565b85855260028452612c24604086206135c3565b91612c2f8382613e01565b612c398383613e01565b612c4782828181131561369d565b613e9e565b938352600382526040808420905163049bebd960e31b8152600481019190915263ffffffff9182166024820152931660448401528280606481015b038173__$e8b8ff73fdf5e99c3df6a4b39aa1f5b319$__5af4908115611d315790612cb8575b602090604051908152f35b506020813d602011612ce3575b81612cd260209383613413565b810103126106985760209051612cad565b3d9150612cc5565b503461029957612d24906020612d003661336b565b612c11836102fd8198955f52600260205263ffffffff600560405f20015416151590565b938352600382526040808420905163694f552560e01b8152600481019190915263ffffffff918216602482015293166044840152828060648101612c87565b5034610299578060031936011261029957612d7c613dce565b5f516020615e6c5f395f51905f525460ff811615612df95760ff19165f516020615e6c5f395f51905f52557f5db9ee0a495bf2e6ff9c91a7834c1ba4fdd244a5e8aa4e537bd38aeae4b073aa6020604051338152a1337ff5cbf596165cc457b2cd92e8d8450827ee314968160a5696402d75766fc52caf8280a280f35b638dfc202b60e01b8252600482fd5b5034610299576040366003190112610299576024612e24613355565b60015460405163eb02c30160e01b815260048035908201529260a09184919082906001600160a01b03165afa9182156106a45764e8d4a5100092849261128c9260209692612e8c575b508151906040866001600160801b038986015193160293015191614249565b612ea691925060a03d60a0116111fa576111ec8183613413565b905f612e6d565b5034610299578060031936011261029957602060405166038d7ea4c680008152f35b503461029957612ede3661333f565b90612ee76140d4565b612eef6140fb565b60015460405163eb02c30160e01b815260048101839052906001600160a01b031660a082602481845afa918215612b24578592613141575b506020602491604051928380926331a9108f60e11b82528760048301525afa8015612b2457612f69918691611dec575033906001600160a01b03168114613c77565b612f738151614133565b80515f526002602052612fce60405f20916060810164e8d4a510006001600160801b038251160290612fe7835197602085019264e8d4a51000612fc08686519c60408a019d8e5191614249565b049687928381811015613c9f565b855184518b5192516001600160801b0316929133614850565b9184831161312a579061301191612ffe8487613cdb565b9885519251905190600689015493614a5d565b61301b8633614f5a565b80151580613119575b60015488906001600160a01b0316803b15611127578190602460405180948193630852cd8d60e31b83528c60048401525af180156106d557613102575b5096602097604051858152877f467bc11eddf702a2091fefc23d3064f17939ba1005bd43304f15604c9b6f2a9b8b3393a36130b2575b878760015f516020615e8c5f395f51905f5255604051908152f35b50905160099390930154604080515f81526020810194909452838101929092526001600160a01b03911c16606082015233905f516020615ecc5f395f51905f5290608090a45f8080808080613097565b8861310c91613413565b875f126106d1575f613061565b61312582610a61614fa9565b613024565b604489868563059b6caf60e41b8352600452602452fd5b602491925061316060209160a03d60a0116111fa576111ec8183613413565b929150612f27565b50346102995760206131a761317c36613321565b926131a2816102fd819594955f52600260205263ffffffff600560405f20015416151590565b613705565b6001600160801b0360405191168152f35b503461029957602036600319011261029957610fbf600435610fa1613dce565b5034610299576020366003190112610299576020610cf8600435613f4d565b50346106985761320636613321565b613211939193613dce565b613233826102fd815f52600260205263ffffffff600560405f20015416151590565b815f52600260205261327361324a60405f206135c3565b6132548186613e01565b61325e8187613e01565b61326c86868181131561369d565b8585613e9e565b73__$e8b8ff73fdf5e99c3df6a4b39aa1f5b319$__90845f52600360205260405f2091803b15610698576040516330f27d1f60e01b8152600481019390935263ffffffff93841660248401529216604482015260648101839052905f90829060849082905af4801561331657613300575b5060205f516020615e0c5f395f51905f5291604051908152a480f35b61330d9195505f90613413565b5f9360206132e4565b6040513d5f823e3d90fd5b60809060031901126106985760043590602435906044359060643590565b6040906003190112610698576004359060243590565b602435906001600160801b038216820361069857565b606090600319011261069857600435906024359060443590565b600435906001600160a01b038216820361069857565b602435906001600160a01b038216820361069857565b60e435906001600160a01b038216820361069857565b6101e081019081106001600160401b038211176133e357604052565b634e487b7160e01b5f52604160045260245ffd5b61010081019081106001600160401b038211176133e357604052565b90601f801991011681019081106001600160401b038211176133e357604052565b6001600160401b0381116133e357601f01601f191660200190565b92919261345b82613434565b916134696040519384613413565b829481845281830111610698578281602093845f960137010152565b9181601f84011215610698578235916001600160401b038311610698576020808501948460051b01011161069857565b606090600319011261069857600435906024356001600160801b0381168103610698579060443590565b602435906001600160401b038216820361069857565b604435906001600160401b038216820361069857565b606435906001600160401b038216820361069857565b608435906001600160401b038216820361069857565b60a435906001600160401b038216820361069857565b602060409281835280519182918282860152018484015e5f828201840152601f01601f1916010190565b60a0906003190112610698576004359060243590604435906064356001600160801b0381168103610698579060843590565b156135b15750565b634cba20ef60e01b5f5260045260245ffd5b906040516135d0816133c7565b6101c0600982946001600160401b03815460ff81161515865260ff8160081c1615156020870152818160101c16604087015260501c16606085015260018101546080850152600281015460a0850152600381015460c0850152600481015460e085015263ffffffff600582015416610100850152600681015461012085015260ff600782015463ffffffff811661014087015260201c161515610160850152600881015461018085015201546001600160401b0381166101a084015260018060a01b039060401c16910152565b156136a6575050565b631150381b60e11b5f5260045260245260445ffd5b81810392915f1380158285131691841216176136d357565b634e487b7160e01b5f52601160045260245ffd5b81156136f1570790565b634e487b7160e01b5f52601260045260245ffd5b928015613bd85761374d602093855f526002855261372d818561038f610f0c60405f206135c3565b855f526002855261374060405f206135c3565b9061012082015194613e9e565b5f868152600380875260408083206002015498835290875290819020905163694f552560e01b8152600481019190915263ffffffff928316602482015291166044820152928360648173__$e8b8ff73fdf5e99c3df6a4b39aa1f5b319$__5af4928315613316575f93613ba4575b508315613b95578215613b865764e8d4a510000273__$cbaf8988f3c8d5491808e1d52afb16035a$__936040516330ed1f5d60e01b8152836004820152670de0b6b3a76400006024820152602081604481895af480156133165783915f91613b51575b50670de0b6b3a7640000935b613a0e575050604051916330ed1f5d60e01b83528160048401526024830152602082604481885af49081156133165784925f926139d5575b506138769261387091613cdb565b90613cdb565b91604051926316cf339960e21b845260048401526024830152602082604481865af4918215613316575f926139a1575b506040519163360816cf60e01b83526004830152602082602481865af4918215613316575f9261396c575b5090604460209260405194859384926330ed1f5d60e01b8452600484015260248301525af48015613316575f90613935575b64e8d4a510009150046001600160801b038111613926576001600160801b031690565b639ac6cd8b60e01b5f5260045ffd5b506020813d602011613964575b8161394f60209383613413565b810103126106985764e8d4a510009051613903565b3d9150613942565b91506020823d602011613999575b8161398760209383613413565b810103126106985790519060446138d1565b3d915061397a565b9091506020813d6020116139cd575b816139bd60209383613413565b810103126106985751905f6138a6565b3d91506139b0565b925090506020823d602011613a06575b816139f260209383613413565b810103126106985790518391613876613862565b3d91506139e5565b909281841115613b4b57815b6040516316cf339960e21b81528160048201528660248201526020816044818c5af4908115613316575f91613b1a575b506040519063ec6e92cd60e01b825260048201526020816024818c5af4908115613316575f91613ae9575b50604051926330ed1f5d60e01b8452600484015260248301526020826044818b5af48015613316575f90613ab6575b613aaf925094613cdb565b908161382a565b506020823d8211613ae1575b81613acf60209383613413565b8101031261069857613aaf9151613aa4565b3d9150613ac2565b90506020813d8211613b12575b81613b0360209383613413565b8101031261069857515f613a75565b3d9150613af6565b90506020813d8211613b43575b81613b3460209383613413565b8101031261069857515f613a4a565b3d9150613b27565b83613a1a565b9150506020813d602011613b7e575b81613b6d60209383613413565b81010312610698578290515f61381e565b3d9150613b60565b632dc1896b60e11b5f5260045ffd5b635fba374760e11b5f5260045ffd5b9092506020813d602011613bd0575b81613bc060209383613413565b810103126106985751915f6137bb565b3d9150613bb3565b505050505f90565b908160a0910312610698576040519060a082018281106001600160401b038211176133e3576040528051825260208101516020830152604081015160408301526060810151906001600160801b038216820361069857608091606084015201516001600160401b038116810361069857608082015290565b9081602091031261069857516001600160a01b03811681036106985790565b15613c7f5750565b63d86ad9cf60e01b5f9081526001600160a01b0391909116600452602490fd5b15613ca8575050565b63f6b30c7760e01b5f5260045260245260445ffd5b5f198101919082116136d357565b6103e803906103e882116136d357565b919082039182116136d357565b90816020910312610698575190565b9190811015613d075760051b0190565b634e487b7160e01b5f52603260045260245ffd5b15613d235750565b6001600160801b0390633b59e48960e11b5f521660045260245ffd5b15613d48575050565b63f6daf99360e01b5f5260045260245260445ffd5b6001600160a01b03168015613dbb575f516020615e2c5f395f51905f5280546001600160a01b0319811683179091556001600160a01b03167f8be0079c531659141344cd1fd0a4f28419497f9722a3daafe3b4186f6b6457e05f80a3565b631e4fbdf760e01b5f525f60045260245ffd5b5f516020615e2c5f395f51905f52546001600160a01b03163303613dee57565b63118cdaa760e01b5f523360045260245ffd5b60a082018051808312159081613e75575b60c08501519115613e5c57505060e0613e2f613e3a9251846136bb565b9301928351906136e7565b1591519115613e47575050565b6382fe647b60e01b5f5260045260245260445ffd5b83638a228b0d60e01b5f5260045260245260445260645ffd5b60c08501518413159150613e12565b81156136f157600160ff1b81145f198314166136d3570590565b9290613ede90613ed6613eb760a08601968751906136bb565b9163ffffffff613ecd60e0880194855190613e84565b169651906136bb565b905190613e84565b5f1981019081136001166136d35761010063ffffffff8092169301511680841080613f44575b15613f2a5750818311613f1357565b50906306fd47d960e41b5f5260045260245260445ffd5b828463727dbc1360e01b5f5260045260245260445260645ffd5b50808310613f04565b60015460405163eb02c30160e01b8152600481019290925260a090829060249082906001600160a01b03165afa908115613316575f91613fec575b5080515f526002602052613f9e60405f206135c3565b602081015115613fe65760806020830151910151809113159081613fd8575b5015613fd357606001516001600160801b031690565b505f90565b90506040820151135f613fbd565b50505f90565b614005915060a03d60a0116111fa576111ec8183613413565b5f613f88565b3d15614035573d9061401c82613434565b9161402a6040519384613413565b82523d5f602084013e565b606090565b6006546001600160a01b031680156140be575f8091604051368382378036810184815203915af461406961400b565b90156140725790565b80511561408157602081519101fd5b60405162461bcd60e51b815260206004820152601560248201527413585b9859d95c91195b1959d85d1951985a5b1959605a1b6044820152606490fd5b6321f7ab5360e01b5f5260045ffd5b15613b9557565b60ff5f516020615e6c5f395f51905f5254166140ec57565b63d93c066560e01b5f5260045ffd5b60025f516020615e8c5f395f51905f5254146141245760025f516020615e8c5f395f51905f5255565b633ee5aeb560e01b5f5260045ffd5b5f52600260205260405f205460ff81161561418d576001600160401b038160101c16421061417e5760501c6001600160401b0316421161416f57565b63b2094b5960e01b5f5260045ffd5b630ee8c41760e31b5f5260045ffd5b635a90bb8d60e11b5f5260045ffd5b919082018092116136d357565b80156136f1575f190490565b81156136f1570490565b156141c75750565b635a0c51d560e11b5f526004526103e860245260445ffd5b156141e657565b6332103c0560e21b5f5260045ffd5b156141fc57565b63fb65ff6360e01b5f5260045ffd5b1561421257565b6367d96d3f60e11b5f5260045ffd5b5f1981146136d35760010190565b156142375750565b63087e358960e01b5f5260045260245ffd5b916101209391614269614264855f52600260205260405f2090565b6135c3565b93614275858484613e9e565b96909501519461428486615587565b9081861161429b57505061429895506157a0565b90565b9092508193506142ce60026142bd6020949897985f52600360205260405f2090565b0154945f52600360205260405f2090565b60405163694f552560e01b8152600481019190915263ffffffff9182166024820152961660448701528560648173__$e8b8ff73fdf5e99c3df6a4b39aa1f5b319$__5af49485156145f5575f9561482f575b50926143308293959215156140cd565b61435961434e85614349614344828661419c565b613cbd565b6141b5565b6103e88111156141bf565b5f909291945f9273__$cbaf8988f3c8d5491808e1d52afb16035a$__925b85151580614824575b15614812578686111561480c57865b6040516316cf339960e21b81526004810182905260248101859052602081604481895af49081156145f5576143e8916020915f916147ef575b506040518093819263ec6e92cd60e01b8352600483019190602083019252565b0381895af49081156145f55761442f916020915f916147d2575b506040518093819262094c6d60e81b835260048301919060206040840193670de0b6b3a764000081520152565b0381895af49081156145f5575f916147b4575b5061444c816141a9565b8a11614673575b9860206144949a8215801561465c575b61446c906141df565b6040516380aeeeb360e01b81526004810184905260248101919091529a8b9081906044820190565b0381895af4998a156145f5575f9a614634575b50896144b66144bb9286613cdb565b61419c565b926144c78415156141f5565b8381116144fa575b50806144f192936144e46144eb93151561420b565b9997613cdb565b94614221565b93949690614377565b60405162094c6d60e81b81526004810191909152602481018490529190602083604481895af49283156145f557614555936020915f91614617575b506040518095819263360816cf60e01b8352600483019190602083019252565b0381895af49283156145f557614598936020915f916145fa575b506040516330ed1f5d60e01b815260048101889052602481019190915293849081906044820190565b0381895af49283156145f5576144f1936144eb936145bd925f926145c5575b5061419c565b9250906144cf565b6145e791925060203d81116145ee575b6145df8183613413565b810190613ce8565b905f6145b7565b503d6145d5565b613316565b6146119150823d81116145ee576145df8183613413565b5f61456f565b61462e9150823d81116145ee576145df8183613413565b5f614535565b6144b69a50906146546144bb9260203d81116145ee576145df8183613413565b9a50906144a7565b5061446c614669846141a9565b8211159050614463565b505061468961468186613ccb565b87858b615638565b8681116147ad575b6040516316cf339960e21b815260048101829052602481018590529860208a604481895af4998a156145f5576146eb9a6020915f91614790575b50604051809c819263ec6e92cd60e01b8352600483019190602083019252565b0381895af4998a156145f5576147329a6020915f91614773575b50604051809c819262094c6d60e81b835260048301919060206040840193670de0b6b3a764000081520152565b0381895af4998a156145f5576144949a6020915f91614756575b50919a5050614453565b61476d9150823d81116145ee576145df8183613413565b5f61474c565b61478a9150823d81116145ee576145df8183613413565b5f614705565b6147a79150823d81116145ee576145df8183613413565b5f6146cb565b5085614691565b6147cc915060203d81116145ee576145df8183613413565b5f614442565b6147e99150823d81116145ee576145df8183613413565b5f614402565b6148069150823d81116145ee576145df8183613413565b5f6143c8565b8561438f565b9650505050506142989150801561422f565b506103e88510614380565b61484991955060203d6020116145ee576145df8183613413565b935f614320565b9092949194835f52600260205260018060a01b03600960405f20015460401c1690811561496857602095610104946040519461488b866133f7565b60018060a01b0316855287850196875260408501988952606085019283526001600160801b03608086019216825260a085019081526001600160801b0360c08601925f845260e08701945f86526040519b8c9a8b9963436f6e2160e01b8b5260018060a01b0390511660048b01525160248a0152516044890152516064880152511660848601525160a485015251151560c48401525160e48301525afa908115613316575f91614939575090565b90506020813d602011614960575b8161495460209383613413565b81010312610698575190565b3d9150614947565b505050505050505f90565b9092949194835f52600260205260018060a01b03600960405f20015460401c169081156149685760209561010494604051946149ae866133f7565b60018060a01b0316855287850196875260408501988952606085019283526001600160801b03608086019216825260a085019081526001600160801b0360c08601926001845260e08701945f86526040519b8c9a8b9963436f6e2160e01b8b5260018060a01b0390511660048b01525160248a0152516044890152516064880152511660848601525160a485015251151560c48401525160e48301525afa908115613316575f91614939575090565b91939092825f526002602052614a7f614a7860405f206135c3565b8686613e9e565b9091614a8a84615587565b808211614cab575073__$cbaf8988f3c8d5491808e1d52afb16035a$__93604051916316cf339960e21b835260048301526024820152602081604481875af4908115613316575f91614c79575b506040519063ec6e92cd60e01b82526004820152602081602481875af48015613316575f90614c46575b6020915060446040518096819362094c6d60e81b8352670de0b6b3a7640000600484015260248301525af4928315613316575f93614c12575b50662386f26fc1000083101580614bff575b15614bf05773__$e8b8ff73fdf5e99c3df6a4b39aa1f5b319$__90845f52600360205260405f2091803b15610698576040516330f27d1f60e01b8152600481019390935263ffffffff9384166024840152921660448201526064810183905291905f90839060849082905af4908115613316575f516020615e0c5f395f51905f5292602092614be0575b50604051908152a4565b5f614bea91613413565b5f614bd6565b63a2f9e7b560e01b5f5260045ffd5b5068056bc75e2d63100000831115614b4c565b9092506020813d602011614c3e575b81614c2e60209383613413565b810103126106985751915f614b3a565b3d9150614c21565b506020813d602011614c71575b81614c6060209383613413565b810103126106985760209051614b01565b3d9150614c53565b90506020813d602011614ca3575b81614c9460209383613413565b8101031261069857515f614ad7565b3d9150614c87565b97939490614cbe8982999598949961419c565b5f1981019081116136d35789614cd3916141b5565b6103e881116141c7575073__$cbaf8988f3c8d5491808e1d52afb16035a$__9894975f9573__$e8b8ff73fdf5e99c3df6a4b39aa1f5b319$__925b80151580614f4f575b15614f2e5781811115614f27578b825b60208b6044604051809581936316cf339960e21b835286600484015260248301525af48015613316578e925f91614ef1575b5060209060246040518095819363ec6e92cd60e01b835260048301525af48015613316578e925f91614ebb575b50806020915060446040518095819362094c6d60e81b8352670de0b6b3a7640000600484015260248301525af4918215613316575f92614e88575b50662386f26fc1000082101580614e75575b15614bf057865f52600360205260405f2092863b15610698576040516330f27d1f60e01b8152600481019490945263ffffffff8d8116602486015286166044850152606484018390525f846084818a5af49384156133165789895f516020615e0c5f395f51905f526020614e59978f95614e5f9a614e65575b50604051908152a4613cdb565b97614221565b96614d0e565b5f614e6f91613413565b5f614e4c565b5068056bc75e2d63100000821115614dd3565b9091506020813d8211614eb3575b81614ea360209383613413565b810103126106985751905f614dc1565b3d9150614e96565b9250506020823d8211614ee9575b81614ed660209383613413565b810103126106985760208e925190614d86565b3d9150614ec9565b9250506020823d8211614f1f575b81614f0c60209383613413565b810103126106985760208e925190614d59565b3d9150614eff565b8b81614d27565b999a50505050505050505050614f4057565b6332581cb160e01b5f5260045ffd5b506103e88810614d17565b81614f63575050565b5f5460405163a9059cbb60e01b60208201526001600160a01b039283166024820152604480820194909452928352614fa7929116614fa2606483613413565b615d55565b565b6008546001600160a01b03168015614fbe5790565b505f516020615e2c5f395f51905f52546001600160a01b031690565b15614fe3575050565b6339bff21b60e01b5f5260045260245260445ffd5b92909161012092615014614264865f52600260205260405f2090565b94615020868484613e9e565b95909601519461502f86615587565b908186116150435750506142989550615b70565b9350949581925061507460026150636020945f52600360205260405f2090565b0154935f52600360205260405f2090565b60405163694f552560e01b8152600481019190915263ffffffff9182166024820152931660448401528260648173__$e8b8ff73fdf5e99c3df6a4b39aa1f5b319$__5af49182156145f5575f9261548e575b5090916150d48215156140cd565b6150e861434e85614349614344828661419c565b90915f9073__$cbaf8988f3c8d5491808e1d52afb16035a$__825b84151580615483575b156154705761514a91908786111561546a57875b6040516316cf339960e21b815260048101829052602481018b905293602090859081906044820190565b0381865af49384156145f557615184946020915f91615425575b506040518096819263ec6e92cd60e01b8352600483019190602083019252565b0381865af49384156145f5575f9461544a575b506151a1846141a9565b851161536c575b60206151e89486158015615355575b6151c0906141df565b6040516380aeeeb360e01b815260048101889052602481019190915294859081906044820190565b0381865af49384156145f5575f94615325575b506020615211856144b66152469697988c613cdb565b9861521f8a82808211614fda565b60405162094c6d60e81b8152600481018b9052602481019190915293849081906044820190565b0381875af49283156145f55761527f936020915f9161461757506040518095819263360816cf60e01b8352600483019190602083019252565b0381875af49283156145f5576152c2936020915f91615308575b506040516330ed1f5d60e01b8152600481018d9052602481019190915293849081906044820190565b0381875af49283156145f5576152ff936152f9936152e6925f926145c5575061419c565b976152f282151561420b565b9496613cdb565b93614221565b92939194615103565b61531f9150823d81116145ee576145df8183613413565b5f615299565b6152469394506152116144b69661534a602093843d81116145ee576145df8183613413565b9695509650506151fb565b506151c0615362886141a9565b82111590506151b7565b50915061538361537b85613ccb565b868a86615638565b91858311615442575b6040516316cf339960e21b815260048101849052602481018a905292602084604481865af49384156145f5576153e5946020915f9161542557506040518096819263ec6e92cd60e01b8352600483019190602083019252565b0381865af49384156145f5576151e8946020915f91615408575b509450506151a8565b61541f9150823d81116145ee576145df8183613413565b5f6153ff565b61543c9150823d81116145ee576145df8183613413565b5f615164565b85925061538c565b61546391945060203d81116145ee576145df8183613413565b925f615197565b85615120565b965050505090506142989150801561422f565b506103e8841061510c565b6154a891925060203d6020116145ee576145df8183613413565b905f6150c6565b9190806154bb57509050565b5f546040516370a0823160e01b81526001600160a01b039485166004820181905290949092911690602085602481855afa948515613316575f95615553575b5080851061553857614fa7939450604051926323b872dd60e01b60208501526024840152306044840152606483015260648252614fa2608483613413565b92505063db42144d60e01b5f5260045260245260445260645ffd5b9094506020813d60201161557f575b8161556f60209383613413565b810103126106985751935f6154fa565b3d9150615562565b604051906330ed1f5d60e01b82526004820152670de0b6b3a7640000602482015260208160448173__$cbaf8988f3c8d5491808e1d52afb16035a$__5af4908115613316575f91615606575b505f1981019081116136d3578015613fd3576155f664e8d4a51000820682613cdb565b908115615601575090565b905090565b90506020813d602011615630575b8161562160209383613413565b8101031261069857515f6155d3565b3d9150615614565b90919392801561579b5761564c818661419c565b5f198101919082116136d357615661916141b5565b918215615792575b6040516330ed1f5d60e01b815260048101829052670de0b6b3a7640000602482015273__$cbaf8988f3c8d5491808e1d52afb16035a$__92602082604481875af4918215613316575f9261575d575b50602060449294604051938480926330ed1f5d60e01b82528760048301526802b5e3af16b188000060248301525af4918215613316575f92615729575b501161571e575b50808210156157165750915b8083116157125750565b9150565b905091615708565b600a9150045f6156fc565b9091506020813d602011615755575b8161574560209383613413565b810103126106985751905f6156f5565b3d9150615738565b91506020823d60201161578a575b8161577860209383613413565b810103126106985790519060206156b8565b3d915061576b565b60019250615669565b505050565b9091926157b8614264835f52600260205260405f2090565b9060026157cd845f52600360205260405f2090565b01546040516316cf339960e21b81526004810183905260248101889052909573__$cbaf8988f3c8d5491808e1d52afb16035a$__9591949091906020866044818a5af49586156145f557615845966020915f91615b28575b506040518098819263ec6e92cd60e01b8352600483019190602083019252565b03818a5af49586156145f55761588c966020915f91615b0b575b506040518098819262094c6d60e81b835260048301919060206040840193670de0b6b3a764000081520152565b03818a5af49485156145f5576020965f96615ae8575b506158ae908484613e9e565b96906158c2835f52600360205260405f2090565b60405163694f552560e01b8152600481019190915263ffffffff9182166024820152971660448801528660648173__$e8b8ff73fdf5e99c3df6a4b39aa1f5b319$__5af49586156145f5575f96615ac7575b5061591e856141a9565b8611615ab55750505050906020615963926159398387613cdb565b6040516380aeeeb360e01b8152600481019490945260248401919091529192839081906044820190565b0381865af49081156145f55761597f925f92615a9b575061419c565b9161598b8315156141f5565b82811115613bd85760405162094c6d60e81b815260048101919091526024810192909252602082604481845af49182156145f5576159ed926020915f91615a7e575b506040518094819263360816cf60e01b8352600483019190602083019252565b0381845af49081156145f557615a31936020935f93615a5f575b506040518095819482936330ed1f5d60e01b84526004840160209093929193604081019481520152565b03915af49081156145f5575f91615a46575090565b614298915060203d6020116145ee576145df8183613413565b615a77919350843d86116145ee576145df8183613413565b915f615a07565b615a959150823d84116145ee576145df8183613413565b5f6159cd565b6145e791925060203d6020116145ee576145df8183613413565b93509350935093506142989450614249565b615ae191965060203d6020116145ee576145df8183613413565b945f615914565b6158ae919650615b0490883d8a116145ee576145df8183613413565b95906158a2565b615b229150823d84116145ee576145df8183613413565b5f61585f565b615b3f9150823d84116145ee576145df8183613413565b5f615825565b60ff5f516020615eac5f395f51905f525460401c1615615b6157565b631afcd79f60e31b5f5260045ffd5b909192615b88614264835f52600260205260405f2090565b906002615b9d845f52600360205260405f2090565b01546040516316cf339960e21b81526004810183905260248101889052909573__$cbaf8988f3c8d5491808e1d52afb16035a$__9591949091906020866044818a5af49586156145f557615c14966020915f91615b2857506040518098819263ec6e92cd60e01b8352600483019190602083019252565b03818a5af49485156145f5576020965f96615d1b575b50615c36908484613e9e565b9690615c4a835f52600360205260405f2090565b60405163694f552560e01b8152600481019190915263ffffffff9182166024820152971660448801528660648173__$e8b8ff73fdf5e99c3df6a4b39aa1f5b319$__5af49586156145f5575f96615cfa575b50615ca88815156140cd565b615cb1856141a9565b8611615ce85750505050906020615ccc926159398387613cdb565b0381865af49081156145f55761598b925f92615a9b575061419c565b93509350935093506142989450614ff8565b615d1491965060203d6020116145ee576145df8183613413565b945f615c9c565b615c36919650615d3790883d8a116145ee576145df8183613413565b9590615c2a565b8015613fd35764e8d4a510006001915f1901040190565b905f602091828151910182855af115613316575f513d615da457506001600160a01b0381163b155b615d845750565b635274afe760e01b5f9081526001600160a01b0391909116600452602490fd5b60011415615d7d565b90615dd15750805115615dc257805190602001fd5b63d6bda27560e01b5f5260045ffd5b81511580615e02575b615de2575090565b639996b31560e01b5f9081526001600160a01b0391909116600452602490fd5b50803b15615dda56fe221f633c06e4399f005a7cec7ba7c4ff189e3fe19092cbafe32a5f176ffc797f9016d09d72d40fdae2fd8ceac6b6234c7706214fd39c1cd1e609a0528c199300360894a13ba1a3210667c828492db98dca3e2076cc3735a920a3ca505d382bbccd5ed15c6e187e77e9aee88184c21f4f2182ab5827cb3b7e07fbedcd63f033009b779b17422d0df92223018b32b4d1fa46e071723d6817e2486d003becc55f00f0c57e16840df040f15088dc2f81fe391c3923bec73e23a9662efc9c229c6a00a463e7bf86601fea7733629096bc1456783a5ad3116186ae8b59fbefe5d0c04ea164736f6c634300081e000a",
  "linkReferences": {
    "contracts/libraries/FixedPointMath.sol": {
      "FixedPointMathU": [
        {
          "length": 20,
          "start": 1106
        },
        {
          "length": 20,
          "start": 2073
        },
        {
          "length": 20,
          "start": 2136
        },
        {
          "length": 20,
          "start": 6123
        },
        {
          "length": 20,
          "start": 7079
        },
        {
          "length": 20,
          "start": 7142
        },
        {
          "length": 20,
          "start": 14335
        },
        {
          "length": 20,
          "start": 17296
        },
        {
          "length": 20,
          "start": 19138
        },
        {
          "length": 20,
          "start": 19725
        },
        {
          "length": 20,
          "start": 20764
        },
        {
          "length": 20,
          "start": 21982
        },
        {
          "length": 20,
          "start": 22203
        },
        {
          "length": 20,
          "start": 22556
        },
        {
          "length": 20,
          "start": 23532
        }
      ]
    },
    "contracts/libraries/LazyMulSegmentTree.sol": {
      "LazyMulSegmentTree": [
        {
          "length": 20,
          "start": 1241
        },
        {
          "length": 20,
          "start": 2208
        },
        {
          "length": 20,
          "start": 2308
        },
        {
          "length": 20,
          "start": 6260
        },
        {
          "length": 20,
          "start": 7214
        },
        {
          "length": 20,
          "start": 7314
        },
        {
          "length": 20,
          "start": 9460
        },
        {
          "length": 20,
          "start": 11449
        },
        {
          "length": 20,
          "start": 12963
        },
        {
          "length": 20,
          "start": 14278
        },
        {
          "length": 20,
          "start": 17195
        },
        {
          "length": 20,
          "start": 19329
        },
        {
          "length": 20,
          "start": 19751
        },
        {
          "length": 20,
          "start": 20689
        },
        {
          "length": 20,
          "start": 22815
        },
        {
          "length": 20,
          "start": 23719
        }
      ]
    }
  },
  "deployedLinkReferences": {
    "contracts/libraries/FixedPointMath.sol": {
      "FixedPointMathU": [
        {
          "length": 20,
          "start": 1060
        },
        {
          "length": 20,
          "start": 2027
        },
        {
          "length": 20,
          "start": 2090
        },
        {
          "length": 20,
          "start": 6077
        },
        {
          "length": 20,
          "start": 7033
        },
        {
          "length": 20,
          "start": 7096
        },
        {
          "length": 20,
          "start": 14289
        },
        {
          "length": 20,
          "start": 17250
        },
        {
          "length": 20,
          "start": 19092
        },
        {
          "length": 20,
          "start": 19679
        },
        {
          "length": 20,
          "start": 20718
        },
        {
          "length": 20,
          "start": 21936
        },
        {
          "length": 20,
          "start": 22157
        },
        {
          "length": 20,
          "start": 22510
        },
        {
          "length": 20,
          "start": 23486
        }
      ]
    },
    "contracts/libraries/LazyMulSegmentTree.sol": {
      "LazyMulSegmentTree": [
        {
          "length": 20,
          "start": 1195
        },
        {
          "length": 20,
          "start": 2162
        },
        {
          "length": 20,
          "start": 2262
        },
        {
          "length": 20,
          "start": 6214
        },
        {
          "length": 20,
          "start": 7168
        },
        {
          "length": 20,
          "start": 7268
        },
        {
          "length": 20,
          "start": 9414
        },
        {
          "length": 20,
          "start": 11403
        },
        {
          "length": 20,
          "start": 12917
        },
        {
          "length": 20,
          "start": 14232
        },
        {
          "length": 20,
          "start": 17149
        },
        {
          "length": 20,
          "start": 19283
        },
        {
          "length": 20,
          "start": 19705
        },
        {
          "length": 20,
          "start": 20643
        },
        {
          "length": 20,
          "start": 22769
        },
        {
          "length": 20,
          "start": 23673
        }
      ]
    }
  }
}