{
  "_format": "hh-sol-artifact-1",
  "contractName": "CLMSRMarketCore",
  "sourceName": "contracts/core/CLMSRMarketCore.sol",
  "abi": [
    {
      "inputs": [
        {
          "internalType": "address",
          "name": "_paymentToken",
          "type": "address"
        },
        {
          "internalType": "address",
          "name": "_positionContract",
          "type": "address"
        },
        {
          "internalType": "address",
          "name": "_managerContract",
          "type": "address"
        }
      ],
      "stateMutability": "nonpayable",
      "type": "constructor"
    },
    {
      "inputs": [
        {
          "internalType": "uint32",
          "name": "requested",
          "type": "uint32"
        },
        {
          "internalType": "uint32",
          "name": "maxAllowed",
          "type": "uint32"
        }
      ],
      "name": "BinCountExceedsLimit",
      "type": "error"
    },
    {
      "inputs": [],
      "name": "ContractPaused",
      "type": "error"
    },
    {
      "inputs": [
        {
          "internalType": "uint256",
          "name": "cost",
          "type": "uint256"
        },
        {
          "internalType": "uint256",
          "name": "maxAllowed",
          "type": "uint256"
        }
      ],
      "name": "CostExceedsMaximum",
      "type": "error"
    },
    {
      "inputs": [],
      "name": "FactorOutOfBounds",
      "type": "error"
    },
    {
      "inputs": [],
      "name": "IncompleteChunkProcessing",
      "type": "error"
    },
    {
      "inputs": [],
      "name": "InvalidLiquidityParameter",
      "type": "error"
    },
    {
      "inputs": [
        {
          "internalType": "int256",
          "name": "minTick",
          "type": "int256"
        },
        {
          "internalType": "int256",
          "name": "maxTick",
          "type": "int256"
        },
        {
          "internalType": "int256",
          "name": "tickSpacing",
          "type": "int256"
        }
      ],
      "name": "InvalidMarketParameters",
      "type": "error"
    },
    {
      "inputs": [
        {
          "internalType": "uint128",
          "name": "qty",
          "type": "uint128"
        }
      ],
      "name": "InvalidQuantity",
      "type": "error"
    },
    {
      "inputs": [
        {
          "internalType": "int256",
          "name": "tick",
          "type": "int256"
        },
        {
          "internalType": "int256",
          "name": "minTick",
          "type": "int256"
        },
        {
          "internalType": "int256",
          "name": "maxTick",
          "type": "int256"
        }
      ],
      "name": "InvalidTick",
      "type": "error"
    },
    {
      "inputs": [
        {
          "internalType": "int256",
          "name": "lowerTick",
          "type": "int256"
        },
        {
          "internalType": "int256",
          "name": "upperTick",
          "type": "int256"
        }
      ],
      "name": "InvalidTickRange",
      "type": "error"
    },
    {
      "inputs": [
        {
          "internalType": "int256",
          "name": "tick",
          "type": "int256"
        },
        {
          "internalType": "int256",
          "name": "tickSpacing",
          "type": "int256"
        }
      ],
      "name": "InvalidTickSpacing",
      "type": "error"
    },
    {
      "inputs": [],
      "name": "InvalidTimeRange",
      "type": "error"
    },
    {
      "inputs": [
        {
          "internalType": "uint256",
          "name": "marketId",
          "type": "uint256"
        }
      ],
      "name": "MarketAlreadyExists",
      "type": "error"
    },
    {
      "inputs": [
        {
          "internalType": "uint256",
          "name": "marketId",
          "type": "uint256"
        }
      ],
      "name": "MarketAlreadySettled",
      "type": "error"
    },
    {
      "inputs": [],
      "name": "MarketExpired",
      "type": "error"
    },
    {
      "inputs": [],
      "name": "MarketNotActive",
      "type": "error"
    },
    {
      "inputs": [
        {
          "internalType": "uint256",
          "name": "marketId",
          "type": "uint256"
        }
      ],
      "name": "MarketNotFound",
      "type": "error"
    },
    {
      "inputs": [
        {
          "internalType": "uint256",
          "name": "marketId",
          "type": "uint256"
        }
      ],
      "name": "MarketNotSettled",
      "type": "error"
    },
    {
      "inputs": [],
      "name": "MarketNotStarted",
      "type": "error"
    },
    {
      "inputs": [],
      "name": "ReentrancyGuardReentrantCall",
      "type": "error"
    },
    {
      "inputs": [
        {
          "internalType": "address",
          "name": "token",
          "type": "address"
        }
      ],
      "name": "SafeERC20FailedOperation",
      "type": "error"
    },
    {
      "inputs": [],
      "name": "TreeNotInitialized",
      "type": "error"
    },
    {
      "inputs": [
        {
          "internalType": "address",
          "name": "caller",
          "type": "address"
        }
      ],
      "name": "UnauthorizedCaller",
      "type": "error"
    },
    {
      "inputs": [],
      "name": "ZeroAddress",
      "type": "error"
    },
    {
      "anonymous": false,
      "inputs": [
        {
          "indexed": true,
          "internalType": "address",
          "name": "by",
          "type": "address"
        },
        {
          "indexed": false,
          "internalType": "string",
          "name": "reason",
          "type": "string"
        }
      ],
      "name": "EmergencyPaused",
      "type": "event"
    },
    {
      "anonymous": false,
      "inputs": [
        {
          "indexed": true,
          "internalType": "address",
          "name": "by",
          "type": "address"
        }
      ],
      "name": "EmergencyUnpaused",
      "type": "event"
    },
    {
      "anonymous": false,
      "inputs": [
        {
          "indexed": true,
          "internalType": "uint256",
          "name": "marketId",
          "type": "uint256"
        },
        {
          "indexed": false,
          "internalType": "uint64",
          "name": "startTimestamp",
          "type": "uint64"
        },
        {
          "indexed": false,
          "internalType": "uint64",
          "name": "endTimestamp",
          "type": "uint64"
        },
        {
          "indexed": false,
          "internalType": "int256",
          "name": "minTick",
          "type": "int256"
        },
        {
          "indexed": false,
          "internalType": "int256",
          "name": "maxTick",
          "type": "int256"
        },
        {
          "indexed": false,
          "internalType": "int256",
          "name": "tickSpacing",
          "type": "int256"
        },
        {
          "indexed": false,
          "internalType": "uint32",
          "name": "numBins",
          "type": "uint32"
        },
        {
          "indexed": false,
          "internalType": "uint256",
          "name": "liquidityParameter",
          "type": "uint256"
        }
      ],
      "name": "MarketCreated",
      "type": "event"
    },
    {
      "anonymous": false,
      "inputs": [
        {
          "indexed": true,
          "internalType": "uint256",
          "name": "marketId",
          "type": "uint256"
        },
        {
          "indexed": false,
          "internalType": "int256",
          "name": "settlementTick",
          "type": "int256"
        }
      ],
      "name": "MarketSettled",
      "type": "event"
    },
    {
      "anonymous": false,
      "inputs": [
        {
          "indexed": true,
          "internalType": "uint256",
          "name": "positionId",
          "type": "uint256"
        },
        {
          "indexed": true,
          "internalType": "address",
          "name": "trader",
          "type": "address"
        },
        {
          "indexed": false,
          "internalType": "uint256",
          "name": "payout",
          "type": "uint256"
        }
      ],
      "name": "PositionClaimed",
      "type": "event"
    },
    {
      "anonymous": false,
      "inputs": [
        {
          "indexed": true,
          "internalType": "uint256",
          "name": "positionId",
          "type": "uint256"
        },
        {
          "indexed": true,
          "internalType": "address",
          "name": "trader",
          "type": "address"
        },
        {
          "indexed": false,
          "internalType": "uint256",
          "name": "proceeds",
          "type": "uint256"
        }
      ],
      "name": "PositionClosed",
      "type": "event"
    },
    {
      "anonymous": false,
      "inputs": [
        {
          "indexed": true,
          "internalType": "uint256",
          "name": "positionId",
          "type": "uint256"
        },
        {
          "indexed": true,
          "internalType": "address",
          "name": "trader",
          "type": "address"
        },
        {
          "indexed": false,
          "internalType": "uint128",
          "name": "sellQuantity",
          "type": "uint128"
        },
        {
          "indexed": false,
          "internalType": "uint128",
          "name": "newQuantity",
          "type": "uint128"
        },
        {
          "indexed": false,
          "internalType": "uint256",
          "name": "proceeds",
          "type": "uint256"
        }
      ],
      "name": "PositionDecreased",
      "type": "event"
    },
    {
      "anonymous": false,
      "inputs": [
        {
          "indexed": true,
          "internalType": "uint256",
          "name": "positionId",
          "type": "uint256"
        },
        {
          "indexed": true,
          "internalType": "address",
          "name": "trader",
          "type": "address"
        },
        {
          "indexed": false,
          "internalType": "uint128",
          "name": "additionalQuantity",
          "type": "uint128"
        },
        {
          "indexed": false,
          "internalType": "uint128",
          "name": "newQuantity",
          "type": "uint128"
        },
        {
          "indexed": false,
          "internalType": "uint256",
          "name": "cost",
          "type": "uint256"
        }
      ],
      "name": "PositionIncreased",
      "type": "event"
    },
    {
      "anonymous": false,
      "inputs": [
        {
          "indexed": true,
          "internalType": "uint256",
          "name": "positionId",
          "type": "uint256"
        },
        {
          "indexed": true,
          "internalType": "address",
          "name": "trader",
          "type": "address"
        },
        {
          "indexed": true,
          "internalType": "uint256",
          "name": "marketId",
          "type": "uint256"
        },
        {
          "indexed": false,
          "internalType": "int256",
          "name": "lowerTick",
          "type": "int256"
        },
        {
          "indexed": false,
          "internalType": "int256",
          "name": "upperTick",
          "type": "int256"
        },
        {
          "indexed": false,
          "internalType": "uint128",
          "name": "quantity",
          "type": "uint128"
        },
        {
          "indexed": false,
          "internalType": "uint256",
          "name": "cost",
          "type": "uint256"
        }
      ],
      "name": "PositionOpened",
      "type": "event"
    },
    {
      "anonymous": false,
      "inputs": [
        {
          "indexed": true,
          "internalType": "uint256",
          "name": "positionId",
          "type": "uint256"
        },
        {
          "indexed": true,
          "internalType": "address",
          "name": "trader",
          "type": "address"
        },
        {
          "indexed": false,
          "internalType": "uint256",
          "name": "payout",
          "type": "uint256"
        },
        {
          "indexed": false,
          "internalType": "bool",
          "name": "isWin",
          "type": "bool"
        }
      ],
      "name": "PositionSettled",
      "type": "event"
    },
    {
      "anonymous": false,
      "inputs": [
        {
          "indexed": true,
          "internalType": "uint256",
          "name": "marketId",
          "type": "uint256"
        },
        {
          "indexed": true,
          "internalType": "int256",
          "name": "lo",
          "type": "int256"
        },
        {
          "indexed": true,
          "internalType": "int256",
          "name": "hi",
          "type": "int256"
        },
        {
          "indexed": false,
          "internalType": "uint256",
          "name": "factor",
          "type": "uint256"
        }
      ],
      "name": "RangeFactorApplied",
      "type": "event"
    },
    {
      "inputs": [],
      "name": "MAX_LIQUIDITY_PARAMETER",
      "outputs": [
        {
          "internalType": "uint256",
          "name": "",
          "type": "uint256"
        }
      ],
      "stateMutability": "view",
      "type": "function"
    },
    {
      "inputs": [],
      "name": "MAX_TICK_COUNT",
      "outputs": [
        {
          "internalType": "uint32",
          "name": "",
          "type": "uint32"
        }
      ],
      "stateMutability": "view",
      "type": "function"
    },
    {
      "inputs": [],
      "name": "MIN_LIQUIDITY_PARAMETER",
      "outputs": [
        {
          "internalType": "uint256",
          "name": "",
          "type": "uint256"
        }
      ],
      "stateMutability": "view",
      "type": "function"
    },
    {
      "inputs": [
        {
          "internalType": "uint256",
          "name": "marketId",
          "type": "uint256"
        },
        {
          "internalType": "int256",
          "name": "lo",
          "type": "int256"
        },
        {
          "internalType": "int256",
          "name": "hi",
          "type": "int256"
        },
        {
          "internalType": "uint256",
          "name": "factor",
          "type": "uint256"
        }
      ],
      "name": "applyRangeFactor",
      "outputs": [],
      "stateMutability": "nonpayable",
      "type": "function"
    },
    {
      "inputs": [
        {
          "internalType": "uint256",
          "name": "positionId",
          "type": "uint256"
        }
      ],
      "name": "calculateClaimAmount",
      "outputs": [
        {
          "internalType": "uint256",
          "name": "amount",
          "type": "uint256"
        }
      ],
      "stateMutability": "view",
      "type": "function"
    },
    {
      "inputs": [
        {
          "internalType": "uint256",
          "name": "positionId",
          "type": "uint256"
        }
      ],
      "name": "calculateCloseProceeds",
      "outputs": [
        {
          "internalType": "uint256",
          "name": "proceeds",
          "type": "uint256"
        }
      ],
      "stateMutability": "view",
      "type": "function"
    },
    {
      "inputs": [
        {
          "internalType": "uint256",
          "name": "positionId",
          "type": "uint256"
        },
        {
          "internalType": "uint128",
          "name": "sellQuantity",
          "type": "uint128"
        }
      ],
      "name": "calculateDecreaseProceeds",
      "outputs": [
        {
          "internalType": "uint256",
          "name": "proceeds",
          "type": "uint256"
        }
      ],
      "stateMutability": "view",
      "type": "function"
    },
    {
      "inputs": [
        {
          "internalType": "uint256",
          "name": "positionId",
          "type": "uint256"
        },
        {
          "internalType": "uint128",
          "name": "additionalQuantity",
          "type": "uint128"
        }
      ],
      "name": "calculateIncreaseCost",
      "outputs": [
        {
          "internalType": "uint256",
          "name": "cost",
          "type": "uint256"
        }
      ],
      "stateMutability": "view",
      "type": "function"
    },
    {
      "inputs": [
        {
          "internalType": "uint256",
          "name": "marketId",
          "type": "uint256"
        },
        {
          "internalType": "int256",
          "name": "lowerTick",
          "type": "int256"
        },
        {
          "internalType": "int256",
          "name": "upperTick",
          "type": "int256"
        },
        {
          "internalType": "uint128",
          "name": "quantity",
          "type": "uint128"
        }
      ],
      "name": "calculateOpenCost",
      "outputs": [
        {
          "internalType": "uint256",
          "name": "cost",
          "type": "uint256"
        }
      ],
      "stateMutability": "view",
      "type": "function"
    },
    {
      "inputs": [
        {
          "internalType": "uint256",
          "name": "positionId",
          "type": "uint256"
        }
      ],
      "name": "claimPayout",
      "outputs": [
        {
          "internalType": "uint256",
          "name": "payout",
          "type": "uint256"
        }
      ],
      "stateMutability": "nonpayable",
      "type": "function"
    },
    {
      "inputs": [
        {
          "internalType": "uint256",
          "name": "positionId",
          "type": "uint256"
        },
        {
          "internalType": "uint256",
          "name": "minProceeds",
          "type": "uint256"
        }
      ],
      "name": "closePosition",
      "outputs": [
        {
          "internalType": "uint256",
          "name": "proceeds",
          "type": "uint256"
        }
      ],
      "stateMutability": "nonpayable",
      "type": "function"
    },
    {
      "inputs": [
        {
          "internalType": "uint256",
          "name": "marketId",
          "type": "uint256"
        },
        {
          "internalType": "int256",
          "name": "minTick",
          "type": "int256"
        },
        {
          "internalType": "int256",
          "name": "maxTick",
          "type": "int256"
        },
        {
          "internalType": "int256",
          "name": "tickSpacing",
          "type": "int256"
        },
        {
          "internalType": "uint64",
          "name": "startTimestamp",
          "type": "uint64"
        },
        {
          "internalType": "uint64",
          "name": "endTimestamp",
          "type": "uint64"
        },
        {
          "internalType": "uint256",
          "name": "liquidityParameter",
          "type": "uint256"
        }
      ],
      "name": "createMarket",
      "outputs": [],
      "stateMutability": "nonpayable",
      "type": "function"
    },
    {
      "inputs": [
        {
          "internalType": "uint256",
          "name": "positionId",
          "type": "uint256"
        },
        {
          "internalType": "uint128",
          "name": "sellQuantity",
          "type": "uint128"
        },
        {
          "internalType": "uint256",
          "name": "minProceeds",
          "type": "uint256"
        }
      ],
      "name": "decreasePosition",
      "outputs": [
        {
          "internalType": "uint128",
          "name": "newQuantity",
          "type": "uint128"
        },
        {
          "internalType": "uint256",
          "name": "proceeds",
          "type": "uint256"
        }
      ],
      "stateMutability": "nonpayable",
      "type": "function"
    },
    {
      "inputs": [],
      "name": "getManagerContract",
      "outputs": [
        {
          "internalType": "address",
          "name": "",
          "type": "address"
        }
      ],
      "stateMutability": "view",
      "type": "function"
    },
    {
      "inputs": [
        {
          "internalType": "uint256",
          "name": "marketId",
          "type": "uint256"
        }
      ],
      "name": "getMarket",
      "outputs": [
        {
          "components": [
            {
              "internalType": "bool",
              "name": "isActive",
              "type": "bool"
            },
            {
              "internalType": "bool",
              "name": "settled",
              "type": "bool"
            },
            {
              "internalType": "uint64",
              "name": "startTimestamp",
              "type": "uint64"
            },
            {
              "internalType": "uint64",
              "name": "endTimestamp",
              "type": "uint64"
            },
            {
              "internalType": "int256",
              "name": "settlementTick",
              "type": "int256"
            },
            {
              "internalType": "int256",
              "name": "minTick",
              "type": "int256"
            },
            {
              "internalType": "int256",
              "name": "maxTick",
              "type": "int256"
            },
            {
              "internalType": "int256",
              "name": "tickSpacing",
              "type": "int256"
            },
            {
              "internalType": "uint32",
              "name": "numBins",
              "type": "uint32"
            },
            {
              "internalType": "uint256",
              "name": "liquidityParameter",
              "type": "uint256"
            }
          ],
          "internalType": "struct ICLMSRMarketCore.Market",
          "name": "market",
          "type": "tuple"
        }
      ],
      "stateMutability": "view",
      "type": "function"
    },
    {
      "inputs": [],
      "name": "getPaymentToken",
      "outputs": [
        {
          "internalType": "address",
          "name": "",
          "type": "address"
        }
      ],
      "stateMutability": "view",
      "type": "function"
    },
    {
      "inputs": [],
      "name": "getPositionContract",
      "outputs": [
        {
          "internalType": "address",
          "name": "",
          "type": "address"
        }
      ],
      "stateMutability": "view",
      "type": "function"
    },
    {
      "inputs": [
        {
          "internalType": "uint256",
          "name": "marketId",
          "type": "uint256"
        },
        {
          "internalType": "int256",
          "name": "lo",
          "type": "int256"
        },
        {
          "internalType": "int256",
          "name": "hi",
          "type": "int256"
        }
      ],
      "name": "getRangeSum",
      "outputs": [
        {
          "internalType": "uint256",
          "name": "sum",
          "type": "uint256"
        }
      ],
      "stateMutability": "view",
      "type": "function"
    },
    {
      "inputs": [
        {
          "internalType": "uint256",
          "name": "marketId",
          "type": "uint256"
        },
        {
          "internalType": "int256",
          "name": "tick",
          "type": "int256"
        }
      ],
      "name": "getTickValue",
      "outputs": [
        {
          "internalType": "uint256",
          "name": "value",
          "type": "uint256"
        }
      ],
      "stateMutability": "view",
      "type": "function"
    },
    {
      "inputs": [
        {
          "internalType": "uint256",
          "name": "positionId",
          "type": "uint256"
        },
        {
          "internalType": "uint128",
          "name": "additionalQuantity",
          "type": "uint128"
        },
        {
          "internalType": "uint256",
          "name": "maxCost",
          "type": "uint256"
        }
      ],
      "name": "increasePosition",
      "outputs": [
        {
          "internalType": "uint128",
          "name": "newQuantity",
          "type": "uint128"
        }
      ],
      "stateMutability": "nonpayable",
      "type": "function"
    },
    {
      "inputs": [],
      "name": "isPaused",
      "outputs": [
        {
          "internalType": "bool",
          "name": "",
          "type": "bool"
        }
      ],
      "stateMutability": "view",
      "type": "function"
    },
    {
      "inputs": [],
      "name": "managerContract",
      "outputs": [
        {
          "internalType": "address",
          "name": "",
          "type": "address"
        }
      ],
      "stateMutability": "view",
      "type": "function"
    },
    {
      "inputs": [
        {
          "internalType": "uint256",
          "name": "",
          "type": "uint256"
        }
      ],
      "name": "marketTrees",
      "outputs": [
        {
          "internalType": "uint32",
          "name": "root",
          "type": "uint32"
        },
        {
          "internalType": "uint32",
          "name": "nextIndex",
          "type": "uint32"
        },
        {
          "internalType": "uint32",
          "name": "size",
          "type": "uint32"
        },
        {
          "internalType": "uint256",
          "name": "cachedRootSum",
          "type": "uint256"
        }
      ],
      "stateMutability": "view",
      "type": "function"
    },
    {
      "inputs": [
        {
          "internalType": "uint256",
          "name": "",
          "type": "uint256"
        }
      ],
      "name": "markets",
      "outputs": [
        {
          "internalType": "bool",
          "name": "isActive",
          "type": "bool"
        },
        {
          "internalType": "bool",
          "name": "settled",
          "type": "bool"
        },
        {
          "internalType": "uint64",
          "name": "startTimestamp",
          "type": "uint64"
        },
        {
          "internalType": "uint64",
          "name": "endTimestamp",
          "type": "uint64"
        },
        {
          "internalType": "int256",
          "name": "settlementTick",
          "type": "int256"
        },
        {
          "internalType": "int256",
          "name": "minTick",
          "type": "int256"
        },
        {
          "internalType": "int256",
          "name": "maxTick",
          "type": "int256"
        },
        {
          "internalType": "int256",
          "name": "tickSpacing",
          "type": "int256"
        },
        {
          "internalType": "uint32",
          "name": "numBins",
          "type": "uint32"
        },
        {
          "internalType": "uint256",
          "name": "liquidityParameter",
          "type": "uint256"
        }
      ],
      "stateMutability": "view",
      "type": "function"
    },
    {
      "inputs": [
        {
          "internalType": "uint256",
          "name": "marketId",
          "type": "uint256"
        },
        {
          "internalType": "int256",
          "name": "lowerTick",
          "type": "int256"
        },
        {
          "internalType": "int256",
          "name": "upperTick",
          "type": "int256"
        },
        {
          "internalType": "uint128",
          "name": "quantity",
          "type": "uint128"
        },
        {
          "internalType": "uint256",
          "name": "maxCost",
          "type": "uint256"
        }
      ],
      "name": "openPosition",
      "outputs": [
        {
          "internalType": "uint256",
          "name": "positionId",
          "type": "uint256"
        }
      ],
      "stateMutability": "nonpayable",
      "type": "function"
    },
    {
      "inputs": [
        {
          "internalType": "string",
          "name": "reason",
          "type": "string"
        }
      ],
      "name": "pause",
      "outputs": [],
      "stateMutability": "nonpayable",
      "type": "function"
    },
    {
      "inputs": [],
      "name": "paused",
      "outputs": [
        {
          "internalType": "bool",
          "name": "",
          "type": "bool"
        }
      ],
      "stateMutability": "view",
      "type": "function"
    },
    {
      "inputs": [],
      "name": "paymentToken",
      "outputs": [
        {
          "internalType": "contract IERC20",
          "name": "",
          "type": "address"
        }
      ],
      "stateMutability": "view",
      "type": "function"
    },
    {
      "inputs": [],
      "name": "positionContract",
      "outputs": [
        {
          "internalType": "contract ICLMSRPosition",
          "name": "",
          "type": "address"
        }
      ],
      "stateMutability": "view",
      "type": "function"
    },
    {
      "inputs": [
        {
          "internalType": "uint256",
          "name": "marketId",
          "type": "uint256"
        },
        {
          "internalType": "int256",
          "name": "lo",
          "type": "int256"
        },
        {
          "internalType": "int256",
          "name": "hi",
          "type": "int256"
        }
      ],
      "name": "propagateLazy",
      "outputs": [
        {
          "internalType": "uint256",
          "name": "sum",
          "type": "uint256"
        }
      ],
      "stateMutability": "nonpayable",
      "type": "function"
    },
    {
      "inputs": [
        {
          "internalType": "uint256",
          "name": "marketId",
          "type": "uint256"
        },
        {
          "internalType": "int256",
          "name": "settlementTick",
          "type": "int256"
        }
      ],
      "name": "settleMarket",
      "outputs": [],
      "stateMutability": "nonpayable",
      "type": "function"
    },
    {
      "inputs": [],
      "name": "unpause",
      "outputs": [],
      "stateMutability": "nonpayable",
      "type": "function"
    }
  ],
  "bytecode": "0x60e034620001b257601f620052d438819003918201601f19168301916001600160401b03831184841017620001b757808492606094604052833981010312620001b2576200004d81620001cd565b6200006960406200006160208501620001cd565b9301620001cd565b6001600055916001600160a01b0391821680158015620001a7575b80156200019c575b6200018a576080521660a05260c0526040516150f19081620001e382396080518181816109e9015281816143040152614878015260a0518181816106ea015281816109a401528181610c6701528181610cd701528181610d2e015281816110870152818161115c0152818161132501528181611403015281816119470152818161199601528181611c9a01528181611cdf01528181611d7901528181611dd1015281816125af015281816126a9015281816126f90152818161299c015281816129e301526134a4015260c0518181816101ce01528181610b8e015281816117cb0152818161230d0152818161251801528181612ecb01526130600152f35b60405163d92e233d60e01b8152600490fd5b50828416156200008c565b508282161562000084565b600080fd5b634e487b7160e01b600052604160045260246000fd5b51906001600160a01b0382168203620001b25756fe60a080604052600436101561001357600080fd5b60009060e0908235821c908163070ab8c914612ea65750806309f28be61461098e57806313b6eb0914612e7f5780632710ac80146110535780632d6ce61d1461265b5780632ed66650146126395780633013ce29146109d35780633d65117b146125785780633f4ba83a14612505578063449a03881461245157806344a1a58e146122f95780635c975abb14610f8a5780636084fa03146118f1578063692c3fc71461189a5780636da66355146117805780636ec469b1146116515780637404d9571461163357806379334798146113af5780637ed54782146112ee5780638a69614e146111145780639fc46ecb14611058578063a3a6b8ce14611053578063b1283e7714610fad578063b187bd2614610f8a578063b762d83414610b7d578063bcb1732214610b59578063c9ac6b3114610a18578063d41c3a65146109d3578063e9eb3ba51461098e578063eb44fdd314610865578063f0b7f3b11461057c5763f980b80c1461018357600080fd5b34610578578060031936011261057857600435906001600160401b039060843582811690602480359160643590604435908590036105735760a4359687168097036105735760c435937f00000000000000000000000000000000000000000000000000000000000000006001600160a01b0316330361055c5760ff6001541661054a5761022689600052600260205263ffffffff60056040600020015416151590565b610532578181121561050957898313156105095761024d8361024883856132a5565b6132be565b61050957878610156104f75766038d7ea4c68000851080156104e5575b6104d3576102818361027c83856132a5565b61336e565b938a8513806104c6575b1561048c5763ffffffff8095169485158015610480575b61045f57908a87878e9488888f8f8f908b928b926040519a6102c38c61313e565b60018c5260208c019385855260408d0192835260608d0193845260808d0195865260a08d0196875260c08d019788528c019788526101008c01998a526101208c019a8b528d52600260205260408d209a511515928b549051151560081b61ff0016915160101b69ffffffffffffffff000016926001600160401b0360501b905160501b169360ff169071ffffffffffffffffffffffffffffffffffff19161717171788555160018801555160028701555160038601555160048501556005840191511663ffffffff1982541617905551906006015573__$e8b8ff73fdf5e99c3df6a4b39aa1f5b319$__9060036020526040832090823b1561045b57604484928994604051958694859363d886284b60e01b855260048501528301525af4801561045057610438575b50507f2453c1a297c658a5b6905526d84f0b4ac79c0d9cc5fb5601664602efee53121497604051968752602087015260408601526060850152608084015260a083015260c0820152a280f35b61044190613115565b61044c5789386103ec565b8980fd5b6040513d84823e3d90fd5b8380fd5b60405163515eb6ff60e11b815260048101879052620f424081840152604490fd5b50620f424086116102a2565b60649060136040519162461bcd60e51b83526020600484015282015272125b9d985b1a59081c985b99d94818dbdd5b9d606a1b6044820152fd5b50620f424085131561028b565b604051630b281d1960e31b8152600490fd5b50683635c9adc5dea00000851161026a565b60405163536a71af60e01b8152600490fd5b60405163040b1c7360e21b81526004810191909152602481019190915260448101829052606490fd5b6040516311453d1960e31b8152600481018a90528490fd5b60405163ab35696f60e01b8152600490fd5b60405163d86ad9cf60e01b81523360048201528490fd5b600080fd5b5080fd5b82346108625760a03660031901126108625760446024600435813583356105a16130a5565b906084359160ff6001541661054a576001600160801b03906105c1613564565b1690811561084a576000858152600260209081526040909120600581015491989163ffffffff161561083257805460ff811615610820576001600160401b0390818160101c16421061080e5760501c1642116107fc576106296106238261317b565b876132de565b61063b6106358261317b565b846132de565b8286136107df578286146107df5761066290600461065988866132a5565b910154906132be565b6107c35764e8d4a510008084029064e8d4a50fff61068283868a8c61432a565b0104948086116107a75750906106b7869261069d873361481d565b8860005260028b526006604060002001549085858b613dd0565b6040516330906fad60e21b81523360048201529788018790528701526064860181905260848601829052868660a48160007f00000000000000000000000000000000000000000000000000000000000000006001600160a01b03165af195861561079b5760009661076c575b506040519384528684015260408301526060820152827fc33c3b4ea19b40f02901978a93e787a0caa1d6fd23dfa228ae891fe96867e17160803393a46001600055604051908152f35b9095508681813d8311610794575b610784818361315a565b8101031261057357519487610723565b503d61077a565b6040513d6000823e3d90fd5b859150886040519263f6daf99360e01b84526004840152820152fd5b604051631150381b60e11b815260048101869052808801839052fd5b50604051631150381b60e11b815260048101869052808801839052fd5b60405163b2094b5960e01b8152600490fd5b604051630ee8c41760e31b8152600490fd5b604051635a90bb8d60e11b8152600490fd5b604051634cba20ef60e01b8152600481018890528890fd5b604051633b59e48960e11b8152600481018390528690fd5b80fd5b503461057857602036600319011261057857604051600435926108878261313e565b8082528060208301528060408301528060608301528060808301528060a08301528060c0830152808383015261010090808284015280610120809401526108e485600052600260205263ffffffff60056040600020015416151590565b1561097557906109026040836101409786955260026020522061317b565b906040519482511515865260208301511515602087015260408301516001600160401b03809116604088015260608401511660608701526080830151608087015260a083015160a087015260c083015160c0870152808301519086015263ffffffff818301511690850152015190820152f35b604051634cba20ef60e01b815260048101869052602490fd5b82346108625780600319360112610862576040517f00000000000000000000000000000000000000000000000000000000000000006001600160a01b03168152602090f35b82346108625780600319360112610862576040517f00000000000000000000000000000000000000000000000000000000000000006001600160a01b03168152602090f35b5090346108625760803660031901126108625750600435906024803560443591610a406130a5565b610a6086600052600260205263ffffffff60056040600020015416151590565b15610b42576001600160801b0316938415610b2b57856000526002602052610a8b604060002061317b565b90610a9682856132de565b610aa082866132de565b848413610b0e57848414610b0e5790610ac691610abd85876132a5565b910151906132be565b610af2575060209364e8d4a50fff92610ae89264e8d4a510008096029261432a565b0104604051908152f35b9160449260405192631150381b60e11b84526004840152820152fd5b604484868560405192631150381b60e11b84526004840152820152fd5b50604051633b59e48960e11b815260048101859052fd5b50604051634cba20ef60e01b815260048101869052fd5b82346108625780600319360112610862576020604051683635c9adc5dea000008152f35b823461086257610b8c366130ff565b7f00000000000000000000000000000000000000000000000000000000000000006001600160a01b03163303610f7257610bdc82600052600260205263ffffffff60056040600020015416151590565b15610f5957818352600260205260408320805460ff8160081c16610f405760028201548084128015610f33575b610f0857506101009083600184015561ffff1916179055817fca3a568dfb73dd7b7b3c0b28f130edbf4b688f534869c3de083664c43c11430e6020604051848152a260405163348dbbed60e21b8152600481019290925282826024817f00000000000000000000000000000000000000000000000000000000000000006001600160a01b03165afa918215610efd578392610e4e575b50825b8251811015610e4a57600581901b83016020015160405163eb02c30160e01b81526004810182905290919060a09081816024817f00000000000000000000000000000000000000000000000000000000000000006001600160a01b03165afa918215610e12578792610e1d575b50506040516331a9108f60e11b815260048101849052926020846024817f00000000000000000000000000000000000000000000000000000000000000006001600160a01b03165afa8015610e12576001948891610de3575b5085602084015113159283610dd5575b7f1a81eb5d53aa7bec98cadd0a6303be87e540f77ba90e63cd945e49b8eb697b0a916040918515610dcd57606001516001600160801b0316945b825195865215156020860152868060a01b031693a301610ca2565b508994610db2565b604081015187129350610d78565b610e05915060203d602011610e0b575b610dfd818361315a565b810190613277565b88610d68565b503d610df3565b6040513d89823e3d90fd5b610e3c9250803d10610e43575b610e34818361315a565b810190613204565b8680610d0f565b503d610e2a565b8380f35b9091503d8084833e610e60818361315a565b810160208282031261045b5781516001600160401b0392838211610ee1570181601f82011215610ef9578051928311610ee5578260051b9060405193610ea9602084018661315a565b8452602080850192820101928311610ee157602001905b828210610ed1575050509083610c9f565b8151815260209182019101610ec0565b8580fd5b634e487b7160e01b85526041600452602485fd5b8480fd5b6040513d85823e3d90fd5b6003830154604051638a228b0d60e01b81526004810186905260248101929092526044820152606490fd5b5060038301548413610c09565b604051634e0558fb60e01b815260048101859052602490fd5b604051634cba20ef60e01b815260048101839052602490fd5b60405163d86ad9cf60e01b8152336004820152602490fd5b8234610862578060031936011261086257602060ff600154166040519015158152f35b5034610578576020366003190112610578576040610140926004358152600260205220908154916001600160401b03916001820154906002830154600384015490600485015493600663ffffffff600588015416960154966040519860ff811615158a5260ff8160081c16151560208b0152818160101c1660408b015260501c166060890152608088015260a087015260c0860152840152610100830152610120820152f35b61304a565b82346108625760203660031901126108625760405163eb02c30160e01b8152600480359082015260a0816024817f00000000000000000000000000000000000000000000000000000000000000006001600160a01b03165afa90811561079b57602092916110f5575b5064e8d4a50fff610ae864e8d4a5100092836001600160801b0360608301511602908051906040878201519101519161361e565b61110e915060a03d60a011610e4357610e34818361315a565b826110c1565b82346108625760209081600319360112610862576004359060ff6001541661054a5761113e613564565b60405163eb02c30160e01b8152600481018390526001600160a01b037f0000000000000000000000000000000000000000000000000000000000000000811693919060a082602481885afa9182156112e35784926112c2575b506040516331a9108f60e11b815260048101849052908682602481895afa9182156112b7578592611298575b5033911603610f72578051835260028552846111e16040852061317b565b01511561127f57506111f281613487565b926111fd84336142af565b803b1561127b57828091602460405180948193630e3298ef60e21b83528760048401525af18015610efd57611267575b5090600191604051908482527ff18ca9717b47ea7629d17b5d7b2ede46e864155725629e7d0347924c2f6d112d863393a355604051908152f35b6112718391613115565b610578578461122d565b8280fd5b602490516040519063b23e5f9f60e01b82526004820152fd5b6112b0919250873d8911610e0b57610dfd818361315a565b90876111c3565b6040513d87823e3d90fd5b6112dc91925060a03d60a011610e4357610e34818361315a565b9086611197565b6040513d86823e3d90fd5b82346108625760403660031901126108625761130861308f565b60405163eb02c30160e01b8152600480359082015260a0816024817f00000000000000000000000000000000000000000000000000000000000000006001600160a01b03165afa92831561079b5760209364e8d4a50fff92610ae89291611390575b5064e8d4a51000938151906040866001600160801b03898601519316029301519161432a565b6113a9915060a03d60a011610e4357610e34818361315a565b8561136a565b8234610862576113be366130d5565b9060ff6001541661054a576113d1613564565b6001600160801b039081811693841561161a5760405163eb02c30160e01b8152600481018290526001600160a01b03957f000000000000000000000000000000000000000000000000000000000000000087169160a081602481865afa90811561079b576000916115fb575b506040516331a9108f60e11b8152600481018590526020988982602481885afa91821561079b576000926115dc575b5033911603610f725761147f8151613587565b805188820190815190604084019064e8d4a50fff6114ab83519264e8d4a5100093848a0296879261432a565b010499808b116115be57506060928994928c6114e8936114cb8e3361481d565b600286519451915192856000525260066040600020015493613dd0565b01511601948486116115a857813b1561057357604051630168610b60e51b8152600481018490526001600160801b0387166024820152916000908390604490829084905af190811561079b577fa9efae0c21a2db158c2af2d36b5c18dc14d792a79dfab662442466a80095ea5f9261158892611599575b50604080516001600160801b039687168152958816602087015285015233939081906060820190565b0390a3600160005560405191168152f35b6115a290613115565b8861155f565b634e487b7160e01b600052601160045260246000fd5b8a6044916040519163f6daf99360e01b835260048301526024820152fd5b6115f49192508a3d8c11610e0b57610dfd818361315a565b908a61146c565b611614915060a03d60a011610e4357610e34818361315a565b8861143d565b604051633b59e48960e11b815260048101869052602490fd5b82346108625780600319360112610862576020604051620f42408152f35b50903461086257611661366130ff565b9261168282600052600260205263ffffffff60056040600020015416151590565b15610f59578183526020936002855261169d6040852061317b565b916116a883836132de565b8201519081810191821285821290801582169115161761176c57916116ce918693613389565b928452600382526040808520905163694f552560e01b8152600481019190915263ffffffff9182166024820152921660448301528160648173__$e8b8ff73fdf5e99c3df6a4b39aa1f5b319$__5af49182156117605791611733575b50604051908152f35b90508181813d8311611759575b61174a818361315a565b8101031261057357513861172a565b503d611740565b604051903d90823e3d90fd5b634e487b7160e01b85526011600452602485fd5b82346108625760208060031936011261057857600435906001600160401b0380831161045b573660238401121561045b57826004013590811161045b57366024828501011161045b577f00000000000000000000000000000000000000000000000000000000000000006001600160a01b03163303610f72578382601f1992806024604051976118178588601f860116018a61315a565b828952018388013785010152600160ff1981541617600155604051918083528351938482850152855b85811061188657505050906040817f375c0abd968f4602b557f6ac9a48ffc89820233aa9becc5d7ff1176fd09eafff9386838784010152601f339601168101030190a280f35b818101830151858201604001528201611840565b82346108625760203660031901126108625760406080916004358152600360205220600181015490600263ffffffff91015490604051928181168452818160201c16602085015260401c1660408301526060820152f35b823461086257611900366130d5565b60ff6001541661054a57611912613564565b6001600160801b0382161561229a5760405163eb02c30160e01b8152600481018490526001600160a01b03929060a0816024817f000000000000000000000000000000000000000000000000000000000000000088165afa90811561079b576000916122da575b506040516331a9108f60e11b8152600481018690526020816024817f000000000000000000000000000000000000000000000000000000000000000089165afa90811561079b576000916122bb575b508433911603610f72576119dc8151613587565b6001600160801b036060820151166001600160801b0383161161229a57805160208201805190604084019164e8d4a50fff611a2e84519564e8d4a51000968794856001600160801b038c16029261361e565b01049580871061227c575083519051915192816000526002602052604060002090611a67611a6060068401549361317b565b8686613389565b608052916040516330ed1f5d60e01b81528160048201526701cdda4faccd0000602482015260208160448173__$cbaf8988f3c8d5491808e1d52afb16035a$__5af490811561079b5760009161224a575b50806000198101116115a85760001981016001600160801b038a16840211611f035750604051906316cf339960e21b928383526001600160801b038a16026004830152602482015260208160448173__$cbaf8988f3c8d5491808e1d52afb16035a$__5af490811561079b57600091611ed1575b506040519063ec6e92cd60e01b8252600482015260208160248173__$cbaf8988f3c8d5491808e1d52afb16035a$__5af490811561079b57600091611e9f575b50604051918252670de0b6b3a76400006004830152602482015260208160448173__$cbaf8988f3c8d5491808e1d52afb16035a$__5af490811561079b57600091611e6d575b50662386f26fc1000081108015611e5b575b611e495773__$e8b8ff73fdf5e99c3df6a4b39aa1f5b319$__91836000526003602052604060002090833b15610573576040516330f27d1f60e01b8152608051600482019390935263ffffffff9182166024820152911660448201526064810182905291600090839060849082905af490811561079b5760008051602061509c83398151915292602092611e3a575b50604051908152a45b611c6683336142af565b6001600160801b0360608184169201511603936001600160801b0385116115a8576001600160801b0385169384611d7657807f0000000000000000000000000000000000000000000000000000000000000000163b156105735760008091602460405180948193630e3298ef60e21b83528760048401527f0000000000000000000000000000000000000000000000000000000000000000165af1801561079b576040967fe3a918fd34698242cc99d5ba0987edaa47d8f5b8ed601ef29e08a9b7d72ecc49928692611d67575b505b87516001600160801b0395861681529416602085015260408401523392606090a3600160005582519182526020820152f35b611d7090613115565b88611d33565b807f0000000000000000000000000000000000000000000000000000000000000000163b1561057357604051630168610b60e51b8152600481018390526001600160801b0387166024820152906000908290604490829084907f0000000000000000000000000000000000000000000000000000000000000000165af1801561079b576040967fe3a918fd34698242cc99d5ba0987edaa47d8f5b8ed601ef29e08a9b7d72ecc49928692611e2b575b50611d35565b611e3490613115565b88611e25565b611e4390613115565b8b611c53565b60405163a2f9e7b560e01b8152600490fd5b5068056bc75e2d631000008111611bc4565b906020823d602011611e97575b81611e876020938361315a565b810103126108625750518a611bb2565b3d9150611e7a565b90506020813d602011611ec9575b81611eba6020938361315a565b8101031261057357518b611b6c565b3d9150611ead565b90506020813d602011611efb575b81611eec6020938361315a565b8101031261057357518b611b2c565b3d9150611edf565b9397969991611f2660009c949a929c198601826001600160801b038b16026135eb565b60001981019081116115a857611f446103e891600019880190613605565b11612225576001600160801b03881602966000975b8015158061221a575b156121f5578c9060001987018111156121ef5760001987015b604051926316cf339960e21b8452816004850152602484015260208360448173__$cbaf8988f3c8d5491808e1d52afb16035a$__5af492831561079b576000936121bb575b506040519263ec6e92cd60e01b8452600484015260208360248173__$cbaf8988f3c8d5491808e1d52afb16035a$__5af492831561079b57600093612187575b50604051926316cf339960e21b8452670de0b6b3a76400006004850152602484015260208360448173__$cbaf8988f3c8d5491808e1d52afb16035a$__5af492831561079b57600093612153575b50662386f26fc1000083108015612141575b611e49578b600052600360205260406000209173__$e8b8ff73fdf5e99c3df6a4b39aa1f5b319$__3b1561057357600084938f6120d660405196879384936330f27d1f60e01b8552608051916004860190949392916060926080830196835263ffffffff80921660208401521660408201520152565b038173__$e8b8ff73fdf5e99c3df6a4b39aa1f5b319$__5af492831561079b578a8e60008051602061509c83398151915260208f949861212c9961212699612132575b50604051908152a46135de565b9861360f565b97611f59565b61213b90613115565b38612119565b5068056bc75e2d631000008311612060565b90926020823d60201161217f575b8161216e6020938361315a565b81010312610862575051918f61204e565b3d9150612161565b90926020823d6020116121b3575b816121a26020938361315a565b81010312610862575051918f612000565b3d9150612195565b90926020823d6020116121e7575b816121d66020938361315a565b81010312610862575051918f611fc0565b3d91506121c9565b80611f7b565b9650975097509794509750505015611c5c575b6040516332581cb160e01b8152600490fd5b506103e88910611f62565b876001600160801b036024928160405193633b59e48960e11b85521602166004820152fd5b90506020813d602011612274575b816122656020938361315a565b8101031261057357518c611ab8565b3d9150612258565b604490876040519163f6daf99360e01b835260048301526024820152fd5b604051633b59e48960e11b81526001600160801b0383166004820152602490fd5b6122d4915060203d602011610e0b57610dfd818361315a565b866119c8565b6122f3915060a03d60a011610e4357610e34818361315a565b85611979565b823461086257612308366130bb565b9291907f00000000000000000000000000000000000000000000000000000000000000006001600160a01b03163303610f725761235b82600052600260205263ffffffff60056040600020015416151590565b15610f5957818352602093600285526123766040852061317b565b9161238183826132de565b61238b83836132de565b818113612434579161239e918693613389565b928452600382526040808520905163049bebd960e31b8152600481019190915263ffffffff9182166024820152921660448301528180606481015b038173__$e8b8ff73fdf5e99c3df6a4b39aa1f5b319$__5af491821561176057916124075750604051908152f35b90508181813d831161242d575b61241e818361315a565b8101031261057357518261172a565b503d612414565b60449160405191631150381b60e11b835260048301526024820152fd5b823461086257612460366130bb565b92919061248382600052600260205263ffffffff60056040600020015416151590565b15610f59578183526020936002855261249e6040852061317b565b916124a983826132de565b6124b383836132de565b81811361243457916124c6918693613389565b928452600382526040808520905163694f552560e01b8152600481019190915263ffffffff9182166024820152921660448301528180606481016123d9565b82346108625780600319360112610862577f00000000000000000000000000000000000000000000000000000000000000006001600160a01b03163303610f725760ff1960015416600155337ff5cbf596165cc457b2cd92e8d8450827ee314968160a5696402d75766fc52caf8280a280f35b82346108625760403660031901126108625761259261308f565b60405163eb02c30160e01b8152600480359082015260a0816024817f00000000000000000000000000000000000000000000000000000000000000006001600160a01b03165afa92831561079b5760209364e8d4a50fff92610ae8929161261a575b5064e8d4a51000938151906040866001600160801b03898601519316029301519161361e565b612633915060a03d60a011610e4357610e34818361315a565b856125f4565b8234610862578060031936011261086257602060405166038d7ea4c680008152f35b82346108625760403660031901126108625760243560ff6001541661054a57612682613564565b60405163eb02c30160e01b815260048035908201526001600160a01b03919060a0816024817f000000000000000000000000000000000000000000000000000000000000000087165afa90811561079b57600091612e60575b506040516331a9108f60e11b815260048035908201526020816024817f000000000000000000000000000000000000000000000000000000000000000088165afa90811561079b57600091612e41575b508333911603610f725761273f8151613587565b64e8d4a51000906001600160801b0391808360608401511602825192602081019264e8d4a50fff61277a84865197604086019889519161361e565b01049580871061227c575051915192519382600052600260205260406000206127b16127aa60068301549261317b565b8787613389565b9190926040516330ed1f5d60e01b81528260048201526701cdda4faccd0000602482015260208160448173__$cbaf8988f3c8d5491808e1d52afb16035a$__5af490811561079b57600091612e0f575b506000199181838101116115a8578183018711612b1957505050604051906316cf339960e21b948583526004830152602482015260208160448173__$cbaf8988f3c8d5491808e1d52afb16035a$__5af490811561079b57600091612ae7575b506040519063ec6e92cd60e01b8252600482015260208160248173__$cbaf8988f3c8d5491808e1d52afb16035a$__5af490811561079b57600091612ab5575b50604051938452670de0b6b3a76400006004850152602484015260208360448173__$cbaf8988f3c8d5491808e1d52afb16035a$__5af492831561079b57600093612a81575b50662386f26fc1000083108015612a6f575b611e495773__$e8b8ff73fdf5e99c3df6a4b39aa1f5b319$__90846000526003602052604060002091803b15610573576040516330f27d1f60e01b8152600481019390935263ffffffff938416602484015292166044820152606481018390529190600090839060849082905af490811561079b5760008051602061509c83398151915292602092612a60575b50604051908152a45b61299981336142af565b817f0000000000000000000000000000000000000000000000000000000000000000163b156105735760008092602460405180958193630e3298ef60e21b835260043560048401527f0000000000000000000000000000000000000000000000000000000000000000165af191821561079b57602092612a51575b5060405181815233907f467bc11eddf702a2091fefc23d3064f17939ba1005bd43304f15604c9b6f2a9b8460043592a36001600055604051908152f35b612a5a90613115565b82612a14565b612a6990613115565b88612986565b5068056bc75e2d6310000083116128f9565b90926020823d602011612aad575b81612a9c6020938361315a565b8101031261086257505191886128e7565b3d9150612a8f565b90506020813d602011612adf575b81612ad06020938361315a565b810103126105735751896128a1565b3d9150612ac3565b90506020813d602011612b11575b81612b026020938361315a565b81010312610573575189612861565b3d9150612af5565b612b31838394959b98939d99969d9a979a01836135eb565b8481019081116115a857612b4b6103e89186860190613605565b11612df55750956000965b80151580612dea575b15612dc857828401811115612dc2578383015b604051906316cf339960e21b82528060048301528b602483015260208260448173__$cbaf8988f3c8d5491808e1d52afb16035a$__5af491821561079b57600092612d8e575b506040519163ec6e92cd60e01b8352600483015260208260248173__$cbaf8988f3c8d5491808e1d52afb16035a$__5af491821561079b57600092612d5a575b50604051916316cf339960e21b8352670de0b6b3a76400006004840152602483015260208260448173__$cbaf8988f3c8d5491808e1d52afb16035a$__5af491821561079b57600092612d26575b50662386f26fc1000082108015612d14575b611e495786600052600360205260406000209273__$e8b8ff73fdf5e99c3df6a4b39aa1f5b319$__3b15610573576040516330f27d1f60e01b8152600481019490945263ffffffff8c811660248601528f1660448501526064840183905260008460848173__$e8b8ff73fdf5e99c3df6a4b39aa1f5b319$__5af493841561079b57898960008051602061509c8339815191526020612d08978f95612d0e9a6121325750604051908152a46135de565b9761360f565b96612b56565b5068056bc75e2d631000008211612c58565b90916020823d602011612d52575b81612d416020938361315a565b81010312610862575051908e612c46565b3d9150612d34565b90916020823d602011612d86575b81612d756020938361315a565b81010312610862575051908e612bf8565b3d9150612d68565b90916020823d602011612dba575b81612da96020938361315a565b81010312610862575051908e612bb8565b3d9150612d9c565b80612b72565b98509950505050505050501561298f576040516332581cb160e01b8152600490fd5b506103e88810612b5f565b604051633b59e48960e11b81529116600482015260249150fd5b90506020813d602011612e39575b81612e2a6020938361315a565b8101031261057357518b612801565b3d9150612e1d565b612e5a915060203d602011610e0b57610dfd818361315a565b8461272b565b612e79915060a03d60a011610e4357610e34818361315a565b836126db565b8234610862576020366003190112610862576020612e9e600435613487565b604051908152f35b83903461057857608036600319011261057857604435906024359060043590606435907f00000000000000000000000000000000000000000000000000000000000000006001600160a01b031633036130355750612f1a82600052600260205263ffffffff60056040600020015416151590565b15610f59578185526002602052612f336040862061317b565b612f3d81856132de565b612f4781866132de565b84841361301757612f5a86918686613389565b848352600360205260408320929173__$e8b8ff73fdf5e99c3df6a4b39aa1f5b319$__90813b1561045b576040516330f27d1f60e01b8152600481019590955263ffffffff908116602486015291909116604484015260648301849052829060849082905af4801561300c57612fe8575b50602060008051602061509c83398151915291604051908152a480f35b60008051602061509c8339815191529195613004602092613115565b959150612fcb565b6040513d88823e3d90fd5b6044848660405191631150381b60e11b835260048301526024820152fd5b63d86ad9cf60e01b8152336004820152602490fd5b34610573576000366003190112610573576040517f00000000000000000000000000000000000000000000000000000000000000006001600160a01b03168152602090f35b602435906001600160801b038216820361057357565b606435906001600160801b038216820361057357565b606090600319011261057357600435906024359060443590565b606090600319011261057357600435906024356001600160801b0381168103610573579060443590565b6040906003190112610573576004359060243590565b6001600160401b03811161312857604052565b634e487b7160e01b600052604160045260246000fd5b61014081019081106001600160401b0382111761312857604052565b90601f801991011681019081106001600160401b0382111761312857604052565b906040516131888161313e565b61012060068294805460ff81161515855260ff8160081c16151560208601526001600160401b0390818160101c16604087015260501c16606085015260018101546080850152600281015460a0850152600381015460c0850152600481015460e085015263ffffffff6005820154166101008501520154910152565b908160a091031261057357604051906001600160401b039060a0830182811184821017613128576040528051835260208101516020840152604081015160408401526060810151906001600160801b03821682036105735760809160608501520151908116810361057357608082015290565b9081602091031261057357516001600160a01b03811681036105735790565b90816020910312610573575190565b818103929160001380158285131691841216176115a857565b81156132c8570790565b634e487b7160e01b600052601260045260246000fd5b9060a0810180518084128015613361575b613336575060e061330461330f9251856132a5565b9201918251906132be565b613317575050565b6044925051604051916382fe647b60e01b835260048301526024820152fd5b60c0830151604051638a228b0d60e01b81526004810186905260248101929092526044820152606490fd5b5060c083015184136132ef565b81156132c857600160ff1b81146000198314166115a8570590565b92906133cc6133bb916133c46133a560a08701978851906132a5565b9160e087019263ffffffff95869185519061336e565b169751906132a5565b90519061336e565b60001981019081136001166115a85781610100911693015116808410908161347d575b5015613438578183116133fe57565b60405162461bcd60e51b8152602060048201526012602482015271496e76616c69642072616e67652062696e7360701b6044820152606490fd5b60405162461bcd60e51b815260206004820152601860248201527f52616e67652062696e73206f7574206f6620626f756e647300000000000000006044820152606490fd5b90508210386133ef565b60405163eb02c30160e01b8152600481019190915260a0816024817f00000000000000000000000000000000000000000000000000000000000000006001600160a01b03165afa90811561079b57600091613545575b50805160005260026020526134f5604060002061317b565b60208101511561353e5760806020830151910151809113159081613530575b501561352a57606001516001600160801b031690565b50600090565b905060408201511338613514565b5050600090565b61355e915060a03d60a011610e4357610e34818361315a565b386134dd565b600260005414613575576002600055565b604051633ee5aeb560e01b8152600490fd5b600052600260205260406000205460ff811615610820576001600160401b0390818160101c16421061080e5760501c1642116107fc57565b6000198101919082116115a857565b906103e89182039182116115a857565b919082039182116115a857565b919082018092116115a857565b80156132c8576000190490565b81156132c8570490565b60001981146115a85760010190565b91610120939161364061363b856000526002602052604060002090565b61317b565b9361364c858484613389565b96909501516040516330ed1f5d60e01b8152600481018290526701cdda4faccd0000602482015290959060208160448173__$cbaf8988f3c8d5491808e1d52afb16035a$__5af48015613ad9576136ab91600091613db1575b506135bf565b968786116136c25750506136bf95506149f8565b90565b9092506137169591935073__$e8b8ff73fdf5e99c3df6a4b39aa1f5b319$__60206136f7866000526003602052604060002090565b604051809981926304afd7ff60e21b8352600483019190602083019252565b0381845af4938415613ad95761378097600095613d8b575b5061374760209495966000526003602052604060002090565b60405163694f552560e01b8152600481019190915263ffffffff9182166024820152921660448301529095869190829081906064820190565b03915af4938415613ad957600094613d6a575b508115613994576103e86137b8866137b36137ae82886135eb565b6135bf565b613605565b11613d49579093926000919082905b84151580613d3e575b15613d30576138119596878611600014613d295787915b6040516316cf339960e21b8152600481018490526024810186905297602090899081906044820190565b038173__$cbaf8988f3c8d5491808e1d52afb16035a$__5af4978815613ad95761386098602091600091613d0c575b50604051809a819263ec6e92cd60e01b8352600483019190602083019252565b038173__$cbaf8988f3c8d5491808e1d52afb16035a$__5af4978815613ad9576138bd98602091600091613cef575b50604051809a81926316cf339960e21b835260048301919060206040840193670de0b6b3a764000081520152565b038173__$cbaf8988f3c8d5491808e1d52afb16035a$__5af4978815613ad957600098613cce575b506138ef886135f8565b8111613b52575b80151580613b41575b613994576040516330ed1f5d60e01b815260048101829052602481019890985260208860448173__$cbaf8988f3c8d5491808e1d52afb16035a$__5af4978815613ad957600098613b18575b508761395a61395f92846135de565b6135eb565b908115613994578181116139a6575b5081156139945761398a916139849197966135de565b9361360f565b95949592936137c7565b604051635fba374760e11b8152600490fd5b6040516316cf339960e21b8152600481019190915260248101829052909260208260448173__$cbaf8988f3c8d5491808e1d52afb16035a$__5af4918215613ad957613a1792602091600091613afb575b506040518094819263360816cf60e01b8352600483019190602083019252565b038173__$cbaf8988f3c8d5491808e1d52afb16035a$__5af4918215613ad957613a6f92602091600091613ade575b506040516330ed1f5d60e01b815260048101889052602481019190915292839081906044820190565b038173__$cbaf8988f3c8d5491808e1d52afb16035a$__5af4908115613ad957613aa192600092613aa8575b506135eb565b913861396e565b613acb91925060203d602011613ad2575b613ac3818361315a565b810190613296565b9038613a9b565b503d613ab9565b61079b565b613af59150823d8411613ad257613ac3818361315a565b38613a46565b613b129150823d8411613ad257613ac3818361315a565b386139f7565b61395a985090613b3961395f9260203d602011613ad257613ac3818361315a565b98509061394b565b50613b4b816135f8565b88116138ff565b96509050613b6a613b62856135ce565b86858961489c565b90858211613cc6575b6040516316cf339960e21b8152600481018390526024810185905260208160448173__$cbaf8988f3c8d5491808e1d52afb16035a$__5af4908115613ad957613be191602091600091613ca9575b506040518093819263ec6e92cd60e01b8352600483019190602083019252565b038173__$cbaf8988f3c8d5491808e1d52afb16035a$__5af4908115613ad957613c3e91602091600091613c8c575b50604051809381926316cf339960e21b835260048301919060206040840193670de0b6b3a764000081520152565b038173__$cbaf8988f3c8d5491808e1d52afb16035a$__5af4908115613ad957600091613c6d575b50966138f6565b613c86915060203d602011613ad257613ac3818361315a565b38613c66565b613ca39150823d8411613ad257613ac3818361315a565b38613c10565b613cc09150823d8411613ad257613ac3818361315a565b38613bc1565b859150613b73565b613ce891985060203d602011613ad257613ac3818361315a565b96386138e5565b613d069150823d8411613ad257613ac3818361315a565b3861388f565b613d239150823d8411613ad257613ac3818361315a565b38613840565b85916137e7565b509450505090506139945790565b506103e884106137d0565b604051633b59e48960e11b81526001600160801b0384166004820152602490fd5b613d8491945060203d602011613ad257613ac3818361315a565b9238613793565b6020949550613da961374791863d8811613ad257613ac3818361315a565b95945061372e565b613dca915060203d602011613ad257613ac3818361315a565b386136a5565b9193929092826000526002602052613dee611a60604060002061317b565b90916040516330ed1f5d60e01b81528160048201526701cdda4faccd0000602482015260208160448173__$cbaf8988f3c8d5491808e1d52afb16035a$__5af490811561079b5760009161427d575b50806000198101116115a8576000198101851161400b5750604051936316cf339960e21b85526004850152602484015260208360448173__$cbaf8988f3c8d5491808e1d52afb16035a$__5af492831561079b57600093613fd7575b506040519263ec6e92cd60e01b8452600484015260208360248173__$cbaf8988f3c8d5491808e1d52afb16035a$__5af492831561079b57600093613fa3575b50662386f26fc1000083108015613f91575b611e495773__$e8b8ff73fdf5e99c3df6a4b39aa1f5b319$__90846000526003602052604060002091803b15610573576040516330f27d1f60e01b8152600481019390935263ffffffff938416602484015292166044820152606481018390529190600090839060849082905af490811561079b5760008051602061509c83398151915292602092613f82575b50604051908152a4565b613f8b90613115565b38613f78565b5068056bc75e2d631000008311613eeb565b9092506020813d602011613fcf575b81613fbf6020938361315a565b8101031261057357519138613ed9565b3d9150613fb2565b9092506020813d602011614003575b81613ff36020938361315a565b8101031261057357519138613e99565b3d9150613fe6565b9361402260009998949692979399198601826135eb565b806000198101116115a8576103e890614042906000198881019101613605565b1161425b57936000945b80151580614250575b1561424057600019820181111561423a5760001982015b604051906316cf339960e21b825280600483015289602483015260208260448173__$cbaf8988f3c8d5491808e1d52afb16035a$__5af491821561079b57600092614206575b506040519163ec6e92cd60e01b8352600483015260208260248173__$cbaf8988f3c8d5491808e1d52afb16035a$__5af491821561079b576000926141d2575b50662386f26fc10000821080156141c0575b611e495784600052600360205260406000209273__$e8b8ff73fdf5e99c3df6a4b39aa1f5b319$__3b15610573576040516330f27d1f60e01b8152600481019490945263ffffffff8a811660248601528d1660448501526064840183905260008460848173__$e8b8ff73fdf5e99c3df6a4b39aa1f5b319$__5af493841561079b57878760008051602061509c83398151915260206141b4978d956141ba9a6121325750604051908152a46135de565b9561360f565b9461404c565b5068056bc75e2d631000008211614104565b9091506020813d6020116141fe575b816141ee6020938361315a565b81010312610573575190386140f2565b3d91506141e1565b9091506020813d602011614232575b816142226020938361315a565b81010312610573575190386140b2565b3d9150614215565b8061406c565b9798505050505050505061220857565b506103e88610614055565b604051633b59e48960e11b81526001600160801b039091166004820152602490fd5b90506020813d6020116142a7575b816142986020938361315a565b81010312610573575138613e3d565b3d915061428b565b90806142b9575050565b60405163a9059cbb60e01b60208201526001600160a01b039092166024830152604480830191909152815260808101906001600160401b0382118183101761312857614328916040527f000000000000000000000000000000000000000000000000000000000000000061503f565b565b91610120939161434761363b856000526002602052604060002090565b93614353858484613389565b96909501516040516330ed1f5d60e01b8152600481018290526701cdda4faccd0000602482015290959060208160448173__$cbaf8988f3c8d5491808e1d52afb16035a$__5af48015613ad9576143b191600091613db157506135bf565b968786116143c55750506136bf9550614e08565b9092506143fa9591935073__$e8b8ff73fdf5e99c3df6a4b39aa1f5b319$__60206136f7866000526003602052604060002090565b0381845af4938415613ad95761442a97600095613d8b575061374760209495966000526003602052604060002090565b03915af4938415613ad9576000946147fc575b508115613994576103e8614458866137b36137ae82886135eb565b11613d49579093926000919082905b841515806147f1575b15613d30576144b09596878611600014613d295787916040516316cf339960e21b8152600481018490526024810186905297602090899081906044820190565b038173__$cbaf8988f3c8d5491808e1d52afb16035a$__5af4978815613ad9576144fe98602091600091613d0c5750604051809a819263ec6e92cd60e01b8352600483019190602083019252565b038173__$cbaf8988f3c8d5491808e1d52afb16035a$__5af4978815613ad9576000986147d0575b50614530886135f8565b81116146f4575b801515806146e3575b613994576040516330ed1f5d60e01b815260048101829052602481019890985260208860448173__$cbaf8988f3c8d5491808e1d52afb16035a$__5af4978815613ad9576000986146ba575b508761395a61459b92846135de565b9281841115613994576040516316cf339960e21b815260048101859052602481019290925260208260448173__$cbaf8988f3c8d5491808e1d52afb16035a$__5af4918215613ad95761461292602091600091613afb57506040518094819263360816cf60e01b8352600483019190602083019252565b038173__$cbaf8988f3c8d5491808e1d52afb16035a$__5af4918215613ad95761466992602091600091613ade57506040516330ed1f5d60e01b815260048101889052602481019190915292839081906044820190565b038173__$cbaf8988f3c8d5491808e1d52afb16035a$__5af4908115613ad95761469a92600092613aa857506135eb565b918115613994576146b0916139849197966135de565b9594959293614467565b61395a9850906146db61459b9260203d602011613ad257613ac3818361315a565b98509061458c565b506146ed816135f8565b8811614540565b96509050614704613b62856135ce565b908582116147c8575b6040516316cf339960e21b8152600481018390526024810185905260208160448173__$cbaf8988f3c8d5491808e1d52afb16035a$__5af4908115613ad95761477a91602091600091613ca957506040518093819263ec6e92cd60e01b8352600483019190602083019252565b038173__$cbaf8988f3c8d5491808e1d52afb16035a$__5af4908115613ad9576000916147a9575b5096614537565b6147c2915060203d602011613ad257613ac3818361315a565b386147a2565b85915061470d565b6147ea91985060203d602011613ad257613ac3818361315a565b9638614526565b506103e88410614470565b61481691945060203d602011613ad257613ac3818361315a565b923861443d565b9080614827575050565b6040516323b872dd60e01b60208201526001600160a01b039092166024830152306044830152606480830191909152815260a08101906001600160401b0382118183101761312857614328916040527f000000000000000000000000000000000000000000000000000000000000000061503f565b9091939280156149f3576148b081866135eb565b6000198101919082116115a8576148c691613605565b9182156149ea575b6040516330ed1f5d60e01b808252600482018390526701cdda4faccd000060248301529260209173__$cbaf8988f3c8d5491808e1d52afb16035a$__908381604481855af4801561079b5784916000916149bb575b509560446040518094819382528860048301526802b5e3af16b188000060248301525af492831561079b5760009361498b575b505011614980575b50808210156149785750915b8083116149745750565b9150565b90509161496a565b600a9150043861495e565b9080929350813d83116149b4575b6149a3818361315a565b810103126105735751903880614956565b503d614999565b82819392503d83116149e3575b6149d2818361315a565b810103126105735783905138614923565b503d6149c8565b600192506148ce565b505050565b9293909173__$e8b8ff73fdf5e99c3df6a4b39aa1f5b319$__614a25856000526003602052604060002090565b906040958651956304afd7ff60e21b8752602098898880614a4f6004988983019190602083019252565b0381875af4978815613ad957600098614de9575b5073__$cbaf8988f3c8d5491808e1d52afb16035a$__958951926316cf339960e21b948585528c8580614aa68d888d840160209093929193604081019481520152565b03818c5af4948515613ad957614ade958e91600091614dcc575b508d518097819263ec6e92cd60e01b83528c83019190602083019252565b03818c5af4948515613ad957614b1d958e91600091614daf575b508d51809781928a83528c8301919060206040840193670de0b6b3a764000081520152565b03818c5af4948515613ad957600095614d90575b508c8c614b4e611a6061363b856000526002602052604060002090565b9990918b614b9f614b69876000526003602052604060002090565b925163694f552560e01b815291820192835263ffffffff948516602084015293909b1660408201528a9283918291606090910190565b03915af4968715613ad957600097614d71575b50614bbc856135f8565b8711614d5b5750505050614bfd9089614bd5858a6135de565b918a51809481926330ed1f5d60e01b988984528a840160209093929193604081019481520152565b0381895af4908115613ad957614c1a92600092614d4357506135eb565b958615614d33578015614d335786811115614d255787519182528382019081526020810196909652948790869081906040015b0381865af4948515613ad957614c85958891600091614d08575b5087518097819263360816cf60e01b83528683019190602083019252565b0381865af4958615613ad9578795600097614ce5575b505190815290810192835260208301949094528391829081906040015b03915af4918215613ad957600092614ccf57505090565b6136bf9250803d10613ad257613ac3818361315a565b614cb8919750614d0190873d8911613ad257613ac3818361315a565b9690614c9b565b614d1f9150823d8411613ad257613ac3818361315a565b38614c67565b505050505050505050600090565b8751635fba374760e11b81528490fd5b613acb9192508b3d8d11613ad257613ac3818361315a565b9750975097509750505050506136bf945061361e565b614d899197508d803d10613ad257613ac3818361315a565b9538614bb2565b614da89195508d803d10613ad257613ac3818361315a565b9338614b31565b614dc69150823d8411613ad257613ac3818361315a565b38614af8565b614de39150823d8411613ad257613ac3818361315a565b38614ac0565b614e019198508a3d8c11613ad257613ac3818361315a565b9638614a63565b9293909173__$e8b8ff73fdf5e99c3df6a4b39aa1f5b319$__614e35856000526003602052604060002090565b906040958651956304afd7ff60e21b8752602098898880614e5f6004988983019190602083019252565b0381875af4978815613ad957600098615020575b5073__$cbaf8988f3c8d5491808e1d52afb16035a$__958951926316cf339960e21b948585528c8580614eb68d888d840160209093929193604081019481520152565b03818c5af4948515613ad957614eed958e91600091614dcc57508d518097819263ec6e92cd60e01b83528c83019190602083019252565b03818c5af4948515613ad957600095615001575b508c8c614f1e611a6061363b856000526002602052604060002090565b9990918b614f39614b69876000526003602052604060002090565b03915af4968715613ad957600097614fe2575b508a15614fd257614f5c856135f8565b8711614fbc5750505050614f759089614bd5858a6135de565b0381895af4908115613ad957614f9292600092614d4357506135eb565b86811115614d25578751918252838201908152602081019690965294879086908190604001614c4d565b9750975097509750505050506136bf945061432a565b8b51635fba374760e11b81528890fd5b614ffa9197508d803d10613ad257613ac3818361315a565b9538614f4c565b6150199195508d803d10613ad257613ac3818361315a565b9338614f01565b6150389198508a3d8c11613ad257613ac3818361315a565b9638614e73565b906000602091828151910182855af11561079b576000513d61509257506001600160a01b0381163b155b6150705750565b604051635274afe760e01b81526001600160a01b039091166004820152602490fd5b6001141561506956fe221f633c06e4399f005a7cec7ba7c4ff189e3fe19092cbafe32a5f176ffc797fa2646970667358221220b8c5d368e431ee24e29990c7399eac5ea22c815adfb784b7a1cce76765928e9464736f6c63430008180033",
  "linkReferences": {
    "contracts/libraries/FixedPointMath.sol": {
      "FixedPointMathU": [
        {
          "length": 20,
          "start": 7287
        },
        {
          "length": 20,
          "start": 7403
        },
        {
          "length": 20,
          "start": 7467
        },
        {
          "length": 20,
          "start": 7537
        },
        {
          "length": 20,
          "start": 8575
        },
        {
          "length": 20,
          "start": 8639
        },
        {
          "length": 20,
          "start": 8717
        },
        {
          "length": 20,
          "start": 10688
        },
        {
          "length": 20,
          "start": 10784
        },
        {
          "length": 20,
          "start": 10848
        },
        {
          "length": 20,
          "start": 10918
        },
        {
          "length": 20,
          "start": 11639
        },
        {
          "length": 20,
          "start": 11703
        },
        {
          "length": 20,
          "start": 11781
        },
        {
          "length": 20,
          "start": 14433
        },
        {
          "length": 20,
          "start": 14840
        },
        {
          "length": 20,
          "start": 14919
        },
        {
          "length": 20,
          "start": 15012
        },
        {
          "length": 20,
          "start": 15114
        },
        {
          "length": 20,
          "start": 15279
        },
        {
          "length": 20,
          "start": 15358
        },
        {
          "length": 20,
          "start": 15446
        },
        {
          "length": 20,
          "start": 15737
        },
        {
          "length": 20,
          "start": 15816
        },
        {
          "length": 20,
          "start": 15909
        },
        {
          "length": 20,
          "start": 16380
        },
        {
          "length": 20,
          "start": 16472
        },
        {
          "length": 20,
          "start": 16536
        },
        {
          "length": 20,
          "start": 17009
        },
        {
          "length": 20,
          "start": 17073
        },
        {
          "length": 20,
          "start": 17768
        },
        {
          "length": 20,
          "start": 18071
        },
        {
          "length": 20,
          "start": 18149
        },
        {
          "length": 20,
          "start": 18251
        },
        {
          "length": 20,
          "start": 18347
        },
        {
          "length": 20,
          "start": 18425
        },
        {
          "length": 20,
          "start": 18512
        },
        {
          "length": 20,
          "start": 18707
        },
        {
          "length": 20,
          "start": 18785
        },
        {
          "length": 20,
          "start": 19162
        },
        {
          "length": 20,
          "start": 19529
        },
        {
          "length": 20,
          "start": 20569
        }
      ]
    },
    "contracts/libraries/LazyMulSegmentTree.sol": {
      "LazyMulSegmentTree": [
        {
          "length": 20,
          "start": 1405
        },
        {
          "length": 20,
          "start": 6379
        },
        {
          "length": 20,
          "start": 7597
        },
        {
          "length": 20,
          "start": 8792
        },
        {
          "length": 20,
          "start": 8893
        },
        {
          "length": 20,
          "start": 9664
        },
        {
          "length": 20,
          "start": 10978
        },
        {
          "length": 20,
          "start": 11856
        },
        {
          "length": 20,
          "start": 11937
        },
        {
          "length": 20,
          "start": 12621
        },
        {
          "length": 20,
          "start": 14513
        },
        {
          "length": 20,
          "start": 16596
        },
        {
          "length": 20,
          "start": 17148
        },
        {
          "length": 20,
          "start": 17229
        },
        {
          "length": 20,
          "start": 17844
        },
        {
          "length": 20,
          "start": 19425
        },
        {
          "length": 20,
          "start": 20465
        }
      ]
    }
  },
  "deployedLinkReferences": {
    "contracts/libraries/FixedPointMath.sol": {
      "FixedPointMathU": [
        {
          "length": 20,
          "start": 6804
        },
        {
          "length": 20,
          "start": 6920
        },
        {
          "length": 20,
          "start": 6984
        },
        {
          "length": 20,
          "start": 7054
        },
        {
          "length": 20,
          "start": 8092
        },
        {
          "length": 20,
          "start": 8156
        },
        {
          "length": 20,
          "start": 8234
        },
        {
          "length": 20,
          "start": 10205
        },
        {
          "length": 20,
          "start": 10301
        },
        {
          "length": 20,
          "start": 10365
        },
        {
          "length": 20,
          "start": 10435
        },
        {
          "length": 20,
          "start": 11156
        },
        {
          "length": 20,
          "start": 11220
        },
        {
          "length": 20,
          "start": 11298
        },
        {
          "length": 20,
          "start": 13950
        },
        {
          "length": 20,
          "start": 14357
        },
        {
          "length": 20,
          "start": 14436
        },
        {
          "length": 20,
          "start": 14529
        },
        {
          "length": 20,
          "start": 14631
        },
        {
          "length": 20,
          "start": 14796
        },
        {
          "length": 20,
          "start": 14875
        },
        {
          "length": 20,
          "start": 14963
        },
        {
          "length": 20,
          "start": 15254
        },
        {
          "length": 20,
          "start": 15333
        },
        {
          "length": 20,
          "start": 15426
        },
        {
          "length": 20,
          "start": 15897
        },
        {
          "length": 20,
          "start": 15989
        },
        {
          "length": 20,
          "start": 16053
        },
        {
          "length": 20,
          "start": 16526
        },
        {
          "length": 20,
          "start": 16590
        },
        {
          "length": 20,
          "start": 17285
        },
        {
          "length": 20,
          "start": 17588
        },
        {
          "length": 20,
          "start": 17666
        },
        {
          "length": 20,
          "start": 17768
        },
        {
          "length": 20,
          "start": 17864
        },
        {
          "length": 20,
          "start": 17942
        },
        {
          "length": 20,
          "start": 18029
        },
        {
          "length": 20,
          "start": 18224
        },
        {
          "length": 20,
          "start": 18302
        },
        {
          "length": 20,
          "start": 18679
        },
        {
          "length": 20,
          "start": 19046
        },
        {
          "length": 20,
          "start": 20086
        }
      ]
    },
    "contracts/libraries/LazyMulSegmentTree.sol": {
      "LazyMulSegmentTree": [
        {
          "length": 20,
          "start": 922
        },
        {
          "length": 20,
          "start": 5896
        },
        {
          "length": 20,
          "start": 7114
        },
        {
          "length": 20,
          "start": 8309
        },
        {
          "length": 20,
          "start": 8410
        },
        {
          "length": 20,
          "start": 9181
        },
        {
          "length": 20,
          "start": 10495
        },
        {
          "length": 20,
          "start": 11373
        },
        {
          "length": 20,
          "start": 11454
        },
        {
          "length": 20,
          "start": 12138
        },
        {
          "length": 20,
          "start": 14030
        },
        {
          "length": 20,
          "start": 16113
        },
        {
          "length": 20,
          "start": 16665
        },
        {
          "length": 20,
          "start": 16746
        },
        {
          "length": 20,
          "start": 17361
        },
        {
          "length": 20,
          "start": 18942
        },
        {
          "length": 20,
          "start": 19982
        }
      ]
    }
  }
}